{
  "contractName": "BeTheBookie",
  "abi": [
    {
      "inputs": [],
      "payable": false,
      "stateMutability": "nonpayable",
      "type": "constructor"
    },
    {
      "anonymous": false,
      "inputs": [
        {
          "indexed": false,
          "internalType": "uint256",
          "name": "id",
          "type": "uint256"
        }
      ],
      "name": "BetPlaced",
      "type": "event"
    },
    {
      "anonymous": false,
      "inputs": [
        {
          "indexed": false,
          "internalType": "uint256",
          "name": "id",
          "type": "uint256"
        }
      ],
      "name": "BetResult",
      "type": "event"
    },
    {
      "anonymous": false,
      "inputs": [
        {
          "indexed": false,
          "internalType": "uint256",
          "name": "id",
          "type": "uint256"
        }
      ],
      "name": "BookieProvidingLiquidity",
      "type": "event"
    },
    {
      "payable": true,
      "stateMutability": "payable",
      "type": "fallback"
    },
    {
      "constant": true,
      "inputs": [
        {
          "internalType": "uint256",
          "name": "",
          "type": "uint256"
        }
      ],
      "name": "betPools",
      "outputs": [
        {
          "internalType": "uint256",
          "name": "id",
          "type": "uint256"
        },
        {
          "internalType": "address payable",
          "name": "bookie",
          "type": "address"
        },
        {
          "internalType": "uint256",
          "name": "matchId",
          "type": "uint256"
        },
        {
          "internalType": "uint256",
          "name": "sideId",
          "type": "uint256"
        },
        {
          "internalType": "uint256",
          "name": "remainingLiquidity",
          "type": "uint256"
        },
        {
          "internalType": "uint256",
          "name": "odds",
          "type": "uint256"
        },
        {
          "internalType": "bool",
          "name": "closed",
          "type": "bool"
        },
        {
          "internalType": "uint256",
          "name": "createdTime",
          "type": "uint256"
        },
        {
          "internalType": "uint256",
          "name": "closedTime",
          "type": "uint256"
        }
      ],
      "payable": false,
      "stateMutability": "view",
      "type": "function"
    },
    {
      "constant": true,
      "inputs": [
        {
          "internalType": "uint256",
          "name": "",
          "type": "uint256"
        }
      ],
      "name": "bets",
      "outputs": [
        {
          "internalType": "uint256",
          "name": "id",
          "type": "uint256"
        },
        {
          "internalType": "uint256",
          "name": "liquidityId",
          "type": "uint256"
        },
        {
          "internalType": "uint256",
          "name": "bookieCollateral",
          "type": "uint256"
        },
        {
          "internalType": "uint256",
          "name": "punditCollateral",
          "type": "uint256"
        },
        {
          "internalType": "uint256",
          "name": "bookiePayout",
          "type": "uint256"
        },
        {
          "internalType": "uint256",
          "name": "punditPayout",
          "type": "uint256"
        },
        {
          "internalType": "uint256",
          "name": "feePaid",
          "type": "uint256"
        },
        {
          "internalType": "address payable",
          "name": "bookie",
          "type": "address"
        },
        {
          "internalType": "address payable",
          "name": "pundit",
          "type": "address"
        },
        {
          "internalType": "uint256",
          "name": "odds",
          "type": "uint256"
        },
        {
          "internalType": "enum BeTheBookie.MatchResult",
          "name": "result",
          "type": "uint8"
        },
        {
          "internalType": "uint256",
          "name": "createdTime",
          "type": "uint256"
        },
        {
          "internalType": "uint256",
          "name": "closedTime",
          "type": "uint256"
        },
        {
          "internalType": "bool",
          "name": "closed",
          "type": "bool"
        }
      ],
      "payable": false,
      "stateMutability": "view",
      "type": "function"
    },
    {
      "constant": true,
      "inputs": [],
      "name": "isOwner",
      "outputs": [
        {
          "internalType": "bool",
          "name": "",
          "type": "bool"
        }
      ],
      "payable": false,
      "stateMutability": "view",
      "type": "function"
    },
    {
      "constant": true,
      "inputs": [],
      "name": "owner",
      "outputs": [
        {
          "internalType": "address",
          "name": "",
          "type": "address"
        }
      ],
      "payable": false,
      "stateMutability": "view",
      "type": "function"
    },
    {
      "constant": true,
      "inputs": [],
      "name": "isNotExcluded",
      "outputs": [
        {
          "internalType": "bool",
          "name": "",
          "type": "bool"
        }
      ],
      "payable": false,
      "stateMutability": "view",
      "type": "function"
    },
    {
      "constant": false,
      "inputs": [
        {
          "internalType": "bool",
          "name": "paused",
          "type": "bool"
        }
      ],
      "name": "setContractState",
      "outputs": [
        {
          "internalType": "bool",
          "name": "",
          "type": "bool"
        }
      ],
      "payable": false,
      "stateMutability": "nonpayable",
      "type": "function"
    },
    {
      "constant": false,
      "inputs": [],
      "name": "selfExclude",
      "outputs": [
        {
          "internalType": "bool",
          "name": "_excluded",
          "type": "bool"
        }
      ],
      "payable": false,
      "stateMutability": "nonpayable",
      "type": "function"
    },
    {
      "constant": true,
      "inputs": [],
      "name": "contractBalance",
      "outputs": [
        {
          "internalType": "uint256",
          "name": "_balance",
          "type": "uint256"
        }
      ],
      "payable": false,
      "stateMutability": "view",
      "type": "function"
    },
    {
      "constant": false,
      "inputs": [
        {
          "internalType": "address",
          "name": "_address",
          "type": "address"
        }
      ],
      "name": "setOracleAddress",
      "outputs": [
        {
          "internalType": "bool",
          "name": "",
          "type": "bool"
        }
      ],
      "payable": false,
      "stateMutability": "nonpayable",
      "type": "function"
    },
    {
      "constant": true,
      "inputs": [],
      "name": "testOracleValid",
      "outputs": [
        {
          "internalType": "bool",
          "name": "",
          "type": "bool"
        }
      ],
      "payable": false,
      "stateMutability": "view",
      "type": "function"
    },
    {
      "constant": false,
      "inputs": [
        {
          "internalType": "uint256",
          "name": "_liquidityId",
          "type": "uint256"
        },
        {
          "internalType": "uint256",
          "name": "_odds",
          "type": "uint256"
        }
      ],
      "name": "placeBet",
      "outputs": [
        {
          "internalType": "uint256",
          "name": "_id",
          "type": "uint256"
        }
      ],
      "payable": true,
      "stateMutability": "payable",
      "type": "function"
    },
    {
      "constant": false,
      "inputs": [
        {
          "internalType": "uint256",
          "name": "_matchId",
          "type": "uint256"
        }
      ],
      "name": "matchCompleteHandlePayouts",
      "outputs": [
        {
          "internalType": "bool",
          "name": "_success",
          "type": "bool"
        }
      ],
      "payable": true,
      "stateMutability": "payable",
      "type": "function"
    },
    {
      "constant": false,
      "inputs": [
        {
          "internalType": "uint256",
          "name": "_betId",
          "type": "uint256"
        },
        {
          "internalType": "enum BeTheBookie.MatchResult",
          "name": "_result",
          "type": "uint8"
        }
      ],
      "name": "setResult",
      "outputs": [
        {
          "internalType": "bool",
          "name": "_success",
          "type": "bool"
        }
      ],
      "payable": true,
      "stateMutability": "payable",
      "type": "function"
    },
    {
      "constant": true,
      "inputs": [
        {
          "internalType": "address",
          "name": "a",
          "type": "address"
        },
        {
          "internalType": "bool",
          "name": "asBookie",
          "type": "bool"
        }
      ],
      "name": "getActiveBetsByAddress",
      "outputs": [
        {
          "internalType": "uint256[]",
          "name": "",
          "type": "uint256[]"
        }
      ],
      "payable": false,
      "stateMutability": "view",
      "type": "function"
    },
    {
      "constant": true,
      "inputs": [
        {
          "internalType": "address",
          "name": "a",
          "type": "address"
        },
        {
          "internalType": "bool",
          "name": "asBookie",
          "type": "bool"
        }
      ],
      "name": "getInActiveBetsByAddress",
      "outputs": [
        {
          "internalType": "uint256[]",
          "name": "",
          "type": "uint256[]"
        }
      ],
      "payable": false,
      "stateMutability": "view",
      "type": "function"
    },
    {
      "constant": true,
      "inputs": [
        {
          "internalType": "uint256",
          "name": "_id",
          "type": "uint256"
        }
      ],
      "name": "getBetById",
      "outputs": [
        {
          "internalType": "uint256",
          "name": "matchId",
          "type": "uint256"
        },
        {
          "internalType": "uint256",
          "name": "sideId",
          "type": "uint256"
        },
        {
          "internalType": "uint256",
          "name": "odds",
          "type": "uint256"
        },
        {
          "internalType": "uint256",
          "name": "bookieCollateral",
          "type": "uint256"
        },
        {
          "internalType": "uint256",
          "name": "punditCollateral",
          "type": "uint256"
        },
        {
          "internalType": "enum BeTheBookie.MatchResult",
          "name": "result",
          "type": "uint8"
        },
        {
          "internalType": "uint256",
          "name": "bookiePayout",
          "type": "uint256"
        },
        {
          "internalType": "uint256",
          "name": "punditPayout",
          "type": "uint256"
        },
        {
          "internalType": "uint256",
          "name": "feePaid",
          "type": "uint256"
        },
        {
          "internalType": "uint256",
          "name": "lastUpdateTime",
          "type": "uint256"
        },
        {
          "internalType": "bool",
          "name": "closed",
          "type": "bool"
        }
      ],
      "payable": false,
      "stateMutability": "view",
      "type": "function"
    },
    {
      "constant": false,
      "inputs": [
        {
          "internalType": "uint256",
          "name": "_matchId",
          "type": "uint256"
        },
        {
          "internalType": "uint256",
          "name": "_sideId",
          "type": "uint256"
        },
        {
          "internalType": "uint256",
          "name": "_odds",
          "type": "uint256"
        }
      ],
      "name": "addLiquidity",
      "outputs": [
        {
          "internalType": "uint256",
          "name": "_id",
          "type": "uint256"
        }
      ],
      "payable": true,
      "stateMutability": "payable",
      "type": "function"
    },
    {
      "constant": false,
      "inputs": [
        {
          "internalType": "uint256",
          "name": "_liquidityId",
          "type": "uint256"
        },
        {
          "internalType": "uint256",
          "name": "_odds",
          "type": "uint256"
        }
      ],
      "name": "adjustOdds",
      "outputs": [
        {
          "internalType": "bool",
          "name": "_result",
          "type": "bool"
        }
      ],
      "payable": false,
      "stateMutability": "nonpayable",
      "type": "function"
    },
    {
      "constant": false,
      "inputs": [
        {
          "internalType": "uint256",
          "name": "_id",
          "type": "uint256"
        }
      ],
      "name": "refundLiquidity",
      "outputs": [
        {
          "internalType": "bool",
          "name": "_result",
          "type": "bool"
        }
      ],
      "payable": true,
      "stateMutability": "payable",
      "type": "function"
    },
    {
      "constant": true,
      "inputs": [
        {
          "internalType": "address",
          "name": "bookie",
          "type": "address"
        }
      ],
      "name": "getBookieLiquidity",
      "outputs": [
        {
          "internalType": "uint256[]",
          "name": "",
          "type": "uint256[]"
        }
      ],
      "payable": false,
      "stateMutability": "view",
      "type": "function"
    },
    {
      "constant": true,
      "inputs": [],
      "name": "getAllAvailableLiquidity",
      "outputs": [
        {
          "internalType": "uint256[]",
          "name": "",
          "type": "uint256[]"
        }
      ],
      "payable": false,
      "stateMutability": "view",
      "type": "function"
    },
    {
      "constant": true,
      "inputs": [
        {
          "internalType": "uint256",
          "name": "_id",
          "type": "uint256"
        }
      ],
      "name": "getLiquidityById",
      "outputs": [
        {
          "internalType": "uint256",
          "name": "id",
          "type": "uint256"
        },
        {
          "internalType": "uint256",
          "name": "matchId",
          "type": "uint256"
        },
        {
          "internalType": "uint256",
          "name": "sideId",
          "type": "uint256"
        },
        {
          "internalType": "uint256",
          "name": "remainingLiquidity",
          "type": "uint256"
        },
        {
          "internalType": "uint256",
          "name": "odds",
          "type": "uint256"
        },
        {
          "internalType": "bool",
          "name": "closed",
          "type": "bool"
        },
        {
          "internalType": "uint256",
          "name": "createdTime",
          "type": "uint256"
        }
      ],
      "payable": false,
      "stateMutability": "view",
      "type": "function"
    }
  ],
  "bytecode": "0x608060405266038d7ea4c6800060035566038d7ea4c680006005556000600660006101000a81548173ffffffffffffffffffffffffffffffffffffffff021916908373ffffffffffffffffffffffffffffffffffffffff160217905550600660009054906101000a900473ffffffffffffffffffffffffffffffffffffffff16600760006101000a81548173ffffffffffffffffffffffffffffffffffffffff021916908373ffffffffffffffffffffffffffffffffffffffff1602179055503480156100cb57600080fd5b50336000806101000a81548173ffffffffffffffffffffffffffffffffffffffff021916908373ffffffffffffffffffffffffffffffffffffffff16021790555033600160006101000a81548173ffffffffffffffffffffffffffffffffffffffff021916908373ffffffffffffffffffffffffffffffffffffffff160217905550612f868061015c6000396000f3fe6080604052600436106101345760003560e01c80638b7afe2e116100ab578063ca133d811161006f578063ca133d8114610825578063ca3d5e84146108dc578063d1a371501461090b578063ddf07c1f1461093a578063e57bcd4a146109ec578063ec9fdc1014610a4957610134565b80638b7afe2e146106a25780638da5cb5b146106cd5780638f32d59b146107245780639b5fa0a514610753578063aefd8dc7146107d057610134565b80634afe62b5116100fd5780634afe62b5146104415780634c69c00f1461048d57806356150a36146104f65780635d62610f14610549578063605c43de1461058f5780638a216afe1461063657610134565b806221958d1461013957806322af00fa1461017f57806330096ba714610293578063343d467414610339578063422f1043146103eb575b600080fd5b6101656004803603602081101561014f57600080fd5b8101908080359060200190929190505050610a78565b604051808215151515815260200191505060405180910390f35b34801561018b57600080fd5b506101b8600480360360208110156101a257600080fd5b8101908080359060200190929190505050610be5565b604051808f81526020018e81526020018d81526020018c81526020018b81526020018a81526020018981526020018873ffffffffffffffffffffffffffffffffffffffff1673ffffffffffffffffffffffffffffffffffffffff1681526020018773ffffffffffffffffffffffffffffffffffffffff1673ffffffffffffffffffffffffffffffffffffffff16815260200186815260200185600381111561025c57fe5b60ff168152602001848152602001838152602001821515151581526020019e50505050505050505050505050505060405180910390f35b34801561029f57600080fd5b506102e2600480360360208110156102b657600080fd5b81019080803573ffffffffffffffffffffffffffffffffffffffff169060200190929190505050610cb8565b6040518080602001828103825283818151815260200191508051906020019060200280838360005b8381101561032557808201518184015260208101905061030a565b505050509050019250505060405180910390f35b34801561034557600080fd5b506103946004803603604081101561035c57600080fd5b81019080803573ffffffffffffffffffffffffffffffffffffffff169060200190929190803515159060200190929190505050610d54565b6040518080602001828103825283818151815260200191508051906020019060200280838360005b838110156103d75780820151818401526020810190506103bc565b505050509050019250505060405180910390f35b61042b6004803603606081101561040157600080fd5b81019080803590602001909291908035906020019092919080359060200190929190505050610dfd565b6040518082815260200191505060405180910390f35b6104776004803603604081101561045757600080fd5b8101908080359060200190929190803590602001909291905050506113ed565b6040518082815260200191505060405180910390f35b34801561049957600080fd5b506104dc600480360360208110156104b057600080fd5b81019080803573ffffffffffffffffffffffffffffffffffffffff169060200190929190505050611c5e565b604051808215151515815260200191505060405180910390f35b61052f6004803603604081101561050c57600080fd5b8101908080359060200190929190803560ff169060200190929190505050611dbf565b604051808215151515815260200191505060405180910390f35b6105756004803603602081101561055f57600080fd5b8101908080359060200190929190505050612212565b604051808215151515815260200191505060405180910390f35b34801561059b57600080fd5b506105c8600480360360208110156105b257600080fd5b810190808035906020019092919050505061255c565b604051808c81526020018b81526020018a81526020018981526020018881526020018760038111156105f657fe5b60ff168152602001868152602001858152602001848152602001838152602001821515151581526020019b50505050505050505050505060405180910390f35b34801561064257600080fd5b5061064b612682565b6040518080602001828103825283818151815260200191508051906020019060200280838360005b8381101561068e578082015181840152602081019050610673565b505050509050019250505060405180910390f35b3480156106ae57600080fd5b506106b76127c5565b6040518082815260200191505060405180910390f35b3480156106d957600080fd5b506106e26127cd565b604051808273ffffffffffffffffffffffffffffffffffffffff1673ffffffffffffffffffffffffffffffffffffffff16815260200191505060405180910390f35b34801561073057600080fd5b506107396127f6565b604051808215151515815260200191505060405180910390f35b34801561075f57600080fd5b5061078c6004803603602081101561077657600080fd5b810190808035906020019092919050505061284d565b604051808881526020018781526020018681526020018581526020018481526020018315151515815260200182815260200197505050505050505060405180910390f35b3480156107dc57600080fd5b5061080b600480360360208110156107f357600080fd5b810190808035151590602001909291905050506128e8565b604051808215151515815260200191505060405180910390f35b34801561083157600080fd5b5061085e6004803603602081101561084857600080fd5b810190808035906020019092919050505061292c565b604051808a81526020018973ffffffffffffffffffffffffffffffffffffffff1673ffffffffffffffffffffffffffffffffffffffff16815260200188815260200187815260200186815260200185815260200184151515158152602001838152602001828152602001995050505050505050505060405180910390f35b3480156108e857600080fd5b506108f16129b4565b604051808215151515815260200191505060405180910390f35b34801561091757600080fd5b50610920612a5e565b604051808215151515815260200191505060405180910390f35b34801561094657600080fd5b506109956004803603604081101561095d57600080fd5b81019080803573ffffffffffffffffffffffffffffffffffffffff169060200190929190803515159060200190929190505050612ab3565b6040518080602001828103825283818151815260200191508051906020019060200280838360005b838110156109d85780820151818401526020810190506109bd565b505050509050019250505060405180910390f35b3480156109f857600080fd5b50610a2f60048036036040811015610a0f57600080fd5b810190808035906020019092919080359060200190929190505050612b5c565b604051808215151515815260200191505060405180910390f35b348015610a5557600080fd5b50610a5e612c73565b604051808215151515815260200191505060405180910390f35b6000803414610a8657600080fd5b6000600b600c60008581526020019081526020016000205481548110610aa857fe5b90600052602060002090600902019050610ac06127f6565b80610b1a57508060010160009054906101000a900473ffffffffffffffffffffffffffffffffffffffff1673ffffffffffffffffffffffffffffffffffffffff163373ffffffffffffffffffffffffffffffffffffffff16145b610b2357600080fd5b8060060160009054906101000a900460ff1615610b3f57600080fd5b60018160060160006101000a81548160ff021916908315150217905550600081600401549050600082600401819055508160010160009054906101000a900473ffffffffffffffffffffffffffffffffffffffff1673ffffffffffffffffffffffffffffffffffffffff166108fc829081150290604051600060405180830381858888f19350505050158015610bd9573d6000803e3d6000fd5b50600192505050919050565b60088181548110610bf257fe5b90600052602060002090600e02016000915090508060000154908060010154908060020154908060030154908060040154908060050154908060060154908060070160009054906101000a900473ffffffffffffffffffffffffffffffffffffffff16908060080160009054906101000a900473ffffffffffffffffffffffffffffffffffffffff169080600901549080600a0160009054906101000a900460ff169080600b01549080600c01549080600d0160009054906101000a900460ff1690508e565b606080600d60008473ffffffffffffffffffffffffffffffffffffffff1673ffffffffffffffffffffffffffffffffffffffff168152602001908152602001600020805480602002602001604051908101604052809291908181526020018280548015610d4457602002820191906000526020600020905b815481526020019060010190808311610d30575b5050505050905080915050919050565b606080600a60008573ffffffffffffffffffffffffffffffffffffffff1673ffffffffffffffffffffffffffffffffffffffff168152602001908152602001600020805480602002602001604051908101604052809291908181526020018280548015610de057602002820191906000526020600020905b815481526020019060010190808311610dcc575b50505050509050610df48185856000612ce4565b91505092915050565b6000600160149054906101000a900460ff1615610e1957600080fd5b610e21612a5e565b610e2a57600080fd5b60648211610e3757600080fd5b6127118210610e4557600080fd5b600554341015610e5457600080fd5b600060606000806060806000600760009054906101000a900473ffffffffffffffffffffffffffffffffffffffff1673ffffffffffffffffffffffffffffffffffffffff16633d092b3d8c6040518263ffffffff1660e01b81526004018082815260200191505060006040518083038186803b158015610ed357600080fd5b505afa158015610ee7573d6000803e3d6000fd5b505050506040513d6000823e3d601f19601f8201168201806040525060e0811015610f1157600080fd5b810190808051906020019092919080516040519392919084640100000000821115610f3b57600080fd5b83820191506020820185811115610f5157600080fd5b8251866001820283011164010000000082111715610f6e57600080fd5b8083526020830192505050908051906020019080838360005b83811015610fa2578082015181840152602081019050610f87565b50505050905090810190601f168015610fcf5780820380516001836020036101000a031916815260200191505b5060405260200180519060200190929190805190602001909291908051604051939291908464010000000082111561100657600080fd5b8382019150602082018581111561101c57600080fd5b825186600182028301116401000000008211171561103957600080fd5b8083526020830192505050908051906020019080838360005b8381101561106d578082015181840152602081019050611052565b50505050905090810190601f16801561109a5780820380516001836020036101000a031916815260200191505b50604052602001805160405193929190846401000000008211156110bd57600080fd5b838201915060208201858111156110d357600080fd5b82518660018202830111640100000000821117156110f057600080fd5b8083526020830192505050908051906020019080838360005b83811015611124578082015181840152602081019050611109565b50505050905090810190601f1680156111515780820380516001836020036101000a031916815260200191505b506040526020018051906020019092919050505096509650965096509650965096508061117d57600080fd5b60008a148061118b5750848a145b806111955750838a145b61119e57600080fd5b6004600081546001019190508190559750600b6040518061012001604052808a81526020013373ffffffffffffffffffffffffffffffffffffffff1681526020018d81526020018c81526020013481526020018b81526020016000151581526020014281526020016000815250908060018154018082558091505090600182039060005260206000209060090201600090919290919091506000820151816000015560208201518160010160006101000a81548173ffffffffffffffffffffffffffffffffffffffff021916908373ffffffffffffffffffffffffffffffffffffffff16021790555060408201518160020155606082015181600301556080820151816004015560a0820151816005015560c08201518160060160006101000a81548160ff02191690831515021790555060e08201518160070155610100820151816008015550505060018803600c60008a815260200190815260200160002081905550600d60003373ffffffffffffffffffffffffffffffffffffffff1673ffffffffffffffffffffffffffffffffffffffff168152602001908152602001600020889080600181540180825580915050906001820390600052602060002001600090919290919091505550600e60008c81526020019081526020016000208890806001815401808255809150509060018203906000526020600020016000909192909190915055507fc2b9787b5865f184d65978c61b1c3fbd1b06bdd85ec4abac835122473ea9d4d9886040518082815260200191505060405180910390a1505050505050509392505050565b6000600160149054906101000a900460ff161561140957600080fd5b611411612a5e565b61141a57600080fd5b60035434101561142957600080fd5b6000600b600c6000868152602001908152602001600020548154811061144b57fe5b90600052602060002090600902019050600015158160060160009054906101000a900460ff1615151461147d57600080fd5b8060010160009054906101000a900473ffffffffffffffffffffffffffffffffffffffff1673ffffffffffffffffffffffffffffffffffffffff163373ffffffffffffffffffffffffffffffffffffffff1614156114da57600080fd5b828160050154146114ea57600080fd5b6000346115016114fa3487612eea565b6064612f21565b039050808260040154101561151557600080fd5b600060606000806060806000600760009054906101000a900473ffffffffffffffffffffffffffffffffffffffff1673ffffffffffffffffffffffffffffffffffffffff16633d092b3d8a600201546040518263ffffffff1660e01b81526004018082815260200191505060006040518083038186803b15801561159857600080fd5b505afa1580156115ac573d6000803e3d6000fd5b505050506040513d6000823e3d601f19601f8201168201806040525060e08110156115d657600080fd5b81019080805190602001909291908051604051939291908464010000000082111561160057600080fd5b8382019150602082018581111561161657600080fd5b825186600182028301116401000000008211171561163357600080fd5b8083526020830192505050908051906020019080838360005b8381101561166757808201518184015260208101905061164c565b50505050905090810190601f1680156116945780820380516001836020036101000a031916815260200191505b506040526020018051906020019092919080519060200190929190805160405193929190846401000000008211156116cb57600080fd5b838201915060208201858111156116e157600080fd5b82518660018202830111640100000000821117156116fe57600080fd5b8083526020830192505050908051906020019080838360005b83811015611732578082015181840152602081019050611717565b50505050905090810190601f16801561175f5780820380516001836020036101000a031916815260200191505b506040526020018051604051939291908464010000000082111561178257600080fd5b8382019150602082018581111561179857600080fd5b82518660018202830111640100000000821117156117b557600080fd5b8083526020830192505050908051906020019080838360005b838110156117e95780820151818401526020810190506117ce565b50505050905090810190601f1680156118165780820380516001836020036101000a031916815260200191505b506040526020018051906020019092919050505096509650965096509650965096508061184257600080fd5b60026000815460010191905081905599506008604051806101c001604052808c81526020018e81526020018a81526020013481526020016000815260200160008152602001600081526020018b60010160009054906101000a900473ffffffffffffffffffffffffffffffffffffffff1673ffffffffffffffffffffffffffffffffffffffff1681526020013373ffffffffffffffffffffffffffffffffffffffff1681526020018d8152602001600060038111156118fd57fe5b815260200142815260200160008152602001600015158152509080600181540180825580915050906001820390600052602060002090600e020160009091929091909150600082015181600001556020820151816001015560408201518160020155606082015181600301556080820151816004015560a0820151816005015560c0820151816006015560e08201518160070160006101000a81548173ffffffffffffffffffffffffffffffffffffffff021916908373ffffffffffffffffffffffffffffffffffffffff1602179055506101008201518160080160006101000a81548173ffffffffffffffffffffffffffffffffffffffff021916908373ffffffffffffffffffffffffffffffffffffffff160217905550610120820151816009015561014082015181600a0160006101000a81548160ff02191690836003811115611a4657fe5b021790555061016082015181600b015561018082015181600c01556101a082015181600d0160006101000a81548160ff02191690831515021790555050505060018a03600960008c815260200190815260200160002081905550600a60003373ffffffffffffffffffffffffffffffffffffffff1673ffffffffffffffffffffffffffffffffffffffff1681526020019081526020016000208a9080600181540180825580915050906001820390600052602060002001600090919290919091505550600a60008a60010160009054906101000a900473ffffffffffffffffffffffffffffffffffffffff1673ffffffffffffffffffffffffffffffffffffffff1673ffffffffffffffffffffffffffffffffffffffff1681526020019081526020016000208a9080600181540180825580915050906001820390600052602060002001600090919290919091505550600f60008a6002015481526020019081526020016000208a9080600181540180825580915050906001820390600052602060002001600090919290919091505550611be5896004015489612f3a565b8960040181905550600089600401541415611c185760018960060160006101000a81548160ff0219169083151502179055505b7fde1fae6a99c0f84e9bee8b7f9d2d7663e46384ff079f389d5b4b6018b56e56e98a6040518082815260200191505060405180910390a150505050505050505092915050565b6000611c686127f6565b611c7157600080fd5b81600660006101000a81548173ffffffffffffffffffffffffffffffffffffffff021916908373ffffffffffffffffffffffffffffffffffffffff160217905550600660009054906101000a900473ffffffffffffffffffffffffffffffffffffffff16600760006101000a81548173ffffffffffffffffffffffffffffffffffffffff021916908373ffffffffffffffffffffffffffffffffffffffff160217905550600760009054906101000a900473ffffffffffffffffffffffffffffffffffffffff1673ffffffffffffffffffffffffffffffffffffffff1663302a72936040518163ffffffff1660e01b815260040160206040518083038186803b158015611d7d57600080fd5b505afa158015611d91573d6000803e3d6000fd5b505050506040513d6020811015611da757600080fd5b81019080805190602001909291905050509050919050565b6000611dc96127f6565b611dd257600080fd5b60003414611ddf57600080fd5b60006008600960008681526020019081526020016000205481548110611e0157fe5b90600052602060002090600e020190506000151581600d0160009054906101000a900460ff16151514611e3357600080fd5b60006003811115611e4057fe5b81600a0160009054906101000a900460ff166003811115611e5d57fe5b14611e6757600080fd5b8281600a0160006101000a81548160ff02191690836003811115611e8757fe5b02179055504281600c0181905550600181600d0160006101000a81548160ff021916908315150217905550600060016003811115611ec157fe5b846003811115611ecd57fe5b1415611f6f57611ee282600301546064612f21565b905060008183600201548460030154010390508083600401819055508260070160009054906101000a900473ffffffffffffffffffffffffffffffffffffffff1673ffffffffffffffffffffffffffffffffffffffff166108fc829081150290604051600060405180830381858888f19350505050158015611f68573d6000803e3d6000fd5b5050612143565b60026003811115611f7c57fe5b846003811115611f8857fe5b141561202a57611f9d82600201546064612f21565b905060008183600201548460030154010390508083600501819055508260080160009054906101000a900473ffffffffffffffffffffffffffffffffffffffff1673ffffffffffffffffffffffffffffffffffffffff166108fc829081150290604051600060405180830381858888f19350505050158015612023573d6000803e3d6000fd5b5050612142565b60038081111561203657fe5b84600381111561204257fe5b14156121415781600201548260040181905550816003015482600501819055508160070160009054906101000a900473ffffffffffffffffffffffffffffffffffffffff1673ffffffffffffffffffffffffffffffffffffffff166108fc83600201549081150290604051600060405180830381858888f193505050501580156120d0573d6000803e3d6000fd5b508160080160009054906101000a900473ffffffffffffffffffffffffffffffffffffffff1673ffffffffffffffffffffffffffffffffffffffff166108fc83600301549081150290604051600060405180830381858888f1935050505015801561213f573d6000803e3d6000fd5b505b5b5b60008111156121bf57808260060181905550600160009054906101000a900473ffffffffffffffffffffffffffffffffffffffff1673ffffffffffffffffffffffffffffffffffffffff166108fc829081150290604051600060405180830381858888f193505050501580156121bd573d6000803e3d6000fd5b505b81600d0160009054906101000a900460ff1692507f0d7fd9e4a72e17428fa8f1c1e7c7436283b29d4dc0e1292783f4054585f7c38e856040518082815260200191505060405180910390a1505092915050565b600061221c6127f6565b61222557600080fd5b6000341461223257600080fd5b6000806000600760009054906101000a900473ffffffffffffffffffffffffffffffffffffffff1673ffffffffffffffffffffffffffffffffffffffff1663cfe3d27a866040518263ffffffff1660e01b81526004018082815260200191505060606040518083038186803b1580156122aa57600080fd5b505afa1580156122be573d6000803e3d6000fd5b505050506040513d60608110156122d457600080fd5b810190808051906020019092919080519060200190929190805190602001909291905050509250925092506000600281111561230c57fe5b83600281111561231857fe5b141561232357600080fd5b60008090505b600f600087815260200190815260200160002080549050811015612487576000600860096000600f60008b8152602001908152602001600020858154811061236d57fe5b90600052602060002001548152602001908152602001600020548154811061239157fe5b90600052602060002090600e0201905080600d0160009054906101000a900460ff16806123e65750600060038111156123c657fe5b81600a0160009054906101000a900460ff1660038111156123e357fe5b14155b156123f1575061247a565b6000600b600c600084600101548152602001908152602001600020548154811061241757fe5b906000526020600020906009020190506000600190506001600281111561243a57fe5b87600281111561244657fe5b14156124555760039050612467565b858260030154141561246657600290505b5b612475836000015482611dbf565b505050505b8080600101915050612329565b5060008090505b600e60008781526020019081526020016000208054905081101561254f576000600b600c6000600e60008b815260200190815260200160002085815481106124d257fe5b9060005260206000200154815260200190815260200160002054815481106124f657fe5b906000526020600020906009020190508060060160009054906101000a900460ff1680612527575060008160040154145b156125325750612542565b61253f8160000154610a78565b50505b808060010191505061248e565b5060019350505050919050565b6000806000806000806000806000806000806008600960008f8152602001908152602001600020548154811061258e57fe5b90600052602060002090600e020190506000600b600c60008460010154815260200190815260200160002054815481106125c457fe5b9060005260206000209060090201905080600201549c5080600301549b5081600901549a50816002015499508160030154985081600a0160009054906101000a900460ff16975081600401549650816005015495508160060154945081600b01549350600082600c0154111561263c5781600c015493505b81600d0160009054906101000a900460ff1692508c8c8c8c8c8c8c8c8c8c8c9c509c509c509c509c509c509c509c509c509c509c50505091939597999b90929496989a50565b6060600080905060008090505b600b805490508110156126f0576000600b82815481106126ab57fe5b90600052602060002090600902019050600015158160060160009054906101000a900460ff16151514156126e25782806001019350505b50808060010191505061268f565b506060816040519080825280602002602001820160405280156127225781602001602082028038833980820191505090505b50905060008211156127bd5760008090506000600b8054905090505b60008111156127ba576000600b600183038154811061275957fe5b90600052602060002090600902019050600015158160060160009054906101000a900460ff16151514156127ab57806000015484848060010195508151811061279e57fe5b6020026020010181815250505b5080806001900391505061273e565b50505b809250505090565b600047905090565b60008060009054906101000a900473ffffffffffffffffffffffffffffffffffffffff16905090565b60008060009054906101000a900473ffffffffffffffffffffffffffffffffffffffff1673ffffffffffffffffffffffffffffffffffffffff163373ffffffffffffffffffffffffffffffffffffffff1614905090565b600080600080600080600080600b600c60008b8152602001908152602001600020548154811061287957fe5b9060005260206000209060090201905080600001549750806002015496508060030154955080600401549450806005015493508060060160009054906101000a900460ff1692508060070154915087878787878787975097509750975097509750975050919395979092949650565b60006128f26127f6565b6128fb57600080fd5b81600160146101000a81548160ff021916908315150217905550600160149054906101000a900460ff169050919050565b600b818154811061293957fe5b90600052602060002090600902016000915090508060000154908060010160009054906101000a900473ffffffffffffffffffffffffffffffffffffffff16908060020154908060030154908060040154908060050154908060060160009054906101000a900460ff16908060070154908060080154905089565b6000600760009054906101000a900473ffffffffffffffffffffffffffffffffffffffff1673ffffffffffffffffffffffffffffffffffffffff1663302a72936040518163ffffffff1660e01b815260040160206040518083038186803b158015612a1e57600080fd5b505afa158015612a32573d6000803e3d6000fd5b505050506040513d6020811015612a4857600080fd5b8101908080519060200190929190505050905090565b6000601060003373ffffffffffffffffffffffffffffffffffffffff1673ffffffffffffffffffffffffffffffffffffffff16815260200190815260200160002060009054906101000a900460ff1615905090565b606080600a60008573ffffffffffffffffffffffffffffffffffffffff1673ffffffffffffffffffffffffffffffffffffffff168152602001908152602001600020805480602002602001604051908101604052809291908181526020018280548015612b3f57602002820191906000526020600020905b815481526020019060010190808311612b2b575b50505050509050612b538185856001612ce4565b91505092915050565b6000600160149054906101000a900460ff1615612b7857600080fd5b60648211612b8557600080fd5b6127118210612b9357600080fd5b6000600b600c60008681526020019081526020016000205481548110612bb557fe5b906000526020600020906009020190508060010160009054906101000a900473ffffffffffffffffffffffffffffffffffffffff1673ffffffffffffffffffffffffffffffffffffffff163373ffffffffffffffffffffffffffffffffffffffff1614612c2157600080fd5b8060060160009054906101000a900460ff1615612c3d57600080fd5b6000816004015411612c4e57600080fd5b8281600501541415612c5f57600080fd5b828160050181905550600191505092915050565b6000612c7d612a5e565b612c8657600080fd5b6001905080601060003373ffffffffffffffffffffffffffffffffffffffff1673ffffffffffffffffffffffffffffffffffffffff16815260200190815260200160002060006101000a81548160ff02191690831515021790555090565b6060600080905060008090505b8651811015612e1557600060088281548110612d0957fe5b90600052602060002090600e0201905084151581600d0160009054906101000a900460ff161515148015612df95750858015612d9457508673ffffffffffffffffffffffffffffffffffffffff168160070160009054906101000a900473ffffffffffffffffffffffffffffffffffffffff1673ffffffffffffffffffffffffffffffffffffffff16145b80612df8575085158015612df757508673ffffffffffffffffffffffffffffffffffffffff168160080160009054906101000a900473ffffffffffffffffffffffffffffffffffffffff1673ffffffffffffffffffffffffffffffffffffffff16145b5b5b15612e075782806001019350505b508080600101915050612cf1565b50606081604051908082528060200260200182016040528015612e475781602001602082028038833980820191505090505b5090506000821115612edd5760008090506000885190505b6000811115612eda57600060086001830381548110612e7a57fe5b90600052602060002090600e0201905086151581600d0160009054906101000a900460ff1615151415612ecb578060000154848480600101955081518110612ebe57fe5b6020026020010181815250505b50808060019003915050612e5f565b50505b8092505050949350505050565b600080831415612efd5760009050612f1b565b6000828402905082848281612f0e57fe5b0414612f1657fe5b809150505b92915050565b600080828481612f2d57fe5b0490508091505092915050565b600082821115612f4657fe5b81830390509291505056fea265627a7a72315820958dcca84ec6c4d5c500cfd5e2ce44e5b2c942769dd9f3d4fe8a67cc4e31164964736f6c63430005100032",
  "source": "// SPDX-License-Identifier: MIT\r\npragma solidity >=0.5.16 <0.9.0;\r\nimport \"./safemath.sol\";\r\nimport \"./Ownable.sol\";\r\nimport \"./OracleInterface.sol\";\r\nimport \"./SoccerOracle.sol\";\r\n/// @title A title that should describe the contract/interface\r\n/// @author Chris Patterson\r\n/// @notice Explain to an end user what this does\r\n/// @dev Explain to a developer any extra details\r\ncontract BeTheBookie is Ownable {\r\n\r\n    address payable private ownerPayable;\r\n    bool contractPaused;\r\n    uint256 betCounter;\r\n    uint minBet = 0.001 ether;\r\n    uint256 liquidityCounter;\r\n    uint minLiquidity = 0.001 ether;\r\n\r\n    address internal soccerOracleAddr = address(0);\r\n    OracleInterface internal oracle = OracleInterface(soccerOracleAddr);\r\n\r\n    Bet[] public bets;\r\n    mapping (uint256 => uint) betMapping; //id -> index\r\n    \r\n    //mapping of pundit bets to an address\r\n    mapping (address => uint256[]) addressBetsMapping; \r\n\r\n    //Collection of liquidity provided by the bookmakers of the app.\r\n    Liquidity[] public betPools;\r\n\r\n    //Mapping of the Liquidity ID to the index in the betPools array.\r\n    mapping (uint256 => uint) poolMapping; //id -> index\r\n\r\n    //mapping of bookie liquidity to an address\r\n    mapping (address => uint256[]) bookieLiquidityMapping; \r\n\r\n    //mapping of the unique match id's to provided liquidity. Used to be able to filter for available bets without downloading the entire dataset.\r\n    mapping (uint256 => uint256[]) matchLiquidityMapping; \r\n    //mapping of the unique match id's to bets. It is needed to be able to find all bets for a given match on the client. \r\n    mapping (uint256 => uint256[]) matchBetMapping; \r\n    \r\n    //Enum representing the various types of results for a bet.\r\n    enum MatchResult{ Undecided, BookieWon, PunditWon, Void }\r\n\r\n    //Mapping of an address to a bool if they chose to exclude themselves from the contract.\r\n    mapping (address => bool) exclusionList;\r\n\r\n/// @notice Raises an event that a new liquidity / market has been provided to pundits.\r\n/// @dev Will be used by the GUI as a trigger to reload the screen\r\n/// @param id the liquidityId\r\n    event BookieProvidingLiquidity(uint256 id);\r\n\r\n/// @notice Raised when a bet is placed. \r\n/// @dev Will be used by the GUI as a trigger to reload the screen\r\n/// @param id new unique bet id\r\n    event BetPlaced(uint256 id);\r\n\r\n/// @notice Explain to an end user what this does\r\n/// @dev Will be used by the GUI as a trigger to reload the screen to show if they won or not.\r\n/// @param id bet id\r\n    event BetResult(uint256 id);\r\n\r\n//Structure representing a bet with 2 parties involved. The Pundit and the Bookie. The bookie placed odds and liquidity and the pundit took a position. \r\n//The payout will go to either the Pundit or the Bookie when the result is decided. There is a 1% fee taken off the profits paid to the contract owner.\r\n    struct Bet {\r\n        uint256 id;\r\n        uint256 liquidityId;\r\n        uint256 bookieCollateral;\r\n        uint256 punditCollateral;\r\n        uint256 bookiePayout; \r\n        uint256 punditPayout; \r\n        uint256 feePaid;\r\n        address payable bookie; // bookie address copied from the liquidity object\r\n        address payable pundit; //account taking a punt on this outcome (they want to win)\r\n        uint odds; //odds at the time of bet.\r\n        MatchResult result;\r\n        uint createdTime;\r\n        uint closedTime;\r\n        bool closed;\r\n    }\r\n\r\n//Structure representing betting liquidity on a certain match/player/odds. ie: As a bookie I can lay odds on Federer to beat Nadal at 200 (even payout).\r\n//The bookie can post the total liquidity they are willing to expose themselves to; ie: 10 ETH and as bets are placed the available liquidty will decrease until it reaches 0.\r\n//With these odds, pundits (people taking a bet) can take a position on these odds. ie: 1ETH. \r\n//The pundit hopes Federer wins as they will receive 2 ETH in return whereas the bookie hopes Nadal wins as they receive the bet amount + the liquidity they provided. 2 ETH as well.\r\n//Odds can range from 101 to 10000. 101 is equivalent to 1.01 * stake and 10000 is 100 * stake. \r\n//Once a bet is placed it is final and will require an outcome.\r\n    struct Liquidity {\r\n        uint256 id;\r\n        address payable bookie; //account laying the odds (they do not want this bet to pay out)\r\n        uint matchId; //each match will have a unique id\r\n        uint sideId; //will need to choose the winning side of the match\r\n        uint256 remainingLiquidity;\r\n        uint odds; // 1.50 odds would be stored as 150 (*100).\r\n        bool closed;\r\n        uint createdTime;\r\n        uint closedTime;\r\n    }\r\n\r\n\r\n    \r\n/// @notice Returns true/false depending if the address is in the exclusion list or not.\r\n/// @return Returns true/false\r\n  function isNotExcluded() public view returns(bool) {\r\n    return !exclusionList[msg.sender];\r\n  }\r\n\r\n    // Fallback function - Called if other functions don't match call or\r\n    // sent ether without data\r\n    // Typically, called when invalid data is sent\r\n    // Added so ether sent to this contract is reverted if the contract fails\r\n    // otherwise, the sender's money is transferred to contract\r\n    function () external payable {\r\n        revert();\r\n    }\r\n\r\n/// @notice Main constructor for the contract. Set's the owner to the sender.\r\n    constructor() public {\r\n        ownerPayable = msg.sender;\r\n    }\r\n\r\n/// @notice This function is for the owner to put the contract in a paused state if there is a flaw that needs to be investigated. It will stop new money from being sent to the contract.\r\n/// @dev Only applies to the placeBet / addLiquidity functions\r\n/// @param paused switch to enable/disable the contract.\r\n/// @return bool - returns current paused state.\r\n    function setContractState(bool paused) public onlyOwner returns (bool)\r\n    {\r\n        contractPaused = paused;\r\n        return contractPaused;\r\n    }\r\n\r\n/// @notice Gambling addiction is a real problem and this option allows people to self exclude from the platform should they feel they are participating in an unhealthly way.\r\n/// @return _excluded returns true when added.\r\n    function selfExclude() public returns (bool _excluded)\r\n    {\r\n        require(isNotExcluded()); //no point executing this function twice.\r\n        _excluded = true;\r\n        exclusionList[msg.sender] = _excluded;\r\n    }\r\n\r\n/// @notice Returns the total contract balance in this contract.\r\n    function contractBalance() public view returns (uint256 _balance) {\r\n        _balance = address(this).balance;\r\n    }\r\n\r\n/// @notice Called after creation to link this contract to the appropriate Oracle that provides the matches/scores.\r\n/// @param _address of the Oracle\r\n/// @return returns bool - the oracle will return true if setup properly.\r\n    function setOracleAddress(address _address) public onlyOwner returns (bool) {\r\n        soccerOracleAddr = _address;\r\n        oracle = OracleInterface(soccerOracleAddr);\r\n        return oracle.Validate();\r\n    }\r\n    \r\n    /// @notice Calls the validation method on the oracle to prove it is connected.\r\n    /// @return Returns true/false based on if the oracle is setup.\r\n    function testOracleValid() public view returns (bool) {\r\n        return oracle.Validate();\r\n    }\r\n\r\n/// @notice Public function allowing a pundit to place a bet leveraging existing liquidity in a market/odds.\r\n/// @dev bookieCollateral is somewhat complex as depending on the stake, the payout has to be calculated on the fly and deducted from the pool of liquidity. \r\n/// @param _liquidityId pointer to available liquidity. The msg.amount is the stake.\r\n/// @return _id - returns unique ID of the new bet object.\r\n    function placeBet(uint256 _liquidityId, uint _odds) public payable returns (uint256 _id)\r\n    {\r\n        require(!contractPaused);\r\n        require(isNotExcluded()); //ensure the participant has not chosed to self exclude from the platform\r\n        require(msg.value >= minBet);\r\n        \r\n        Liquidity storage _l = betPools[poolMapping[_liquidityId]];\r\n        require(_l.closed == false);\r\n        require(msg.sender != _l.bookie);\r\n        require(_l.odds == _odds); //possible the bookie might adjust the odds before a bet has been placed. Confirm they match.\r\n\r\n        uint256 bookieCollateral = SafeMath.div(SafeMath.mul(msg.value, _odds), 100)-msg.value;\r\n        require(_l.remainingLiquidity >= bookieCollateral);\r\n\r\n        (uint256 id, \r\n        string memory match_date, \r\n        uint256 team1_id,\r\n        uint256 team2_id,\r\n        string memory team1_name,\r\n        string memory team2_name,\r\n        bool pending) = oracle.getMatch(_l.matchId);\r\n\r\n        require(pending);\r\n\r\n        _id = ++betCounter;\r\n\r\n        bets.push(Bet({\r\n            id: _id,\r\n            liquidityId: _liquidityId, \r\n            bookieCollateral: bookieCollateral,\r\n            punditCollateral: msg.value,\r\n            bookiePayout: 0, \r\n            punditPayout: 0, \r\n            feePaid: 0,\r\n            pundit: msg.sender,\r\n            bookie: _l.bookie,\r\n            odds: _odds,\r\n            result: MatchResult.Undecided, \r\n            createdTime: block.timestamp,\r\n            closedTime: 0,\r\n            closed: false\r\n            }));\r\n\r\n        betMapping[_id] = _id-1;\r\n        addressBetsMapping[msg.sender].push(_id);\r\n        addressBetsMapping[_l.bookie].push(_id);\r\n        matchBetMapping[_l.matchId].push(_id);\r\n\r\n        _l.remainingLiquidity = SafeMath.sub(_l.remainingLiquidity, bookieCollateral);\r\n        if (_l.remainingLiquidity == 0)\r\n        {\r\n            _l.closed = true;\r\n        }\r\n\r\n        emit BetPlaced(_id);\r\n\r\n    }\r\n\r\n/// @notice Called after a match result has been set in the Oracle by the owner. Handles all the payouts depending on the result. Also refunds any excess liquidity where bets have not been placed.\r\n/// @param _matchId a parameter just like in doxygen (must be followed by parameter name)\r\n/// @return _success returns true if successfully completed.\r\n    function matchCompleteHandlePayouts(uint256 _matchId) public payable onlyOwner returns (bool _success) {\r\n        require(msg.value == 0);\r\n        (OracleInterface.ResultType _type,uint256 winning_team_id,uint256 result_time)  = oracle.getMatchResult(_matchId);\r\n        require(_type != OracleInterface.ResultType.Undecided);\r\n\r\n        for (uint i = 0; i < matchBetMapping[_matchId].length; i++)\r\n        {\r\n            Bet storage _bet = bets[betMapping[matchBetMapping[_matchId][i]]];\r\n            if (_bet.closed || _bet.result != MatchResult.Undecided) //double check to ensure the bet is still open.\r\n                {continue;}\r\n\r\n            Liquidity storage _l = betPools[poolMapping[_bet.liquidityId]];\r\n\r\n            MatchResult _result = MatchResult.BookieWon;\r\n            if (_type == OracleInterface.ResultType.Void)\r\n                _result = MatchResult.Void;\r\n            else if (_l.sideId == winning_team_id)\r\n                _result = MatchResult.PunditWon;\r\n            \r\n            setResult(_bet.id, _result);\r\n        }\r\n\r\n        for (uint j = 0; j < matchLiquidityMapping[_matchId].length; j++)\r\n        {\r\n            Liquidity storage _l = betPools[poolMapping[matchLiquidityMapping[_matchId][j]]];\r\n            if (_l.closed || _l.remainingLiquidity == 0)\r\n                { continue; }\r\n            refundLiquidity(_l.id);\r\n        }\r\n        \r\n\r\n        _success = true;\r\n    }\r\n\r\n\r\n/// @notice called internally by the contract owner to set the result of a given bet.  \r\n/// @dev The payout structure depends on who wins but either the pundit or bookie gets paid - 1% of profits as a fee.\r\n/// @param _betId - unique id of the bet\r\n/// @param _result - result of the match. Determines how the bet pays out.\r\n/// @return _success true if no errors.\r\n    function setResult(uint256 _betId, MatchResult _result) public payable onlyOwner returns (bool _success) {\r\n        require(msg.value == 0);\r\n\r\n        Bet storage _bet = bets[betMapping[_betId]];\r\n        require(_bet.closed == false);\r\n        require(_bet.result == MatchResult.Undecided);\r\n\r\n        _bet.result = _result;\r\n        _bet.closedTime = block.timestamp;\r\n        _bet.closed = true;\r\n\r\n        uint256 fee;\r\n        if (_result == MatchResult.BookieWon)\r\n        {\r\n            fee = SafeMath.div(_bet.punditCollateral, 100);\r\n            uint256 payout = _bet.punditCollateral + _bet.bookieCollateral - fee;\r\n            _bet.bookiePayout = payout;\r\n            _bet.bookie.transfer(payout);\r\n        }\r\n        else if (_result == MatchResult.PunditWon)\r\n        {\r\n            fee = SafeMath.div(_bet.bookieCollateral, 100);\r\n            uint256 payout = _bet.punditCollateral + _bet.bookieCollateral - fee;\r\n            _bet.punditPayout = payout;\r\n            _bet.pundit.transfer(payout);\r\n        }\r\n        else if (_result == MatchResult.Void)\r\n        {\r\n            //refund their money as the match was cancelled\r\n            _bet.bookiePayout = _bet.bookieCollateral;\r\n            _bet.punditPayout = _bet.punditCollateral;\r\n            _bet.bookie.transfer(_bet.bookieCollateral);\r\n            _bet.pundit.transfer(_bet.punditCollateral);\r\n        }\r\n\r\n        if (fee > 0)\r\n        {\r\n            _bet.feePaid = fee;\r\n            ownerPayable.transfer(fee);\r\n        }\r\n\r\n        _success = _bet.closed;\r\n        emit BetResult(_betId);\r\n    }\r\n\r\n/// @notice used by the GUI to display current bets for active user\r\n/// @return uint256[] - list of bet ID's owned by the msg.sender\r\n    function getActiveBetsByAddress(address a, bool asBookie) external view returns (uint256[] memory)\r\n    {\r\n        uint256[] memory _bets = addressBetsMapping[a];\r\n        return getActiveBetsByAddressAndStatus(_bets, a, asBookie, false);\r\n    }\r\n\r\n/// @notice used by the GUI to display closed bets for active user\r\n/// @return uint256[] - list of bet ID's owned by the msg.sender\r\n    function getInActiveBetsByAddress(address a, bool asBookie) external view returns (uint256[] memory)\r\n    {\r\n        uint256[] memory _bets = addressBetsMapping[a];\r\n        return getActiveBetsByAddressAndStatus(_bets, a, asBookie, true);\r\n    }\r\n\r\n/// @notice Explain to an end user what this does\r\n/// @dev Explain to a developer any extra details\r\n/// @param _bets - collection of bets to filter\r\n/// @param asBookie -  determines the address to filter on (bookie or pundit)\r\n/// @param isClosed - filter to bring back open/closed bets\r\n/// @return uint256[] list of bet ID's owned by the msg.sender\r\n    function getActiveBetsByAddressAndStatus(uint256[] memory _bets, address a, bool asBookie, bool isClosed) private view returns (uint256[] memory)\r\n    {\r\n        uint count = 0; \r\n\r\n        //get count of pending matches \r\n        for (uint i = 0; i < _bets.length; i++) {\r\n            Bet storage _bet = bets[i];\r\n            if (_bet.closed == isClosed && \r\n                    ((asBookie && _bet.bookie == a) \r\n                    || (!asBookie && _bet.pundit == a))\r\n                ) \r\n                count++; \r\n        }\r\n\r\n        //collect up all the pending matches\r\n        uint256[] memory output = new uint256[](count); \r\n\r\n        if (count > 0) {\r\n            uint index = 0;\r\n            for (uint n = _bets.length; n > 0; n--) {\r\n                Bet storage _bet = bets[n-1];\r\n                if (_bet.closed == isClosed) \r\n                    output[index++] = _bet.id;\r\n            }\r\n        } \r\n\r\n        return output;\r\n    }\r\n\r\n/// @notice Returns all important properties of a bet by it's ID\r\n/// @param _id Bet.ID\r\n/// @return properties of the bet.\r\n    function getBetById(uint256 _id) external view returns (uint256 matchId, uint256 sideId, uint256 odds, uint256 bookieCollateral, uint256 punditCollateral,  MatchResult result, uint256 bookiePayout, uint256 punditPayout, uint256 feePaid, uint lastUpdateTime, bool closed)\r\n    {\r\n        Bet storage bet = bets[betMapping[_id]];\r\n        Liquidity storage _l = betPools[poolMapping[bet.liquidityId]];\r\n        \r\n        matchId = _l.matchId;\r\n        sideId = _l.sideId;\r\n        odds = bet.odds;\r\n        bookieCollateral = bet.bookieCollateral;\r\n        punditCollateral = bet.punditCollateral;\r\n        result = bet.result;\r\n        bookiePayout = bet.bookiePayout;\r\n        punditPayout = bet.punditPayout;\r\n        feePaid = bet.feePaid;\r\n        lastUpdateTime = bet.createdTime;\r\n        if (bet.closedTime > 0)\r\n            lastUpdateTime = bet.closedTime;\r\n        closed = bet.closed;\r\n        return (matchId, sideId, odds, bookieCollateral, punditCollateral, result, bookiePayout, punditPayout, feePaid, lastUpdateTime, closed);\r\n    }\r\n\r\n    /// @notice Public function for a bookie to place odds on a match result and submit available liquidity. ie: Federer to beat Nadal, 200 odds with 10ETH max payout.\r\n    /// @param _matchId The unique ID of a match (ie: Federer vs Nadal at 2018 Wimbledon final)\r\n    /// @param _sideId The perspective winning side, ie: Federer. (unique ID from the source JSON data)\r\n    /// @param _odds The odds. ie: 150 = decimal equivalent odds at 1.5. 200 = 2. Payout formula is basically _odds/100 * stake. \r\n                    //ie: 150/100 * 1ETH = 0.5ETH payout + your original stake = 1.5ETH return. \r\n    /// @return _id returns unique ID of the new liquidity object.\r\n    function addLiquidity(uint _matchId, uint _sideId, uint256 _odds) public payable returns (uint _id)\r\n    {\r\n        require(!contractPaused);\r\n        require(isNotExcluded()); //ensure the participant has not chosed to self exclude from the platform\r\n        require(_odds > 100);\r\n        require(_odds < 10001);\r\n        require(msg.value >= minLiquidity);\r\n\r\n        (uint256 id, \r\n        string memory match_date, \r\n        uint256 team1_id,\r\n        uint256 team2_id,\r\n        string memory team1_name,\r\n        string memory team2_name,\r\n        bool pending) = oracle.getMatch(_matchId);\r\n\r\n        require(pending);\r\n        require(_sideId == 0 || _sideId == team1_id || _sideId == team2_id);\r\n\r\n        _id = ++liquidityCounter;\r\n\r\n        betPools.push(Liquidity({\r\n            id: _id,\r\n            bookie: msg.sender,\r\n            matchId: _matchId, \r\n            sideId: _sideId,\r\n            remainingLiquidity: msg.value,\r\n            odds: _odds, \r\n            closed: false,\r\n            createdTime: block.timestamp,\r\n            closedTime: 0\r\n            }));\r\n\r\n        poolMapping[_id] = _id-1;\r\n        bookieLiquidityMapping[msg.sender].push(_id);\r\n        matchLiquidityMapping[_matchId].push(_id);\r\n\r\n        emit BookieProvidingLiquidity(_id);\r\n\r\n    }\r\n\r\n/// @notice Allows the bookie to adjust their odds for a given liquidity object.\r\n/// @param _liquidityId Liquidity.ID\r\n/// @param _odds New odds.\r\n/// @return bool - true if successful.\r\n    function adjustOdds(uint _liquidityId, uint _odds) public returns (bool _result) {\r\n        require(!contractPaused);\r\n        require(_odds > 100);\r\n        require(_odds < 10001);\r\n\r\n        Liquidity storage _l = betPools[poolMapping[_liquidityId]];\r\n        require(msg.sender == _l.bookie);\r\n        require(!_l.closed);\r\n        require(_l.remainingLiquidity > 0);\r\n        require(_l.odds != _odds); //no point in performing the change if the values match.\r\n\r\n        _l.odds = _odds;\r\n        _result = true;\r\n    }\r\n\r\n\r\n/// @notice Returns unused liqudity to the bookie after a match is over or if they cancel in the GUI.\r\n/// @param _id liqudity id\r\n/// @return _result true if no errors\r\n    function refundLiquidity(uint _id) public payable returns (bool _result) {\r\n        require(msg.value == 0);\r\n        Liquidity storage _l = betPools[poolMapping[_id]];\r\n        require(isOwner() || msg.sender == _l.bookie);\r\n        require(!_l.closed);\r\n        \r\n        _l.closed = true;\r\n        uint refund = _l.remainingLiquidity;\r\n        _l.remainingLiquidity = 0;\r\n        _l.bookie.transfer(refund);\r\n        _result = true;\r\n    }\r\n\r\n/// @notice Used by the GUI to return all bookie liquidity items for tracking purpose.\r\n/// @return uint256[] - list of liquidity ID's owned by the msg.sender\r\n    function getBookieLiquidity(address bookie) external view returns (uint256[] memory)\r\n    {\r\n        uint256[] memory response = bookieLiquidityMapping[bookie];\r\n        return response;\r\n    }\r\n\r\n/// @notice Returns all available liquidity that a pundit can bet on. Used by the GUI to show the user all the bets they could take.\r\n/// @return uint256[] - returns all liquidty ID's where they are still valid.\r\n    function getAllAvailableLiquidity() external view returns (uint256[] memory) {\r\n        uint count = 0; \r\n\r\n        //get count of available liquidity \r\n        for (uint i = 0; i < betPools.length; i++) {\r\n            Liquidity storage _l = betPools[i];\r\n            if (_l.closed == false) \r\n                count++; \r\n        }\r\n\r\n        //collect up all the pending matches\r\n        uint256[] memory output = new uint256[](count); \r\n\r\n        if (count > 0) {\r\n            uint index = 0;\r\n            for (uint n = betPools.length; n > 0; n--) {\r\n                Liquidity storage _l = betPools[n-1];\r\n                if (_l.closed == false) \r\n                    output[index++] = _l.id;\r\n            }\r\n        } \r\n\r\n        return output;\r\n    }\r\n\r\n/// @notice Returns all useful properites of the liquidity object to the GUI\r\n/// @param _id liqudity.id\r\n/// @return returns all useful properites of the liquidity object to the GUI\r\n    function getLiquidityById(uint _id) external view returns (uint id, uint matchId, uint sideId, uint256 remainingLiquidity, uint odds, bool closed, uint createdTime)\r\n    {\r\n        Liquidity storage _l = betPools[poolMapping[_id]];\r\n        id = _l.id;\r\n        matchId = _l.matchId;\r\n        sideId = _l.sideId;\r\n        remainingLiquidity = _l.remainingLiquidity;\r\n        odds = _l.odds;\r\n        closed = _l.closed;\r\n        createdTime = _l.createdTime;\r\n        return (id, matchId, sideId, remainingLiquidity, odds, closed, createdTime);\r\n    }\r\n\r\n}\r\n\r\n",
  "sourcePath": "E:\\GIT\\blockchain-developer-bootcamp-final-project\\contracts\\BeTheBookie.sol",
  "compiler": {
    "name": "solc",
    "version": "0.5.16+commit.9c3226ce.Emscripten.clang"
  },
  "schemaVersion": "3.4.3",
  "updatedAt": "2021-11-13T23:04:51.926Z",
  "networkType": "ethereum",
  "devdoc": {
    "author": "Chris Patterson",
    "details": "Explain to a developer any extra details",
    "methods": {
      "addLiquidity(uint256,uint256,uint256)": {
        "return": "_id returns unique ID of the new liquidity object."
      },
      "adjustOdds(uint256,uint256)": {
        "params": {
          "_liquidityId": "Liquidity.ID",
          "_odds": "New odds."
        },
        "return": "bool - true if successful."
      },
      "getActiveBetsByAddress(address,bool)": {
        "return": "uint256[] - list of bet ID's owned by the msg.sender"
      },
      "getAllAvailableLiquidity()": {
        "return": "uint256[] - returns all liquidty ID's where they are still valid."
      },
      "getBetById(uint256)": {
        "params": {
          "_id": "Bet.ID"
        },
        "return": "properties of the bet."
      },
      "getBookieLiquidity(address)": {
        "return": "uint256[] - list of liquidity ID's owned by the msg.sender"
      },
      "getInActiveBetsByAddress(address,bool)": {
        "return": "uint256[] - list of bet ID's owned by the msg.sender"
      },
      "getLiquidityById(uint256)": {
        "params": {
          "_id": "liqudity.id"
        },
        "return": "returns all useful properites of the liquidity object to the GUI"
      },
      "isNotExcluded()": {
        "return": "Returns true/false"
      },
      "isOwner()": {
        "return": "true if `msg.sender` is the owner of the contract."
      },
      "matchCompleteHandlePayouts(uint256)": {
        "params": {
          "_matchId": "a parameter just like in doxygen (must be followed by parameter name)"
        },
        "return": "_success returns true if successfully completed."
      },
      "owner()": {
        "return": "the address of the owner."
      },
      "placeBet(uint256,uint256)": {
        "details": "bookieCollateral is somewhat complex as depending on the stake, the payout has to be calculated on the fly and deducted from the pool of liquidity. ",
        "params": {
          "_liquidityId": "pointer to available liquidity. The msg.amount is the stake."
        },
        "return": "_id - returns unique ID of the new bet object."
      },
      "refundLiquidity(uint256)": {
        "params": {
          "_id": "liqudity id"
        },
        "return": "_result true if no errors"
      },
      "selfExclude()": {
        "return": "_excluded returns true when added."
      },
      "setContractState(bool)": {
        "details": "Only applies to the placeBet / addLiquidity functions",
        "params": {
          "paused": "switch to enable/disable the contract."
        },
        "return": "bool - returns current paused state."
      },
      "setOracleAddress(address)": {
        "params": {
          "_address": "of the Oracle"
        },
        "return": "returns bool - the oracle will return true if setup properly."
      },
      "setResult(uint256,uint8)": {
        "details": "The payout structure depends on who wins but either the pundit or bookie gets paid - 1% of profits as a fee.",
        "params": {
          "_betId": "- unique id of the bet",
          "_result": "- result of the match. Determines how the bet pays out."
        },
        "return": "_success true if no errors."
      },
      "testOracleValid()": {
        "return": "Returns true/false based on if the oracle is setup."
      }
    },
    "title": "A title that should describe the contract/interface"
  },
  "userdoc": {
    "methods": {
      "adjustOdds(uint256,uint256)": {
        "notice": "Allows the bookie to adjust their odds for a given liquidity object."
      },
      "constructor": "Main constructor for the contract. Set's the owner to the sender.",
      "contractBalance()": {
        "notice": "Returns the total contract balance in this contract."
      },
      "getActiveBetsByAddress(address,bool)": {
        "notice": "used by the GUI to display current bets for active user"
      },
      "getAllAvailableLiquidity()": {
        "notice": "Returns all available liquidity that a pundit can bet on. Used by the GUI to show the user all the bets they could take."
      },
      "getBetById(uint256)": {
        "notice": "Returns all important properties of a bet by it's ID"
      },
      "getBookieLiquidity(address)": {
        "notice": "Used by the GUI to return all bookie liquidity items for tracking purpose."
      },
      "getInActiveBetsByAddress(address,bool)": {
        "notice": "used by the GUI to display closed bets for active user"
      },
      "getLiquidityById(uint256)": {
        "notice": "Returns all useful properites of the liquidity object to the GUI"
      },
      "isNotExcluded()": {
        "notice": "Returns true/false depending if the address is in the exclusion list or not."
      },
      "matchCompleteHandlePayouts(uint256)": {
        "notice": "Called after a match result has been set in the Oracle by the owner. Handles all the payouts depending on the result. Also refunds any excess liquidity where bets have not been placed."
      },
      "placeBet(uint256,uint256)": {
        "notice": "Public function allowing a pundit to place a bet leveraging existing liquidity in a market/odds."
      },
      "refundLiquidity(uint256)": {
        "notice": "Returns unused liqudity to the bookie after a match is over or if they cancel in the GUI."
      },
      "selfExclude()": {
        "notice": "Gambling addiction is a real problem and this option allows people to self exclude from the platform should they feel they are participating in an unhealthly way."
      },
      "setContractState(bool)": {
        "notice": "This function is for the owner to put the contract in a paused state if there is a flaw that needs to be investigated. It will stop new money from being sent to the contract."
      },
      "setOracleAddress(address)": {
        "notice": "Called after creation to link this contract to the appropriate Oracle that provides the matches/scores."
      },
      "setResult(uint256,uint8)": {
        "notice": "called internally by the contract owner to set the result of a given bet.  "
      },
      "testOracleValid()": {
        "notice": "Calls the validation method on the oracle to prove it is connected."
      }
    },
    "notice": "Explain to an end user what this does"
  }
}