{
  "contractName": "BeTheBookie",
  "abi": [
    {
      "inputs": [],
      "payable": false,
      "stateMutability": "nonpayable",
      "type": "constructor"
    },
    {
      "anonymous": false,
      "inputs": [
        {
          "indexed": false,
          "internalType": "uint256",
          "name": "id",
          "type": "uint256"
        }
      ],
      "name": "BetPlaced",
      "type": "event"
    },
    {
      "anonymous": false,
      "inputs": [
        {
          "indexed": false,
          "internalType": "uint256",
          "name": "id",
          "type": "uint256"
        }
      ],
      "name": "BetResult",
      "type": "event"
    },
    {
      "anonymous": false,
      "inputs": [
        {
          "indexed": false,
          "internalType": "uint256",
          "name": "id",
          "type": "uint256"
        }
      ],
      "name": "BookieProvidingLiquidity",
      "type": "event"
    },
    {
      "payable": true,
      "stateMutability": "payable",
      "type": "fallback"
    },
    {
      "constant": true,
      "inputs": [
        {
          "internalType": "uint256",
          "name": "",
          "type": "uint256"
        }
      ],
      "name": "betPools",
      "outputs": [
        {
          "internalType": "uint256",
          "name": "id",
          "type": "uint256"
        },
        {
          "internalType": "address payable",
          "name": "bookie",
          "type": "address"
        },
        {
          "internalType": "uint256",
          "name": "matchId",
          "type": "uint256"
        },
        {
          "internalType": "uint256",
          "name": "sideId",
          "type": "uint256"
        },
        {
          "internalType": "uint256",
          "name": "remainingLiquidity",
          "type": "uint256"
        },
        {
          "internalType": "uint256",
          "name": "odds",
          "type": "uint256"
        },
        {
          "internalType": "bool",
          "name": "closed",
          "type": "bool"
        },
        {
          "internalType": "uint256",
          "name": "createdTime",
          "type": "uint256"
        },
        {
          "internalType": "uint256",
          "name": "closedTime",
          "type": "uint256"
        }
      ],
      "payable": false,
      "stateMutability": "view",
      "type": "function"
    },
    {
      "constant": true,
      "inputs": [
        {
          "internalType": "uint256",
          "name": "",
          "type": "uint256"
        }
      ],
      "name": "bets",
      "outputs": [
        {
          "internalType": "uint256",
          "name": "id",
          "type": "uint256"
        },
        {
          "internalType": "uint256",
          "name": "liquidityId",
          "type": "uint256"
        },
        {
          "internalType": "uint256",
          "name": "bookieCollateral",
          "type": "uint256"
        },
        {
          "internalType": "uint256",
          "name": "punditCollateral",
          "type": "uint256"
        },
        {
          "internalType": "uint256",
          "name": "bookiePayout",
          "type": "uint256"
        },
        {
          "internalType": "uint256",
          "name": "punditPayout",
          "type": "uint256"
        },
        {
          "internalType": "uint256",
          "name": "feePaid",
          "type": "uint256"
        },
        {
          "internalType": "address payable",
          "name": "bookie",
          "type": "address"
        },
        {
          "internalType": "address payable",
          "name": "pundit",
          "type": "address"
        },
        {
          "internalType": "uint256",
          "name": "odds",
          "type": "uint256"
        },
        {
          "internalType": "enum BeTheBookie.MatchResult",
          "name": "result",
          "type": "uint8"
        },
        {
          "internalType": "uint256",
          "name": "createdTime",
          "type": "uint256"
        },
        {
          "internalType": "uint256",
          "name": "closedTime",
          "type": "uint256"
        },
        {
          "internalType": "bool",
          "name": "closed",
          "type": "bool"
        }
      ],
      "payable": false,
      "stateMutability": "view",
      "type": "function"
    },
    {
      "constant": true,
      "inputs": [],
      "name": "isOwner",
      "outputs": [
        {
          "internalType": "bool",
          "name": "",
          "type": "bool"
        }
      ],
      "payable": false,
      "stateMutability": "view",
      "type": "function"
    },
    {
      "constant": true,
      "inputs": [],
      "name": "owner",
      "outputs": [
        {
          "internalType": "address",
          "name": "",
          "type": "address"
        }
      ],
      "payable": false,
      "stateMutability": "view",
      "type": "function"
    },
    {
      "constant": true,
      "inputs": [],
      "name": "isNotExcluded",
      "outputs": [
        {
          "internalType": "bool",
          "name": "",
          "type": "bool"
        }
      ],
      "payable": false,
      "stateMutability": "view",
      "type": "function"
    },
    {
      "constant": false,
      "inputs": [],
      "name": "selfExclude",
      "outputs": [
        {
          "internalType": "bool",
          "name": "_excluded",
          "type": "bool"
        }
      ],
      "payable": false,
      "stateMutability": "nonpayable",
      "type": "function"
    },
    {
      "constant": true,
      "inputs": [],
      "name": "contractBalance",
      "outputs": [
        {
          "internalType": "uint256",
          "name": "_balance",
          "type": "uint256"
        }
      ],
      "payable": false,
      "stateMutability": "view",
      "type": "function"
    },
    {
      "constant": false,
      "inputs": [
        {
          "internalType": "address",
          "name": "_address",
          "type": "address"
        }
      ],
      "name": "setOracleAddress",
      "outputs": [
        {
          "internalType": "bool",
          "name": "",
          "type": "bool"
        }
      ],
      "payable": false,
      "stateMutability": "nonpayable",
      "type": "function"
    },
    {
      "constant": true,
      "inputs": [],
      "name": "testOracleValid",
      "outputs": [
        {
          "internalType": "bool",
          "name": "",
          "type": "bool"
        }
      ],
      "payable": false,
      "stateMutability": "view",
      "type": "function"
    },
    {
      "constant": false,
      "inputs": [
        {
          "internalType": "uint256",
          "name": "_liquidityId",
          "type": "uint256"
        },
        {
          "internalType": "uint256",
          "name": "_odds",
          "type": "uint256"
        }
      ],
      "name": "placeBet",
      "outputs": [
        {
          "internalType": "uint256",
          "name": "_id",
          "type": "uint256"
        }
      ],
      "payable": true,
      "stateMutability": "payable",
      "type": "function"
    },
    {
      "constant": false,
      "inputs": [
        {
          "internalType": "uint256",
          "name": "_matchId",
          "type": "uint256"
        }
      ],
      "name": "matchCompleteHandlePayouts",
      "outputs": [
        {
          "internalType": "bool",
          "name": "_success",
          "type": "bool"
        }
      ],
      "payable": true,
      "stateMutability": "payable",
      "type": "function"
    },
    {
      "constant": false,
      "inputs": [
        {
          "internalType": "uint256",
          "name": "_betId",
          "type": "uint256"
        },
        {
          "internalType": "enum BeTheBookie.MatchResult",
          "name": "_result",
          "type": "uint8"
        }
      ],
      "name": "setResult",
      "outputs": [
        {
          "internalType": "bool",
          "name": "_success",
          "type": "bool"
        }
      ],
      "payable": true,
      "stateMutability": "payable",
      "type": "function"
    },
    {
      "constant": true,
      "inputs": [
        {
          "internalType": "address",
          "name": "a",
          "type": "address"
        },
        {
          "internalType": "bool",
          "name": "asBookie",
          "type": "bool"
        }
      ],
      "name": "getActiveBetsByAddress",
      "outputs": [
        {
          "internalType": "uint256[]",
          "name": "",
          "type": "uint256[]"
        }
      ],
      "payable": false,
      "stateMutability": "view",
      "type": "function"
    },
    {
      "constant": true,
      "inputs": [
        {
          "internalType": "address",
          "name": "a",
          "type": "address"
        },
        {
          "internalType": "bool",
          "name": "asBookie",
          "type": "bool"
        }
      ],
      "name": "getInActiveBetsByAddress",
      "outputs": [
        {
          "internalType": "uint256[]",
          "name": "",
          "type": "uint256[]"
        }
      ],
      "payable": false,
      "stateMutability": "view",
      "type": "function"
    },
    {
      "constant": true,
      "inputs": [
        {
          "internalType": "uint256",
          "name": "_id",
          "type": "uint256"
        }
      ],
      "name": "getBetById",
      "outputs": [
        {
          "internalType": "uint256",
          "name": "matchId",
          "type": "uint256"
        },
        {
          "internalType": "uint256",
          "name": "sideId",
          "type": "uint256"
        },
        {
          "internalType": "uint256",
          "name": "odds",
          "type": "uint256"
        },
        {
          "internalType": "uint256",
          "name": "bookieCollateral",
          "type": "uint256"
        },
        {
          "internalType": "uint256",
          "name": "punditCollateral",
          "type": "uint256"
        },
        {
          "internalType": "enum BeTheBookie.MatchResult",
          "name": "result",
          "type": "uint8"
        },
        {
          "internalType": "uint256",
          "name": "bookiePayout",
          "type": "uint256"
        },
        {
          "internalType": "uint256",
          "name": "punditPayout",
          "type": "uint256"
        },
        {
          "internalType": "uint256",
          "name": "feePaid",
          "type": "uint256"
        },
        {
          "internalType": "uint256",
          "name": "lastUpdateTime",
          "type": "uint256"
        },
        {
          "internalType": "bool",
          "name": "closed",
          "type": "bool"
        }
      ],
      "payable": false,
      "stateMutability": "view",
      "type": "function"
    },
    {
      "constant": false,
      "inputs": [
        {
          "internalType": "uint256",
          "name": "_matchId",
          "type": "uint256"
        },
        {
          "internalType": "uint256",
          "name": "_sideId",
          "type": "uint256"
        },
        {
          "internalType": "uint256",
          "name": "_odds",
          "type": "uint256"
        }
      ],
      "name": "addLiquidity",
      "outputs": [
        {
          "internalType": "uint256",
          "name": "_id",
          "type": "uint256"
        }
      ],
      "payable": true,
      "stateMutability": "payable",
      "type": "function"
    },
    {
      "constant": false,
      "inputs": [
        {
          "internalType": "uint256",
          "name": "_liquidityId",
          "type": "uint256"
        },
        {
          "internalType": "uint256",
          "name": "_odds",
          "type": "uint256"
        }
      ],
      "name": "adjustOdds",
      "outputs": [
        {
          "internalType": "bool",
          "name": "_result",
          "type": "bool"
        }
      ],
      "payable": false,
      "stateMutability": "nonpayable",
      "type": "function"
    },
    {
      "constant": false,
      "inputs": [
        {
          "internalType": "uint256",
          "name": "_id",
          "type": "uint256"
        }
      ],
      "name": "refundLiquidity",
      "outputs": [
        {
          "internalType": "bool",
          "name": "_result",
          "type": "bool"
        }
      ],
      "payable": true,
      "stateMutability": "payable",
      "type": "function"
    },
    {
      "constant": true,
      "inputs": [
        {
          "internalType": "address",
          "name": "bookie",
          "type": "address"
        }
      ],
      "name": "getBookieLiquidity",
      "outputs": [
        {
          "internalType": "uint256[]",
          "name": "",
          "type": "uint256[]"
        }
      ],
      "payable": false,
      "stateMutability": "view",
      "type": "function"
    },
    {
      "constant": true,
      "inputs": [
        {
          "internalType": "uint256",
          "name": "_matchId",
          "type": "uint256"
        }
      ],
      "name": "getMatchLiquidity",
      "outputs": [
        {
          "internalType": "uint256[]",
          "name": "",
          "type": "uint256[]"
        }
      ],
      "payable": false,
      "stateMutability": "view",
      "type": "function"
    },
    {
      "constant": true,
      "inputs": [],
      "name": "getAllAvailableLiquidity",
      "outputs": [
        {
          "internalType": "uint256[]",
          "name": "",
          "type": "uint256[]"
        }
      ],
      "payable": false,
      "stateMutability": "view",
      "type": "function"
    },
    {
      "constant": true,
      "inputs": [
        {
          "internalType": "uint256",
          "name": "_matchId",
          "type": "uint256"
        }
      ],
      "name": "getMatchBets",
      "outputs": [
        {
          "internalType": "uint256[]",
          "name": "",
          "type": "uint256[]"
        }
      ],
      "payable": false,
      "stateMutability": "view",
      "type": "function"
    },
    {
      "constant": true,
      "inputs": [
        {
          "internalType": "uint256",
          "name": "_id",
          "type": "uint256"
        }
      ],
      "name": "getLiquidityById",
      "outputs": [
        {
          "internalType": "uint256",
          "name": "id",
          "type": "uint256"
        },
        {
          "internalType": "uint256",
          "name": "matchId",
          "type": "uint256"
        },
        {
          "internalType": "uint256",
          "name": "sideId",
          "type": "uint256"
        },
        {
          "internalType": "uint256",
          "name": "remainingLiquidity",
          "type": "uint256"
        },
        {
          "internalType": "uint256",
          "name": "odds",
          "type": "uint256"
        },
        {
          "internalType": "bool",
          "name": "closed",
          "type": "bool"
        },
        {
          "internalType": "uint256",
          "name": "createdTime",
          "type": "uint256"
        }
      ],
      "payable": false,
      "stateMutability": "view",
      "type": "function"
    }
  ],
  "bytecode": "0x608060405266038d7ea4c6800060035566038d7ea4c680006005556000600660006101000a81548173ffffffffffffffffffffffffffffffffffffffff021916908373ffffffffffffffffffffffffffffffffffffffff160217905550600660009054906101000a900473ffffffffffffffffffffffffffffffffffffffff16600760006101000a81548173ffffffffffffffffffffffffffffffffffffffff021916908373ffffffffffffffffffffffffffffffffffffffff1602179055503480156100cb57600080fd5b50336000806101000a81548173ffffffffffffffffffffffffffffffffffffffff021916908373ffffffffffffffffffffffffffffffffffffffff16021790555033600160006101000a81548173ffffffffffffffffffffffffffffffffffffffff021916908373ffffffffffffffffffffffffffffffffffffffff1602179055506130968061015c6000396000f3fe60806040526004361061013f5760003560e01c80638b7afe2e116100b6578063d1a371501161006f578063d1a37150146108c1578063ddf07c1f146108f0578063df53caf1146109a2578063e57bcd4a14610a32578063ec9fdc1014610a8f578063f435e4cc14610abe5761013f565b80638b7afe2e146106ad5780638da5cb5b146106d85780638f32d59b1461072f5780639b5fa0a51461075e578063ca133d81146107db578063ca3d5e84146108925761013f565b80634afe62b5116101085780634afe62b51461044c5780634c69c00f1461049857806356150a36146105015780635d62610f14610554578063605c43de1461059a5780638a216afe146106415761013f565b806221958d1461014457806322af00fa1461018a57806330096ba71461029e578063343d467414610344578063422f1043146103f6575b600080fd5b6101706004803603602081101561015a57600080fd5b8101908080359060200190929190505050610b4e565b604051808215151515815260200191505060405180910390f35b34801561019657600080fd5b506101c3600480360360208110156101ad57600080fd5b8101908080359060200190929190505050610cbb565b604051808f81526020018e81526020018d81526020018c81526020018b81526020018a81526020018981526020018873ffffffffffffffffffffffffffffffffffffffff1673ffffffffffffffffffffffffffffffffffffffff1681526020018773ffffffffffffffffffffffffffffffffffffffff1673ffffffffffffffffffffffffffffffffffffffff16815260200186815260200185600381111561026757fe5b60ff168152602001848152602001838152602001821515151581526020019e50505050505050505050505050505060405180910390f35b3480156102aa57600080fd5b506102ed600480360360208110156102c157600080fd5b81019080803573ffffffffffffffffffffffffffffffffffffffff169060200190929190505050610d8e565b6040518080602001828103825283818151815260200191508051906020019060200280838360005b83811015610330578082015181840152602081019050610315565b505050509050019250505060405180910390f35b34801561035057600080fd5b5061039f6004803603604081101561036757600080fd5b81019080803573ffffffffffffffffffffffffffffffffffffffff169060200190929190803515159060200190929190505050610e2a565b6040518080602001828103825283818151815260200191508051906020019060200280838360005b838110156103e25780820151818401526020810190506103c7565b505050509050019250505060405180910390f35b6104366004803603606081101561040c57600080fd5b81019080803590602001909291908035906020019092919080359060200190929190505050610ed2565b6040518082815260200191505060405180910390f35b6104826004803603604081101561046257600080fd5b8101908080359060200190929190803590602001909291905050506114a8565b6040518082815260200191505060405180910390f35b3480156104a457600080fd5b506104e7600480360360208110156104bb57600080fd5b81019080803573ffffffffffffffffffffffffffffffffffffffff169060200190929190505050611cff565b604051808215151515815260200191505060405180910390f35b61053a6004803603604081101561051757600080fd5b8101908080359060200190929190803560ff169060200190929190505050611e60565b604051808215151515815260200191505060405180910390f35b6105806004803603602081101561056a57600080fd5b81019080803590602001909291905050506122b3565b604051808215151515815260200191505060405180910390f35b3480156105a657600080fd5b506105d3600480360360208110156105bd57600080fd5b81019080803590602001909291905050506125fd565b604051808c81526020018b81526020018a815260200189815260200188815260200187600381111561060157fe5b60ff168152602001868152602001858152602001848152602001838152602001821515151581526020019b50505050505050505050505060405180910390f35b34801561064d57600080fd5b50610656612723565b6040518080602001828103825283818151815260200191508051906020019060200280838360005b8381101561069957808201518184015260208101905061067e565b505050509050019250505060405180910390f35b3480156106b957600080fd5b506106c2612866565b6040518082815260200191505060405180910390f35b3480156106e457600080fd5b506106ed61286e565b604051808273ffffffffffffffffffffffffffffffffffffffff1673ffffffffffffffffffffffffffffffffffffffff16815260200191505060405180910390f35b34801561073b57600080fd5b50610744612897565b604051808215151515815260200191505060405180910390f35b34801561076a57600080fd5b506107976004803603602081101561078157600080fd5b81019080803590602001909291905050506128ee565b604051808881526020018781526020018681526020018581526020018481526020018315151515815260200182815260200197505050505050505060405180910390f35b3480156107e757600080fd5b50610814600480360360208110156107fe57600080fd5b8101908080359060200190929190505050612989565b604051808a81526020018973ffffffffffffffffffffffffffffffffffffffff1673ffffffffffffffffffffffffffffffffffffffff16815260200188815260200187815260200186815260200185815260200184151515158152602001838152602001828152602001995050505050505050505060405180910390f35b34801561089e57600080fd5b506108a7612a11565b604051808215151515815260200191505060405180910390f35b3480156108cd57600080fd5b506108d6612abb565b604051808215151515815260200191505060405180910390f35b3480156108fc57600080fd5b5061094b6004803603604081101561091357600080fd5b81019080803573ffffffffffffffffffffffffffffffffffffffff169060200190929190803515159060200190929190505050612b10565b6040518080602001828103825283818151815260200191508051906020019060200280838360005b8381101561098e578082015181840152602081019050610973565b505050509050019250505060405180910390f35b3480156109ae57600080fd5b506109db600480360360208110156109c557600080fd5b8101908080359060200190929190505050612bb8565b6040518080602001828103825283818151815260200191508051906020019060200280838360005b83811015610a1e578082015181840152602081019050610a03565b505050509050019250505060405180910390f35b348015610a3e57600080fd5b50610a7560048036036040811015610a5557600080fd5b810190808035906020019092919080359060200190929190505050612c28565b604051808215151515815260200191505060405180910390f35b348015610a9b57600080fd5b50610aa4612d14565b604051808215151515815260200191505060405180910390f35b348015610aca57600080fd5b50610af760048036036020811015610ae157600080fd5b8101908080359060200190929190505050612d85565b6040518080602001828103825283818151815260200191508051906020019060200280838360005b83811015610b3a578082015181840152602081019050610b1f565b505050509050019250505060405180910390f35b6000803414610b5c57600080fd5b6000600b600c60008581526020019081526020016000205481548110610b7e57fe5b90600052602060002090600902019050610b96612897565b80610bf057508060010160009054906101000a900473ffffffffffffffffffffffffffffffffffffffff1673ffffffffffffffffffffffffffffffffffffffff163373ffffffffffffffffffffffffffffffffffffffff16145b610bf957600080fd5b8060060160009054906101000a900460ff1615610c1557600080fd5b60018160060160006101000a81548160ff021916908315150217905550600081600401549050600082600401819055508160010160009054906101000a900473ffffffffffffffffffffffffffffffffffffffff1673ffffffffffffffffffffffffffffffffffffffff166108fc829081150290604051600060405180830381858888f19350505050158015610caf573d6000803e3d6000fd5b50600192505050919050565b60088181548110610cc857fe5b90600052602060002090600e02016000915090508060000154908060010154908060020154908060030154908060040154908060050154908060060154908060070160009054906101000a900473ffffffffffffffffffffffffffffffffffffffff16908060080160009054906101000a900473ffffffffffffffffffffffffffffffffffffffff169080600901549080600a0160009054906101000a900460ff169080600b01549080600c01549080600d0160009054906101000a900460ff1690508e565b606080600d60008473ffffffffffffffffffffffffffffffffffffffff1673ffffffffffffffffffffffffffffffffffffffff168152602001908152602001600020805480602002602001604051908101604052809291908181526020018280548015610e1a57602002820191906000526020600020905b815481526020019060010190808311610e06575b5050505050905080915050919050565b606080600a60008573ffffffffffffffffffffffffffffffffffffffff1673ffffffffffffffffffffffffffffffffffffffff168152602001908152602001600020805480602002602001604051908101604052809291908181526020018280548015610eb657602002820191906000526020600020905b815481526020019060010190808311610ea2575b50505050509050610ec981846000612df5565b91505092915050565b6000610edc612abb565b610ee557600080fd5b60648211610ef257600080fd5b6127118210610f0057600080fd5b600554341015610f0f57600080fd5b600060606000806060806000600760009054906101000a900473ffffffffffffffffffffffffffffffffffffffff1673ffffffffffffffffffffffffffffffffffffffff16633d092b3d8c6040518263ffffffff1660e01b81526004018082815260200191505060006040518083038186803b158015610f8e57600080fd5b505afa158015610fa2573d6000803e3d6000fd5b505050506040513d6000823e3d601f19601f8201168201806040525060e0811015610fcc57600080fd5b810190808051906020019092919080516040519392919084640100000000821115610ff657600080fd5b8382019150602082018581111561100c57600080fd5b825186600182028301116401000000008211171561102957600080fd5b8083526020830192505050908051906020019080838360005b8381101561105d578082015181840152602081019050611042565b50505050905090810190601f16801561108a5780820380516001836020036101000a031916815260200191505b506040526020018051906020019092919080519060200190929190805160405193929190846401000000008211156110c157600080fd5b838201915060208201858111156110d757600080fd5b82518660018202830111640100000000821117156110f457600080fd5b8083526020830192505050908051906020019080838360005b8381101561112857808201518184015260208101905061110d565b50505050905090810190601f1680156111555780820380516001836020036101000a031916815260200191505b506040526020018051604051939291908464010000000082111561117857600080fd5b8382019150602082018581111561118e57600080fd5b82518660018202830111640100000000821117156111ab57600080fd5b8083526020830192505050908051906020019080838360005b838110156111df5780820151818401526020810190506111c4565b50505050905090810190601f16801561120c5780820380516001836020036101000a031916815260200191505b506040526020018051906020019092919050505096509650965096509650965096508061123857600080fd5b60008a14806112465750848a145b806112505750838a145b61125957600080fd5b6004600081546001019190508190559750600b6040518061012001604052808a81526020013373ffffffffffffffffffffffffffffffffffffffff1681526020018d81526020018c81526020013481526020018b81526020016000151581526020014281526020016000815250908060018154018082558091505090600182039060005260206000209060090201600090919290919091506000820151816000015560208201518160010160006101000a81548173ffffffffffffffffffffffffffffffffffffffff021916908373ffffffffffffffffffffffffffffffffffffffff16021790555060408201518160020155606082015181600301556080820151816004015560a0820151816005015560c08201518160060160006101000a81548160ff02191690831515021790555060e08201518160070155610100820151816008015550505060018803600c60008a815260200190815260200160002081905550600d60003373ffffffffffffffffffffffffffffffffffffffff1673ffffffffffffffffffffffffffffffffffffffff168152602001908152602001600020889080600181540180825580915050906001820390600052602060002001600090919290919091505550600e60008c81526020019081526020016000208890806001815401808255809150509060018203906000526020600020016000909192909190915055507fc2b9787b5865f184d65978c61b1c3fbd1b06bdd85ec4abac835122473ea9d4d9886040518082815260200191505060405180910390a1505050505050509392505050565b60006114b2612abb565b6114bb57600080fd5b6003543410156114ca57600080fd5b6000600b600c600086815260200190815260200160002054815481106114ec57fe5b90600052602060002090600902019050600015158160060160009054906101000a900460ff1615151461151e57600080fd5b8060010160009054906101000a900473ffffffffffffffffffffffffffffffffffffffff1673ffffffffffffffffffffffffffffffffffffffff163373ffffffffffffffffffffffffffffffffffffffff16141561157b57600080fd5b8281600501541461158b57600080fd5b6000346115a261159b3487612ffa565b6064613031565b03905080826004015410156115b657600080fd5b600060606000806060806000600760009054906101000a900473ffffffffffffffffffffffffffffffffffffffff1673ffffffffffffffffffffffffffffffffffffffff16633d092b3d8a600201546040518263ffffffff1660e01b81526004018082815260200191505060006040518083038186803b15801561163957600080fd5b505afa15801561164d573d6000803e3d6000fd5b505050506040513d6000823e3d601f19601f8201168201806040525060e081101561167757600080fd5b8101908080519060200190929190805160405193929190846401000000008211156116a157600080fd5b838201915060208201858111156116b757600080fd5b82518660018202830111640100000000821117156116d457600080fd5b8083526020830192505050908051906020019080838360005b838110156117085780820151818401526020810190506116ed565b50505050905090810190601f1680156117355780820380516001836020036101000a031916815260200191505b5060405260200180519060200190929190805190602001909291908051604051939291908464010000000082111561176c57600080fd5b8382019150602082018581111561178257600080fd5b825186600182028301116401000000008211171561179f57600080fd5b8083526020830192505050908051906020019080838360005b838110156117d35780820151818401526020810190506117b8565b50505050905090810190601f1680156118005780820380516001836020036101000a031916815260200191505b506040526020018051604051939291908464010000000082111561182357600080fd5b8382019150602082018581111561183957600080fd5b825186600182028301116401000000008211171561185657600080fd5b8083526020830192505050908051906020019080838360005b8381101561188a57808201518184015260208101905061186f565b50505050905090810190601f1680156118b75780820380516001836020036101000a031916815260200191505b50604052602001805190602001909291905050509650965096509650965096509650806118e357600080fd5b60026000815460010191905081905599506008604051806101c001604052808c81526020018e81526020018a81526020013481526020016000815260200160008152602001600081526020018b60010160009054906101000a900473ffffffffffffffffffffffffffffffffffffffff1673ffffffffffffffffffffffffffffffffffffffff1681526020013373ffffffffffffffffffffffffffffffffffffffff1681526020018d81526020016000600381111561199e57fe5b815260200142815260200160008152602001600015158152509080600181540180825580915050906001820390600052602060002090600e020160009091929091909150600082015181600001556020820151816001015560408201518160020155606082015181600301556080820151816004015560a0820151816005015560c0820151816006015560e08201518160070160006101000a81548173ffffffffffffffffffffffffffffffffffffffff021916908373ffffffffffffffffffffffffffffffffffffffff1602179055506101008201518160080160006101000a81548173ffffffffffffffffffffffffffffffffffffffff021916908373ffffffffffffffffffffffffffffffffffffffff160217905550610120820151816009015561014082015181600a0160006101000a81548160ff02191690836003811115611ae757fe5b021790555061016082015181600b015561018082015181600c01556101a082015181600d0160006101000a81548160ff02191690831515021790555050505060018a03600960008c815260200190815260200160002081905550600a60003373ffffffffffffffffffffffffffffffffffffffff1673ffffffffffffffffffffffffffffffffffffffff1681526020019081526020016000208a9080600181540180825580915050906001820390600052602060002001600090919290919091505550600a60008a60010160009054906101000a900473ffffffffffffffffffffffffffffffffffffffff1673ffffffffffffffffffffffffffffffffffffffff1673ffffffffffffffffffffffffffffffffffffffff1681526020019081526020016000208a9080600181540180825580915050906001820390600052602060002001600090919290919091505550600f60008a6002015481526020019081526020016000208a9080600181540180825580915050906001820390600052602060002001600090919290919091505550611c8689600401548961304a565b8960040181905550600089600401541415611cb95760018960060160006101000a81548160ff0219169083151502179055505b7fde1fae6a99c0f84e9bee8b7f9d2d7663e46384ff079f389d5b4b6018b56e56e98a6040518082815260200191505060405180910390a150505050505050505092915050565b6000611d09612897565b611d1257600080fd5b81600660006101000a81548173ffffffffffffffffffffffffffffffffffffffff021916908373ffffffffffffffffffffffffffffffffffffffff160217905550600660009054906101000a900473ffffffffffffffffffffffffffffffffffffffff16600760006101000a81548173ffffffffffffffffffffffffffffffffffffffff021916908373ffffffffffffffffffffffffffffffffffffffff160217905550600760009054906101000a900473ffffffffffffffffffffffffffffffffffffffff1673ffffffffffffffffffffffffffffffffffffffff1663302a72936040518163ffffffff1660e01b815260040160206040518083038186803b158015611e1e57600080fd5b505afa158015611e32573d6000803e3d6000fd5b505050506040513d6020811015611e4857600080fd5b81019080805190602001909291905050509050919050565b6000611e6a612897565b611e7357600080fd5b60003414611e8057600080fd5b60006008600960008681526020019081526020016000205481548110611ea257fe5b90600052602060002090600e020190506000151581600d0160009054906101000a900460ff16151514611ed457600080fd5b60006003811115611ee157fe5b81600a0160009054906101000a900460ff166003811115611efe57fe5b14611f0857600080fd5b8281600a0160006101000a81548160ff02191690836003811115611f2857fe5b02179055504281600c0181905550600181600d0160006101000a81548160ff021916908315150217905550600060016003811115611f6257fe5b846003811115611f6e57fe5b141561201057611f8382600301546064613031565b905060008183600201548460030154010390508083600401819055508260070160009054906101000a900473ffffffffffffffffffffffffffffffffffffffff1673ffffffffffffffffffffffffffffffffffffffff166108fc829081150290604051600060405180830381858888f19350505050158015612009573d6000803e3d6000fd5b50506121e4565b6002600381111561201d57fe5b84600381111561202957fe5b14156120cb5761203e82600201546064613031565b905060008183600201548460030154010390508083600501819055508260080160009054906101000a900473ffffffffffffffffffffffffffffffffffffffff1673ffffffffffffffffffffffffffffffffffffffff166108fc829081150290604051600060405180830381858888f193505050501580156120c4573d6000803e3d6000fd5b50506121e3565b6003808111156120d757fe5b8460038111156120e357fe5b14156121e25781600201548260040181905550816003015482600501819055508160070160009054906101000a900473ffffffffffffffffffffffffffffffffffffffff1673ffffffffffffffffffffffffffffffffffffffff166108fc83600201549081150290604051600060405180830381858888f19350505050158015612171573d6000803e3d6000fd5b508160080160009054906101000a900473ffffffffffffffffffffffffffffffffffffffff1673ffffffffffffffffffffffffffffffffffffffff166108fc83600301549081150290604051600060405180830381858888f193505050501580156121e0573d6000803e3d6000fd5b505b5b5b600081111561226057808260060181905550600160009054906101000a900473ffffffffffffffffffffffffffffffffffffffff1673ffffffffffffffffffffffffffffffffffffffff166108fc829081150290604051600060405180830381858888f1935050505015801561225e573d6000803e3d6000fd5b505b81600d0160009054906101000a900460ff1692507f0d7fd9e4a72e17428fa8f1c1e7c7436283b29d4dc0e1292783f4054585f7c38e856040518082815260200191505060405180910390a1505092915050565b60006122bd612897565b6122c657600080fd5b600034146122d357600080fd5b6000806000600760009054906101000a900473ffffffffffffffffffffffffffffffffffffffff1673ffffffffffffffffffffffffffffffffffffffff1663cfe3d27a866040518263ffffffff1660e01b81526004018082815260200191505060606040518083038186803b15801561234b57600080fd5b505afa15801561235f573d6000803e3d6000fd5b505050506040513d606081101561237557600080fd5b81019080805190602001909291908051906020019092919080519060200190929190505050925092509250600060028111156123ad57fe5b8360028111156123b957fe5b14156123c457600080fd5b60008090505b600f600087815260200190815260200160002080549050811015612528576000600860096000600f60008b8152602001908152602001600020858154811061240e57fe5b90600052602060002001548152602001908152602001600020548154811061243257fe5b90600052602060002090600e0201905080600d0160009054906101000a900460ff168061248757506000600381111561246757fe5b81600a0160009054906101000a900460ff16600381111561248457fe5b14155b15612492575061251b565b6000600b600c60008460010154815260200190815260200160002054815481106124b857fe5b90600052602060002090600902019050600060019050600160028111156124db57fe5b8760028111156124e757fe5b14156124f65760039050612508565b858260030154141561250757600290505b5b612516836000015482611e60565b505050505b80806001019150506123ca565b5060008090505b600e6000878152602001908152602001600020805490508110156125f0576000600b600c6000600e60008b8152602001908152602001600020858154811061257357fe5b90600052602060002001548152602001908152602001600020548154811061259757fe5b906000526020600020906009020190508060060160009054906101000a900460ff16806125c8575060008160040154145b156125d357506125e3565b6125e08160000154610b4e565b50505b808060010191505061252f565b5060019350505050919050565b6000806000806000806000806000806000806008600960008f8152602001908152602001600020548154811061262f57fe5b90600052602060002090600e020190506000600b600c600084600101548152602001908152602001600020548154811061266557fe5b9060005260206000209060090201905080600201549c5080600301549b5081600901549a50816002015499508160030154985081600a0160009054906101000a900460ff16975081600401549650816005015495508160060154945081600b01549350600082600c015411156126dd5781600c015493505b81600d0160009054906101000a900460ff1692508c8c8c8c8c8c8c8c8c8c8c9c509c509c509c509c509c509c509c509c509c509c50505091939597999b90929496989a50565b6060600080905060008090505b600b80549050811015612791576000600b828154811061274c57fe5b90600052602060002090600902019050600015158160060160009054906101000a900460ff16151514156127835782806001019350505b508080600101915050612730565b506060816040519080825280602002602001820160405280156127c35781602001602082028038833980820191505090505b509050600082111561285e5760008090506000600b8054905090505b600081111561285b576000600b60018303815481106127fa57fe5b90600052602060002090600902019050600015158160060160009054906101000a900460ff161515141561284c57806000015484848060010195508151811061283f57fe5b6020026020010181815250505b508080600190039150506127df565b50505b809250505090565b600047905090565b60008060009054906101000a900473ffffffffffffffffffffffffffffffffffffffff16905090565b60008060009054906101000a900473ffffffffffffffffffffffffffffffffffffffff1673ffffffffffffffffffffffffffffffffffffffff163373ffffffffffffffffffffffffffffffffffffffff1614905090565b600080600080600080600080600b600c60008b8152602001908152602001600020548154811061291a57fe5b9060005260206000209060090201905080600001549750806002015496508060030154955080600401549450806005015493508060060160009054906101000a900460ff1692508060070154915087878787878787975097509750975097509750975050919395979092949650565b600b818154811061299657fe5b90600052602060002090600902016000915090508060000154908060010160009054906101000a900473ffffffffffffffffffffffffffffffffffffffff16908060020154908060030154908060040154908060050154908060060160009054906101000a900460ff16908060070154908060080154905089565b6000600760009054906101000a900473ffffffffffffffffffffffffffffffffffffffff1673ffffffffffffffffffffffffffffffffffffffff1663302a72936040518163ffffffff1660e01b815260040160206040518083038186803b158015612a7b57600080fd5b505afa158015612a8f573d6000803e3d6000fd5b505050506040513d6020811015612aa557600080fd5b8101908080519060200190929190505050905090565b6000601060003373ffffffffffffffffffffffffffffffffffffffff1673ffffffffffffffffffffffffffffffffffffffff16815260200190815260200160002060009054906101000a900460ff1615905090565b606080600a60008573ffffffffffffffffffffffffffffffffffffffff1673ffffffffffffffffffffffffffffffffffffffff168152602001908152602001600020805480602002602001604051908101604052809291908181526020018280548015612b9c57602002820191906000526020600020905b815481526020019060010190808311612b88575b50505050509050612baf81846001612df5565b91505092915050565b606080600e6000848152602001908152602001600020805480602002602001604051908101604052809291908181526020018280548015612c1857602002820191906000526020600020905b815481526020019060010190808311612c04575b5050505050905080915050919050565b600060648211612c3757600080fd5b6127118210612c4557600080fd5b6000600b600c60008681526020019081526020016000205481548110612c6757fe5b906000526020600020906009020190508060010160009054906101000a900473ffffffffffffffffffffffffffffffffffffffff1673ffffffffffffffffffffffffffffffffffffffff163373ffffffffffffffffffffffffffffffffffffffff1614612cd357600080fd5b8060060160009054906101000a900460ff1615612cef57600080fd5b6000816004015411612d0057600080fd5b828160050181905550600191505092915050565b6000612d1e612abb565b612d2757600080fd5b6001905080601060003373ffffffffffffffffffffffffffffffffffffffff1673ffffffffffffffffffffffffffffffffffffffff16815260200190815260200160002060006101000a81548160ff02191690831515021790555090565b606080600f6000848152602001908152602001600020805480602002602001604051908101604052809291908181526020018280548015612de557602002820191906000526020600020905b815481526020019060010190808311612dd1575b5050505050905080915050919050565b6060600080905060008090505b8551811015612f2657600060088281548110612e1a57fe5b90600052602060002090600e0201905084151581600d0160009054906101000a900460ff161515148015612f0a5750858015612ea557503373ffffffffffffffffffffffffffffffffffffffff168160070160009054906101000a900473ffffffffffffffffffffffffffffffffffffffff1673ffffffffffffffffffffffffffffffffffffffff16145b80612f09575085158015612f0857503373ffffffffffffffffffffffffffffffffffffffff168160080160009054906101000a900473ffffffffffffffffffffffffffffffffffffffff1673ffffffffffffffffffffffffffffffffffffffff16145b5b5b15612f185782806001019350505b508080600101915050612e02565b50606081604051908082528060200260200182016040528015612f585781602001602082028038833980820191505090505b5090506000821115612fee5760008090506000875190505b6000811115612feb57600060086001830381548110612f8b57fe5b90600052602060002090600e0201905086151581600d0160009054906101000a900460ff1615151415612fdc578060000154848480600101955081518110612fcf57fe5b6020026020010181815250505b50808060019003915050612f70565b50505b80925050509392505050565b60008083141561300d576000905061302b565b600082840290508284828161301e57fe5b041461302657fe5b809150505b92915050565b60008082848161303d57fe5b0490508091505092915050565b60008282111561305657fe5b81830390509291505056fea265627a7a723158201de046f9a2227f1aeb115b9d3497346eb992a4fdd079bd4633d8a29211c1fabb64736f6c63430005100032",
  "source": "// SPDX-License-Identifier: MIT\r\npragma solidity >=0.5.16 <0.9.0;\r\nimport \"./safemath.sol\";\r\nimport \"./Ownable.sol\";\r\nimport \"./OracleInterface.sol\";\r\nimport \"./SoccerOracle.sol\";\r\n/// @title A title that should describe the contract/interface\r\n/// @author Chris Patterson\r\n/// @notice Explain to an end user what this does\r\n/// @dev Explain to a developer any extra details\r\ncontract BeTheBookie is Ownable {\r\n\r\n    address payable private ownerPayable;\r\n    uint256 betCounter;\r\n    uint minBet = 0.001 ether;\r\n    uint256 liquidityCounter;\r\n    uint minLiquidity = 0.001 ether;\r\n\r\n    address internal soccerOracleAddr = address(0);\r\n    OracleInterface internal oracle = OracleInterface(soccerOracleAddr);\r\n\r\n    Bet[] public bets;\r\n    mapping (uint256 => uint) betMapping; //id -> index\r\n    \r\n    //mapping of pundit bets to an address\r\n    mapping (address => uint256[]) addressBetsMapping; \r\n\r\n    Liquidity[] public betPools;\r\n    mapping (uint256 => uint) poolMapping; //id -> index\r\n\r\n    //mapping of bookie liquidity to an address\r\n    mapping (address => uint256[]) bookieLiquidityMapping; \r\n\r\n    //mapping of the unique match id's to provided liquidity. Used to be able to filter for available bets without downloading the entire dataset.\r\n    mapping (uint256 => uint256[]) matchLiquidityMapping; \r\n    //mapping of the unique match id's to bets. It is needed to be able to find all bets for a given match on the client. \r\n    mapping (uint256 => uint256[]) matchBetMapping; \r\n    \r\n    enum MatchResult{ Undecided, BookieWon, PunditWon, Void }\r\n\r\n/// @notice Maintains a list of addresses which have opted to self exclude from the platform.\r\n    mapping (address => bool) exclusionList;\r\n\r\n/// @notice Raises an event that a new liquidity / market has been provided to pundits.\r\n/// @dev Will be used by the GUI as a trigger to reload the screen\r\n/// @param id the liquidityId\r\n    event BookieProvidingLiquidity(uint256 id);\r\n\r\n/// @notice Raised when a bet is placed. \r\n/// @dev Will be used by the GUI as a trigger to reload the screen\r\n/// @param id new unique bet id\r\n    event BetPlaced(uint256 id);\r\n\r\n/// @notice Explain to an end user what this does\r\n/// @dev Will be used by the GUI as a trigger to reload the screen to show if they won or not.\r\n/// @param id bet id\r\n    event BetResult(uint256 id);\r\n\r\n//Structure representing a bet with 2 parties involved. The Pundit and the Bookie. The bookie placed odds and liquidity and the pundit took a position. \r\n//The payout will go to either the Pundit or the Bookie when the result is decided. There is a 1% fee taken off the profits paid to the contract owner.\r\n    struct Bet {\r\n        uint256 id;\r\n        uint256 liquidityId;\r\n        uint256 bookieCollateral;\r\n        uint256 punditCollateral;\r\n        uint256 bookiePayout; \r\n        uint256 punditPayout; \r\n        uint256 feePaid;\r\n        address payable bookie; // bookie address copied from the liquidity object\r\n        address payable pundit; //account taking a punt on this outcome (they want to win)\r\n        uint odds; //odds at the time of bet.\r\n        MatchResult result;\r\n        uint createdTime;\r\n        uint closedTime;\r\n        bool closed;\r\n    }\r\n\r\n//Structure representing betting liquidity on a certain match/player/odds. ie: As a bookie I can lay odds on Federer to beat Nadal at 200 (even payout).\r\n//The bookie can post the total liquidity they are willing to expose themselves to; ie: 10 ETH and as bets are placed the available liquidty will decrease until it reaches 0.\r\n//With these odds, pundits (people taking a bet) can take a position on these odds. ie: 1ETH. \r\n//The pundit hopes Federer wins as they will receive 2 ETH in return whereas the bookie hopes Nadal wins as they receive the bet amount + the liquidity they provided. 2 ETH as well.\r\n//Odds can range from 101 to 10000. 101 is equivalent to 1.01 * stake and 10000 is 100 * stake. \r\n//Once a bet is placed it is final and will require an outcome.\r\n    struct Liquidity {\r\n        uint256 id;\r\n        address payable bookie; //account laying the odds (they do not want this bet to pay out)\r\n        uint matchId; //each match will have a unique id\r\n        uint sideId; //will need to choose the winning side of the match\r\n        uint256 remainingLiquidity;\r\n        uint odds; // 1.50 odds would be stored as 150 (*100).\r\n        bool closed;\r\n        uint createdTime;\r\n        uint closedTime;\r\n    }\r\n\r\n\r\n      /* \r\n   * Modifiers\r\n   */\r\n\r\n  // Create a modifer, `isOwner` that checks if the msg.sender is the owner of the contract\r\n//   function isOwner() public view returns(bool) {\r\n//     return msg.sender == owner;\r\n//   }\r\n\r\n  function isNotExcluded() public view returns(bool) {\r\n    return !exclusionList[msg.sender];\r\n  }\r\n\r\n    // Fallback function - Called if other functions don't match call or\r\n    // sent ether without data\r\n    // Typically, called when invalid data is sent\r\n    // Added so ether sent to this contract is reverted if the contract fails\r\n    // otherwise, the sender's money is transferred to contract\r\n    function () external payable {\r\n        revert();\r\n    }\r\n\r\n    constructor() public {\r\n        ownerPayable = msg.sender;\r\n    }\r\n\r\n/// @notice Gambling addiction is a real problem and this option allows people to self exclude from the platform should they feel they are participating in an unhealthly way.\r\n/// @return _excluded returns true when added.\r\n    function selfExclude() public returns (bool _excluded)\r\n    {\r\n        require(isNotExcluded()); //no point executing this function twice.\r\n        _excluded = true;\r\n        exclusionList[msg.sender] = _excluded;\r\n    }\r\n\r\n/// @notice Explain to an end user what this does\r\n/// @dev Explain to a developer any extra details\r\n    function contractBalance() public view returns (uint256 _balance) {\r\n        _balance = address(this).balance;\r\n    }\r\n\r\n    function setOracleAddress(address _address) public onlyOwner returns (bool) {\r\n        soccerOracleAddr = _address;\r\n        oracle = OracleInterface(soccerOracleAddr);\r\n        return oracle.Validate();\r\n    }\r\n    \r\n    function testOracleValid() public view returns (bool) {\r\n        return oracle.Validate();\r\n    }\r\n\r\n/// @notice Public function allowing a pundit to place a bet leveraging existing liquidity in a market/odds.\r\n/// @dev bookieCollateral is somewhat complex as depending on the stake, the payout has to be calculated on the fly and deducted from the pool of liquidity. \r\n/// @param _liquidityId pointer to available liquidity. The msg.amount is the stake.\r\n/// @return _id - returns unique ID of the new bet object.\r\n    function placeBet(uint256 _liquidityId, uint _odds) public payable returns (uint256 _id)\r\n    {\r\n        require(isNotExcluded()); //ensure the participant has not chosed to self exclude from the platform\r\n        require(msg.value >= minBet);\r\n        \r\n        Liquidity storage _l = betPools[poolMapping[_liquidityId]];\r\n        require(_l.closed == false);\r\n        require(msg.sender != _l.bookie);\r\n        require(_l.odds == _odds); //possible the bookie might adjust the odds before a bet has been placed. Confirm they match.\r\n\r\n        uint256 bookieCollateral = SafeMath.div(SafeMath.mul(msg.value, _odds), 100)-msg.value;\r\n        require(_l.remainingLiquidity >= bookieCollateral);\r\n\r\n        (uint256 id, \r\n        string memory match_date, \r\n        uint256 team1_id,\r\n        uint256 team2_id,\r\n        string memory team1_name,\r\n        string memory team2_name,\r\n        bool pending) = oracle.getMatch(_l.matchId);\r\n\r\n        require(pending);\r\n\r\n        _id = ++betCounter;\r\n\r\n        bets.push(Bet({\r\n            id: _id,\r\n            liquidityId: _liquidityId, \r\n            bookieCollateral: bookieCollateral,\r\n            punditCollateral: msg.value,\r\n            bookiePayout: 0, \r\n            punditPayout: 0, \r\n            feePaid: 0,\r\n            pundit: msg.sender,\r\n            bookie: _l.bookie,\r\n            odds: _odds,\r\n            result: MatchResult.Undecided, \r\n            createdTime: block.timestamp,\r\n            closedTime: 0,\r\n            closed: false\r\n            }));\r\n\r\n        betMapping[_id] = _id-1;\r\n        addressBetsMapping[msg.sender].push(_id);\r\n        addressBetsMapping[_l.bookie].push(_id);\r\n        matchBetMapping[_l.matchId].push(_id);\r\n\r\n        _l.remainingLiquidity = SafeMath.sub(_l.remainingLiquidity, bookieCollateral);\r\n        if (_l.remainingLiquidity == 0)\r\n        {\r\n            _l.closed = true;\r\n        }\r\n\r\n        emit BetPlaced(_id);\r\n\r\n    }\r\n\r\n    function matchCompleteHandlePayouts(uint256 _matchId) public payable onlyOwner returns (bool _success) {\r\n        require(msg.value == 0);\r\n        (OracleInterface.ResultType _type,uint256 winning_team_id,uint256 result_time)  = oracle.getMatchResult(_matchId);\r\n        require(_type != OracleInterface.ResultType.Undecided);\r\n\r\n        for (uint i = 0; i < matchBetMapping[_matchId].length; i++)\r\n        {\r\n            Bet storage _bet = bets[betMapping[matchBetMapping[_matchId][i]]];\r\n            if (_bet.closed || _bet.result != MatchResult.Undecided) //double check to ensure the bet is still open.\r\n                {continue;}\r\n\r\n            Liquidity storage _l = betPools[poolMapping[_bet.liquidityId]];\r\n\r\n            MatchResult _result = MatchResult.BookieWon;\r\n            if (_type == OracleInterface.ResultType.Void)\r\n                _result = MatchResult.Void;\r\n            else if (_l.sideId == winning_team_id)\r\n                _result = MatchResult.PunditWon;\r\n            \r\n            setResult(_bet.id, _result);\r\n        }\r\n\r\n        for (uint j = 0; j < matchLiquidityMapping[_matchId].length; j++)\r\n        {\r\n            Liquidity storage _l = betPools[poolMapping[matchLiquidityMapping[_matchId][j]]];\r\n            if (_l.closed || _l.remainingLiquidity == 0)\r\n                { continue; }\r\n            refundLiquidity(_l.id);\r\n        }\r\n        \r\n\r\n        _success = true;\r\n    }\r\n\r\n\r\n/// @notice called internally by the contract owner to set the result of a given bet.  \r\n/// @dev The payout structure depends on who wins but either the pundit or bookie gets paid - 1% of profits as a fee.\r\n/// @param _betId - unique id of the bet\r\n/// @param _result - result of the match. Determines how the bet pays out.\r\n/// @return _success true if no errors.\r\n    function setResult(uint256 _betId, MatchResult _result) public payable onlyOwner returns (bool _success) {\r\n        require(msg.value == 0);\r\n\r\n        Bet storage _bet = bets[betMapping[_betId]];\r\n        require(_bet.closed == false);\r\n        require(_bet.result == MatchResult.Undecided);\r\n\r\n        _bet.result = _result;\r\n        _bet.closedTime = block.timestamp;\r\n        _bet.closed = true;\r\n\r\n        uint256 fee;\r\n        if (_result == MatchResult.BookieWon)\r\n        {\r\n            fee = SafeMath.div(_bet.punditCollateral, 100);\r\n            uint256 payout = _bet.punditCollateral + _bet.bookieCollateral - fee;\r\n            _bet.bookiePayout = payout;\r\n            _bet.bookie.transfer(payout);\r\n        }\r\n        else if (_result == MatchResult.PunditWon)\r\n        {\r\n            fee = SafeMath.div(_bet.bookieCollateral, 100);\r\n            uint256 payout = _bet.punditCollateral + _bet.bookieCollateral - fee;\r\n            _bet.punditPayout = payout;\r\n            _bet.pundit.transfer(payout);\r\n        }\r\n        else if (_result == MatchResult.Void)\r\n        {\r\n            //refund their money as the match was cancelled\r\n            _bet.bookiePayout = _bet.bookieCollateral;\r\n            _bet.punditPayout = _bet.punditCollateral;\r\n            _bet.bookie.transfer(_bet.bookieCollateral);\r\n            _bet.pundit.transfer(_bet.punditCollateral);\r\n        }\r\n\r\n        if (fee > 0)\r\n        {\r\n            _bet.feePaid = fee;\r\n            ownerPayable.transfer(fee);\r\n        }\r\n\r\n        _success = _bet.closed;\r\n        emit BetResult(_betId);\r\n    }\r\n\r\n/// @notice Explain to an end user what this does\r\n/// @dev Explain to a developer any extra details\r\n/// @return uint256[] - list of bet ID's owned by the msg.sender\r\n    function getActiveBetsByAddress(address a, bool asBookie) external view returns (uint256[] memory)\r\n    {\r\n        uint256[] memory _bets = addressBetsMapping[a];\r\n        return getActiveBetsByAddressAndStatus(_bets, asBookie, false);\r\n    }\r\n\r\n/// @notice Explain to an end user what this does\r\n/// @dev Explain to a developer any extra details\r\n/// @return uint256[] - list of bet ID's owned by the msg.sender\r\n    function getInActiveBetsByAddress(address a, bool asBookie) external view returns (uint256[] memory)\r\n    {\r\n        uint256[] memory _bets = addressBetsMapping[a];\r\n        return getActiveBetsByAddressAndStatus(_bets, asBookie, true);\r\n    }\r\n\r\n    function getActiveBetsByAddressAndStatus(uint256[] memory _bets, bool asBookie, bool isClosed) private view returns (uint256[] memory)\r\n    {\r\n        uint count = 0; \r\n\r\n        //get count of pending matches \r\n        for (uint i = 0; i < _bets.length; i++) {\r\n            Bet storage _bet = bets[i];\r\n            if (_bet.closed == isClosed && \r\n                    ((asBookie && _bet.bookie == msg.sender) \r\n                    || (!asBookie && _bet.pundit == msg.sender))\r\n                ) \r\n                count++; \r\n        }\r\n\r\n        //collect up all the pending matches\r\n        uint256[] memory output = new uint256[](count); \r\n\r\n        if (count > 0) {\r\n            uint index = 0;\r\n            for (uint n = _bets.length; n > 0; n--) {\r\n                Bet storage _bet = bets[n-1];\r\n                if (_bet.closed == isClosed) \r\n                    output[index++] = _bet.id;\r\n            }\r\n        } \r\n\r\n        return output;\r\n    }\r\n\r\n    function getBetById(uint256 _id) external view returns (uint256 matchId, uint256 sideId, uint256 odds, uint256 bookieCollateral, uint256 punditCollateral,  MatchResult result, uint256 bookiePayout, uint256 punditPayout, uint256 feePaid, uint lastUpdateTime, bool closed)\r\n    {\r\n        Bet storage bet = bets[betMapping[_id]];\r\n        Liquidity storage _l = betPools[poolMapping[bet.liquidityId]];\r\n        \r\n        matchId = _l.matchId;\r\n        sideId = _l.sideId;\r\n        odds = bet.odds;\r\n        bookieCollateral = bet.bookieCollateral;\r\n        punditCollateral = bet.punditCollateral;\r\n        result = bet.result;\r\n        bookiePayout = bet.bookiePayout;\r\n        punditPayout = bet.punditPayout;\r\n        feePaid = bet.feePaid;\r\n        lastUpdateTime = bet.createdTime;\r\n        if (bet.closedTime > 0)\r\n            lastUpdateTime = bet.closedTime;\r\n        closed = bet.closed;\r\n        return (matchId, sideId, odds, bookieCollateral, punditCollateral, result, bookiePayout, punditPayout, feePaid, lastUpdateTime, closed);\r\n    }\r\n\r\n    /// @notice Public function for a bookie to place odds on a match result and submit available liquidity. ie: Federer to beat Nadal, 200 odds with 10ETH max payout.\r\n    /// @param _matchId The unique ID of a match (ie: Federer vs Nadal at 2018 Wimbledon final)\r\n    /// @param _sideId The perspective winning side, ie: Federer. (unique ID from the source JSON data)\r\n    /// @param _odds The odds. ie: 150 = decimal equivalent odds at 1.5. 200 = 2. Payout formula is basically _odds/100 * stake. \r\n                    //ie: 150/100 * 1ETH = 0.5ETH payout + your original stake = 1.5ETH return. \r\n    /// @return _id returns unique ID of the new liquidity object.\r\n    function addLiquidity(uint _matchId, uint _sideId, uint256 _odds) public payable returns (uint _id)\r\n    {\r\n        require(isNotExcluded()); //ensure the participant has not chosed to self exclude from the platform\r\n        require(_odds > 100);\r\n        require(_odds < 10001);\r\n        require(msg.value >= minLiquidity);\r\n\r\n        (uint256 id, \r\n        string memory match_date, \r\n        uint256 team1_id,\r\n        uint256 team2_id,\r\n        string memory team1_name,\r\n        string memory team2_name,\r\n        bool pending) = oracle.getMatch(_matchId);\r\n\r\n        require(pending);\r\n        require(_sideId == 0 || _sideId == team1_id || _sideId == team2_id);\r\n\r\n        _id = ++liquidityCounter;\r\n\r\n        betPools.push(Liquidity({\r\n            id: _id,\r\n            bookie: msg.sender,\r\n            matchId: _matchId, \r\n            sideId: _sideId,\r\n            remainingLiquidity: msg.value,\r\n            odds: _odds, \r\n            closed: false,\r\n            createdTime: block.timestamp,\r\n            closedTime: 0\r\n            }));\r\n\r\n        poolMapping[_id] = _id-1;\r\n        bookieLiquidityMapping[msg.sender].push(_id);\r\n        matchLiquidityMapping[_matchId].push(_id);\r\n\r\n        emit BookieProvidingLiquidity(_id);\r\n\r\n    }\r\n\r\n    function adjustOdds(uint _liquidityId, uint _odds) public returns (bool _result) {\r\n        require(_odds > 100);\r\n        require(_odds < 10001);\r\n\r\n        Liquidity storage _l = betPools[poolMapping[_liquidityId]];\r\n        require(msg.sender == _l.bookie);\r\n        require(!_l.closed);\r\n        require(_l.remainingLiquidity > 0);\r\n\r\n        _l.odds = _odds;\r\n        _result = true;\r\n    }\r\n\r\n\r\n/// @notice Explain to an end user what this does\r\n/// @dev Explain to a developer any extra details\r\n/// @param _id liqudity id\r\n/// @return _result true if no errors\r\n    function refundLiquidity(uint _id) public payable returns (bool _result) {\r\n        require(msg.value == 0);\r\n        Liquidity storage _l = betPools[poolMapping[_id]];\r\n        require(isOwner() || msg.sender == _l.bookie);\r\n        require(!_l.closed);\r\n        \r\n        _l.closed = true;\r\n        uint refund = _l.remainingLiquidity;\r\n        _l.remainingLiquidity = 0;\r\n        _l.bookie.transfer(refund);\r\n        _result = true;\r\n    }\r\n\r\n/// @notice Explain to an end user what this does\r\n/// @dev Explain to a developer any extra details\r\n/// @return uint256[] - list of liquidity ID's owned by the msg.sender\r\n    function getBookieLiquidity(address bookie) external view returns (uint256[] memory)\r\n    {\r\n        uint256[] memory response = bookieLiquidityMapping[bookie];\r\n        return response;\r\n    }\r\n\r\n/// @notice Explain to an end user what this does\r\n/// @dev Explain to a developer any extra details\r\n/// @param _matchId unique match id\r\n/// @return uint256[] - list of liquidity ID's for that match\r\n    function getMatchLiquidity(uint256 _matchId) external view returns (uint256[] memory) {\r\n        uint256[] memory response = matchLiquidityMapping[_matchId];\r\n        return response;\r\n    }\r\n\r\n    function getAllAvailableLiquidity() external view returns (uint256[] memory) {\r\n        uint count = 0; \r\n\r\n        //get count of available liquidity \r\n        for (uint i = 0; i < betPools.length; i++) {\r\n            Liquidity storage _l = betPools[i];\r\n            if (_l.closed == false) \r\n                count++; \r\n        }\r\n\r\n        //collect up all the pending matches\r\n        uint256[] memory output = new uint256[](count); \r\n\r\n        if (count > 0) {\r\n            uint index = 0;\r\n            for (uint n = betPools.length; n > 0; n--) {\r\n                Liquidity storage _l = betPools[n-1];\r\n                if (_l.closed == false) \r\n                    output[index++] = _l.id;\r\n            }\r\n        } \r\n\r\n        return output;\r\n    }\r\n\r\n/// @notice Explain to an end user what this does\r\n/// @dev Explain to a developer any extra details\r\n/// @param _matchId unique match id\r\n/// @return uint256[] - list of liquidity ID's for that match\r\n    function getMatchBets(uint256 _matchId) external view returns (uint256[] memory) {\r\n        uint256[] memory response = matchBetMapping[_matchId];\r\n        return response;\r\n    }    \r\n    \r\n    /// @notice Explain to an end user what this does\r\n/// @dev Explain to a developer any extra details\r\n/// @param _id liqudity id\r\n/// @return _result true if no errors\r\n    function getLiquidityById(uint _id) external view returns (uint id, uint matchId, uint sideId, uint256 remainingLiquidity, uint odds, bool closed, uint createdTime)\r\n    {\r\n        Liquidity storage _l = betPools[poolMapping[_id]];\r\n        id = _l.id;\r\n        matchId = _l.matchId;\r\n        sideId = _l.sideId;\r\n        remainingLiquidity = _l.remainingLiquidity;\r\n        odds = _l.odds;\r\n        closed = _l.closed;\r\n        createdTime = _l.createdTime;\r\n        return (id, matchId, sideId, remainingLiquidity, odds, closed, createdTime);\r\n    }\r\n\r\n}\r\n\r\n",
  "sourcePath": "E:\\GIT\\blockchain-developer-bootcamp-final-project\\contracts\\BeTheBookie.sol",
  "compiler": {
    "name": "solc",
    "version": "0.5.16+commit.9c3226ce.Emscripten.clang"
  },
  "schemaVersion": "3.4.3",
  "updatedAt": "2021-10-28T22:16:05.927Z",
  "networkType": "ethereum",
  "devdoc": {
    "author": "Chris Patterson",
    "details": "Explain to a developer any extra details",
    "methods": {
      "addLiquidity(uint256,uint256,uint256)": {
        "return": "_id returns unique ID of the new liquidity object."
      },
      "contractBalance()": {
        "details": "Explain to a developer any extra details"
      },
      "getActiveBetsByAddress(address,bool)": {
        "details": "Explain to a developer any extra details",
        "return": "uint256[] - list of bet ID's owned by the msg.sender"
      },
      "getBookieLiquidity(address)": {
        "details": "Explain to a developer any extra details",
        "return": "uint256[] - list of liquidity ID's owned by the msg.sender"
      },
      "getInActiveBetsByAddress(address,bool)": {
        "details": "Explain to a developer any extra details",
        "return": "uint256[] - list of bet ID's owned by the msg.sender"
      },
      "getLiquidityById(uint256)": {
        "details": "Explain to a developer any extra details",
        "params": {
          "_id": "liqudity id"
        },
        "return": "_result true if no errors"
      },
      "getMatchBets(uint256)": {
        "details": "Explain to a developer any extra details",
        "params": {
          "_matchId": "unique match id"
        },
        "return": "uint256[] - list of liquidity ID's for that match"
      },
      "getMatchLiquidity(uint256)": {
        "details": "Explain to a developer any extra details",
        "params": {
          "_matchId": "unique match id"
        },
        "return": "uint256[] - list of liquidity ID's for that match"
      },
      "isOwner()": {
        "return": "true if `msg.sender` is the owner of the contract."
      },
      "owner()": {
        "return": "the address of the owner."
      },
      "placeBet(uint256,uint256)": {
        "details": "bookieCollateral is somewhat complex as depending on the stake, the payout has to be calculated on the fly and deducted from the pool of liquidity. ",
        "params": {
          "_liquidityId": "pointer to available liquidity. The msg.amount is the stake."
        },
        "return": "_id - returns unique ID of the new bet object."
      },
      "refundLiquidity(uint256)": {
        "details": "Explain to a developer any extra details",
        "params": {
          "_id": "liqudity id"
        },
        "return": "_result true if no errors"
      },
      "selfExclude()": {
        "return": "_excluded returns true when added."
      },
      "setResult(uint256,uint8)": {
        "details": "The payout structure depends on who wins but either the pundit or bookie gets paid - 1% of profits as a fee.",
        "params": {
          "_betId": "- unique id of the bet",
          "_result": "- result of the match. Determines how the bet pays out."
        },
        "return": "_success true if no errors."
      }
    },
    "title": "A title that should describe the contract/interface"
  },
  "userdoc": {
    "methods": {
      "contractBalance()": {
        "notice": "Explain to an end user what this does"
      },
      "getActiveBetsByAddress(address,bool)": {
        "notice": "Explain to an end user what this does"
      },
      "getBookieLiquidity(address)": {
        "notice": "Explain to an end user what this does"
      },
      "getInActiveBetsByAddress(address,bool)": {
        "notice": "Explain to an end user what this does"
      },
      "getLiquidityById(uint256)": {
        "notice": "Explain to an end user what this does"
      },
      "getMatchBets(uint256)": {
        "notice": "Explain to an end user what this does"
      },
      "getMatchLiquidity(uint256)": {
        "notice": "Explain to an end user what this does"
      },
      "placeBet(uint256,uint256)": {
        "notice": "Public function allowing a pundit to place a bet leveraging existing liquidity in a market/odds."
      },
      "refundLiquidity(uint256)": {
        "notice": "Explain to an end user what this does"
      },
      "selfExclude()": {
        "notice": "Gambling addiction is a real problem and this option allows people to self exclude from the platform should they feel they are participating in an unhealthly way."
      },
      "setResult(uint256,uint8)": {
        "notice": "called internally by the contract owner to set the result of a given bet.  "
      }
    },
    "notice": "Explain to an end user what this does"
  }
}