{
  "contractName": "BeTheBookie",
  "abi": [
    {
      "inputs": [],
      "payable": false,
      "stateMutability": "nonpayable",
      "type": "constructor"
    },
    {
      "anonymous": false,
      "inputs": [
        {
          "indexed": false,
          "internalType": "uint256",
          "name": "id",
          "type": "uint256"
        }
      ],
      "name": "BetPlaced",
      "type": "event"
    },
    {
      "anonymous": false,
      "inputs": [
        {
          "indexed": false,
          "internalType": "uint256",
          "name": "id",
          "type": "uint256"
        }
      ],
      "name": "BetResult",
      "type": "event"
    },
    {
      "anonymous": false,
      "inputs": [
        {
          "indexed": false,
          "internalType": "uint256",
          "name": "id",
          "type": "uint256"
        }
      ],
      "name": "BookieProvidingLiquidity",
      "type": "event"
    },
    {
      "payable": true,
      "stateMutability": "payable",
      "type": "fallback"
    },
    {
      "constant": true,
      "inputs": [
        {
          "internalType": "uint256",
          "name": "",
          "type": "uint256"
        }
      ],
      "name": "betPools",
      "outputs": [
        {
          "internalType": "uint256",
          "name": "id",
          "type": "uint256"
        },
        {
          "internalType": "address payable",
          "name": "bookie",
          "type": "address"
        },
        {
          "internalType": "uint256",
          "name": "matchId",
          "type": "uint256"
        },
        {
          "internalType": "uint256",
          "name": "sideId",
          "type": "uint256"
        },
        {
          "internalType": "uint256",
          "name": "remainingLiquidity",
          "type": "uint256"
        },
        {
          "internalType": "uint256",
          "name": "odds",
          "type": "uint256"
        },
        {
          "internalType": "bool",
          "name": "closed",
          "type": "bool"
        },
        {
          "internalType": "uint256",
          "name": "createdTime",
          "type": "uint256"
        },
        {
          "internalType": "uint256",
          "name": "closedTime",
          "type": "uint256"
        }
      ],
      "payable": false,
      "stateMutability": "view",
      "type": "function"
    },
    {
      "constant": true,
      "inputs": [
        {
          "internalType": "uint256",
          "name": "",
          "type": "uint256"
        }
      ],
      "name": "bets",
      "outputs": [
        {
          "internalType": "uint256",
          "name": "id",
          "type": "uint256"
        },
        {
          "internalType": "uint256",
          "name": "liquidityId",
          "type": "uint256"
        },
        {
          "internalType": "uint256",
          "name": "bookieCollateral",
          "type": "uint256"
        },
        {
          "internalType": "uint256",
          "name": "punditCollateral",
          "type": "uint256"
        },
        {
          "internalType": "uint256",
          "name": "bookiePayout",
          "type": "uint256"
        },
        {
          "internalType": "uint256",
          "name": "punditPayout",
          "type": "uint256"
        },
        {
          "internalType": "uint256",
          "name": "feePaid",
          "type": "uint256"
        },
        {
          "internalType": "address payable",
          "name": "bookie",
          "type": "address"
        },
        {
          "internalType": "address payable",
          "name": "pundit",
          "type": "address"
        },
        {
          "internalType": "enum BeTheBookie.MatchResult",
          "name": "result",
          "type": "uint8"
        },
        {
          "internalType": "uint256",
          "name": "createdTime",
          "type": "uint256"
        },
        {
          "internalType": "uint256",
          "name": "closedTime",
          "type": "uint256"
        },
        {
          "internalType": "bool",
          "name": "closed",
          "type": "bool"
        }
      ],
      "payable": false,
      "stateMutability": "view",
      "type": "function"
    },
    {
      "constant": true,
      "inputs": [],
      "name": "owner",
      "outputs": [
        {
          "internalType": "address payable",
          "name": "",
          "type": "address"
        }
      ],
      "payable": false,
      "stateMutability": "view",
      "type": "function"
    },
    {
      "constant": true,
      "inputs": [],
      "name": "isOwner",
      "outputs": [
        {
          "internalType": "bool",
          "name": "",
          "type": "bool"
        }
      ],
      "payable": false,
      "stateMutability": "view",
      "type": "function"
    },
    {
      "constant": true,
      "inputs": [],
      "name": "isNotExcluded",
      "outputs": [
        {
          "internalType": "bool",
          "name": "",
          "type": "bool"
        }
      ],
      "payable": false,
      "stateMutability": "view",
      "type": "function"
    },
    {
      "constant": false,
      "inputs": [],
      "name": "selfExclude",
      "outputs": [
        {
          "internalType": "bool",
          "name": "_excluded",
          "type": "bool"
        }
      ],
      "payable": false,
      "stateMutability": "nonpayable",
      "type": "function"
    },
    {
      "constant": true,
      "inputs": [],
      "name": "contractBalance",
      "outputs": [
        {
          "internalType": "uint256",
          "name": "_balance",
          "type": "uint256"
        }
      ],
      "payable": false,
      "stateMutability": "view",
      "type": "function"
    },
    {
      "constant": false,
      "inputs": [
        {
          "internalType": "uint256",
          "name": "_liquidityId",
          "type": "uint256"
        },
        {
          "internalType": "uint256",
          "name": "_odds",
          "type": "uint256"
        }
      ],
      "name": "placeBet",
      "outputs": [
        {
          "internalType": "uint256",
          "name": "_id",
          "type": "uint256"
        }
      ],
      "payable": true,
      "stateMutability": "payable",
      "type": "function"
    },
    {
      "constant": false,
      "inputs": [
        {
          "internalType": "uint256",
          "name": "_betId",
          "type": "uint256"
        },
        {
          "internalType": "enum BeTheBookie.MatchResult",
          "name": "_result",
          "type": "uint8"
        }
      ],
      "name": "setResult",
      "outputs": [
        {
          "internalType": "bool",
          "name": "_success",
          "type": "bool"
        }
      ],
      "payable": true,
      "stateMutability": "payable",
      "type": "function"
    },
    {
      "constant": true,
      "inputs": [
        {
          "internalType": "address",
          "name": "pundit",
          "type": "address"
        }
      ],
      "name": "getPunditBets",
      "outputs": [
        {
          "internalType": "uint256[]",
          "name": "",
          "type": "uint256[]"
        }
      ],
      "payable": false,
      "stateMutability": "view",
      "type": "function"
    },
    {
      "constant": true,
      "inputs": [
        {
          "internalType": "uint256",
          "name": "_id",
          "type": "uint256"
        }
      ],
      "name": "getBetById",
      "outputs": [
        {
          "internalType": "uint256",
          "name": "id",
          "type": "uint256"
        },
        {
          "internalType": "uint256",
          "name": "liquidityId",
          "type": "uint256"
        },
        {
          "internalType": "uint256",
          "name": "bookieCollateral",
          "type": "uint256"
        },
        {
          "internalType": "uint256",
          "name": "punditCollateral",
          "type": "uint256"
        },
        {
          "internalType": "uint256",
          "name": "bookiePayout",
          "type": "uint256"
        },
        {
          "internalType": "uint256",
          "name": "punditPayout",
          "type": "uint256"
        },
        {
          "internalType": "uint256",
          "name": "feePaid",
          "type": "uint256"
        },
        {
          "internalType": "enum BeTheBookie.MatchResult",
          "name": "result",
          "type": "uint8"
        },
        {
          "internalType": "uint256",
          "name": "createdTime",
          "type": "uint256"
        },
        {
          "internalType": "bool",
          "name": "closed",
          "type": "bool"
        }
      ],
      "payable": false,
      "stateMutability": "view",
      "type": "function"
    },
    {
      "constant": false,
      "inputs": [
        {
          "internalType": "uint256",
          "name": "_matchId",
          "type": "uint256"
        },
        {
          "internalType": "uint256",
          "name": "_sideId",
          "type": "uint256"
        },
        {
          "internalType": "uint256",
          "name": "_odds",
          "type": "uint256"
        }
      ],
      "name": "addLiquidity",
      "outputs": [
        {
          "internalType": "uint256",
          "name": "_id",
          "type": "uint256"
        }
      ],
      "payable": true,
      "stateMutability": "payable",
      "type": "function"
    },
    {
      "constant": false,
      "inputs": [
        {
          "internalType": "uint256",
          "name": "_liquidityId",
          "type": "uint256"
        },
        {
          "internalType": "uint256",
          "name": "_odds",
          "type": "uint256"
        }
      ],
      "name": "adjustOdds",
      "outputs": [
        {
          "internalType": "bool",
          "name": "_result",
          "type": "bool"
        }
      ],
      "payable": false,
      "stateMutability": "nonpayable",
      "type": "function"
    },
    {
      "constant": false,
      "inputs": [
        {
          "internalType": "uint256",
          "name": "_id",
          "type": "uint256"
        }
      ],
      "name": "refundLiquidity",
      "outputs": [
        {
          "internalType": "bool",
          "name": "_result",
          "type": "bool"
        }
      ],
      "payable": true,
      "stateMutability": "payable",
      "type": "function"
    },
    {
      "constant": true,
      "inputs": [
        {
          "internalType": "address",
          "name": "bookie",
          "type": "address"
        }
      ],
      "name": "getBookieLiquidity",
      "outputs": [
        {
          "internalType": "uint256[]",
          "name": "",
          "type": "uint256[]"
        }
      ],
      "payable": false,
      "stateMutability": "view",
      "type": "function"
    },
    {
      "constant": true,
      "inputs": [
        {
          "internalType": "uint256",
          "name": "_id",
          "type": "uint256"
        }
      ],
      "name": "getLiquidityById",
      "outputs": [
        {
          "internalType": "uint256",
          "name": "id",
          "type": "uint256"
        },
        {
          "internalType": "uint256",
          "name": "matchId",
          "type": "uint256"
        },
        {
          "internalType": "uint256",
          "name": "sideId",
          "type": "uint256"
        },
        {
          "internalType": "uint256",
          "name": "remainingLiquidity",
          "type": "uint256"
        },
        {
          "internalType": "uint256",
          "name": "odds",
          "type": "uint256"
        },
        {
          "internalType": "bool",
          "name": "closed",
          "type": "bool"
        },
        {
          "internalType": "uint256",
          "name": "createdTime",
          "type": "uint256"
        }
      ],
      "payable": false,
      "stateMutability": "view",
      "type": "function"
    }
  ],
  "bytecode": "0x608060405266038d7ea4c6800060025566038d7ea4c6800060045534801561002657600080fd5b50336000806101000a81548173ffffffffffffffffffffffffffffffffffffffff021916908373ffffffffffffffffffffffffffffffffffffffff160217905550611af1806100766000396000f3fe6080604052600436106100f25760003560e01c80638da5cb5b1161008a578063d1a3715011610059578063d1a371501461066a578063e1ff9aa214610699578063e57bcd4a1461073f578063ec9fdc101461079c576100f2565b80638da5cb5b146104b05780638f32d59b146105075780639b5fa0a514610536578063ca133d81146105b3576100f2565b80634afe62b5116100c65780634afe62b51461034657806356150a3614610392578063605c43de146103e55780638b7afe2e14610485576100f2565b806221958d146100f757806322af00fa1461013d57806330096ba71461024a578063422f1043146102f0575b600080fd5b6101236004803603602081101561010d57600080fd5b81019080803590602001909291905050506107cb565b604051808215151515815260200191505060405180910390f35b34801561014957600080fd5b506101766004803603602081101561016057600080fd5b8101908080359060200190929190505050610938565b604051808e81526020018d81526020018c81526020018b81526020018a81526020018981526020018881526020018773ffffffffffffffffffffffffffffffffffffffff1673ffffffffffffffffffffffffffffffffffffffff1681526020018673ffffffffffffffffffffffffffffffffffffffff1673ffffffffffffffffffffffffffffffffffffffff16815260200185600381111561021457fe5b60ff168152602001848152602001838152602001821515151581526020019d505050505050505050505050505060405180910390f35b34801561025657600080fd5b506102996004803603602081101561026d57600080fd5b81019080803573ffffffffffffffffffffffffffffffffffffffff169060200190929190505050610a05565b6040518080602001828103825283818151815260200191508051906020019060200280838360005b838110156102dc5780820151818401526020810190506102c1565b505050509050019250505060405180910390f35b6103306004803603606081101561030657600080fd5b81019080803590602001909291908035906020019092919080359060200190929190505050610aa1565b6040518082815260200191505060405180910390f35b61037c6004803603604081101561035c57600080fd5b810190808035906020019092919080359060200190929190505050610ce9565b6040518082815260200191505060405180910390f35b6103cb600480360360408110156103a857600080fd5b8101908080359060200190929190803560ff16906020019092919050505061112d565b604051808215151515815260200191505060405180910390f35b3480156103f157600080fd5b5061041e6004803603602081101561040857600080fd5b8101908080359060200190929190505050611593565b604051808b81526020018a815260200189815260200188815260200187815260200186815260200185815260200184600381111561045857fe5b60ff168152602001838152602001821515151581526020019a505050505050505050505060405180910390f35b34801561049157600080fd5b5061049a611660565b6040518082815260200191505060405180910390f35b3480156104bc57600080fd5b506104c5611668565b604051808273ffffffffffffffffffffffffffffffffffffffff1673ffffffffffffffffffffffffffffffffffffffff16815260200191505060405180910390f35b34801561051357600080fd5b5061051c61168d565b604051808215151515815260200191505060405180910390f35b34801561054257600080fd5b5061056f6004803603602081101561055957600080fd5b81019080803590602001909291905050506116e4565b604051808881526020018781526020018681526020018581526020018481526020018315151515815260200182815260200197505050505050505060405180910390f35b3480156105bf57600080fd5b506105ec600480360360208110156105d657600080fd5b810190808035906020019092919050505061177f565b604051808a81526020018973ffffffffffffffffffffffffffffffffffffffff1673ffffffffffffffffffffffffffffffffffffffff16815260200188815260200187815260200186815260200185815260200184151515158152602001838152602001828152602001995050505050505050505060405180910390f35b34801561067657600080fd5b5061067f611807565b604051808215151515815260200191505060405180910390f35b3480156106a557600080fd5b506106e8600480360360208110156106bc57600080fd5b81019080803573ffffffffffffffffffffffffffffffffffffffff16906020019092919050505061185c565b6040518080602001828103825283818151815260200191508051906020019060200280838360005b8381101561072b578082015181840152602081019050610710565b505050509050019250505060405180910390f35b34801561074b57600080fd5b506107826004803603604081101561076257600080fd5b8101908080359060200190929190803590602001909291905050506118f8565b604051808215151515815260200191505060405180910390f35b3480156107a857600080fd5b506107b16119e4565b604051808215151515815260200191505060405180910390f35b60008034146107d957600080fd5b600060086009600085815260200190815260200160002054815481106107fb57fe5b9060005260206000209060090201905061081361168d565b8061086d57508060010160009054906101000a900473ffffffffffffffffffffffffffffffffffffffff1673ffffffffffffffffffffffffffffffffffffffff163373ffffffffffffffffffffffffffffffffffffffff16145b61087657600080fd5b8060060160009054906101000a900460ff161561089257600080fd5b60018160060160006101000a81548160ff021916908315150217905550600081600401549050600082600401819055508160010160009054906101000a900473ffffffffffffffffffffffffffffffffffffffff1673ffffffffffffffffffffffffffffffffffffffff166108fc829081150290604051600060405180830381858888f1935050505015801561092c573d6000803e3d6000fd5b50600192505050919050565b6005818154811061094557fe5b90600052602060002090600c02016000915090508060000154908060010154908060020154908060030154908060040154908060050154908060060154908060070160009054906101000a900473ffffffffffffffffffffffffffffffffffffffff16908060080160009054906101000a900473ffffffffffffffffffffffffffffffffffffffff16908060080160149054906101000a900460ff169080600901549080600a01549080600b0160009054906101000a900460ff1690508d565b606080600a60008473ffffffffffffffffffffffffffffffffffffffff1673ffffffffffffffffffffffffffffffffffffffff168152602001908152602001600020805480602002602001604051908101604052809291908181526020018280548015610a9157602002820191906000526020600020905b815481526020019060010190808311610a7d575b5050505050905080915050919050565b6000610aab611807565b610ab457600080fd5b60648211610ac157600080fd5b6127118210610acf57600080fd5b600454341015610ade57600080fd5b600360008154600101919050819055905060086040518061012001604052808381526020013373ffffffffffffffffffffffffffffffffffffffff1681526020018681526020018581526020013481526020018481526020016000151581526020014281526020016000815250908060018154018082558091505090600182039060005260206000209060090201600090919290919091506000820151816000015560208201518160010160006101000a81548173ffffffffffffffffffffffffffffffffffffffff021916908373ffffffffffffffffffffffffffffffffffffffff16021790555060408201518160020155606082015181600301556080820151816004015560a0820151816005015560c08201518160060160006101000a81548160ff02191690831515021790555060e082015181600701556101008201518160080155505050600181036009600083815260200190815260200160002081905550600a60003373ffffffffffffffffffffffffffffffffffffffff1673ffffffffffffffffffffffffffffffffffffffff1681526020019081526020016000208190806001815401808255809150509060018203906000526020600020016000909192909190915055507fc2b9787b5865f184d65978c61b1c3fbd1b06bdd85ec4abac835122473ea9d4d9816040518082815260200191505060405180910390a19392505050565b6000610cf3611807565b610cfc57600080fd5b600254341015610d0b57600080fd5b60006008600960008681526020019081526020016000205481548110610d2d57fe5b90600052602060002090600902019050600015158160060160009054906101000a900460ff16151514610d5f57600080fd5b8060010160009054906101000a900473ffffffffffffffffffffffffffffffffffffffff1673ffffffffffffffffffffffffffffffffffffffff163373ffffffffffffffffffffffffffffffffffffffff161415610dbc57600080fd5b82816005015414610dcc57600080fd5b600034610de3610ddc3487611a55565b6064611a8c565b0390508082600401541015610df757600080fd5b60016000815460010191905081905592506005604051806101a001604052808581526020018781526020018381526020013481526020016000815260200160008152602001600081526020018460010160009054906101000a900473ffffffffffffffffffffffffffffffffffffffff1673ffffffffffffffffffffffffffffffffffffffff1681526020013373ffffffffffffffffffffffffffffffffffffffff16815260200160006003811115610eac57fe5b815260200142815260200160008152602001600015158152509080600181540180825580915050906001820390600052602060002090600c020160009091929091909150600082015181600001556020820151816001015560408201518160020155606082015181600301556080820151816004015560a0820151816005015560c0820151816006015560e08201518160070160006101000a81548173ffffffffffffffffffffffffffffffffffffffff021916908373ffffffffffffffffffffffffffffffffffffffff1602179055506101008201518160080160006101000a81548173ffffffffffffffffffffffffffffffffffffffff021916908373ffffffffffffffffffffffffffffffffffffffff1602179055506101208201518160080160146101000a81548160ff02191690836003811115610fea57fe5b0217905550610140820151816009015561016082015181600a015561018082015181600b0160006101000a81548160ff021916908315150217905550505050600183036006600085815260200190815260200160002081905550600760003373ffffffffffffffffffffffffffffffffffffffff1673ffffffffffffffffffffffffffffffffffffffff1681526020019081526020016000208390806001815401808255809150509060018203906000526020600020016000909192909190915055506110bb826004015482611aa5565b82600401819055506000826004015414156110ee5760018260060160006101000a81548160ff0219169083151502179055505b7fde1fae6a99c0f84e9bee8b7f9d2d7663e46384ff079f389d5b4b6018b56e56e9836040518082815260200191505060405180910390a1505092915050565b600061113761168d565b61114057600080fd5b6000341461114d57600080fd5b6000600560066000868152602001908152602001600020548154811061116f57fe5b90600052602060002090600c020190506000151581600b0160009054906101000a900460ff161515146111a157600080fd5b600060038111156111ae57fe5b8160080160149054906101000a900460ff1660038111156111cb57fe5b146111d557600080fd5b828160080160146101000a81548160ff021916908360038111156111f557fe5b02179055504281600a018190555060006001600381111561121257fe5b84600381111561121e57fe5b14156112c05761123382600301546064611a8c565b905060008183600201548460030154010390508083600401819055508260070160009054906101000a900473ffffffffffffffffffffffffffffffffffffffff1673ffffffffffffffffffffffffffffffffffffffff166108fc829081150290604051600060405180830381858888f193505050501580156112b9573d6000803e3d6000fd5b5050611494565b600260038111156112cd57fe5b8460038111156112d957fe5b141561137b576112ee82600201546064611a8c565b905060008183600201548460030154010390508083600501819055508260080160009054906101000a900473ffffffffffffffffffffffffffffffffffffffff1673ffffffffffffffffffffffffffffffffffffffff166108fc829081150290604051600060405180830381858888f19350505050158015611374573d6000803e3d6000fd5b5050611493565b60038081111561138757fe5b84600381111561139357fe5b14156114925781600201548260040181905550816003015482600501819055508160070160009054906101000a900473ffffffffffffffffffffffffffffffffffffffff1673ffffffffffffffffffffffffffffffffffffffff166108fc83600201549081150290604051600060405180830381858888f19350505050158015611421573d6000803e3d6000fd5b508160080160009054906101000a900473ffffffffffffffffffffffffffffffffffffffff1673ffffffffffffffffffffffffffffffffffffffff166108fc83600301549081150290604051600060405180830381858888f19350505050158015611490573d6000803e3d6000fd5b505b5b5b60008260020181905550600082600301819055506000811115611523578082600601819055506000809054906101000a900473ffffffffffffffffffffffffffffffffffffffff1673ffffffffffffffffffffffffffffffffffffffff166108fc829081150290604051600060405180830381858888f19350505050158015611521573d6000803e3d6000fd5b505b600182600b0160006101000a81548160ff02191690831515021790555081600b0160009054906101000a900460ff1692507f0d7fd9e4a72e17428fa8f1c1e7c7436283b29d4dc0e1292783f4054585f7c38e856040518082815260200191505060405180910390a1505092915050565b60008060008060008060008060008060006005600660008e815260200190815260200160002054815481106115c457fe5b90600052602060002090600c0201905080600001549a508060010154995080600201549850806003015497508060040154965080600501549550806006015494508060080160149054906101000a900460ff1693508060090154925080600b0160009054906101000a900460ff1691508a8a8a8a8a8a8a8a8a8a9a509a509a509a509a509a509a509a509a509a50509193959799509193959799565b600047905090565b6000809054906101000a900473ffffffffffffffffffffffffffffffffffffffff1681565b60008060009054906101000a900473ffffffffffffffffffffffffffffffffffffffff1673ffffffffffffffffffffffffffffffffffffffff163373ffffffffffffffffffffffffffffffffffffffff1614905090565b6000806000806000806000806008600960008b8152602001908152602001600020548154811061171057fe5b9060005260206000209060090201905080600001549750806002015496508060030154955080600401549450806005015493508060060160009054906101000a900460ff1692508060070154915087878787878787975097509750975097509750975050919395979092949650565b6008818154811061178c57fe5b90600052602060002090600902016000915090508060000154908060010160009054906101000a900473ffffffffffffffffffffffffffffffffffffffff16908060020154908060030154908060040154908060050154908060060160009054906101000a900460ff16908060070154908060080154905089565b6000600b60003373ffffffffffffffffffffffffffffffffffffffff1673ffffffffffffffffffffffffffffffffffffffff16815260200190815260200160002060009054906101000a900460ff1615905090565b606080600760008473ffffffffffffffffffffffffffffffffffffffff1673ffffffffffffffffffffffffffffffffffffffff1681526020019081526020016000208054806020026020016040519081016040528092919081815260200182805480156118e857602002820191906000526020600020905b8154815260200190600101908083116118d4575b5050505050905080915050919050565b60006064821161190757600080fd5b612711821061191557600080fd5b6000600860096000868152602001908152602001600020548154811061193757fe5b906000526020600020906009020190508060010160009054906101000a900473ffffffffffffffffffffffffffffffffffffffff1673ffffffffffffffffffffffffffffffffffffffff163373ffffffffffffffffffffffffffffffffffffffff16146119a357600080fd5b8060060160009054906101000a900460ff16156119bf57600080fd5b60008160040154116119d057600080fd5b828160050181905550600191505092915050565b60006119ee611807565b6119f757600080fd5b6001905080600b60003373ffffffffffffffffffffffffffffffffffffffff1673ffffffffffffffffffffffffffffffffffffffff16815260200190815260200160002060006101000a81548160ff02191690831515021790555090565b600080831415611a685760009050611a86565b6000828402905082848281611a7957fe5b0414611a8157fe5b809150505b92915050565b600080828481611a9857fe5b0490508091505092915050565b600082821115611ab157fe5b81830390509291505056fea265627a7a72315820655bbb0f05b688f8b08aa726034066ceffc22d4b799e69cbe3df98a33c8e528964736f6c63430005100032",
  "source": "// SPDX-License-Identifier: MIT\r\npragma solidity >=0.5.16 <0.9.0;\r\nimport \"./safemath.sol\";\r\n/// @title A title that should describe the contract/interface\r\n/// @author Chris Patterson\r\n/// @notice Explain to an end user what this does\r\n/// @dev Explain to a developer any extra details\r\ncontract BeTheBookie {\r\n\r\n    address payable public owner;\r\n    uint256 betCounter;\r\n    uint minBet = 0.001 ether;\r\n    uint256 liquidityCounter;\r\n    uint minLiquidity = 0.001 ether;\r\n\r\n    Bet[] public bets;\r\n    mapping (uint256 => uint) betMapping; //id -> index\r\n    \r\n    //mapping of pundit bets to an address\r\n    mapping (address => uint256[]) punditBetsMapping; \r\n\r\n    Liquidity[] public betPools;\r\n    mapping (uint256 => uint) poolMapping; //id -> index\r\n\r\n    //mapping of bookie liquidity to an address\r\n    mapping (address => uint256[]) bookieLiquidityMapping; \r\n    \r\n    enum MatchResult{ Undecided, BookieWon, PunditWon, Void }\r\n\r\n/// @notice Maintains a list of addresses which have opted to self exclude from the platform.\r\n    mapping (address => bool) exclusionList;\r\n\r\n/// @notice Raises an event that a new liquidity / market has been provided to pundits.\r\n/// @dev Will be used by the GUI as a trigger to reload the screen\r\n/// @param id the liquidityId\r\n    event BookieProvidingLiquidity(uint256 id);\r\n\r\n/// @notice Raised when a bet is placed. \r\n/// @dev Will be used by the GUI as a trigger to reload the screen\r\n/// @param id new unique bet id\r\n    event BetPlaced(uint256 id);\r\n\r\n/// @notice Explain to an end user what this does\r\n/// @dev Will be used by the GUI as a trigger to reload the screen to show if they won or not.\r\n/// @param id bet id\r\n    event BetResult(uint256 id);\r\n\r\n//Structure representing a bet with 2 parties involved. The Pundit and the Bookie. The bookie placed odds and liquidity and the pundit took a position. \r\n//The payout will go to either the Pundit or the Bookie when the result is decided. There is a 1% fee taken off the profits paid to the contract owner.\r\n    struct Bet {\r\n        uint256 id;\r\n        uint256 liquidityId;\r\n        uint256 bookieCollateral;\r\n        uint256 punditCollateral;\r\n        uint256 bookiePayout; \r\n        uint256 punditPayout; \r\n        uint256 feePaid;\r\n        address payable bookie; // bookie address copied from the liquidity object\r\n        address payable pundit; //account taking a punt on this outcome (they want to win)\r\n        MatchResult result;\r\n        uint createdTime;\r\n        uint closedTime;\r\n        bool closed;\r\n    }\r\n\r\n//Structure representing betting liquidity on a certain match/player/odds. ie: As a bookie I can lay odds on Federer to beat Nadal at 200 (even payout).\r\n//The bookie can post the total liquidity they are willing to expose themselves to; ie: 10 ETH and as bets are placed the available liquidty will decrease until it reaches 0.\r\n//With these odds, pundits (people taking a bet) can take a position on these odds. ie: 1ETH. \r\n//The pundit hopes Federer wins as they will receive 2 ETH in return whereas the bookie hopes Nadal wins as they receive the bet amount + the liquidity they provided. 2 ETH as well.\r\n//Odds can range from 101 to 10000. 101 is equivalent to 1.01 * stake and 10000 is 100 * stake. \r\n//Once a bet is placed it is final and will require an outcome.\r\n    struct Liquidity {\r\n        uint256 id;\r\n        address payable bookie; //account laying the odds (they do not want this bet to pay out)\r\n        uint matchId; //each match will have a unique id\r\n        uint sideId; //will need to choose the winning side of the match\r\n        uint256 remainingLiquidity;\r\n        uint odds; // 1.50 odds would be stored as 150 (*100).\r\n        bool closed;\r\n        uint createdTime;\r\n        uint closedTime;\r\n    }\r\n\r\n\r\n      /* \r\n   * Modifiers\r\n   */\r\n\r\n  // Create a modifer, `isOwner` that checks if the msg.sender is the owner of the contract\r\n  function isOwner() public view returns(bool) {\r\n    return msg.sender == owner;\r\n  }\r\n\r\n  function isNotExcluded() public view returns(bool) {\r\n    return !exclusionList[msg.sender];\r\n  }\r\n\r\n    // Fallback function - Called if other functions don't match call or\r\n    // sent ether without data\r\n    // Typically, called when invalid data is sent\r\n    // Added so ether sent to this contract is reverted if the contract fails\r\n    // otherwise, the sender's money is transferred to contract\r\n    function () external payable {\r\n        revert();\r\n    }\r\n\r\n    constructor() public {\r\n        owner = msg.sender;\r\n    }\r\n\r\n/// @notice Gambling addiction is a real problem and this option allows people to self exclude from the platform should they feel they are participating in an unhealthly way.\r\n/// @return _excluded returns true when added.\r\n    function selfExclude() public returns (bool _excluded)\r\n    {\r\n        require(isNotExcluded()); //no point executing this function twice.\r\n        _excluded = true;\r\n        exclusionList[msg.sender] = _excluded;\r\n    }\r\n\r\n/// @notice Explain to an end user what this does\r\n/// @dev Explain to a developer any extra details\r\n    function contractBalance() public view returns (uint256 _balance) {\r\n        _balance = address(this).balance;\r\n    }\r\n\r\n    \r\n    \r\n\r\n/// @notice Public function allowing a pundit to place a bet leveraging existing liquidity in a market/odds.\r\n/// @dev bookieCollateral is somewhat complex as depending on the stake, the payout has to be calculated on the fly and deducted from the pool of liquidity. \r\n/// @param _liquidityId pointer to available liquidity. The msg.amount is the stake.\r\n/// @return _id - returns unique ID of the new bet object.\r\n    function placeBet(uint256 _liquidityId, uint _odds) public payable returns (uint256 _id)\r\n    {\r\n        require(isNotExcluded()); //ensure the participant has not chosed to self exclude from the platform\r\n        require(msg.value >= minBet);\r\n        \r\n        Liquidity storage _l = betPools[poolMapping[_liquidityId]];\r\n        require(_l.closed == false);\r\n        require(msg.sender != _l.bookie);\r\n        require(_l.odds == _odds); //possible the bookie might adjust the odds before a bet has been placed. Confirm they match.\r\n\r\n        uint256 bookieCollateral = SafeMath.div(SafeMath.mul(msg.value, _odds), 100)-msg.value;\r\n        require(_l.remainingLiquidity >= bookieCollateral);\r\n\r\n        _id = ++betCounter;\r\n\r\n        bets.push(Bet({\r\n            id: _id,\r\n            liquidityId: _liquidityId, \r\n            bookieCollateral: bookieCollateral,\r\n            punditCollateral: msg.value,\r\n            bookiePayout: 0, \r\n            punditPayout: 0, \r\n            feePaid: 0,\r\n            pundit: msg.sender,\r\n            bookie: _l.bookie,\r\n            result: MatchResult.Undecided, \r\n            createdTime: now,\r\n            closedTime: 0,\r\n            closed: false\r\n            }));\r\n\r\n        betMapping[_id] = _id-1;\r\n        punditBetsMapping[msg.sender].push(_id);\r\n\r\n        _l.remainingLiquidity = SafeMath.sub(_l.remainingLiquidity, bookieCollateral);\r\n        if (_l.remainingLiquidity == 0)\r\n        {\r\n            _l.closed = true;\r\n        }\r\n\r\n        emit BetPlaced(_id);\r\n\r\n    }\r\n\r\n/// @notice called by the contract owner to set the result of a given bet. This should be handled by an oracle in the future so there is no manual intervention required. \r\n/// @dev The payout structure depends on who wins but either the pundit or bookie gets paid - 1% of profits as a fee.\r\n/// @param _betId - unique id of the bet\r\n/// @param _result - result of the match. Determines how the bet pays out.\r\n/// @return _success true if no errors.\r\n    function setResult(uint256 _betId, MatchResult _result) public payable returns (bool _success) {\r\n        require(isOwner());\r\n        require(msg.value == 0);\r\n\r\n        Bet storage _bet = bets[betMapping[_betId]];\r\n        require(_bet.closed == false);\r\n        require(_bet.result == MatchResult.Undecided);\r\n\r\n        \r\n        _bet.result = _result;\r\n        _bet.closedTime = now;\r\n        \r\n        uint256 fee;\r\n        if (_result == MatchResult.BookieWon)\r\n        {\r\n            fee = SafeMath.div(_bet.punditCollateral, 100);\r\n            uint256 payout = _bet.punditCollateral + _bet.bookieCollateral - fee;\r\n            _bet.bookiePayout = payout;\r\n            _bet.bookie.transfer(payout);\r\n        }\r\n        else if (_result == MatchResult.PunditWon)\r\n        {\r\n            fee = SafeMath.div(_bet.bookieCollateral, 100);\r\n            uint256 payout = _bet.punditCollateral + _bet.bookieCollateral - fee;\r\n            _bet.punditPayout = payout;\r\n            _bet.pundit.transfer(payout);\r\n        }\r\n        else if (_result == MatchResult.Void)\r\n        {\r\n            //refund their money as the match was cancelled\r\n            _bet.bookiePayout = _bet.bookieCollateral;\r\n            _bet.punditPayout = _bet.punditCollateral;\r\n            _bet.bookie.transfer(_bet.bookieCollateral);\r\n            _bet.pundit.transfer(_bet.punditCollateral);\r\n        }\r\n\r\n        _bet.bookieCollateral = 0;\r\n        _bet.punditCollateral = 0;\r\n\r\n        if (fee > 0)\r\n        {\r\n            _bet.feePaid = fee;\r\n            owner.transfer(fee);\r\n        }\r\n\r\n        _bet.closed = true;\r\n\r\n        _success = _bet.closed;\r\n        emit BetResult(_betId);\r\n    }\r\n\r\n/// @notice Explain to an end user what this does\r\n/// @dev Explain to a developer any extra details\r\n/// @return uint256[] - list of bet ID's owned by the msg.sender\r\n    function getPunditBets(address pundit) external view returns (uint256[] memory)\r\n    {\r\n        uint256[] memory response = punditBetsMapping[pundit];\r\n        return response;\r\n    }\r\n\r\n    /// @notice Explain to an end user what this does\r\n/// @dev Explain to a developer any extra details\r\n/// @param _id bet id\r\n    function getBetById(uint _id) external view returns (uint256 id, uint256 liquidityId, uint256 bookieCollateral, uint256 punditCollateral, uint256 bookiePayout, uint256 punditPayout, uint256 feePaid, MatchResult result, uint createdTime, bool closed)\r\n    {\r\n        Bet storage bet = bets[betMapping[_id]];\r\n        id = bet.id;\r\n        liquidityId = bet.liquidityId;\r\n        bookieCollateral = bet.bookieCollateral;\r\n        punditCollateral = bet.punditCollateral;\r\n        bookiePayout = bet.bookiePayout;\r\n        punditPayout = bet.punditPayout;\r\n        feePaid = bet.feePaid;\r\n        result = bet.result;\r\n        createdTime = bet.createdTime;\r\n        closed = bet.closed;\r\n        return (id, liquidityId, bookieCollateral, punditCollateral, bookiePayout, punditPayout, feePaid, result, createdTime, closed);\r\n    }\r\n\r\n\r\n    /// @notice Public function for a bookie to place odds on a match result and submit available liquidity. ie: Federer to beat Nadal, 200 odds with 10ETH max payout.\r\n    /// @param _matchId The unique ID of a match (ie: Federer vs Nadal at 2018 Wimbledon final)\r\n    /// @param _sideId The perspective winning side, ie: Federer. (unique ID from the source JSON data)\r\n    /// @param _odds The odds. ie: 150 = decimal equivalent odds at 1.5. 200 = 2. Payout formula is basically _odds/100 * stake. \r\n                    //ie: 150/100 * 1ETH = 0.5ETH payout + your original stake = 1.5ETH return. \r\n    /// @return _id returns unique ID of the new liquidity object.\r\n    function addLiquidity(uint _matchId, uint _sideId, uint256 _odds) public payable returns (uint _id)\r\n    {\r\n        require(isNotExcluded()); //ensure the participant has not chosed to self exclude from the platform\r\n        require(_odds > 100);\r\n        require(_odds < 10001);\r\n        require(msg.value >= minLiquidity);\r\n\r\n        _id = ++liquidityCounter;\r\n\r\n        betPools.push(Liquidity({\r\n            id: _id,\r\n            bookie: msg.sender,\r\n            matchId: _matchId, \r\n            sideId: _sideId,\r\n            remainingLiquidity: msg.value,\r\n            odds: _odds, \r\n            closed: false,\r\n            createdTime: now,\r\n            closedTime: 0\r\n            }));\r\n\r\n        poolMapping[_id] = _id-1;\r\n        bookieLiquidityMapping[msg.sender].push(_id);\r\n\r\n        emit BookieProvidingLiquidity(_id);\r\n\r\n    }\r\n\r\n    function adjustOdds(uint _liquidityId, uint _odds) public returns (bool _result) {\r\n        require(_odds > 100);\r\n        require(_odds < 10001);\r\n\r\n        Liquidity storage _l = betPools[poolMapping[_liquidityId]];\r\n        require(msg.sender == _l.bookie);\r\n        require(!_l.closed);\r\n        require(_l.remainingLiquidity > 0);\r\n\r\n        _l.odds = _odds;\r\n        _result = true;\r\n    }\r\n\r\n\r\n/// @notice Explain to an end user what this does\r\n/// @dev Explain to a developer any extra details\r\n/// @param _id liqudity id\r\n/// @return _result true if no errors\r\n    function refundLiquidity(uint _id) public payable returns (bool _result) {\r\n        require(msg.value == 0);\r\n        Liquidity storage _l = betPools[poolMapping[_id]];\r\n        require(isOwner() || msg.sender == _l.bookie);\r\n        require(!_l.closed);\r\n        \r\n        _l.closed = true;\r\n        uint refund = _l.remainingLiquidity;\r\n        _l.remainingLiquidity = 0;\r\n        _l.bookie.transfer(refund);\r\n        _result = true;\r\n    }\r\n\r\n/// @notice Explain to an end user what this does\r\n/// @dev Explain to a developer any extra details\r\n/// @return uint256[] - list of liquidity ID's owned by the msg.sender\r\n    function getBookieLiquidity(address bookie) external view returns (uint256[] memory)\r\n    {\r\n        uint256[] memory response = bookieLiquidityMapping[bookie];\r\n        return response;\r\n    }\r\n    \r\n    /// @notice Explain to an end user what this does\r\n/// @dev Explain to a developer any extra details\r\n/// @param _id liqudity id\r\n/// @return _result true if no errors\r\n    function getLiquidityById(uint _id) external view returns (uint id, uint matchId, uint sideId, uint256 remainingLiquidity, uint odds, bool closed, uint createdTime)\r\n    {\r\n        Liquidity storage _l = betPools[poolMapping[_id]];\r\n        id = _l.id;\r\n        matchId = _l.matchId;\r\n        sideId = _l.sideId;\r\n        remainingLiquidity = _l.remainingLiquidity;\r\n        odds = _l.odds;\r\n        closed = _l.closed;\r\n        createdTime = _l.createdTime;\r\n        return (id, matchId, sideId, remainingLiquidity, odds, closed, createdTime);\r\n    }\r\n\r\n}\r\n\r\n",
  "sourcePath": "E:\\GIT\\blockchain-developer-bootcamp-final-project\\contracts\\BeTheBookie.sol",
  "compiler": {
    "name": "solc",
    "version": "0.5.16+commit.9c3226ce.Emscripten.clang"
  },
  "schemaVersion": "3.4.3",
  "updatedAt": "2021-10-18T00:32:07.714Z",
  "networkType": "ethereum",
  "devdoc": {
    "author": "Chris Patterson",
    "details": "Explain to a developer any extra details",
    "methods": {
      "addLiquidity(uint256,uint256,uint256)": {
        "return": "_id returns unique ID of the new liquidity object."
      },
      "contractBalance()": {
        "details": "Explain to a developer any extra details"
      },
      "getBetById(uint256)": {
        "details": "Explain to a developer any extra details",
        "params": {
          "_id": "bet id"
        }
      },
      "getBookieLiquidity(address)": {
        "details": "Explain to a developer any extra details",
        "return": "uint256[] - list of liquidity ID's owned by the msg.sender"
      },
      "getLiquidityById(uint256)": {
        "details": "Explain to a developer any extra details",
        "params": {
          "_id": "liqudity id"
        },
        "return": "_result true if no errors"
      },
      "getPunditBets(address)": {
        "details": "Explain to a developer any extra details",
        "return": "uint256[] - list of bet ID's owned by the msg.sender"
      },
      "placeBet(uint256,uint256)": {
        "details": "bookieCollateral is somewhat complex as depending on the stake, the payout has to be calculated on the fly and deducted from the pool of liquidity. ",
        "params": {
          "_liquidityId": "pointer to available liquidity. The msg.amount is the stake."
        },
        "return": "_id - returns unique ID of the new bet object."
      },
      "refundLiquidity(uint256)": {
        "details": "Explain to a developer any extra details",
        "params": {
          "_id": "liqudity id"
        },
        "return": "_result true if no errors"
      },
      "selfExclude()": {
        "return": "_excluded returns true when added."
      },
      "setResult(uint256,uint8)": {
        "details": "The payout structure depends on who wins but either the pundit or bookie gets paid - 1% of profits as a fee.",
        "params": {
          "_betId": "- unique id of the bet",
          "_result": "- result of the match. Determines how the bet pays out."
        },
        "return": "_success true if no errors."
      }
    },
    "title": "A title that should describe the contract/interface"
  },
  "userdoc": {
    "methods": {
      "contractBalance()": {
        "notice": "Explain to an end user what this does"
      },
      "getBetById(uint256)": {
        "notice": "Explain to an end user what this does"
      },
      "getBookieLiquidity(address)": {
        "notice": "Explain to an end user what this does"
      },
      "getLiquidityById(uint256)": {
        "notice": "Explain to an end user what this does"
      },
      "getPunditBets(address)": {
        "notice": "Explain to an end user what this does"
      },
      "placeBet(uint256,uint256)": {
        "notice": "Public function allowing a pundit to place a bet leveraging existing liquidity in a market/odds."
      },
      "refundLiquidity(uint256)": {
        "notice": "Explain to an end user what this does"
      },
      "selfExclude()": {
        "notice": "Gambling addiction is a real problem and this option allows people to self exclude from the platform should they feel they are participating in an unhealthly way."
      },
      "setResult(uint256,uint8)": {
        "notice": "called by the contract owner to set the result of a given bet. This should be handled by an oracle in the future so there is no manual intervention required. "
      }
    },
    "notice": "Explain to an end user what this does"
  }
}