{
  "contractName": "BeTheBookie",
  "abi": [
    {
      "inputs": [],
      "payable": false,
      "stateMutability": "nonpayable",
      "type": "constructor"
    },
    {
      "anonymous": false,
      "inputs": [
        {
          "indexed": false,
          "internalType": "uint256",
          "name": "id",
          "type": "uint256"
        }
      ],
      "name": "BetPlaced",
      "type": "event"
    },
    {
      "anonymous": false,
      "inputs": [
        {
          "indexed": false,
          "internalType": "uint256",
          "name": "id",
          "type": "uint256"
        }
      ],
      "name": "BetResult",
      "type": "event"
    },
    {
      "anonymous": false,
      "inputs": [
        {
          "indexed": false,
          "internalType": "uint256",
          "name": "id",
          "type": "uint256"
        }
      ],
      "name": "BookieProvidingLiquidity",
      "type": "event"
    },
    {
      "payable": true,
      "stateMutability": "payable",
      "type": "fallback"
    },
    {
      "constant": true,
      "inputs": [
        {
          "internalType": "uint256",
          "name": "",
          "type": "uint256"
        }
      ],
      "name": "betPools",
      "outputs": [
        {
          "internalType": "uint256",
          "name": "id",
          "type": "uint256"
        },
        {
          "internalType": "address payable",
          "name": "bookie",
          "type": "address"
        },
        {
          "internalType": "uint256",
          "name": "matchId",
          "type": "uint256"
        },
        {
          "internalType": "uint256",
          "name": "sideId",
          "type": "uint256"
        },
        {
          "internalType": "uint256",
          "name": "remainingLiquidity",
          "type": "uint256"
        },
        {
          "internalType": "uint256",
          "name": "odds",
          "type": "uint256"
        },
        {
          "internalType": "bool",
          "name": "closed",
          "type": "bool"
        },
        {
          "internalType": "uint256",
          "name": "createdTime",
          "type": "uint256"
        },
        {
          "internalType": "uint256",
          "name": "closedTime",
          "type": "uint256"
        }
      ],
      "payable": false,
      "stateMutability": "view",
      "type": "function"
    },
    {
      "constant": true,
      "inputs": [
        {
          "internalType": "uint256",
          "name": "",
          "type": "uint256"
        }
      ],
      "name": "bets",
      "outputs": [
        {
          "internalType": "uint256",
          "name": "id",
          "type": "uint256"
        },
        {
          "internalType": "uint256",
          "name": "liquidityId",
          "type": "uint256"
        },
        {
          "internalType": "uint256",
          "name": "bookieCollateral",
          "type": "uint256"
        },
        {
          "internalType": "uint256",
          "name": "punditCollateral",
          "type": "uint256"
        },
        {
          "internalType": "uint256",
          "name": "bookiePayout",
          "type": "uint256"
        },
        {
          "internalType": "uint256",
          "name": "punditPayout",
          "type": "uint256"
        },
        {
          "internalType": "uint256",
          "name": "feePaid",
          "type": "uint256"
        },
        {
          "internalType": "address payable",
          "name": "bookie",
          "type": "address"
        },
        {
          "internalType": "address payable",
          "name": "pundit",
          "type": "address"
        },
        {
          "internalType": "enum BeTheBookie.MatchResult",
          "name": "result",
          "type": "uint8"
        },
        {
          "internalType": "uint256",
          "name": "createdTime",
          "type": "uint256"
        },
        {
          "internalType": "uint256",
          "name": "closedTime",
          "type": "uint256"
        },
        {
          "internalType": "bool",
          "name": "closed",
          "type": "bool"
        }
      ],
      "payable": false,
      "stateMutability": "view",
      "type": "function"
    },
    {
      "constant": true,
      "inputs": [],
      "name": "isOwner",
      "outputs": [
        {
          "internalType": "bool",
          "name": "",
          "type": "bool"
        }
      ],
      "payable": false,
      "stateMutability": "view",
      "type": "function"
    },
    {
      "constant": true,
      "inputs": [],
      "name": "owner",
      "outputs": [
        {
          "internalType": "address",
          "name": "",
          "type": "address"
        }
      ],
      "payable": false,
      "stateMutability": "view",
      "type": "function"
    },
    {
      "constant": true,
      "inputs": [],
      "name": "isNotExcluded",
      "outputs": [
        {
          "internalType": "bool",
          "name": "",
          "type": "bool"
        }
      ],
      "payable": false,
      "stateMutability": "view",
      "type": "function"
    },
    {
      "constant": false,
      "inputs": [],
      "name": "selfExclude",
      "outputs": [
        {
          "internalType": "bool",
          "name": "_excluded",
          "type": "bool"
        }
      ],
      "payable": false,
      "stateMutability": "nonpayable",
      "type": "function"
    },
    {
      "constant": true,
      "inputs": [],
      "name": "contractBalance",
      "outputs": [
        {
          "internalType": "uint256",
          "name": "_balance",
          "type": "uint256"
        }
      ],
      "payable": false,
      "stateMutability": "view",
      "type": "function"
    },
    {
      "constant": false,
      "inputs": [
        {
          "internalType": "address",
          "name": "_address",
          "type": "address"
        }
      ],
      "name": "setOracleAddress",
      "outputs": [
        {
          "internalType": "bool",
          "name": "",
          "type": "bool"
        }
      ],
      "payable": false,
      "stateMutability": "nonpayable",
      "type": "function"
    },
    {
      "constant": true,
      "inputs": [],
      "name": "testOracleValid",
      "outputs": [
        {
          "internalType": "bool",
          "name": "",
          "type": "bool"
        }
      ],
      "payable": false,
      "stateMutability": "view",
      "type": "function"
    },
    {
      "constant": false,
      "inputs": [
        {
          "internalType": "uint256",
          "name": "_liquidityId",
          "type": "uint256"
        },
        {
          "internalType": "uint256",
          "name": "_odds",
          "type": "uint256"
        }
      ],
      "name": "placeBet",
      "outputs": [
        {
          "internalType": "uint256",
          "name": "_id",
          "type": "uint256"
        }
      ],
      "payable": true,
      "stateMutability": "payable",
      "type": "function"
    },
    {
      "constant": false,
      "inputs": [
        {
          "internalType": "uint256",
          "name": "_matchId",
          "type": "uint256"
        }
      ],
      "name": "matchCompleteHandlePayouts",
      "outputs": [
        {
          "internalType": "bool",
          "name": "_success",
          "type": "bool"
        }
      ],
      "payable": true,
      "stateMutability": "payable",
      "type": "function"
    },
    {
      "constant": false,
      "inputs": [
        {
          "internalType": "uint256",
          "name": "_betId",
          "type": "uint256"
        },
        {
          "internalType": "enum BeTheBookie.MatchResult",
          "name": "_result",
          "type": "uint8"
        }
      ],
      "name": "setResult",
      "outputs": [
        {
          "internalType": "bool",
          "name": "_success",
          "type": "bool"
        }
      ],
      "payable": true,
      "stateMutability": "payable",
      "type": "function"
    },
    {
      "constant": true,
      "inputs": [
        {
          "internalType": "address",
          "name": "pundit",
          "type": "address"
        }
      ],
      "name": "getPunditBets",
      "outputs": [
        {
          "internalType": "uint256[]",
          "name": "",
          "type": "uint256[]"
        }
      ],
      "payable": false,
      "stateMutability": "view",
      "type": "function"
    },
    {
      "constant": true,
      "inputs": [
        {
          "internalType": "address",
          "name": "bookie",
          "type": "address"
        }
      ],
      "name": "getBookieBets",
      "outputs": [
        {
          "internalType": "uint256[]",
          "name": "",
          "type": "uint256[]"
        }
      ],
      "payable": false,
      "stateMutability": "view",
      "type": "function"
    },
    {
      "constant": true,
      "inputs": [
        {
          "internalType": "uint256",
          "name": "_id",
          "type": "uint256"
        }
      ],
      "name": "getBetById",
      "outputs": [
        {
          "internalType": "uint256",
          "name": "id",
          "type": "uint256"
        },
        {
          "internalType": "uint256",
          "name": "liquidityId",
          "type": "uint256"
        },
        {
          "internalType": "uint256",
          "name": "bookieCollateral",
          "type": "uint256"
        },
        {
          "internalType": "uint256",
          "name": "punditCollateral",
          "type": "uint256"
        },
        {
          "internalType": "uint256",
          "name": "bookiePayout",
          "type": "uint256"
        },
        {
          "internalType": "uint256",
          "name": "punditPayout",
          "type": "uint256"
        },
        {
          "internalType": "uint256",
          "name": "feePaid",
          "type": "uint256"
        },
        {
          "internalType": "enum BeTheBookie.MatchResult",
          "name": "result",
          "type": "uint8"
        },
        {
          "internalType": "uint256",
          "name": "createdTime",
          "type": "uint256"
        },
        {
          "internalType": "bool",
          "name": "closed",
          "type": "bool"
        }
      ],
      "payable": false,
      "stateMutability": "view",
      "type": "function"
    },
    {
      "constant": false,
      "inputs": [
        {
          "internalType": "uint256",
          "name": "_matchId",
          "type": "uint256"
        },
        {
          "internalType": "uint256",
          "name": "_sideId",
          "type": "uint256"
        },
        {
          "internalType": "uint256",
          "name": "_odds",
          "type": "uint256"
        }
      ],
      "name": "addLiquidity",
      "outputs": [
        {
          "internalType": "uint256",
          "name": "_id",
          "type": "uint256"
        }
      ],
      "payable": true,
      "stateMutability": "payable",
      "type": "function"
    },
    {
      "constant": false,
      "inputs": [
        {
          "internalType": "uint256",
          "name": "_liquidityId",
          "type": "uint256"
        },
        {
          "internalType": "uint256",
          "name": "_odds",
          "type": "uint256"
        }
      ],
      "name": "adjustOdds",
      "outputs": [
        {
          "internalType": "bool",
          "name": "_result",
          "type": "bool"
        }
      ],
      "payable": false,
      "stateMutability": "nonpayable",
      "type": "function"
    },
    {
      "constant": false,
      "inputs": [
        {
          "internalType": "uint256",
          "name": "_id",
          "type": "uint256"
        }
      ],
      "name": "refundLiquidity",
      "outputs": [
        {
          "internalType": "bool",
          "name": "_result",
          "type": "bool"
        }
      ],
      "payable": true,
      "stateMutability": "payable",
      "type": "function"
    },
    {
      "constant": true,
      "inputs": [
        {
          "internalType": "address",
          "name": "bookie",
          "type": "address"
        }
      ],
      "name": "getBookieLiquidity",
      "outputs": [
        {
          "internalType": "uint256[]",
          "name": "",
          "type": "uint256[]"
        }
      ],
      "payable": false,
      "stateMutability": "view",
      "type": "function"
    },
    {
      "constant": true,
      "inputs": [
        {
          "internalType": "uint256",
          "name": "_matchId",
          "type": "uint256"
        }
      ],
      "name": "getMatchLiquidity",
      "outputs": [
        {
          "internalType": "uint256[]",
          "name": "",
          "type": "uint256[]"
        }
      ],
      "payable": false,
      "stateMutability": "view",
      "type": "function"
    },
    {
      "constant": true,
      "inputs": [
        {
          "internalType": "uint256",
          "name": "_matchId",
          "type": "uint256"
        }
      ],
      "name": "getMatchBets",
      "outputs": [
        {
          "internalType": "uint256[]",
          "name": "",
          "type": "uint256[]"
        }
      ],
      "payable": false,
      "stateMutability": "view",
      "type": "function"
    },
    {
      "constant": true,
      "inputs": [
        {
          "internalType": "uint256",
          "name": "_id",
          "type": "uint256"
        }
      ],
      "name": "getLiquidityById",
      "outputs": [
        {
          "internalType": "uint256",
          "name": "id",
          "type": "uint256"
        },
        {
          "internalType": "uint256",
          "name": "matchId",
          "type": "uint256"
        },
        {
          "internalType": "uint256",
          "name": "sideId",
          "type": "uint256"
        },
        {
          "internalType": "uint256",
          "name": "remainingLiquidity",
          "type": "uint256"
        },
        {
          "internalType": "uint256",
          "name": "odds",
          "type": "uint256"
        },
        {
          "internalType": "bool",
          "name": "closed",
          "type": "bool"
        },
        {
          "internalType": "uint256",
          "name": "createdTime",
          "type": "uint256"
        }
      ],
      "payable": false,
      "stateMutability": "view",
      "type": "function"
    }
  ],
  "bytecode": "0x608060405266038d7ea4c6800060035566038d7ea4c680006005556000600660006101000a81548173ffffffffffffffffffffffffffffffffffffffff021916908373ffffffffffffffffffffffffffffffffffffffff160217905550600660009054906101000a900473ffffffffffffffffffffffffffffffffffffffff16600760006101000a81548173ffffffffffffffffffffffffffffffffffffffff021916908373ffffffffffffffffffffffffffffffffffffffff1602179055503480156100cb57600080fd5b50336000806101000a81548173ffffffffffffffffffffffffffffffffffffffff021916908373ffffffffffffffffffffffffffffffffffffffff16021790555033600160006101000a81548173ffffffffffffffffffffffffffffffffffffffff021916908373ffffffffffffffffffffffffffffffffffffffff1602179055506125b88061015c6000396000f3fe6080604052600436106101345760003560e01c80638f32d59b116100ab578063d1a371501161006f578063d1a3715014610830578063df53caf11461085f578063e1ff9aa2146108ef578063e57bcd4a14610995578063ec9fdc10146109f2578063f435e4cc14610a2157610134565b80638f32d59b146105f85780639b5fa0a514610627578063b33a0a14146106a4578063ca133d811461074a578063ca3d5e841461080157610134565b80634c69c00f116100fd5780634c69c00f146103d457806356150a361461043d5780635d62610f14610490578063605c43de146104d65780638b7afe2e146105765780638da5cb5b146105a157610134565b806221958d1461013957806322af00fa1461017f57806330096ba71461028c578063422f1043146103325780634afe62b514610388575b600080fd5b6101656004803603602081101561014f57600080fd5b8101908080359060200190929190505050610ab1565b604051808215151515815260200191505060405180910390f35b34801561018b57600080fd5b506101b8600480360360208110156101a257600080fd5b8101908080359060200190929190505050610c1e565b604051808e81526020018d81526020018c81526020018b81526020018a81526020018981526020018881526020018773ffffffffffffffffffffffffffffffffffffffff1673ffffffffffffffffffffffffffffffffffffffff1681526020018673ffffffffffffffffffffffffffffffffffffffff1673ffffffffffffffffffffffffffffffffffffffff16815260200185600381111561025657fe5b60ff168152602001848152602001838152602001821515151581526020019d505050505050505050505050505060405180910390f35b34801561029857600080fd5b506102db600480360360208110156102af57600080fd5b81019080803573ffffffffffffffffffffffffffffffffffffffff169060200190929190505050610ceb565b6040518080602001828103825283818151815260200191508051906020019060200280838360005b8381101561031e578082015181840152602081019050610303565b505050509050019250505060405180910390f35b6103726004803603606081101561034857600080fd5b81019080803590602001909291908035906020019092919080359060200190929190505050610d87565b6040518082815260200191505060405180910390f35b6103be6004803603604081101561039e57600080fd5b81019080803590602001909291908035906020019092919050505061100c565b6040518082815260200191505060405180910390f35b3480156103e057600080fd5b50610423600480360360208110156103f757600080fd5b81019080803573ffffffffffffffffffffffffffffffffffffffff16906020019092919050505061151e565b604051808215151515815260200191505060405180910390f35b6104766004803603604081101561045357600080fd5b8101908080359060200190929190803560ff16906020019092919050505061167f565b604051808215151515815260200191505060405180910390f35b6104bc600480360360208110156104a657600080fd5b8101908080359060200190929190505050611ae6565b604051808215151515815260200191505060405180910390f35b3480156104e257600080fd5b5061050f600480360360208110156104f957600080fd5b8101908080359060200190929190505050611e30565b604051808b81526020018a815260200189815260200188815260200187815260200186815260200185815260200184600381111561054957fe5b60ff168152602001838152602001821515151581526020019a505050505050505050505060405180910390f35b34801561058257600080fd5b5061058b611efd565b6040518082815260200191505060405180910390f35b3480156105ad57600080fd5b506105b6611f05565b604051808273ffffffffffffffffffffffffffffffffffffffff1673ffffffffffffffffffffffffffffffffffffffff16815260200191505060405180910390f35b34801561060457600080fd5b5061060d611f2e565b604051808215151515815260200191505060405180910390f35b34801561063357600080fd5b506106606004803603602081101561064a57600080fd5b8101908080359060200190929190505050611f85565b604051808881526020018781526020018681526020018581526020018481526020018315151515815260200182815260200197505050505050505060405180910390f35b3480156106b057600080fd5b506106f3600480360360208110156106c757600080fd5b81019080803573ffffffffffffffffffffffffffffffffffffffff169060200190929190505050612020565b6040518080602001828103825283818151815260200191508051906020019060200280838360005b8381101561073657808201518184015260208101905061071b565b505050509050019250505060405180910390f35b34801561075657600080fd5b506107836004803603602081101561076d57600080fd5b81019080803590602001909291905050506120bc565b604051808a81526020018973ffffffffffffffffffffffffffffffffffffffff1673ffffffffffffffffffffffffffffffffffffffff16815260200188815260200187815260200186815260200185815260200184151515158152602001838152602001828152602001995050505050505050505060405180910390f35b34801561080d57600080fd5b50610816612144565b604051808215151515815260200191505060405180910390f35b34801561083c57600080fd5b506108456121ee565b604051808215151515815260200191505060405180910390f35b34801561086b57600080fd5b506108986004803603602081101561088257600080fd5b8101908080359060200190929190505050612243565b6040518080602001828103825283818151815260200191508051906020019060200280838360005b838110156108db5780820151818401526020810190506108c0565b505050509050019250505060405180910390f35b3480156108fb57600080fd5b5061093e6004803603602081101561091257600080fd5b81019080803573ffffffffffffffffffffffffffffffffffffffff1690602001909291905050506122b3565b6040518080602001828103825283818151815260200191508051906020019060200280838360005b83811015610981578082015181840152602081019050610966565b505050509050019250505060405180910390f35b3480156109a157600080fd5b506109d8600480360360408110156109b857600080fd5b81019080803590602001909291908035906020019092919050505061234f565b604051808215151515815260200191505060405180910390f35b3480156109fe57600080fd5b50610a0761243b565b604051808215151515815260200191505060405180910390f35b348015610a2d57600080fd5b50610a5a60048036036020811015610a4457600080fd5b81019080803590602001909291905050506124ac565b6040518080602001828103825283818151815260200191508051906020019060200280838360005b83811015610a9d578082015181840152602081019050610a82565b505050509050019250505060405180910390f35b6000803414610abf57600080fd5b6000600c600d60008581526020019081526020016000205481548110610ae157fe5b90600052602060002090600902019050610af9611f2e565b80610b5357508060010160009054906101000a900473ffffffffffffffffffffffffffffffffffffffff1673ffffffffffffffffffffffffffffffffffffffff163373ffffffffffffffffffffffffffffffffffffffff16145b610b5c57600080fd5b8060060160009054906101000a900460ff1615610b7857600080fd5b60018160060160006101000a81548160ff021916908315150217905550600081600401549050600082600401819055508160010160009054906101000a900473ffffffffffffffffffffffffffffffffffffffff1673ffffffffffffffffffffffffffffffffffffffff166108fc829081150290604051600060405180830381858888f19350505050158015610c12573d6000803e3d6000fd5b50600192505050919050565b60088181548110610c2b57fe5b90600052602060002090600c02016000915090508060000154908060010154908060020154908060030154908060040154908060050154908060060154908060070160009054906101000a900473ffffffffffffffffffffffffffffffffffffffff16908060080160009054906101000a900473ffffffffffffffffffffffffffffffffffffffff16908060080160149054906101000a900460ff169080600901549080600a01549080600b0160009054906101000a900460ff1690508d565b606080600e60008473ffffffffffffffffffffffffffffffffffffffff1673ffffffffffffffffffffffffffffffffffffffff168152602001908152602001600020805480602002602001604051908101604052809291908181526020018280548015610d7757602002820191906000526020600020905b815481526020019060010190808311610d63575b5050505050905080915050919050565b6000610d916121ee565b610d9a57600080fd5b60648211610da757600080fd5b6127118210610db557600080fd5b600554341015610dc457600080fd5b6004600081546001019190508190559050600c6040518061012001604052808381526020013373ffffffffffffffffffffffffffffffffffffffff1681526020018681526020018581526020013481526020018481526020016000151581526020014281526020016000815250908060018154018082558091505090600182039060005260206000209060090201600090919290919091506000820151816000015560208201518160010160006101000a81548173ffffffffffffffffffffffffffffffffffffffff021916908373ffffffffffffffffffffffffffffffffffffffff16021790555060408201518160020155606082015181600301556080820151816004015560a0820151816005015560c08201518160060160006101000a81548160ff02191690831515021790555060e08201518160070155610100820151816008015550505060018103600d600083815260200190815260200160002081905550600e60003373ffffffffffffffffffffffffffffffffffffffff1673ffffffffffffffffffffffffffffffffffffffff168152602001908152602001600020819080600181540180825580915050906001820390600052602060002001600090919290919091505550600f60008581526020019081526020016000208190806001815401808255809150509060018203906000526020600020016000909192909190915055507fc2b9787b5865f184d65978c61b1c3fbd1b06bdd85ec4abac835122473ea9d4d9816040518082815260200191505060405180910390a19392505050565b60006110166121ee565b61101f57600080fd5b60035434101561102e57600080fd5b6000600c600d6000868152602001908152602001600020548154811061105057fe5b90600052602060002090600902019050600015158160060160009054906101000a900460ff1615151461108257600080fd5b8060010160009054906101000a900473ffffffffffffffffffffffffffffffffffffffff1673ffffffffffffffffffffffffffffffffffffffff163373ffffffffffffffffffffffffffffffffffffffff1614156110df57600080fd5b828160050154146110ef57600080fd5b6000346111066110ff348761251c565b6064612553565b039050808260040154101561111a57600080fd5b60026000815460010191905081905592506008604051806101a001604052808581526020018781526020018381526020013481526020016000815260200160008152602001600081526020018460010160009054906101000a900473ffffffffffffffffffffffffffffffffffffffff1673ffffffffffffffffffffffffffffffffffffffff1681526020013373ffffffffffffffffffffffffffffffffffffffff168152602001600060038111156111cf57fe5b815260200142815260200160008152602001600015158152509080600181540180825580915050906001820390600052602060002090600c020160009091929091909150600082015181600001556020820151816001015560408201518160020155606082015181600301556080820151816004015560a0820151816005015560c0820151816006015560e08201518160070160006101000a81548173ffffffffffffffffffffffffffffffffffffffff021916908373ffffffffffffffffffffffffffffffffffffffff1602179055506101008201518160080160006101000a81548173ffffffffffffffffffffffffffffffffffffffff021916908373ffffffffffffffffffffffffffffffffffffffff1602179055506101208201518160080160146101000a81548160ff0219169083600381111561130d57fe5b0217905550610140820151816009015561016082015181600a015561018082015181600b0160006101000a81548160ff021916908315150217905550505050600183036009600085815260200190815260200160002081905550600a60003373ffffffffffffffffffffffffffffffffffffffff1673ffffffffffffffffffffffffffffffffffffffff168152602001908152602001600020839080600181540180825580915050906001820390600052602060002001600090919290919091505550600b60008360010160009054906101000a900473ffffffffffffffffffffffffffffffffffffffff1673ffffffffffffffffffffffffffffffffffffffff1673ffffffffffffffffffffffffffffffffffffffff16815260200190815260200160002083908060018154018082558091505090600182039060005260206000200160009091929091909150555060106000836002015481526020019081526020016000208390806001815401808255809150509060018203906000526020600020016000909192909190915055506114ac82600401548261256c565b82600401819055506000826004015414156114df5760018260060160006101000a81548160ff0219169083151502179055505b7fde1fae6a99c0f84e9bee8b7f9d2d7663e46384ff079f389d5b4b6018b56e56e9836040518082815260200191505060405180910390a1505092915050565b6000611528611f2e565b61153157600080fd5b81600660006101000a81548173ffffffffffffffffffffffffffffffffffffffff021916908373ffffffffffffffffffffffffffffffffffffffff160217905550600660009054906101000a900473ffffffffffffffffffffffffffffffffffffffff16600760006101000a81548173ffffffffffffffffffffffffffffffffffffffff021916908373ffffffffffffffffffffffffffffffffffffffff160217905550600760009054906101000a900473ffffffffffffffffffffffffffffffffffffffff1673ffffffffffffffffffffffffffffffffffffffff1663302a72936040518163ffffffff1660e01b815260040160206040518083038186803b15801561163d57600080fd5b505afa158015611651573d6000803e3d6000fd5b505050506040513d602081101561166757600080fd5b81019080805190602001909291905050509050919050565b6000611689611f2e565b61169257600080fd5b6000341461169f57600080fd5b600060086009600086815260200190815260200160002054815481106116c157fe5b90600052602060002090600c020190506000151581600b0160009054906101000a900460ff161515146116f357600080fd5b6000600381111561170057fe5b8160080160149054906101000a900460ff16600381111561171d57fe5b1461172757600080fd5b828160080160146101000a81548160ff0219169083600381111561174757fe5b02179055504281600a018190555060006001600381111561176457fe5b84600381111561177057fe5b14156118125761178582600301546064612553565b905060008183600201548460030154010390508083600401819055508260070160009054906101000a900473ffffffffffffffffffffffffffffffffffffffff1673ffffffffffffffffffffffffffffffffffffffff166108fc829081150290604051600060405180830381858888f1935050505015801561180b573d6000803e3d6000fd5b50506119e6565b6002600381111561181f57fe5b84600381111561182b57fe5b14156118cd5761184082600201546064612553565b905060008183600201548460030154010390508083600501819055508260080160009054906101000a900473ffffffffffffffffffffffffffffffffffffffff1673ffffffffffffffffffffffffffffffffffffffff166108fc829081150290604051600060405180830381858888f193505050501580156118c6573d6000803e3d6000fd5b50506119e5565b6003808111156118d957fe5b8460038111156118e557fe5b14156119e45781600201548260040181905550816003015482600501819055508160070160009054906101000a900473ffffffffffffffffffffffffffffffffffffffff1673ffffffffffffffffffffffffffffffffffffffff166108fc83600201549081150290604051600060405180830381858888f19350505050158015611973573d6000803e3d6000fd5b508160080160009054906101000a900473ffffffffffffffffffffffffffffffffffffffff1673ffffffffffffffffffffffffffffffffffffffff166108fc83600301549081150290604051600060405180830381858888f193505050501580156119e2573d6000803e3d6000fd5b505b5b5b60008260020181905550600082600301819055506000811115611a7657808260060181905550600160009054906101000a900473ffffffffffffffffffffffffffffffffffffffff1673ffffffffffffffffffffffffffffffffffffffff166108fc829081150290604051600060405180830381858888f19350505050158015611a74573d6000803e3d6000fd5b505b600182600b0160006101000a81548160ff02191690831515021790555081600b0160009054906101000a900460ff1692507f0d7fd9e4a72e17428fa8f1c1e7c7436283b29d4dc0e1292783f4054585f7c38e856040518082815260200191505060405180910390a1505092915050565b6000611af0611f2e565b611af957600080fd5b60003414611b0657600080fd5b6000806000600760009054906101000a900473ffffffffffffffffffffffffffffffffffffffff1673ffffffffffffffffffffffffffffffffffffffff1663cfe3d27a866040518263ffffffff1660e01b81526004018082815260200191505060606040518083038186803b158015611b7e57600080fd5b505afa158015611b92573d6000803e3d6000fd5b505050506040513d6060811015611ba857600080fd5b8101908080519060200190929190805190602001909291908051906020019092919050505092509250925060006002811115611be057fe5b836002811115611bec57fe5b1415611bf757600080fd5b60008090505b6010600087815260200190815260200160002080549050811015611d5b576000600860096000601060008b81526020019081526020016000208581548110611c4157fe5b906000526020600020015481526020019081526020016000205481548110611c6557fe5b90600052602060002090600c0201905080600b0160009054906101000a900460ff1680611cba575060006003811115611c9a57fe5b8160080160149054906101000a900460ff166003811115611cb757fe5b14155b15611cc55750611d4e565b6000600c600d6000846001015481526020019081526020016000205481548110611ceb57fe5b9060005260206000209060090201905060006001905060016002811115611d0e57fe5b876002811115611d1a57fe5b1415611d295760039050611d3b565b8582600301541415611d3a57600290505b5b611d4983600001548261167f565b505050505b8080600101915050611bfd565b5060008090505b600f600087815260200190815260200160002080549050811015611e23576000600c600d6000600f60008b81526020019081526020016000208581548110611da657fe5b906000526020600020015481526020019081526020016000205481548110611dca57fe5b906000526020600020906009020190508060060160009054906101000a900460ff1680611dfb575060008160040154145b15611e065750611e16565b611e138160000154610ab1565b50505b8080600101915050611d62565b5060019350505050919050565b60008060008060008060008060008060006008600960008e81526020019081526020016000205481548110611e6157fe5b90600052602060002090600c0201905080600001549a508060010154995080600201549850806003015497508060040154965080600501549550806006015494508060080160149054906101000a900460ff1693508060090154925080600b0160009054906101000a900460ff1691508a8a8a8a8a8a8a8a8a8a9a509a509a509a509a509a509a509a509a509a50509193959799509193959799565b600047905090565b60008060009054906101000a900473ffffffffffffffffffffffffffffffffffffffff16905090565b60008060009054906101000a900473ffffffffffffffffffffffffffffffffffffffff1673ffffffffffffffffffffffffffffffffffffffff163373ffffffffffffffffffffffffffffffffffffffff1614905090565b600080600080600080600080600c600d60008b81526020019081526020016000205481548110611fb157fe5b9060005260206000209060090201905080600001549750806002015496508060030154955080600401549450806005015493508060060160009054906101000a900460ff1692508060070154915087878787878787975097509750975097509750975050919395979092949650565b606080600b60008473ffffffffffffffffffffffffffffffffffffffff1673ffffffffffffffffffffffffffffffffffffffff1681526020019081526020016000208054806020026020016040519081016040528092919081815260200182805480156120ac57602002820191906000526020600020905b815481526020019060010190808311612098575b5050505050905080915050919050565b600c81815481106120c957fe5b90600052602060002090600902016000915090508060000154908060010160009054906101000a900473ffffffffffffffffffffffffffffffffffffffff16908060020154908060030154908060040154908060050154908060060160009054906101000a900460ff16908060070154908060080154905089565b6000600760009054906101000a900473ffffffffffffffffffffffffffffffffffffffff1673ffffffffffffffffffffffffffffffffffffffff1663302a72936040518163ffffffff1660e01b815260040160206040518083038186803b1580156121ae57600080fd5b505afa1580156121c2573d6000803e3d6000fd5b505050506040513d60208110156121d857600080fd5b8101908080519060200190929190505050905090565b6000601160003373ffffffffffffffffffffffffffffffffffffffff1673ffffffffffffffffffffffffffffffffffffffff16815260200190815260200160002060009054906101000a900460ff1615905090565b606080600f60008481526020019081526020016000208054806020026020016040519081016040528092919081815260200182805480156122a357602002820191906000526020600020905b81548152602001906001019080831161228f575b5050505050905080915050919050565b606080600a60008473ffffffffffffffffffffffffffffffffffffffff1673ffffffffffffffffffffffffffffffffffffffff16815260200190815260200160002080548060200260200160405190810160405280929190818152602001828054801561233f57602002820191906000526020600020905b81548152602001906001019080831161232b575b5050505050905080915050919050565b60006064821161235e57600080fd5b612711821061236c57600080fd5b6000600c600d6000868152602001908152602001600020548154811061238e57fe5b906000526020600020906009020190508060010160009054906101000a900473ffffffffffffffffffffffffffffffffffffffff1673ffffffffffffffffffffffffffffffffffffffff163373ffffffffffffffffffffffffffffffffffffffff16146123fa57600080fd5b8060060160009054906101000a900460ff161561241657600080fd5b600081600401541161242757600080fd5b828160050181905550600191505092915050565b60006124456121ee565b61244e57600080fd5b6001905080601160003373ffffffffffffffffffffffffffffffffffffffff1673ffffffffffffffffffffffffffffffffffffffff16815260200190815260200160002060006101000a81548160ff02191690831515021790555090565b6060806010600084815260200190815260200160002080548060200260200160405190810160405280929190818152602001828054801561250c57602002820191906000526020600020905b8154815260200190600101908083116124f8575b5050505050905080915050919050565b60008083141561252f576000905061254d565b600082840290508284828161254057fe5b041461254857fe5b809150505b92915050565b60008082848161255f57fe5b0490508091505092915050565b60008282111561257857fe5b81830390509291505056fea265627a7a723158204f63276257209825b0a68c21e3d22f8fcb0a6d469cfb62cef4345abc7417e22764736f6c63430005100032",
  "source": "// SPDX-License-Identifier: MIT\r\npragma solidity >=0.5.16 <0.9.0;\r\nimport \"./safemath.sol\";\r\nimport \"./Ownable.sol\";\r\nimport \"./OracleInterface.sol\";\r\nimport \"./SoccerOracle.sol\";\r\n/// @title A title that should describe the contract/interface\r\n/// @author Chris Patterson\r\n/// @notice Explain to an end user what this does\r\n/// @dev Explain to a developer any extra details\r\ncontract BeTheBookie is Ownable {\r\n\r\n    address payable private ownerPayable;\r\n    uint256 betCounter;\r\n    uint minBet = 0.001 ether;\r\n    uint256 liquidityCounter;\r\n    uint minLiquidity = 0.001 ether;\r\n\r\n    address internal soccerOracleAddr = address(0);\r\n    OracleInterface internal oracle = OracleInterface(soccerOracleAddr);\r\n\r\n    Bet[] public bets;\r\n    mapping (uint256 => uint) betMapping; //id -> index\r\n    \r\n    //mapping of pundit bets to an address\r\n    mapping (address => uint256[]) punditBetsMapping; \r\n\r\n    //mapping of bookie bets to an address\r\n    mapping (address => uint256[]) bookieBetsMapping; \r\n\r\n    Liquidity[] public betPools;\r\n    mapping (uint256 => uint) poolMapping; //id -> index\r\n\r\n    //mapping of bookie liquidity to an address\r\n    mapping (address => uint256[]) bookieLiquidityMapping; \r\n\r\n    //mapping of the unique match id's to provided liquidity. Used to be able to filter for available bets without downloading the entire dataset.\r\n    mapping (uint256 => uint256[]) matchLiquidityMapping; \r\n    //mapping of the unique match id's to bets. It is needed to be able to find all bets for a given match on the client. \r\n    mapping (uint256 => uint256[]) matchBetMapping; \r\n    \r\n    enum MatchResult{ Undecided, BookieWon, PunditWon, Void }\r\n\r\n/// @notice Maintains a list of addresses which have opted to self exclude from the platform.\r\n    mapping (address => bool) exclusionList;\r\n\r\n/// @notice Raises an event that a new liquidity / market has been provided to pundits.\r\n/// @dev Will be used by the GUI as a trigger to reload the screen\r\n/// @param id the liquidityId\r\n    event BookieProvidingLiquidity(uint256 id);\r\n\r\n/// @notice Raised when a bet is placed. \r\n/// @dev Will be used by the GUI as a trigger to reload the screen\r\n/// @param id new unique bet id\r\n    event BetPlaced(uint256 id);\r\n\r\n/// @notice Explain to an end user what this does\r\n/// @dev Will be used by the GUI as a trigger to reload the screen to show if they won or not.\r\n/// @param id bet id\r\n    event BetResult(uint256 id);\r\n\r\n//Structure representing a bet with 2 parties involved. The Pundit and the Bookie. The bookie placed odds and liquidity and the pundit took a position. \r\n//The payout will go to either the Pundit or the Bookie when the result is decided. There is a 1% fee taken off the profits paid to the contract owner.\r\n    struct Bet {\r\n        uint256 id;\r\n        uint256 liquidityId;\r\n        uint256 bookieCollateral;\r\n        uint256 punditCollateral;\r\n        uint256 bookiePayout; \r\n        uint256 punditPayout; \r\n        uint256 feePaid;\r\n        address payable bookie; // bookie address copied from the liquidity object\r\n        address payable pundit; //account taking a punt on this outcome (they want to win)\r\n        MatchResult result;\r\n        uint createdTime;\r\n        uint closedTime;\r\n        bool closed;\r\n    }\r\n\r\n//Structure representing betting liquidity on a certain match/player/odds. ie: As a bookie I can lay odds on Federer to beat Nadal at 200 (even payout).\r\n//The bookie can post the total liquidity they are willing to expose themselves to; ie: 10 ETH and as bets are placed the available liquidty will decrease until it reaches 0.\r\n//With these odds, pundits (people taking a bet) can take a position on these odds. ie: 1ETH. \r\n//The pundit hopes Federer wins as they will receive 2 ETH in return whereas the bookie hopes Nadal wins as they receive the bet amount + the liquidity they provided. 2 ETH as well.\r\n//Odds can range from 101 to 10000. 101 is equivalent to 1.01 * stake and 10000 is 100 * stake. \r\n//Once a bet is placed it is final and will require an outcome.\r\n    struct Liquidity {\r\n        uint256 id;\r\n        address payable bookie; //account laying the odds (they do not want this bet to pay out)\r\n        uint matchId; //each match will have a unique id\r\n        uint sideId; //will need to choose the winning side of the match\r\n        uint256 remainingLiquidity;\r\n        uint odds; // 1.50 odds would be stored as 150 (*100).\r\n        bool closed;\r\n        uint createdTime;\r\n        uint closedTime;\r\n    }\r\n\r\n\r\n      /* \r\n   * Modifiers\r\n   */\r\n\r\n  // Create a modifer, `isOwner` that checks if the msg.sender is the owner of the contract\r\n//   function isOwner() public view returns(bool) {\r\n//     return msg.sender == owner;\r\n//   }\r\n\r\n  function isNotExcluded() public view returns(bool) {\r\n    return !exclusionList[msg.sender];\r\n  }\r\n\r\n    // Fallback function - Called if other functions don't match call or\r\n    // sent ether without data\r\n    // Typically, called when invalid data is sent\r\n    // Added so ether sent to this contract is reverted if the contract fails\r\n    // otherwise, the sender's money is transferred to contract\r\n    function () external payable {\r\n        revert();\r\n    }\r\n\r\n    constructor() public {\r\n        ownerPayable = msg.sender;\r\n    }\r\n\r\n/// @notice Gambling addiction is a real problem and this option allows people to self exclude from the platform should they feel they are participating in an unhealthly way.\r\n/// @return _excluded returns true when added.\r\n    function selfExclude() public returns (bool _excluded)\r\n    {\r\n        require(isNotExcluded()); //no point executing this function twice.\r\n        _excluded = true;\r\n        exclusionList[msg.sender] = _excluded;\r\n    }\r\n\r\n/// @notice Explain to an end user what this does\r\n/// @dev Explain to a developer any extra details\r\n    function contractBalance() public view returns (uint256 _balance) {\r\n        _balance = address(this).balance;\r\n    }\r\n\r\n    function setOracleAddress(address _address) public onlyOwner returns (bool) {\r\n        soccerOracleAddr = _address;\r\n        oracle = OracleInterface(soccerOracleAddr);\r\n        return oracle.Validate();\r\n    }\r\n    \r\n    function testOracleValid() public view returns (bool) {\r\n        return oracle.Validate();\r\n    }\r\n\r\n/// @notice Public function allowing a pundit to place a bet leveraging existing liquidity in a market/odds.\r\n/// @dev bookieCollateral is somewhat complex as depending on the stake, the payout has to be calculated on the fly and deducted from the pool of liquidity. \r\n/// @param _liquidityId pointer to available liquidity. The msg.amount is the stake.\r\n/// @return _id - returns unique ID of the new bet object.\r\n    function placeBet(uint256 _liquidityId, uint _odds) public payable returns (uint256 _id)\r\n    {\r\n        require(isNotExcluded()); //ensure the participant has not chosed to self exclude from the platform\r\n        require(msg.value >= minBet);\r\n        \r\n        Liquidity storage _l = betPools[poolMapping[_liquidityId]];\r\n        require(_l.closed == false);\r\n        require(msg.sender != _l.bookie);\r\n        require(_l.odds == _odds); //possible the bookie might adjust the odds before a bet has been placed. Confirm they match.\r\n\r\n        uint256 bookieCollateral = SafeMath.div(SafeMath.mul(msg.value, _odds), 100)-msg.value;\r\n        require(_l.remainingLiquidity >= bookieCollateral);\r\n\r\n        _id = ++betCounter;\r\n\r\n        bets.push(Bet({\r\n            id: _id,\r\n            liquidityId: _liquidityId, \r\n            bookieCollateral: bookieCollateral,\r\n            punditCollateral: msg.value,\r\n            bookiePayout: 0, \r\n            punditPayout: 0, \r\n            feePaid: 0,\r\n            pundit: msg.sender,\r\n            bookie: _l.bookie,\r\n            result: MatchResult.Undecided, \r\n            createdTime: block.timestamp,\r\n            closedTime: 0,\r\n            closed: false\r\n            }));\r\n\r\n        betMapping[_id] = _id-1;\r\n        punditBetsMapping[msg.sender].push(_id);\r\n        bookieBetsMapping[_l.bookie].push(_id);\r\n        matchBetMapping[_l.matchId].push(_id);\r\n\r\n        _l.remainingLiquidity = SafeMath.sub(_l.remainingLiquidity, bookieCollateral);\r\n        if (_l.remainingLiquidity == 0)\r\n        {\r\n            _l.closed = true;\r\n        }\r\n\r\n        emit BetPlaced(_id);\r\n\r\n    }\r\n\r\n    function matchCompleteHandlePayouts(uint256 _matchId) public payable onlyOwner returns (bool _success) {\r\n        require(msg.value == 0);\r\n        (OracleInterface.ResultType _type,uint256 winning_team_id,uint256 result_time)  = oracle.getMatchResult(_matchId);\r\n        require(_type != OracleInterface.ResultType.Undecided);\r\n\r\n        for (uint i = 0; i < matchBetMapping[_matchId].length; i++)\r\n        {\r\n            Bet storage _bet = bets[betMapping[matchBetMapping[_matchId][i]]];\r\n            if (_bet.closed || _bet.result != MatchResult.Undecided) //double check to ensure the bet is still open.\r\n                {continue;}\r\n\r\n            Liquidity storage _l = betPools[poolMapping[_bet.liquidityId]];\r\n\r\n            MatchResult _result = MatchResult.BookieWon;\r\n            if (_type == OracleInterface.ResultType.Void)\r\n                _result = MatchResult.Void;\r\n            else if (_l.sideId == winning_team_id)\r\n                _result = MatchResult.PunditWon;\r\n            \r\n            setResult(_bet.id, _result);\r\n        }\r\n\r\n        for (uint j = 0; j < matchLiquidityMapping[_matchId].length; j++)\r\n        {\r\n            Liquidity storage _l = betPools[poolMapping[matchLiquidityMapping[_matchId][j]]];\r\n            if (_l.closed || _l.remainingLiquidity == 0)\r\n                { continue; }\r\n            refundLiquidity(_l.id);\r\n        }\r\n        \r\n\r\n        _success = true;\r\n    }\r\n\r\n\r\n/// @notice called internally by the contract owner to set the result of a given bet.  \r\n/// @dev The payout structure depends on who wins but either the pundit or bookie gets paid - 1% of profits as a fee.\r\n/// @param _betId - unique id of the bet\r\n/// @param _result - result of the match. Determines how the bet pays out.\r\n/// @return _success true if no errors.\r\n    function setResult(uint256 _betId, MatchResult _result) public payable onlyOwner returns (bool _success) {\r\n        require(msg.value == 0);\r\n\r\n        Bet storage _bet = bets[betMapping[_betId]];\r\n        require(_bet.closed == false);\r\n        require(_bet.result == MatchResult.Undecided);\r\n\r\n        _bet.result = _result;\r\n        _bet.closedTime = block.timestamp;\r\n        \r\n        uint256 fee;\r\n        if (_result == MatchResult.BookieWon)\r\n        {\r\n            fee = SafeMath.div(_bet.punditCollateral, 100);\r\n            uint256 payout = _bet.punditCollateral + _bet.bookieCollateral - fee;\r\n            _bet.bookiePayout = payout;\r\n            _bet.bookie.transfer(payout);\r\n        }\r\n        else if (_result == MatchResult.PunditWon)\r\n        {\r\n            fee = SafeMath.div(_bet.bookieCollateral, 100);\r\n            uint256 payout = _bet.punditCollateral + _bet.bookieCollateral - fee;\r\n            _bet.punditPayout = payout;\r\n            _bet.pundit.transfer(payout);\r\n        }\r\n        else if (_result == MatchResult.Void)\r\n        {\r\n            //refund their money as the match was cancelled\r\n            _bet.bookiePayout = _bet.bookieCollateral;\r\n            _bet.punditPayout = _bet.punditCollateral;\r\n            _bet.bookie.transfer(_bet.bookieCollateral);\r\n            _bet.pundit.transfer(_bet.punditCollateral);\r\n        }\r\n\r\n        _bet.bookieCollateral = 0;\r\n        _bet.punditCollateral = 0;\r\n\r\n        if (fee > 0)\r\n        {\r\n            _bet.feePaid = fee;\r\n            ownerPayable.transfer(fee);\r\n        }\r\n\r\n        _bet.closed = true;\r\n\r\n        _success = _bet.closed;\r\n        emit BetResult(_betId);\r\n    }\r\n\r\n/// @notice Explain to an end user what this does\r\n/// @dev Explain to a developer any extra details\r\n/// @return uint256[] - list of bet ID's owned by the msg.sender\r\n    function getPunditBets(address pundit) external view returns (uint256[] memory)\r\n    {\r\n        uint256[] memory response = punditBetsMapping[pundit];\r\n        return response;\r\n    }\r\n\r\n    /// @notice Explain to an end user what this does\r\n/// @dev Explain to a developer any extra details\r\n/// @return uint256[] - list of bet ID's owned by the msg.sender\r\n    function getBookieBets(address bookie) external view returns (uint256[] memory)\r\n    {\r\n        uint256[] memory response = bookieBetsMapping[bookie];\r\n        return response;\r\n    }\r\n\r\n\r\n    /// @notice Explain to an end user what this does\r\n/// @dev Explain to a developer any extra details\r\n/// @param _id bet id\r\n    function getBetById(uint _id) external view returns (uint256 id, uint256 liquidityId, uint256 bookieCollateral, uint256 punditCollateral, uint256 bookiePayout, uint256 punditPayout, uint256 feePaid, MatchResult result, uint createdTime, bool closed)\r\n    {\r\n        Bet storage bet = bets[betMapping[_id]];\r\n        id = bet.id;\r\n        liquidityId = bet.liquidityId;\r\n        bookieCollateral = bet.bookieCollateral;\r\n        punditCollateral = bet.punditCollateral;\r\n        bookiePayout = bet.bookiePayout;\r\n        punditPayout = bet.punditPayout;\r\n        feePaid = bet.feePaid;\r\n        result = bet.result;\r\n        createdTime = bet.createdTime;\r\n        closed = bet.closed;\r\n        return (id, liquidityId, bookieCollateral, punditCollateral, bookiePayout, punditPayout, feePaid, result, createdTime, closed);\r\n    }\r\n\r\n\r\n    /// @notice Public function for a bookie to place odds on a match result and submit available liquidity. ie: Federer to beat Nadal, 200 odds with 10ETH max payout.\r\n    /// @param _matchId The unique ID of a match (ie: Federer vs Nadal at 2018 Wimbledon final)\r\n    /// @param _sideId The perspective winning side, ie: Federer. (unique ID from the source JSON data)\r\n    /// @param _odds The odds. ie: 150 = decimal equivalent odds at 1.5. 200 = 2. Payout formula is basically _odds/100 * stake. \r\n                    //ie: 150/100 * 1ETH = 0.5ETH payout + your original stake = 1.5ETH return. \r\n    /// @return _id returns unique ID of the new liquidity object.\r\n    function addLiquidity(uint _matchId, uint _sideId, uint256 _odds) public payable returns (uint _id)\r\n    {\r\n        require(isNotExcluded()); //ensure the participant has not chosed to self exclude from the platform\r\n        require(_odds > 100);\r\n        require(_odds < 10001);\r\n        require(msg.value >= minLiquidity);\r\n\r\n        _id = ++liquidityCounter;\r\n\r\n        betPools.push(Liquidity({\r\n            id: _id,\r\n            bookie: msg.sender,\r\n            matchId: _matchId, \r\n            sideId: _sideId,\r\n            remainingLiquidity: msg.value,\r\n            odds: _odds, \r\n            closed: false,\r\n            createdTime: block.timestamp,\r\n            closedTime: 0\r\n            }));\r\n\r\n        poolMapping[_id] = _id-1;\r\n        bookieLiquidityMapping[msg.sender].push(_id);\r\n        matchLiquidityMapping[_matchId].push(_id);\r\n\r\n        emit BookieProvidingLiquidity(_id);\r\n\r\n    }\r\n\r\n    function adjustOdds(uint _liquidityId, uint _odds) public returns (bool _result) {\r\n        require(_odds > 100);\r\n        require(_odds < 10001);\r\n\r\n        Liquidity storage _l = betPools[poolMapping[_liquidityId]];\r\n        require(msg.sender == _l.bookie);\r\n        require(!_l.closed);\r\n        require(_l.remainingLiquidity > 0);\r\n\r\n        _l.odds = _odds;\r\n        _result = true;\r\n    }\r\n\r\n\r\n/// @notice Explain to an end user what this does\r\n/// @dev Explain to a developer any extra details\r\n/// @param _id liqudity id\r\n/// @return _result true if no errors\r\n    function refundLiquidity(uint _id) public payable returns (bool _result) {\r\n        require(msg.value == 0);\r\n        Liquidity storage _l = betPools[poolMapping[_id]];\r\n        require(isOwner() || msg.sender == _l.bookie);\r\n        require(!_l.closed);\r\n        \r\n        _l.closed = true;\r\n        uint refund = _l.remainingLiquidity;\r\n        _l.remainingLiquidity = 0;\r\n        _l.bookie.transfer(refund);\r\n        _result = true;\r\n    }\r\n\r\n/// @notice Explain to an end user what this does\r\n/// @dev Explain to a developer any extra details\r\n/// @return uint256[] - list of liquidity ID's owned by the msg.sender\r\n    function getBookieLiquidity(address bookie) external view returns (uint256[] memory)\r\n    {\r\n        uint256[] memory response = bookieLiquidityMapping[bookie];\r\n        return response;\r\n    }\r\n\r\n/// @notice Explain to an end user what this does\r\n/// @dev Explain to a developer any extra details\r\n/// @param _matchId unique match id\r\n/// @return uint256[] - list of liquidity ID's for that match\r\n    function getMatchLiquidity(uint256 _matchId) external view returns (uint256[] memory) {\r\n        uint256[] memory response = matchLiquidityMapping[_matchId];\r\n        return response;\r\n    }\r\n\r\n/// @notice Explain to an end user what this does\r\n/// @dev Explain to a developer any extra details\r\n/// @param _matchId unique match id\r\n/// @return uint256[] - list of liquidity ID's for that match\r\n    function getMatchBets(uint256 _matchId) external view returns (uint256[] memory) {\r\n        uint256[] memory response = matchBetMapping[_matchId];\r\n        return response;\r\n    }    \r\n    \r\n    /// @notice Explain to an end user what this does\r\n/// @dev Explain to a developer any extra details\r\n/// @param _id liqudity id\r\n/// @return _result true if no errors\r\n    function getLiquidityById(uint _id) external view returns (uint id, uint matchId, uint sideId, uint256 remainingLiquidity, uint odds, bool closed, uint createdTime)\r\n    {\r\n        Liquidity storage _l = betPools[poolMapping[_id]];\r\n        id = _l.id;\r\n        matchId = _l.matchId;\r\n        sideId = _l.sideId;\r\n        remainingLiquidity = _l.remainingLiquidity;\r\n        odds = _l.odds;\r\n        closed = _l.closed;\r\n        createdTime = _l.createdTime;\r\n        return (id, matchId, sideId, remainingLiquidity, odds, closed, createdTime);\r\n    }\r\n\r\n}\r\n\r\n",
  "sourcePath": "E:\\GIT\\blockchain-developer-bootcamp-final-project\\contracts\\BeTheBookie.sol",
  "compiler": {
    "name": "solc",
    "version": "0.5.16+commit.9c3226ce.Emscripten.clang"
  },
  "schemaVersion": "3.4.3",
  "updatedAt": "2021-10-22T22:54:52.797Z",
  "devdoc": {
    "author": "Chris Patterson",
    "details": "Explain to a developer any extra details",
    "methods": {
      "addLiquidity(uint256,uint256,uint256)": {
        "return": "_id returns unique ID of the new liquidity object."
      },
      "contractBalance()": {
        "details": "Explain to a developer any extra details"
      },
      "getBetById(uint256)": {
        "details": "Explain to a developer any extra details",
        "params": {
          "_id": "bet id"
        }
      },
      "getBookieBets(address)": {
        "details": "Explain to a developer any extra details",
        "return": "uint256[] - list of bet ID's owned by the msg.sender"
      },
      "getBookieLiquidity(address)": {
        "details": "Explain to a developer any extra details",
        "return": "uint256[] - list of liquidity ID's owned by the msg.sender"
      },
      "getLiquidityById(uint256)": {
        "details": "Explain to a developer any extra details",
        "params": {
          "_id": "liqudity id"
        },
        "return": "_result true if no errors"
      },
      "getMatchBets(uint256)": {
        "details": "Explain to a developer any extra details",
        "params": {
          "_matchId": "unique match id"
        },
        "return": "uint256[] - list of liquidity ID's for that match"
      },
      "getMatchLiquidity(uint256)": {
        "details": "Explain to a developer any extra details",
        "params": {
          "_matchId": "unique match id"
        },
        "return": "uint256[] - list of liquidity ID's for that match"
      },
      "getPunditBets(address)": {
        "details": "Explain to a developer any extra details",
        "return": "uint256[] - list of bet ID's owned by the msg.sender"
      },
      "isOwner()": {
        "return": "true if `msg.sender` is the owner of the contract."
      },
      "owner()": {
        "return": "the address of the owner."
      },
      "placeBet(uint256,uint256)": {
        "details": "bookieCollateral is somewhat complex as depending on the stake, the payout has to be calculated on the fly and deducted from the pool of liquidity. ",
        "params": {
          "_liquidityId": "pointer to available liquidity. The msg.amount is the stake."
        },
        "return": "_id - returns unique ID of the new bet object."
      },
      "refundLiquidity(uint256)": {
        "details": "Explain to a developer any extra details",
        "params": {
          "_id": "liqudity id"
        },
        "return": "_result true if no errors"
      },
      "selfExclude()": {
        "return": "_excluded returns true when added."
      },
      "setResult(uint256,uint8)": {
        "details": "The payout structure depends on who wins but either the pundit or bookie gets paid - 1% of profits as a fee.",
        "params": {
          "_betId": "- unique id of the bet",
          "_result": "- result of the match. Determines how the bet pays out."
        },
        "return": "_success true if no errors."
      }
    },
    "title": "A title that should describe the contract/interface"
  },
  "userdoc": {
    "methods": {
      "contractBalance()": {
        "notice": "Explain to an end user what this does"
      },
      "getBetById(uint256)": {
        "notice": "Explain to an end user what this does"
      },
      "getBookieBets(address)": {
        "notice": "Explain to an end user what this does"
      },
      "getBookieLiquidity(address)": {
        "notice": "Explain to an end user what this does"
      },
      "getLiquidityById(uint256)": {
        "notice": "Explain to an end user what this does"
      },
      "getMatchBets(uint256)": {
        "notice": "Explain to an end user what this does"
      },
      "getMatchLiquidity(uint256)": {
        "notice": "Explain to an end user what this does"
      },
      "getPunditBets(address)": {
        "notice": "Explain to an end user what this does"
      },
      "placeBet(uint256,uint256)": {
        "notice": "Public function allowing a pundit to place a bet leveraging existing liquidity in a market/odds."
      },
      "refundLiquidity(uint256)": {
        "notice": "Explain to an end user what this does"
      },
      "selfExclude()": {
        "notice": "Gambling addiction is a real problem and this option allows people to self exclude from the platform should they feel they are participating in an unhealthly way."
      },
      "setResult(uint256,uint8)": {
        "notice": "called internally by the contract owner to set the result of a given bet.  "
      }
    },
    "notice": "Explain to an end user what this does"
  }
}