{
  "contractName": "BeTheBookie",
  "abi": [
    {
      "inputs": [],
      "payable": false,
      "stateMutability": "nonpayable",
      "type": "constructor"
    },
    {
      "anonymous": false,
      "inputs": [
        {
          "indexed": false,
          "internalType": "uint256",
          "name": "id",
          "type": "uint256"
        }
      ],
      "name": "BetPlaced",
      "type": "event"
    },
    {
      "anonymous": false,
      "inputs": [
        {
          "indexed": false,
          "internalType": "uint256",
          "name": "id",
          "type": "uint256"
        }
      ],
      "name": "BetResult",
      "type": "event"
    },
    {
      "anonymous": false,
      "inputs": [
        {
          "indexed": false,
          "internalType": "uint256",
          "name": "id",
          "type": "uint256"
        }
      ],
      "name": "BookieProvidingLiquidity",
      "type": "event"
    },
    {
      "payable": true,
      "stateMutability": "payable",
      "type": "fallback"
    },
    {
      "constant": true,
      "inputs": [
        {
          "internalType": "uint256",
          "name": "",
          "type": "uint256"
        }
      ],
      "name": "betPools",
      "outputs": [
        {
          "internalType": "uint256",
          "name": "id",
          "type": "uint256"
        },
        {
          "internalType": "address payable",
          "name": "bookie",
          "type": "address"
        },
        {
          "internalType": "uint256",
          "name": "matchId",
          "type": "uint256"
        },
        {
          "internalType": "uint256",
          "name": "sideId",
          "type": "uint256"
        },
        {
          "internalType": "uint256",
          "name": "remainingLiquidity",
          "type": "uint256"
        },
        {
          "internalType": "uint256",
          "name": "odds",
          "type": "uint256"
        },
        {
          "internalType": "bool",
          "name": "closed",
          "type": "bool"
        },
        {
          "internalType": "uint256",
          "name": "createdTime",
          "type": "uint256"
        },
        {
          "internalType": "uint256",
          "name": "closedTime",
          "type": "uint256"
        }
      ],
      "payable": false,
      "stateMutability": "view",
      "type": "function"
    },
    {
      "constant": true,
      "inputs": [
        {
          "internalType": "uint256",
          "name": "",
          "type": "uint256"
        }
      ],
      "name": "bets",
      "outputs": [
        {
          "internalType": "uint256",
          "name": "id",
          "type": "uint256"
        },
        {
          "internalType": "uint256",
          "name": "liquidityId",
          "type": "uint256"
        },
        {
          "internalType": "uint256",
          "name": "bookieCollateral",
          "type": "uint256"
        },
        {
          "internalType": "uint256",
          "name": "punditCollateral",
          "type": "uint256"
        },
        {
          "internalType": "uint256",
          "name": "bookiePayout",
          "type": "uint256"
        },
        {
          "internalType": "uint256",
          "name": "punditPayout",
          "type": "uint256"
        },
        {
          "internalType": "uint256",
          "name": "feePaid",
          "type": "uint256"
        },
        {
          "internalType": "address payable",
          "name": "bookie",
          "type": "address"
        },
        {
          "internalType": "address payable",
          "name": "pundit",
          "type": "address"
        },
        {
          "internalType": "uint256",
          "name": "odds",
          "type": "uint256"
        },
        {
          "internalType": "enum BeTheBookie.MatchResult",
          "name": "result",
          "type": "uint8"
        },
        {
          "internalType": "uint256",
          "name": "createdTime",
          "type": "uint256"
        },
        {
          "internalType": "uint256",
          "name": "closedTime",
          "type": "uint256"
        },
        {
          "internalType": "bool",
          "name": "closed",
          "type": "bool"
        }
      ],
      "payable": false,
      "stateMutability": "view",
      "type": "function"
    },
    {
      "constant": true,
      "inputs": [],
      "name": "isOwner",
      "outputs": [
        {
          "internalType": "bool",
          "name": "",
          "type": "bool"
        }
      ],
      "payable": false,
      "stateMutability": "view",
      "type": "function"
    },
    {
      "constant": true,
      "inputs": [],
      "name": "owner",
      "outputs": [
        {
          "internalType": "address",
          "name": "",
          "type": "address"
        }
      ],
      "payable": false,
      "stateMutability": "view",
      "type": "function"
    },
    {
      "constant": true,
      "inputs": [],
      "name": "isNotExcluded",
      "outputs": [
        {
          "internalType": "bool",
          "name": "",
          "type": "bool"
        }
      ],
      "payable": false,
      "stateMutability": "view",
      "type": "function"
    },
    {
      "constant": false,
      "inputs": [],
      "name": "selfExclude",
      "outputs": [
        {
          "internalType": "bool",
          "name": "_excluded",
          "type": "bool"
        }
      ],
      "payable": false,
      "stateMutability": "nonpayable",
      "type": "function"
    },
    {
      "constant": true,
      "inputs": [],
      "name": "contractBalance",
      "outputs": [
        {
          "internalType": "uint256",
          "name": "_balance",
          "type": "uint256"
        }
      ],
      "payable": false,
      "stateMutability": "view",
      "type": "function"
    },
    {
      "constant": false,
      "inputs": [
        {
          "internalType": "address",
          "name": "_address",
          "type": "address"
        }
      ],
      "name": "setOracleAddress",
      "outputs": [
        {
          "internalType": "bool",
          "name": "",
          "type": "bool"
        }
      ],
      "payable": false,
      "stateMutability": "nonpayable",
      "type": "function"
    },
    {
      "constant": true,
      "inputs": [],
      "name": "testOracleValid",
      "outputs": [
        {
          "internalType": "bool",
          "name": "",
          "type": "bool"
        }
      ],
      "payable": false,
      "stateMutability": "view",
      "type": "function"
    },
    {
      "constant": false,
      "inputs": [
        {
          "internalType": "uint256",
          "name": "_liquidityId",
          "type": "uint256"
        },
        {
          "internalType": "uint256",
          "name": "_odds",
          "type": "uint256"
        }
      ],
      "name": "placeBet",
      "outputs": [
        {
          "internalType": "uint256",
          "name": "_id",
          "type": "uint256"
        }
      ],
      "payable": true,
      "stateMutability": "payable",
      "type": "function"
    },
    {
      "constant": false,
      "inputs": [
        {
          "internalType": "uint256",
          "name": "_matchId",
          "type": "uint256"
        }
      ],
      "name": "matchCompleteHandlePayouts",
      "outputs": [
        {
          "internalType": "bool",
          "name": "_success",
          "type": "bool"
        }
      ],
      "payable": true,
      "stateMutability": "payable",
      "type": "function"
    },
    {
      "constant": false,
      "inputs": [
        {
          "internalType": "uint256",
          "name": "_betId",
          "type": "uint256"
        },
        {
          "internalType": "enum BeTheBookie.MatchResult",
          "name": "_result",
          "type": "uint8"
        }
      ],
      "name": "setResult",
      "outputs": [
        {
          "internalType": "bool",
          "name": "_success",
          "type": "bool"
        }
      ],
      "payable": true,
      "stateMutability": "payable",
      "type": "function"
    },
    {
      "constant": true,
      "inputs": [
        {
          "internalType": "address",
          "name": "pundit",
          "type": "address"
        }
      ],
      "name": "getActiveBetsByAddress",
      "outputs": [
        {
          "internalType": "uint256[]",
          "name": "",
          "type": "uint256[]"
        }
      ],
      "payable": false,
      "stateMutability": "view",
      "type": "function"
    },
    {
      "constant": true,
      "inputs": [
        {
          "internalType": "address",
          "name": "pundit",
          "type": "address"
        }
      ],
      "name": "getInActiveBetsByAddress",
      "outputs": [
        {
          "internalType": "uint256[]",
          "name": "",
          "type": "uint256[]"
        }
      ],
      "payable": false,
      "stateMutability": "view",
      "type": "function"
    },
    {
      "constant": true,
      "inputs": [
        {
          "internalType": "uint256",
          "name": "_id",
          "type": "uint256"
        }
      ],
      "name": "getBetById",
      "outputs": [
        {
          "internalType": "uint256",
          "name": "id",
          "type": "uint256"
        },
        {
          "internalType": "uint256",
          "name": "liquidityId",
          "type": "uint256"
        },
        {
          "internalType": "uint256",
          "name": "bookieCollateral",
          "type": "uint256"
        },
        {
          "internalType": "uint256",
          "name": "punditCollateral",
          "type": "uint256"
        },
        {
          "internalType": "uint256",
          "name": "odds",
          "type": "uint256"
        },
        {
          "internalType": "uint256",
          "name": "createdTime",
          "type": "uint256"
        },
        {
          "internalType": "bool",
          "name": "closed",
          "type": "bool"
        }
      ],
      "payable": false,
      "stateMutability": "view",
      "type": "function"
    },
    {
      "constant": true,
      "inputs": [
        {
          "internalType": "uint256",
          "name": "_id",
          "type": "uint256"
        }
      ],
      "name": "getClosedBetById",
      "outputs": [
        {
          "internalType": "uint256",
          "name": "id",
          "type": "uint256"
        },
        {
          "internalType": "uint256",
          "name": "liquidityId",
          "type": "uint256"
        },
        {
          "internalType": "uint256",
          "name": "bookiePayout",
          "type": "uint256"
        },
        {
          "internalType": "uint256",
          "name": "punditPayout",
          "type": "uint256"
        },
        {
          "internalType": "uint256",
          "name": "feePaid",
          "type": "uint256"
        },
        {
          "internalType": "uint256",
          "name": "odds",
          "type": "uint256"
        },
        {
          "internalType": "enum BeTheBookie.MatchResult",
          "name": "result",
          "type": "uint8"
        },
        {
          "internalType": "uint256",
          "name": "createdTime",
          "type": "uint256"
        },
        {
          "internalType": "uint256",
          "name": "closedTime",
          "type": "uint256"
        }
      ],
      "payable": false,
      "stateMutability": "view",
      "type": "function"
    },
    {
      "constant": false,
      "inputs": [
        {
          "internalType": "uint256",
          "name": "_matchId",
          "type": "uint256"
        },
        {
          "internalType": "uint256",
          "name": "_sideId",
          "type": "uint256"
        },
        {
          "internalType": "uint256",
          "name": "_odds",
          "type": "uint256"
        }
      ],
      "name": "addLiquidity",
      "outputs": [
        {
          "internalType": "uint256",
          "name": "_id",
          "type": "uint256"
        }
      ],
      "payable": true,
      "stateMutability": "payable",
      "type": "function"
    },
    {
      "constant": false,
      "inputs": [
        {
          "internalType": "uint256",
          "name": "_liquidityId",
          "type": "uint256"
        },
        {
          "internalType": "uint256",
          "name": "_odds",
          "type": "uint256"
        }
      ],
      "name": "adjustOdds",
      "outputs": [
        {
          "internalType": "bool",
          "name": "_result",
          "type": "bool"
        }
      ],
      "payable": false,
      "stateMutability": "nonpayable",
      "type": "function"
    },
    {
      "constant": false,
      "inputs": [
        {
          "internalType": "uint256",
          "name": "_id",
          "type": "uint256"
        }
      ],
      "name": "refundLiquidity",
      "outputs": [
        {
          "internalType": "bool",
          "name": "_result",
          "type": "bool"
        }
      ],
      "payable": true,
      "stateMutability": "payable",
      "type": "function"
    },
    {
      "constant": true,
      "inputs": [
        {
          "internalType": "address",
          "name": "bookie",
          "type": "address"
        }
      ],
      "name": "getBookieLiquidity",
      "outputs": [
        {
          "internalType": "uint256[]",
          "name": "",
          "type": "uint256[]"
        }
      ],
      "payable": false,
      "stateMutability": "view",
      "type": "function"
    },
    {
      "constant": true,
      "inputs": [
        {
          "internalType": "uint256",
          "name": "_matchId",
          "type": "uint256"
        }
      ],
      "name": "getMatchLiquidity",
      "outputs": [
        {
          "internalType": "uint256[]",
          "name": "",
          "type": "uint256[]"
        }
      ],
      "payable": false,
      "stateMutability": "view",
      "type": "function"
    },
    {
      "constant": true,
      "inputs": [
        {
          "internalType": "uint256",
          "name": "_matchId",
          "type": "uint256"
        }
      ],
      "name": "getMatchBets",
      "outputs": [
        {
          "internalType": "uint256[]",
          "name": "",
          "type": "uint256[]"
        }
      ],
      "payable": false,
      "stateMutability": "view",
      "type": "function"
    },
    {
      "constant": true,
      "inputs": [
        {
          "internalType": "uint256",
          "name": "_id",
          "type": "uint256"
        }
      ],
      "name": "getLiquidityById",
      "outputs": [
        {
          "internalType": "uint256",
          "name": "id",
          "type": "uint256"
        },
        {
          "internalType": "uint256",
          "name": "matchId",
          "type": "uint256"
        },
        {
          "internalType": "uint256",
          "name": "sideId",
          "type": "uint256"
        },
        {
          "internalType": "uint256",
          "name": "remainingLiquidity",
          "type": "uint256"
        },
        {
          "internalType": "uint256",
          "name": "odds",
          "type": "uint256"
        },
        {
          "internalType": "bool",
          "name": "closed",
          "type": "bool"
        },
        {
          "internalType": "uint256",
          "name": "createdTime",
          "type": "uint256"
        }
      ],
      "payable": false,
      "stateMutability": "view",
      "type": "function"
    }
  ],
  "bytecode": "0x608060405266038d7ea4c6800060035566038d7ea4c680006005556000600660006101000a81548173ffffffffffffffffffffffffffffffffffffffff021916908373ffffffffffffffffffffffffffffffffffffffff160217905550600660009054906101000a900473ffffffffffffffffffffffffffffffffffffffff16600760006101000a81548173ffffffffffffffffffffffffffffffffffffffff021916908373ffffffffffffffffffffffffffffffffffffffff1602179055503480156100cb57600080fd5b50336000806101000a81548173ffffffffffffffffffffffffffffffffffffffff021916908373ffffffffffffffffffffffffffffffffffffffff16021790555033600160006101000a81548173ffffffffffffffffffffffffffffffffffffffff021916908373ffffffffffffffffffffffffffffffffffffffff160217905550612ef68061015c6000396000f3fe60806040526004361061013f5760003560e01c8063605c43de116100b6578063ca3d5e841161006f578063ca3d5e841461092b578063d1a371501461095a578063df53caf114610989578063e57bcd4a14610a19578063ec9fdc1014610a76578063f435e4cc14610aa55761013f565b8063605c43de146106c95780638b7afe2e146107465780638da5cb5b146107715780638f32d59b146107c85780639b5fa0a5146107f7578063ca133d81146108745761013f565b80634afe62b5116101085780634afe62b5146104405780634c69c00f1461048c57806350a38f4b146104f557806355e998d61461059b57806356150a36146106305780635d62610f146106835761013f565b806221958d146101445780631f7a97101461018a57806322af00fa1461023057806330096ba714610344578063422f1043146103ea575b600080fd5b6101706004803603602081101561015a57600080fd5b8101908080359060200190929190505050610b35565b604051808215151515815260200191505060405180910390f35b34801561019657600080fd5b506101d9600480360360208110156101ad57600080fd5b81019080803573ffffffffffffffffffffffffffffffffffffffff169060200190929190505050610ca2565b6040518080602001828103825283818151815260200191508051906020019060200280838360005b8381101561021c578082015181840152602081019050610201565b505050509050019250505060405180910390f35b34801561023c57600080fd5b506102696004803603602081101561025357600080fd5b8101908080359060200190929190505050610d48565b604051808f81526020018e81526020018d81526020018c81526020018b81526020018a81526020018981526020018873ffffffffffffffffffffffffffffffffffffffff1673ffffffffffffffffffffffffffffffffffffffff1681526020018773ffffffffffffffffffffffffffffffffffffffff1673ffffffffffffffffffffffffffffffffffffffff16815260200186815260200185600381111561030d57fe5b60ff168152602001848152602001838152602001821515151581526020019e50505050505050505050505050505060405180910390f35b34801561035057600080fd5b506103936004803603602081101561036757600080fd5b81019080803573ffffffffffffffffffffffffffffffffffffffff169060200190929190505050610e1b565b6040518080602001828103825283818151815260200191508051906020019060200280838360005b838110156103d65780820151818401526020810190506103bb565b505050509050019250505060405180910390f35b61042a6004803603606081101561040057600080fd5b81019080803590602001909291908035906020019092919080359060200190929190505050610eb7565b6040518082815260200191505060405180910390f35b6104766004803603604081101561045657600080fd5b81019080803590602001909291908035906020019092919050505061148d565b6040518082815260200191505060405180910390f35b34801561049857600080fd5b506104db600480360360208110156104af57600080fd5b81019080803573ffffffffffffffffffffffffffffffffffffffff169060200190929190505050611ce4565b604051808215151515815260200191505060405180910390f35b34801561050157600080fd5b506105446004803603602081101561051857600080fd5b81019080803573ffffffffffffffffffffffffffffffffffffffff169060200190929190505050611e45565b6040518080602001828103825283818151815260200191508051906020019060200280838360005b8381101561058757808201518184015260208101905061056c565b505050509050019250505060405180910390f35b3480156105a757600080fd5b506105d4600480360360208110156105be57600080fd5b8101908080359060200190929190505050611eeb565b604051808a815260200189815260200188815260200187815260200186815260200185815260200184600381111561060857fe5b60ff168152602001838152602001828152602001995050505050505050505060405180910390f35b6106696004803603604081101561064657600080fd5b8101908080359060200190929190803560ff169060200190929190505050611f9f565b604051808215151515815260200191505060405180910390f35b6106af6004803603602081101561069957600080fd5b8101908080359060200190929190505050612406565b604051808215151515815260200191505060405180910390f35b3480156106d557600080fd5b50610702600480360360208110156106ec57600080fd5b8101908080359060200190929190505050612750565b604051808881526020018781526020018681526020018581526020018481526020018381526020018215151515815260200197505050505050505060405180910390f35b34801561075257600080fd5b5061075b6127eb565b6040518082815260200191505060405180910390f35b34801561077d57600080fd5b506107866127f3565b604051808273ffffffffffffffffffffffffffffffffffffffff1673ffffffffffffffffffffffffffffffffffffffff16815260200191505060405180910390f35b3480156107d457600080fd5b506107dd61281c565b604051808215151515815260200191505060405180910390f35b34801561080357600080fd5b506108306004803603602081101561081a57600080fd5b8101908080359060200190929190505050612873565b604051808881526020018781526020018681526020018581526020018481526020018315151515815260200182815260200197505050505050505060405180910390f35b34801561088057600080fd5b506108ad6004803603602081101561089757600080fd5b810190808035906020019092919050505061290e565b604051808a81526020018973ffffffffffffffffffffffffffffffffffffffff1673ffffffffffffffffffffffffffffffffffffffff16815260200188815260200187815260200186815260200185815260200184151515158152602001838152602001828152602001995050505050505050505060405180910390f35b34801561093757600080fd5b50610940612996565b604051808215151515815260200191505060405180910390f35b34801561096657600080fd5b5061096f612a40565b604051808215151515815260200191505060405180910390f35b34801561099557600080fd5b506109c2600480360360208110156109ac57600080fd5b8101908080359060200190929190505050612a95565b6040518080602001828103825283818151815260200191508051906020019060200280838360005b83811015610a055780820151818401526020810190506109ea565b505050509050019250505060405180910390f35b348015610a2557600080fd5b50610a5c60048036036040811015610a3c57600080fd5b810190808035906020019092919080359060200190929190505050612b05565b604051808215151515815260200191505060405180910390f35b348015610a8257600080fd5b50610a8b612bf1565b604051808215151515815260200191505060405180910390f35b348015610ab157600080fd5b50610ade60048036036020811015610ac857600080fd5b8101908080359060200190929190505050612c62565b6040518080602001828103825283818151815260200191508051906020019060200280838360005b83811015610b21578082015181840152602081019050610b06565b505050509050019250505060405180910390f35b6000803414610b4357600080fd5b6000600b600c60008581526020019081526020016000205481548110610b6557fe5b90600052602060002090600902019050610b7d61281c565b80610bd757508060010160009054906101000a900473ffffffffffffffffffffffffffffffffffffffff1673ffffffffffffffffffffffffffffffffffffffff163373ffffffffffffffffffffffffffffffffffffffff16145b610be057600080fd5b8060060160009054906101000a900460ff1615610bfc57600080fd5b60018160060160006101000a81548160ff021916908315150217905550600081600401549050600082600401819055508160010160009054906101000a900473ffffffffffffffffffffffffffffffffffffffff1673ffffffffffffffffffffffffffffffffffffffff166108fc829081150290604051600060405180830381858888f19350505050158015610c96573d6000803e3d6000fd5b50600192505050919050565b606080600a60008473ffffffffffffffffffffffffffffffffffffffff1673ffffffffffffffffffffffffffffffffffffffff168152602001908152602001600020805480602002602001604051908101604052809291908181526020018280548015610d2e57602002820191906000526020600020905b815481526020019060010190808311610d1a575b50505050509050610d40816000612cd2565b915050919050565b60088181548110610d5557fe5b90600052602060002090600e02016000915090508060000154908060010154908060020154908060030154908060040154908060050154908060060154908060070160009054906101000a900473ffffffffffffffffffffffffffffffffffffffff16908060080160009054906101000a900473ffffffffffffffffffffffffffffffffffffffff169080600901549080600a0160009054906101000a900460ff169080600b01549080600c01549080600d0160009054906101000a900460ff1690508e565b606080600d60008473ffffffffffffffffffffffffffffffffffffffff1673ffffffffffffffffffffffffffffffffffffffff168152602001908152602001600020805480602002602001604051908101604052809291908181526020018280548015610ea757602002820191906000526020600020905b815481526020019060010190808311610e93575b5050505050905080915050919050565b6000610ec1612a40565b610eca57600080fd5b60648211610ed757600080fd5b6127118210610ee557600080fd5b600554341015610ef457600080fd5b600060606000806060806000600760009054906101000a900473ffffffffffffffffffffffffffffffffffffffff1673ffffffffffffffffffffffffffffffffffffffff16633d092b3d8c6040518263ffffffff1660e01b81526004018082815260200191505060006040518083038186803b158015610f7357600080fd5b505afa158015610f87573d6000803e3d6000fd5b505050506040513d6000823e3d601f19601f8201168201806040525060e0811015610fb157600080fd5b810190808051906020019092919080516040519392919084640100000000821115610fdb57600080fd5b83820191506020820185811115610ff157600080fd5b825186600182028301116401000000008211171561100e57600080fd5b8083526020830192505050908051906020019080838360005b83811015611042578082015181840152602081019050611027565b50505050905090810190601f16801561106f5780820380516001836020036101000a031916815260200191505b506040526020018051906020019092919080519060200190929190805160405193929190846401000000008211156110a657600080fd5b838201915060208201858111156110bc57600080fd5b82518660018202830111640100000000821117156110d957600080fd5b8083526020830192505050908051906020019080838360005b8381101561110d5780820151818401526020810190506110f2565b50505050905090810190601f16801561113a5780820380516001836020036101000a031916815260200191505b506040526020018051604051939291908464010000000082111561115d57600080fd5b8382019150602082018581111561117357600080fd5b825186600182028301116401000000008211171561119057600080fd5b8083526020830192505050908051906020019080838360005b838110156111c45780820151818401526020810190506111a9565b50505050905090810190601f1680156111f15780820380516001836020036101000a031916815260200191505b506040526020018051906020019092919050505096509650965096509650965096508061121d57600080fd5b60008a148061122b5750848a145b806112355750838a145b61123e57600080fd5b6004600081546001019190508190559750600b6040518061012001604052808a81526020013373ffffffffffffffffffffffffffffffffffffffff1681526020018d81526020018c81526020013481526020018b81526020016000151581526020014281526020016000815250908060018154018082558091505090600182039060005260206000209060090201600090919290919091506000820151816000015560208201518160010160006101000a81548173ffffffffffffffffffffffffffffffffffffffff021916908373ffffffffffffffffffffffffffffffffffffffff16021790555060408201518160020155606082015181600301556080820151816004015560a0820151816005015560c08201518160060160006101000a81548160ff02191690831515021790555060e08201518160070155610100820151816008015550505060018803600c60008a815260200190815260200160002081905550600d60003373ffffffffffffffffffffffffffffffffffffffff1673ffffffffffffffffffffffffffffffffffffffff168152602001908152602001600020889080600181540180825580915050906001820390600052602060002001600090919290919091505550600e60008c81526020019081526020016000208890806001815401808255809150509060018203906000526020600020016000909192909190915055507fc2b9787b5865f184d65978c61b1c3fbd1b06bdd85ec4abac835122473ea9d4d9886040518082815260200191505060405180910390a1505050505050509392505050565b6000611497612a40565b6114a057600080fd5b6003543410156114af57600080fd5b6000600b600c600086815260200190815260200160002054815481106114d157fe5b90600052602060002090600902019050600015158160060160009054906101000a900460ff1615151461150357600080fd5b8060010160009054906101000a900473ffffffffffffffffffffffffffffffffffffffff1673ffffffffffffffffffffffffffffffffffffffff163373ffffffffffffffffffffffffffffffffffffffff16141561156057600080fd5b8281600501541461157057600080fd5b6000346115876115803487612e5a565b6064612e91565b039050808260040154101561159b57600080fd5b600060606000806060806000600760009054906101000a900473ffffffffffffffffffffffffffffffffffffffff1673ffffffffffffffffffffffffffffffffffffffff16633d092b3d8a600201546040518263ffffffff1660e01b81526004018082815260200191505060006040518083038186803b15801561161e57600080fd5b505afa158015611632573d6000803e3d6000fd5b505050506040513d6000823e3d601f19601f8201168201806040525060e081101561165c57600080fd5b81019080805190602001909291908051604051939291908464010000000082111561168657600080fd5b8382019150602082018581111561169c57600080fd5b82518660018202830111640100000000821117156116b957600080fd5b8083526020830192505050908051906020019080838360005b838110156116ed5780820151818401526020810190506116d2565b50505050905090810190601f16801561171a5780820380516001836020036101000a031916815260200191505b5060405260200180519060200190929190805190602001909291908051604051939291908464010000000082111561175157600080fd5b8382019150602082018581111561176757600080fd5b825186600182028301116401000000008211171561178457600080fd5b8083526020830192505050908051906020019080838360005b838110156117b857808201518184015260208101905061179d565b50505050905090810190601f1680156117e55780820380516001836020036101000a031916815260200191505b506040526020018051604051939291908464010000000082111561180857600080fd5b8382019150602082018581111561181e57600080fd5b825186600182028301116401000000008211171561183b57600080fd5b8083526020830192505050908051906020019080838360005b8381101561186f578082015181840152602081019050611854565b50505050905090810190601f16801561189c5780820380516001836020036101000a031916815260200191505b50604052602001805190602001909291905050509650965096509650965096509650806118c857600080fd5b60026000815460010191905081905599506008604051806101c001604052808c81526020018e81526020018a81526020013481526020016000815260200160008152602001600081526020018b60010160009054906101000a900473ffffffffffffffffffffffffffffffffffffffff1673ffffffffffffffffffffffffffffffffffffffff1681526020013373ffffffffffffffffffffffffffffffffffffffff1681526020018d81526020016000600381111561198357fe5b815260200142815260200160008152602001600015158152509080600181540180825580915050906001820390600052602060002090600e020160009091929091909150600082015181600001556020820151816001015560408201518160020155606082015181600301556080820151816004015560a0820151816005015560c0820151816006015560e08201518160070160006101000a81548173ffffffffffffffffffffffffffffffffffffffff021916908373ffffffffffffffffffffffffffffffffffffffff1602179055506101008201518160080160006101000a81548173ffffffffffffffffffffffffffffffffffffffff021916908373ffffffffffffffffffffffffffffffffffffffff160217905550610120820151816009015561014082015181600a0160006101000a81548160ff02191690836003811115611acc57fe5b021790555061016082015181600b015561018082015181600c01556101a082015181600d0160006101000a81548160ff02191690831515021790555050505060018a03600960008c815260200190815260200160002081905550600a60003373ffffffffffffffffffffffffffffffffffffffff1673ffffffffffffffffffffffffffffffffffffffff1681526020019081526020016000208a9080600181540180825580915050906001820390600052602060002001600090919290919091505550600a60008a60010160009054906101000a900473ffffffffffffffffffffffffffffffffffffffff1673ffffffffffffffffffffffffffffffffffffffff1673ffffffffffffffffffffffffffffffffffffffff1681526020019081526020016000208a9080600181540180825580915050906001820390600052602060002001600090919290919091505550600f60008a6002015481526020019081526020016000208a9080600181540180825580915050906001820390600052602060002001600090919290919091505550611c6b896004015489612eaa565b8960040181905550600089600401541415611c9e5760018960060160006101000a81548160ff0219169083151502179055505b7fde1fae6a99c0f84e9bee8b7f9d2d7663e46384ff079f389d5b4b6018b56e56e98a6040518082815260200191505060405180910390a150505050505050505092915050565b6000611cee61281c565b611cf757600080fd5b81600660006101000a81548173ffffffffffffffffffffffffffffffffffffffff021916908373ffffffffffffffffffffffffffffffffffffffff160217905550600660009054906101000a900473ffffffffffffffffffffffffffffffffffffffff16600760006101000a81548173ffffffffffffffffffffffffffffffffffffffff021916908373ffffffffffffffffffffffffffffffffffffffff160217905550600760009054906101000a900473ffffffffffffffffffffffffffffffffffffffff1673ffffffffffffffffffffffffffffffffffffffff1663302a72936040518163ffffffff1660e01b815260040160206040518083038186803b158015611e0357600080fd5b505afa158015611e17573d6000803e3d6000fd5b505050506040513d6020811015611e2d57600080fd5b81019080805190602001909291905050509050919050565b606080600a60008473ffffffffffffffffffffffffffffffffffffffff1673ffffffffffffffffffffffffffffffffffffffff168152602001908152602001600020805480602002602001604051908101604052809291908181526020018280548015611ed157602002820191906000526020600020905b815481526020019060010190808311611ebd575b50505050509050611ee3816001612cd2565b915050919050565b6000806000806000806000806000806008600960008d81526020019081526020016000205481548110611f1a57fe5b90600052602060002090600e0201905080600001549950806001015498508060040154975080600501549650806006015495508060090154945080600a0160009054906101000a900460ff16935080600b0154925080600c01549150898989898989898989995099509950995099509950995099509950509193959799909294969850565b6000611fa961281c565b611fb257600080fd5b60003414611fbf57600080fd5b60006008600960008681526020019081526020016000205481548110611fe157fe5b90600052602060002090600e020190506000151581600d0160009054906101000a900460ff1615151461201357600080fd5b6000600381111561202057fe5b81600a0160009054906101000a900460ff16600381111561203d57fe5b1461204757600080fd5b8281600a0160006101000a81548160ff0219169083600381111561206757fe5b02179055504281600c018190555060006001600381111561208457fe5b84600381111561209057fe5b1415612132576120a582600301546064612e91565b905060008183600201548460030154010390508083600401819055508260070160009054906101000a900473ffffffffffffffffffffffffffffffffffffffff1673ffffffffffffffffffffffffffffffffffffffff166108fc829081150290604051600060405180830381858888f1935050505015801561212b573d6000803e3d6000fd5b5050612306565b6002600381111561213f57fe5b84600381111561214b57fe5b14156121ed5761216082600201546064612e91565b905060008183600201548460030154010390508083600501819055508260080160009054906101000a900473ffffffffffffffffffffffffffffffffffffffff1673ffffffffffffffffffffffffffffffffffffffff166108fc829081150290604051600060405180830381858888f193505050501580156121e6573d6000803e3d6000fd5b5050612305565b6003808111156121f957fe5b84600381111561220557fe5b14156123045781600201548260040181905550816003015482600501819055508160070160009054906101000a900473ffffffffffffffffffffffffffffffffffffffff1673ffffffffffffffffffffffffffffffffffffffff166108fc83600201549081150290604051600060405180830381858888f19350505050158015612293573d6000803e3d6000fd5b508160080160009054906101000a900473ffffffffffffffffffffffffffffffffffffffff1673ffffffffffffffffffffffffffffffffffffffff166108fc83600301549081150290604051600060405180830381858888f19350505050158015612302573d6000803e3d6000fd5b505b5b5b6000826002018190555060008260030181905550600081111561239657808260060181905550600160009054906101000a900473ffffffffffffffffffffffffffffffffffffffff1673ffffffffffffffffffffffffffffffffffffffff166108fc829081150290604051600060405180830381858888f19350505050158015612394573d6000803e3d6000fd5b505b600182600d0160006101000a81548160ff02191690831515021790555081600d0160009054906101000a900460ff1692507f0d7fd9e4a72e17428fa8f1c1e7c7436283b29d4dc0e1292783f4054585f7c38e856040518082815260200191505060405180910390a1505092915050565b600061241061281c565b61241957600080fd5b6000341461242657600080fd5b6000806000600760009054906101000a900473ffffffffffffffffffffffffffffffffffffffff1673ffffffffffffffffffffffffffffffffffffffff1663cfe3d27a866040518263ffffffff1660e01b81526004018082815260200191505060606040518083038186803b15801561249e57600080fd5b505afa1580156124b2573d6000803e3d6000fd5b505050506040513d60608110156124c857600080fd5b810190808051906020019092919080519060200190929190805190602001909291905050509250925092506000600281111561250057fe5b83600281111561250c57fe5b141561251757600080fd5b60008090505b600f60008781526020019081526020016000208054905081101561267b576000600860096000600f60008b8152602001908152602001600020858154811061256157fe5b90600052602060002001548152602001908152602001600020548154811061258557fe5b90600052602060002090600e0201905080600d0160009054906101000a900460ff16806125da5750600060038111156125ba57fe5b81600a0160009054906101000a900460ff1660038111156125d757fe5b14155b156125e5575061266e565b6000600b600c600084600101548152602001908152602001600020548154811061260b57fe5b906000526020600020906009020190506000600190506001600281111561262e57fe5b87600281111561263a57fe5b1415612649576003905061265b565b858260030154141561265a57600290505b5b612669836000015482611f9f565b505050505b808060010191505061251d565b5060008090505b600e600087815260200190815260200160002080549050811015612743576000600b600c6000600e60008b815260200190815260200160002085815481106126c657fe5b9060005260206000200154815260200190815260200160002054815481106126ea57fe5b906000526020600020906009020190508060060160009054906101000a900460ff168061271b575060008160040154145b156127265750612736565b6127338160000154610b35565b50505b8080600101915050612682565b5060019350505050919050565b6000806000806000806000806008600960008b8152602001908152602001600020548154811061277c57fe5b90600052602060002090600e02019050806000015497508060010154965080600201549550806003015494508060090154935080600b0154925080600d0160009054906101000a900460ff16915087878787878787975097509750975097509750975050919395979092949650565b600047905090565b60008060009054906101000a900473ffffffffffffffffffffffffffffffffffffffff16905090565b60008060009054906101000a900473ffffffffffffffffffffffffffffffffffffffff1673ffffffffffffffffffffffffffffffffffffffff163373ffffffffffffffffffffffffffffffffffffffff1614905090565b600080600080600080600080600b600c60008b8152602001908152602001600020548154811061289f57fe5b9060005260206000209060090201905080600001549750806002015496508060030154955080600401549450806005015493508060060160009054906101000a900460ff1692508060070154915087878787878787975097509750975097509750975050919395979092949650565b600b818154811061291b57fe5b90600052602060002090600902016000915090508060000154908060010160009054906101000a900473ffffffffffffffffffffffffffffffffffffffff16908060020154908060030154908060040154908060050154908060060160009054906101000a900460ff16908060070154908060080154905089565b6000600760009054906101000a900473ffffffffffffffffffffffffffffffffffffffff1673ffffffffffffffffffffffffffffffffffffffff1663302a72936040518163ffffffff1660e01b815260040160206040518083038186803b158015612a0057600080fd5b505afa158015612a14573d6000803e3d6000fd5b505050506040513d6020811015612a2a57600080fd5b8101908080519060200190929190505050905090565b6000601060003373ffffffffffffffffffffffffffffffffffffffff1673ffffffffffffffffffffffffffffffffffffffff16815260200190815260200160002060009054906101000a900460ff1615905090565b606080600e6000848152602001908152602001600020805480602002602001604051908101604052809291908181526020018280548015612af557602002820191906000526020600020905b815481526020019060010190808311612ae1575b5050505050905080915050919050565b600060648211612b1457600080fd5b6127118210612b2257600080fd5b6000600b600c60008681526020019081526020016000205481548110612b4457fe5b906000526020600020906009020190508060010160009054906101000a900473ffffffffffffffffffffffffffffffffffffffff1673ffffffffffffffffffffffffffffffffffffffff163373ffffffffffffffffffffffffffffffffffffffff1614612bb057600080fd5b8060060160009054906101000a900460ff1615612bcc57600080fd5b6000816004015411612bdd57600080fd5b828160050181905550600191505092915050565b6000612bfb612a40565b612c0457600080fd5b6001905080601060003373ffffffffffffffffffffffffffffffffffffffff1673ffffffffffffffffffffffffffffffffffffffff16815260200190815260200160002060006101000a81548160ff02191690831515021790555090565b606080600f6000848152602001908152602001600020805480602002602001604051908101604052809291908181526020018280548015612cc257602002820191906000526020600020905b815481526020019060010190808311612cae575b5050505050905080915050919050565b6060600080905060008090505b8451811015612d61576000600860096000888581518110612cfc57fe5b602002602001015181526020019081526020016000205481548110612d1d57fe5b90600052602060002090600e0201905084151581600d0160009054906101000a900460ff1615151415612d535782806001019350505b508080600101915050612cdf565b50606081604051908082528060200260200182016040528015612d935781602001602082028038833980820191505090505b5090506000821115612e4f5760008090506000865190505b6000811115612e4c5760006008600960008a6001860381518110612dcb57fe5b602002602001015181526020019081526020016000205481548110612dec57fe5b90600052602060002090600e0201905086151581600d0160009054906101000a900460ff1615151415612e3d578060000154848480600101955081518110612e3057fe5b6020026020010181815250505b50808060019003915050612dab565b50505b809250505092915050565b600080831415612e6d5760009050612e8b565b6000828402905082848281612e7e57fe5b0414612e8657fe5b809150505b92915050565b600080828481612e9d57fe5b0490508091505092915050565b600082821115612eb657fe5b81830390509291505056fea265627a7a723158203fffa38eced6e5e3bd96f5a3210da69a5127bf88430eca445ab8a07ff8caf6e164736f6c63430005100032",
  "source": "// SPDX-License-Identifier: MIT\r\npragma solidity >=0.5.16 <0.9.0;\r\nimport \"./safemath.sol\";\r\nimport \"./Ownable.sol\";\r\nimport \"./OracleInterface.sol\";\r\nimport \"./SoccerOracle.sol\";\r\n/// @title A title that should describe the contract/interface\r\n/// @author Chris Patterson\r\n/// @notice Explain to an end user what this does\r\n/// @dev Explain to a developer any extra details\r\ncontract BeTheBookie is Ownable {\r\n\r\n    address payable private ownerPayable;\r\n    uint256 betCounter;\r\n    uint minBet = 0.001 ether;\r\n    uint256 liquidityCounter;\r\n    uint minLiquidity = 0.001 ether;\r\n\r\n    address internal soccerOracleAddr = address(0);\r\n    OracleInterface internal oracle = OracleInterface(soccerOracleAddr);\r\n\r\n    Bet[] public bets;\r\n    mapping (uint256 => uint) betMapping; //id -> index\r\n    \r\n    //mapping of pundit bets to an address\r\n    mapping (address => uint256[]) addressBetsMapping; \r\n\r\n    Liquidity[] public betPools;\r\n    mapping (uint256 => uint) poolMapping; //id -> index\r\n\r\n    //mapping of bookie liquidity to an address\r\n    mapping (address => uint256[]) bookieLiquidityMapping; \r\n\r\n    //mapping of the unique match id's to provided liquidity. Used to be able to filter for available bets without downloading the entire dataset.\r\n    mapping (uint256 => uint256[]) matchLiquidityMapping; \r\n    //mapping of the unique match id's to bets. It is needed to be able to find all bets for a given match on the client. \r\n    mapping (uint256 => uint256[]) matchBetMapping; \r\n    \r\n    enum MatchResult{ Undecided, BookieWon, PunditWon, Void }\r\n\r\n/// @notice Maintains a list of addresses which have opted to self exclude from the platform.\r\n    mapping (address => bool) exclusionList;\r\n\r\n/// @notice Raises an event that a new liquidity / market has been provided to pundits.\r\n/// @dev Will be used by the GUI as a trigger to reload the screen\r\n/// @param id the liquidityId\r\n    event BookieProvidingLiquidity(uint256 id);\r\n\r\n/// @notice Raised when a bet is placed. \r\n/// @dev Will be used by the GUI as a trigger to reload the screen\r\n/// @param id new unique bet id\r\n    event BetPlaced(uint256 id);\r\n\r\n/// @notice Explain to an end user what this does\r\n/// @dev Will be used by the GUI as a trigger to reload the screen to show if they won or not.\r\n/// @param id bet id\r\n    event BetResult(uint256 id);\r\n\r\n//Structure representing a bet with 2 parties involved. The Pundit and the Bookie. The bookie placed odds and liquidity and the pundit took a position. \r\n//The payout will go to either the Pundit or the Bookie when the result is decided. There is a 1% fee taken off the profits paid to the contract owner.\r\n    struct Bet {\r\n        uint256 id;\r\n        uint256 liquidityId;\r\n        uint256 bookieCollateral;\r\n        uint256 punditCollateral;\r\n        uint256 bookiePayout; \r\n        uint256 punditPayout; \r\n        uint256 feePaid;\r\n        address payable bookie; // bookie address copied from the liquidity object\r\n        address payable pundit; //account taking a punt on this outcome (they want to win)\r\n        uint odds; //odds at the time of bet.\r\n        MatchResult result;\r\n        uint createdTime;\r\n        uint closedTime;\r\n        bool closed;\r\n    }\r\n\r\n//Structure representing betting liquidity on a certain match/player/odds. ie: As a bookie I can lay odds on Federer to beat Nadal at 200 (even payout).\r\n//The bookie can post the total liquidity they are willing to expose themselves to; ie: 10 ETH and as bets are placed the available liquidty will decrease until it reaches 0.\r\n//With these odds, pundits (people taking a bet) can take a position on these odds. ie: 1ETH. \r\n//The pundit hopes Federer wins as they will receive 2 ETH in return whereas the bookie hopes Nadal wins as they receive the bet amount + the liquidity they provided. 2 ETH as well.\r\n//Odds can range from 101 to 10000. 101 is equivalent to 1.01 * stake and 10000 is 100 * stake. \r\n//Once a bet is placed it is final and will require an outcome.\r\n    struct Liquidity {\r\n        uint256 id;\r\n        address payable bookie; //account laying the odds (they do not want this bet to pay out)\r\n        uint matchId; //each match will have a unique id\r\n        uint sideId; //will need to choose the winning side of the match\r\n        uint256 remainingLiquidity;\r\n        uint odds; // 1.50 odds would be stored as 150 (*100).\r\n        bool closed;\r\n        uint createdTime;\r\n        uint closedTime;\r\n    }\r\n\r\n\r\n      /* \r\n   * Modifiers\r\n   */\r\n\r\n  // Create a modifer, `isOwner` that checks if the msg.sender is the owner of the contract\r\n//   function isOwner() public view returns(bool) {\r\n//     return msg.sender == owner;\r\n//   }\r\n\r\n  function isNotExcluded() public view returns(bool) {\r\n    return !exclusionList[msg.sender];\r\n  }\r\n\r\n    // Fallback function - Called if other functions don't match call or\r\n    // sent ether without data\r\n    // Typically, called when invalid data is sent\r\n    // Added so ether sent to this contract is reverted if the contract fails\r\n    // otherwise, the sender's money is transferred to contract\r\n    function () external payable {\r\n        revert();\r\n    }\r\n\r\n    constructor() public {\r\n        ownerPayable = msg.sender;\r\n    }\r\n\r\n/// @notice Gambling addiction is a real problem and this option allows people to self exclude from the platform should they feel they are participating in an unhealthly way.\r\n/// @return _excluded returns true when added.\r\n    function selfExclude() public returns (bool _excluded)\r\n    {\r\n        require(isNotExcluded()); //no point executing this function twice.\r\n        _excluded = true;\r\n        exclusionList[msg.sender] = _excluded;\r\n    }\r\n\r\n/// @notice Explain to an end user what this does\r\n/// @dev Explain to a developer any extra details\r\n    function contractBalance() public view returns (uint256 _balance) {\r\n        _balance = address(this).balance;\r\n    }\r\n\r\n    function setOracleAddress(address _address) public onlyOwner returns (bool) {\r\n        soccerOracleAddr = _address;\r\n        oracle = OracleInterface(soccerOracleAddr);\r\n        return oracle.Validate();\r\n    }\r\n    \r\n    function testOracleValid() public view returns (bool) {\r\n        return oracle.Validate();\r\n    }\r\n\r\n/// @notice Public function allowing a pundit to place a bet leveraging existing liquidity in a market/odds.\r\n/// @dev bookieCollateral is somewhat complex as depending on the stake, the payout has to be calculated on the fly and deducted from the pool of liquidity. \r\n/// @param _liquidityId pointer to available liquidity. The msg.amount is the stake.\r\n/// @return _id - returns unique ID of the new bet object.\r\n    function placeBet(uint256 _liquidityId, uint _odds) public payable returns (uint256 _id)\r\n    {\r\n        require(isNotExcluded()); //ensure the participant has not chosed to self exclude from the platform\r\n        require(msg.value >= minBet);\r\n        \r\n        Liquidity storage _l = betPools[poolMapping[_liquidityId]];\r\n        require(_l.closed == false);\r\n        require(msg.sender != _l.bookie);\r\n        require(_l.odds == _odds); //possible the bookie might adjust the odds before a bet has been placed. Confirm they match.\r\n\r\n        uint256 bookieCollateral = SafeMath.div(SafeMath.mul(msg.value, _odds), 100)-msg.value;\r\n        require(_l.remainingLiquidity >= bookieCollateral);\r\n\r\n        (uint256 id, \r\n        string memory match_date, \r\n        uint256 team1_id,\r\n        uint256 team2_id,\r\n        string memory team1_name,\r\n        string memory team2_name,\r\n        bool pending) = oracle.getMatch(_l.matchId);\r\n\r\n        require(pending);\r\n\r\n        _id = ++betCounter;\r\n\r\n        bets.push(Bet({\r\n            id: _id,\r\n            liquidityId: _liquidityId, \r\n            bookieCollateral: bookieCollateral,\r\n            punditCollateral: msg.value,\r\n            bookiePayout: 0, \r\n            punditPayout: 0, \r\n            feePaid: 0,\r\n            pundit: msg.sender,\r\n            bookie: _l.bookie,\r\n            odds: _odds,\r\n            result: MatchResult.Undecided, \r\n            createdTime: block.timestamp,\r\n            closedTime: 0,\r\n            closed: false\r\n            }));\r\n\r\n        betMapping[_id] = _id-1;\r\n        addressBetsMapping[msg.sender].push(_id);\r\n        addressBetsMapping[_l.bookie].push(_id);\r\n        matchBetMapping[_l.matchId].push(_id);\r\n\r\n        _l.remainingLiquidity = SafeMath.sub(_l.remainingLiquidity, bookieCollateral);\r\n        if (_l.remainingLiquidity == 0)\r\n        {\r\n            _l.closed = true;\r\n        }\r\n\r\n        emit BetPlaced(_id);\r\n\r\n    }\r\n\r\n    function matchCompleteHandlePayouts(uint256 _matchId) public payable onlyOwner returns (bool _success) {\r\n        require(msg.value == 0);\r\n        (OracleInterface.ResultType _type,uint256 winning_team_id,uint256 result_time)  = oracle.getMatchResult(_matchId);\r\n        require(_type != OracleInterface.ResultType.Undecided);\r\n\r\n        for (uint i = 0; i < matchBetMapping[_matchId].length; i++)\r\n        {\r\n            Bet storage _bet = bets[betMapping[matchBetMapping[_matchId][i]]];\r\n            if (_bet.closed || _bet.result != MatchResult.Undecided) //double check to ensure the bet is still open.\r\n                {continue;}\r\n\r\n            Liquidity storage _l = betPools[poolMapping[_bet.liquidityId]];\r\n\r\n            MatchResult _result = MatchResult.BookieWon;\r\n            if (_type == OracleInterface.ResultType.Void)\r\n                _result = MatchResult.Void;\r\n            else if (_l.sideId == winning_team_id)\r\n                _result = MatchResult.PunditWon;\r\n            \r\n            setResult(_bet.id, _result);\r\n        }\r\n\r\n        for (uint j = 0; j < matchLiquidityMapping[_matchId].length; j++)\r\n        {\r\n            Liquidity storage _l = betPools[poolMapping[matchLiquidityMapping[_matchId][j]]];\r\n            if (_l.closed || _l.remainingLiquidity == 0)\r\n                { continue; }\r\n            refundLiquidity(_l.id);\r\n        }\r\n        \r\n\r\n        _success = true;\r\n    }\r\n\r\n\r\n/// @notice called internally by the contract owner to set the result of a given bet.  \r\n/// @dev The payout structure depends on who wins but either the pundit or bookie gets paid - 1% of profits as a fee.\r\n/// @param _betId - unique id of the bet\r\n/// @param _result - result of the match. Determines how the bet pays out.\r\n/// @return _success true if no errors.\r\n    function setResult(uint256 _betId, MatchResult _result) public payable onlyOwner returns (bool _success) {\r\n        require(msg.value == 0);\r\n\r\n        Bet storage _bet = bets[betMapping[_betId]];\r\n        require(_bet.closed == false);\r\n        require(_bet.result == MatchResult.Undecided);\r\n\r\n        _bet.result = _result;\r\n        _bet.closedTime = block.timestamp;\r\n        \r\n        uint256 fee;\r\n        if (_result == MatchResult.BookieWon)\r\n        {\r\n            fee = SafeMath.div(_bet.punditCollateral, 100);\r\n            uint256 payout = _bet.punditCollateral + _bet.bookieCollateral - fee;\r\n            _bet.bookiePayout = payout;\r\n            _bet.bookie.transfer(payout);\r\n        }\r\n        else if (_result == MatchResult.PunditWon)\r\n        {\r\n            fee = SafeMath.div(_bet.bookieCollateral, 100);\r\n            uint256 payout = _bet.punditCollateral + _bet.bookieCollateral - fee;\r\n            _bet.punditPayout = payout;\r\n            _bet.pundit.transfer(payout);\r\n        }\r\n        else if (_result == MatchResult.Void)\r\n        {\r\n            //refund their money as the match was cancelled\r\n            _bet.bookiePayout = _bet.bookieCollateral;\r\n            _bet.punditPayout = _bet.punditCollateral;\r\n            _bet.bookie.transfer(_bet.bookieCollateral);\r\n            _bet.pundit.transfer(_bet.punditCollateral);\r\n        }\r\n\r\n        _bet.bookieCollateral = 0;\r\n        _bet.punditCollateral = 0;\r\n\r\n        if (fee > 0)\r\n        {\r\n            _bet.feePaid = fee;\r\n            ownerPayable.transfer(fee);\r\n        }\r\n\r\n        _bet.closed = true;\r\n\r\n        _success = _bet.closed;\r\n        emit BetResult(_betId);\r\n    }\r\n\r\n/// @notice Explain to an end user what this does\r\n/// @dev Explain to a developer any extra details\r\n/// @return uint256[] - list of bet ID's owned by the msg.sender\r\n    function getActiveBetsByAddress(address pundit) external view returns (uint256[] memory)\r\n    {\r\n        uint256[] memory _bets = addressBetsMapping[pundit];\r\n        return getActiveBetsByAddressAndStatus(_bets, false);\r\n    }\r\n\r\n/// @notice Explain to an end user what this does\r\n/// @dev Explain to a developer any extra details\r\n/// @return uint256[] - list of bet ID's owned by the msg.sender\r\n    function getInActiveBetsByAddress(address pundit) external view returns (uint256[] memory)\r\n    {\r\n        uint256[] memory _bets = addressBetsMapping[pundit];\r\n        return getActiveBetsByAddressAndStatus(_bets, true);\r\n    }\r\n\r\n    function getActiveBetsByAddressAndStatus(uint256[] memory _bets, bool isClosed) private view returns (uint256[] memory)\r\n    {\r\n        uint count = 0; \r\n\r\n        //get count of pending matches \r\n        for (uint i = 0; i < _bets.length; i++) {\r\n            Bet storage _bet = bets[betMapping[_bets[i]]];\r\n            if (_bet.closed == isClosed) \r\n                count++; \r\n        }\r\n\r\n        //collect up all the pending matches\r\n        uint256[] memory output = new uint256[](count); \r\n\r\n        if (count > 0) {\r\n            uint index = 0;\r\n            for (uint n = _bets.length; n > 0; n--) {\r\n                Bet storage _bet = bets[betMapping[_bets[n-1]]];\r\n                if (_bet.closed == isClosed) \r\n                    output[index++] = _bet.id;\r\n            }\r\n        } \r\n\r\n        return output;\r\n    }\r\n\r\n    /// @notice Explain to an end user what this does\r\n/// @dev Explain to a developer any extra details\r\n/// @param _id bet id\r\n    function getBetById(uint256 _id) external view returns (uint256 id, uint256 liquidityId, uint256 bookieCollateral, uint256 punditCollateral, uint256 odds, uint createdTime, bool closed)\r\n    {\r\n        Bet storage bet = bets[betMapping[_id]];\r\n        id = bet.id;\r\n        liquidityId = bet.liquidityId;\r\n        bookieCollateral = bet.bookieCollateral;\r\n        punditCollateral = bet.punditCollateral;\r\n        odds = bet.odds;\r\n        createdTime = bet.createdTime;\r\n        closed = bet.closed;\r\n        return (id, liquidityId, bookieCollateral, punditCollateral, odds, createdTime, closed);\r\n    }\r\n\r\n    function getClosedBetById(uint256 _id) external view returns (uint256 id, uint256 liquidityId, uint256 bookiePayout, uint256 punditPayout, uint256 feePaid, uint256 odds, MatchResult result, uint createdTime, uint closedTime)\r\n    {\r\n        Bet storage bet = bets[betMapping[_id]];\r\n        id = bet.id;\r\n        liquidityId = bet.liquidityId;\r\n        bookiePayout = bet.bookiePayout;\r\n        punditPayout = bet.punditPayout;\r\n        feePaid = bet.feePaid;\r\n        odds = bet.odds;\r\n        result = bet.result;\r\n        createdTime = bet.createdTime;\r\n        closedTime = bet.closedTime;\r\n        return (id, liquidityId, bookiePayout, punditPayout, feePaid, odds, result, createdTime, closedTime);\r\n    }\r\n\r\n    /// @notice Public function for a bookie to place odds on a match result and submit available liquidity. ie: Federer to beat Nadal, 200 odds with 10ETH max payout.\r\n    /// @param _matchId The unique ID of a match (ie: Federer vs Nadal at 2018 Wimbledon final)\r\n    /// @param _sideId The perspective winning side, ie: Federer. (unique ID from the source JSON data)\r\n    /// @param _odds The odds. ie: 150 = decimal equivalent odds at 1.5. 200 = 2. Payout formula is basically _odds/100 * stake. \r\n                    //ie: 150/100 * 1ETH = 0.5ETH payout + your original stake = 1.5ETH return. \r\n    /// @return _id returns unique ID of the new liquidity object.\r\n    function addLiquidity(uint _matchId, uint _sideId, uint256 _odds) public payable returns (uint _id)\r\n    {\r\n        require(isNotExcluded()); //ensure the participant has not chosed to self exclude from the platform\r\n        require(_odds > 100);\r\n        require(_odds < 10001);\r\n        require(msg.value >= minLiquidity);\r\n\r\n        (uint256 id, \r\n        string memory match_date, \r\n        uint256 team1_id,\r\n        uint256 team2_id,\r\n        string memory team1_name,\r\n        string memory team2_name,\r\n        bool pending) = oracle.getMatch(_matchId);\r\n\r\n        require(pending);\r\n        require(_sideId == 0 || _sideId == team1_id || _sideId == team2_id);\r\n\r\n        _id = ++liquidityCounter;\r\n\r\n        betPools.push(Liquidity({\r\n            id: _id,\r\n            bookie: msg.sender,\r\n            matchId: _matchId, \r\n            sideId: _sideId,\r\n            remainingLiquidity: msg.value,\r\n            odds: _odds, \r\n            closed: false,\r\n            createdTime: block.timestamp,\r\n            closedTime: 0\r\n            }));\r\n\r\n        poolMapping[_id] = _id-1;\r\n        bookieLiquidityMapping[msg.sender].push(_id);\r\n        matchLiquidityMapping[_matchId].push(_id);\r\n\r\n        emit BookieProvidingLiquidity(_id);\r\n\r\n    }\r\n\r\n    function adjustOdds(uint _liquidityId, uint _odds) public returns (bool _result) {\r\n        require(_odds > 100);\r\n        require(_odds < 10001);\r\n\r\n        Liquidity storage _l = betPools[poolMapping[_liquidityId]];\r\n        require(msg.sender == _l.bookie);\r\n        require(!_l.closed);\r\n        require(_l.remainingLiquidity > 0);\r\n\r\n        _l.odds = _odds;\r\n        _result = true;\r\n    }\r\n\r\n\r\n/// @notice Explain to an end user what this does\r\n/// @dev Explain to a developer any extra details\r\n/// @param _id liqudity id\r\n/// @return _result true if no errors\r\n    function refundLiquidity(uint _id) public payable returns (bool _result) {\r\n        require(msg.value == 0);\r\n        Liquidity storage _l = betPools[poolMapping[_id]];\r\n        require(isOwner() || msg.sender == _l.bookie);\r\n        require(!_l.closed);\r\n        \r\n        _l.closed = true;\r\n        uint refund = _l.remainingLiquidity;\r\n        _l.remainingLiquidity = 0;\r\n        _l.bookie.transfer(refund);\r\n        _result = true;\r\n    }\r\n\r\n/// @notice Explain to an end user what this does\r\n/// @dev Explain to a developer any extra details\r\n/// @return uint256[] - list of liquidity ID's owned by the msg.sender\r\n    function getBookieLiquidity(address bookie) external view returns (uint256[] memory)\r\n    {\r\n        uint256[] memory response = bookieLiquidityMapping[bookie];\r\n        return response;\r\n    }\r\n\r\n/// @notice Explain to an end user what this does\r\n/// @dev Explain to a developer any extra details\r\n/// @param _matchId unique match id\r\n/// @return uint256[] - list of liquidity ID's for that match\r\n    function getMatchLiquidity(uint256 _matchId) external view returns (uint256[] memory) {\r\n        uint256[] memory response = matchLiquidityMapping[_matchId];\r\n        return response;\r\n    }\r\n\r\n/// @notice Explain to an end user what this does\r\n/// @dev Explain to a developer any extra details\r\n/// @param _matchId unique match id\r\n/// @return uint256[] - list of liquidity ID's for that match\r\n    function getMatchBets(uint256 _matchId) external view returns (uint256[] memory) {\r\n        uint256[] memory response = matchBetMapping[_matchId];\r\n        return response;\r\n    }    \r\n    \r\n    /// @notice Explain to an end user what this does\r\n/// @dev Explain to a developer any extra details\r\n/// @param _id liqudity id\r\n/// @return _result true if no errors\r\n    function getLiquidityById(uint _id) external view returns (uint id, uint matchId, uint sideId, uint256 remainingLiquidity, uint odds, bool closed, uint createdTime)\r\n    {\r\n        Liquidity storage _l = betPools[poolMapping[_id]];\r\n        id = _l.id;\r\n        matchId = _l.matchId;\r\n        sideId = _l.sideId;\r\n        remainingLiquidity = _l.remainingLiquidity;\r\n        odds = _l.odds;\r\n        closed = _l.closed;\r\n        createdTime = _l.createdTime;\r\n        return (id, matchId, sideId, remainingLiquidity, odds, closed, createdTime);\r\n    }\r\n\r\n}\r\n\r\n",
  "sourcePath": "E:\\GIT\\blockchain-developer-bootcamp-final-project\\contracts\\BeTheBookie.sol",
  "compiler": {
    "name": "solc",
    "version": "0.5.16+commit.9c3226ce.Emscripten.clang"
  },
  "schemaVersion": "3.4.3",
  "updatedAt": "2021-10-24T22:56:40.077Z",
  "networkType": "ethereum",
  "devdoc": {
    "author": "Chris Patterson",
    "details": "Explain to a developer any extra details",
    "methods": {
      "addLiquidity(uint256,uint256,uint256)": {
        "return": "_id returns unique ID of the new liquidity object."
      },
      "contractBalance()": {
        "details": "Explain to a developer any extra details"
      },
      "getActiveBetsByAddress(address)": {
        "details": "Explain to a developer any extra details",
        "return": "uint256[] - list of bet ID's owned by the msg.sender"
      },
      "getBetById(uint256)": {
        "details": "Explain to a developer any extra details",
        "params": {
          "_id": "bet id"
        }
      },
      "getBookieLiquidity(address)": {
        "details": "Explain to a developer any extra details",
        "return": "uint256[] - list of liquidity ID's owned by the msg.sender"
      },
      "getInActiveBetsByAddress(address)": {
        "details": "Explain to a developer any extra details",
        "return": "uint256[] - list of bet ID's owned by the msg.sender"
      },
      "getLiquidityById(uint256)": {
        "details": "Explain to a developer any extra details",
        "params": {
          "_id": "liqudity id"
        },
        "return": "_result true if no errors"
      },
      "getMatchBets(uint256)": {
        "details": "Explain to a developer any extra details",
        "params": {
          "_matchId": "unique match id"
        },
        "return": "uint256[] - list of liquidity ID's for that match"
      },
      "getMatchLiquidity(uint256)": {
        "details": "Explain to a developer any extra details",
        "params": {
          "_matchId": "unique match id"
        },
        "return": "uint256[] - list of liquidity ID's for that match"
      },
      "isOwner()": {
        "return": "true if `msg.sender` is the owner of the contract."
      },
      "owner()": {
        "return": "the address of the owner."
      },
      "placeBet(uint256,uint256)": {
        "details": "bookieCollateral is somewhat complex as depending on the stake, the payout has to be calculated on the fly and deducted from the pool of liquidity. ",
        "params": {
          "_liquidityId": "pointer to available liquidity. The msg.amount is the stake."
        },
        "return": "_id - returns unique ID of the new bet object."
      },
      "refundLiquidity(uint256)": {
        "details": "Explain to a developer any extra details",
        "params": {
          "_id": "liqudity id"
        },
        "return": "_result true if no errors"
      },
      "selfExclude()": {
        "return": "_excluded returns true when added."
      },
      "setResult(uint256,uint8)": {
        "details": "The payout structure depends on who wins but either the pundit or bookie gets paid - 1% of profits as a fee.",
        "params": {
          "_betId": "- unique id of the bet",
          "_result": "- result of the match. Determines how the bet pays out."
        },
        "return": "_success true if no errors."
      }
    },
    "title": "A title that should describe the contract/interface"
  },
  "userdoc": {
    "methods": {
      "contractBalance()": {
        "notice": "Explain to an end user what this does"
      },
      "getActiveBetsByAddress(address)": {
        "notice": "Explain to an end user what this does"
      },
      "getBetById(uint256)": {
        "notice": "Explain to an end user what this does"
      },
      "getBookieLiquidity(address)": {
        "notice": "Explain to an end user what this does"
      },
      "getInActiveBetsByAddress(address)": {
        "notice": "Explain to an end user what this does"
      },
      "getLiquidityById(uint256)": {
        "notice": "Explain to an end user what this does"
      },
      "getMatchBets(uint256)": {
        "notice": "Explain to an end user what this does"
      },
      "getMatchLiquidity(uint256)": {
        "notice": "Explain to an end user what this does"
      },
      "placeBet(uint256,uint256)": {
        "notice": "Public function allowing a pundit to place a bet leveraging existing liquidity in a market/odds."
      },
      "refundLiquidity(uint256)": {
        "notice": "Explain to an end user what this does"
      },
      "selfExclude()": {
        "notice": "Gambling addiction is a real problem and this option allows people to self exclude from the platform should they feel they are participating in an unhealthly way."
      },
      "setResult(uint256,uint8)": {
        "notice": "called internally by the contract owner to set the result of a given bet.  "
      }
    },
    "notice": "Explain to an end user what this does"
  }
}