{
  "contractName": "BeTheBookie",
  "abi": [
    {
      "inputs": [],
      "payable": false,
      "stateMutability": "nonpayable",
      "type": "constructor"
    },
    {
      "anonymous": false,
      "inputs": [
        {
          "indexed": false,
          "internalType": "uint256",
          "name": "id",
          "type": "uint256"
        }
      ],
      "name": "BetPlaced",
      "type": "event"
    },
    {
      "anonymous": false,
      "inputs": [
        {
          "indexed": false,
          "internalType": "uint256",
          "name": "id",
          "type": "uint256"
        }
      ],
      "name": "BetResult",
      "type": "event"
    },
    {
      "anonymous": false,
      "inputs": [
        {
          "indexed": false,
          "internalType": "uint256",
          "name": "id",
          "type": "uint256"
        }
      ],
      "name": "BookieProvidingLiquidity",
      "type": "event"
    },
    {
      "payable": true,
      "stateMutability": "payable",
      "type": "fallback"
    },
    {
      "constant": true,
      "inputs": [
        {
          "internalType": "uint256",
          "name": "",
          "type": "uint256"
        }
      ],
      "name": "betPools",
      "outputs": [
        {
          "internalType": "uint256",
          "name": "id",
          "type": "uint256"
        },
        {
          "internalType": "address payable",
          "name": "bookie",
          "type": "address"
        },
        {
          "internalType": "uint256",
          "name": "matchId",
          "type": "uint256"
        },
        {
          "internalType": "uint256",
          "name": "sideId",
          "type": "uint256"
        },
        {
          "internalType": "uint256",
          "name": "remainingLiquidity",
          "type": "uint256"
        },
        {
          "internalType": "uint256",
          "name": "odds",
          "type": "uint256"
        },
        {
          "internalType": "bool",
          "name": "closed",
          "type": "bool"
        },
        {
          "internalType": "uint256",
          "name": "createdTime",
          "type": "uint256"
        },
        {
          "internalType": "uint256",
          "name": "closedTime",
          "type": "uint256"
        }
      ],
      "payable": false,
      "stateMutability": "view",
      "type": "function"
    },
    {
      "constant": true,
      "inputs": [
        {
          "internalType": "uint256",
          "name": "",
          "type": "uint256"
        }
      ],
      "name": "bets",
      "outputs": [
        {
          "internalType": "uint256",
          "name": "id",
          "type": "uint256"
        },
        {
          "internalType": "uint256",
          "name": "liquidityId",
          "type": "uint256"
        },
        {
          "internalType": "uint256",
          "name": "bookieCollateral",
          "type": "uint256"
        },
        {
          "internalType": "uint256",
          "name": "punditCollateral",
          "type": "uint256"
        },
        {
          "internalType": "uint256",
          "name": "bookiePayout",
          "type": "uint256"
        },
        {
          "internalType": "uint256",
          "name": "punditPayout",
          "type": "uint256"
        },
        {
          "internalType": "uint256",
          "name": "feePaid",
          "type": "uint256"
        },
        {
          "internalType": "address payable",
          "name": "bookie",
          "type": "address"
        },
        {
          "internalType": "address payable",
          "name": "pundit",
          "type": "address"
        },
        {
          "internalType": "enum BeTheBookie.MatchResult",
          "name": "result",
          "type": "uint8"
        },
        {
          "internalType": "uint256",
          "name": "createdTime",
          "type": "uint256"
        },
        {
          "internalType": "uint256",
          "name": "closedTime",
          "type": "uint256"
        },
        {
          "internalType": "bool",
          "name": "closed",
          "type": "bool"
        }
      ],
      "payable": false,
      "stateMutability": "view",
      "type": "function"
    },
    {
      "constant": true,
      "inputs": [],
      "name": "owner",
      "outputs": [
        {
          "internalType": "address payable",
          "name": "",
          "type": "address"
        }
      ],
      "payable": false,
      "stateMutability": "view",
      "type": "function"
    },
    {
      "constant": true,
      "inputs": [],
      "name": "isOwner",
      "outputs": [
        {
          "internalType": "bool",
          "name": "",
          "type": "bool"
        }
      ],
      "payable": false,
      "stateMutability": "view",
      "type": "function"
    },
    {
      "constant": true,
      "inputs": [],
      "name": "isNotExcluded",
      "outputs": [
        {
          "internalType": "bool",
          "name": "",
          "type": "bool"
        }
      ],
      "payable": false,
      "stateMutability": "view",
      "type": "function"
    },
    {
      "constant": false,
      "inputs": [],
      "name": "selfExclude",
      "outputs": [
        {
          "internalType": "bool",
          "name": "_excluded",
          "type": "bool"
        }
      ],
      "payable": false,
      "stateMutability": "nonpayable",
      "type": "function"
    },
    {
      "constant": true,
      "inputs": [],
      "name": "contractBalance",
      "outputs": [
        {
          "internalType": "uint256",
          "name": "_balance",
          "type": "uint256"
        }
      ],
      "payable": false,
      "stateMutability": "view",
      "type": "function"
    },
    {
      "constant": false,
      "inputs": [
        {
          "internalType": "uint256",
          "name": "_liquidityId",
          "type": "uint256"
        },
        {
          "internalType": "uint256",
          "name": "_odds",
          "type": "uint256"
        }
      ],
      "name": "placeBet",
      "outputs": [
        {
          "internalType": "uint256",
          "name": "_id",
          "type": "uint256"
        }
      ],
      "payable": true,
      "stateMutability": "payable",
      "type": "function"
    },
    {
      "constant": false,
      "inputs": [
        {
          "internalType": "uint256",
          "name": "_matchId",
          "type": "uint256"
        },
        {
          "internalType": "enum BeTheBookie.MatchResult",
          "name": "_result",
          "type": "uint8"
        }
      ],
      "name": "setMatchResult",
      "outputs": [
        {
          "internalType": "bool",
          "name": "_success",
          "type": "bool"
        }
      ],
      "payable": true,
      "stateMutability": "payable",
      "type": "function"
    },
    {
      "constant": false,
      "inputs": [
        {
          "internalType": "uint256",
          "name": "_betId",
          "type": "uint256"
        },
        {
          "internalType": "enum BeTheBookie.MatchResult",
          "name": "_result",
          "type": "uint8"
        }
      ],
      "name": "setResult",
      "outputs": [
        {
          "internalType": "bool",
          "name": "_success",
          "type": "bool"
        }
      ],
      "payable": true,
      "stateMutability": "payable",
      "type": "function"
    },
    {
      "constant": true,
      "inputs": [
        {
          "internalType": "address",
          "name": "pundit",
          "type": "address"
        }
      ],
      "name": "getPunditBets",
      "outputs": [
        {
          "internalType": "uint256[]",
          "name": "",
          "type": "uint256[]"
        }
      ],
      "payable": false,
      "stateMutability": "view",
      "type": "function"
    },
    {
      "constant": true,
      "inputs": [
        {
          "internalType": "address",
          "name": "bookie",
          "type": "address"
        }
      ],
      "name": "getBookieBets",
      "outputs": [
        {
          "internalType": "uint256[]",
          "name": "",
          "type": "uint256[]"
        }
      ],
      "payable": false,
      "stateMutability": "view",
      "type": "function"
    },
    {
      "constant": true,
      "inputs": [
        {
          "internalType": "uint256",
          "name": "_id",
          "type": "uint256"
        }
      ],
      "name": "getBetById",
      "outputs": [
        {
          "internalType": "uint256",
          "name": "id",
          "type": "uint256"
        },
        {
          "internalType": "uint256",
          "name": "liquidityId",
          "type": "uint256"
        },
        {
          "internalType": "uint256",
          "name": "bookieCollateral",
          "type": "uint256"
        },
        {
          "internalType": "uint256",
          "name": "punditCollateral",
          "type": "uint256"
        },
        {
          "internalType": "uint256",
          "name": "bookiePayout",
          "type": "uint256"
        },
        {
          "internalType": "uint256",
          "name": "punditPayout",
          "type": "uint256"
        },
        {
          "internalType": "uint256",
          "name": "feePaid",
          "type": "uint256"
        },
        {
          "internalType": "enum BeTheBookie.MatchResult",
          "name": "result",
          "type": "uint8"
        },
        {
          "internalType": "uint256",
          "name": "createdTime",
          "type": "uint256"
        },
        {
          "internalType": "bool",
          "name": "closed",
          "type": "bool"
        }
      ],
      "payable": false,
      "stateMutability": "view",
      "type": "function"
    },
    {
      "constant": false,
      "inputs": [
        {
          "internalType": "uint256",
          "name": "_matchId",
          "type": "uint256"
        },
        {
          "internalType": "uint256",
          "name": "_sideId",
          "type": "uint256"
        },
        {
          "internalType": "uint256",
          "name": "_odds",
          "type": "uint256"
        }
      ],
      "name": "addLiquidity",
      "outputs": [
        {
          "internalType": "uint256",
          "name": "_id",
          "type": "uint256"
        }
      ],
      "payable": true,
      "stateMutability": "payable",
      "type": "function"
    },
    {
      "constant": false,
      "inputs": [
        {
          "internalType": "uint256",
          "name": "_liquidityId",
          "type": "uint256"
        },
        {
          "internalType": "uint256",
          "name": "_odds",
          "type": "uint256"
        }
      ],
      "name": "adjustOdds",
      "outputs": [
        {
          "internalType": "bool",
          "name": "_result",
          "type": "bool"
        }
      ],
      "payable": false,
      "stateMutability": "nonpayable",
      "type": "function"
    },
    {
      "constant": false,
      "inputs": [
        {
          "internalType": "uint256",
          "name": "_id",
          "type": "uint256"
        }
      ],
      "name": "refundLiquidity",
      "outputs": [
        {
          "internalType": "bool",
          "name": "_result",
          "type": "bool"
        }
      ],
      "payable": true,
      "stateMutability": "payable",
      "type": "function"
    },
    {
      "constant": true,
      "inputs": [
        {
          "internalType": "address",
          "name": "bookie",
          "type": "address"
        }
      ],
      "name": "getBookieLiquidity",
      "outputs": [
        {
          "internalType": "uint256[]",
          "name": "",
          "type": "uint256[]"
        }
      ],
      "payable": false,
      "stateMutability": "view",
      "type": "function"
    },
    {
      "constant": true,
      "inputs": [
        {
          "internalType": "uint256",
          "name": "_matchId",
          "type": "uint256"
        }
      ],
      "name": "getMatchLiquidity",
      "outputs": [
        {
          "internalType": "uint256[]",
          "name": "",
          "type": "uint256[]"
        }
      ],
      "payable": false,
      "stateMutability": "view",
      "type": "function"
    },
    {
      "constant": true,
      "inputs": [
        {
          "internalType": "uint256",
          "name": "_matchId",
          "type": "uint256"
        }
      ],
      "name": "getMatchBets",
      "outputs": [
        {
          "internalType": "uint256[]",
          "name": "",
          "type": "uint256[]"
        }
      ],
      "payable": false,
      "stateMutability": "view",
      "type": "function"
    },
    {
      "constant": true,
      "inputs": [
        {
          "internalType": "uint256",
          "name": "_id",
          "type": "uint256"
        }
      ],
      "name": "getLiquidityById",
      "outputs": [
        {
          "internalType": "uint256",
          "name": "id",
          "type": "uint256"
        },
        {
          "internalType": "uint256",
          "name": "matchId",
          "type": "uint256"
        },
        {
          "internalType": "uint256",
          "name": "sideId",
          "type": "uint256"
        },
        {
          "internalType": "uint256",
          "name": "remainingLiquidity",
          "type": "uint256"
        },
        {
          "internalType": "uint256",
          "name": "odds",
          "type": "uint256"
        },
        {
          "internalType": "bool",
          "name": "closed",
          "type": "bool"
        },
        {
          "internalType": "uint256",
          "name": "createdTime",
          "type": "uint256"
        }
      ],
      "payable": false,
      "stateMutability": "view",
      "type": "function"
    }
  ],
  "bytecode": "0x608060405266038d7ea4c6800060025566038d7ea4c6800060045534801561002657600080fd5b50336000806101000a81548173ffffffffffffffffffffffffffffffffffffffff021916908373ffffffffffffffffffffffffffffffffffffffff16021790555061204c806100766000396000f3fe60806040526004361061011e5760003560e01c80639b5fa0a5116100a0578063df53caf111610064578063df53caf1146107be578063e1ff9aa21461084e578063e57bcd4a146108f4578063ec9fdc1014610951578063f435e4cc146109805761011e565b80639b5fa0a514610562578063b0a3278d146105df578063b33a0a1414610632578063ca133d81146106d8578063d1a371501461078f5761011e565b806356150a36116100e757806356150a36146103be578063605c43de146104115780638b7afe2e146104b15780638da5cb5b146104dc5780638f32d59b146105335761011e565b806221958d1461012357806322af00fa1461016957806330096ba714610276578063422f10431461031c5780634afe62b514610372575b600080fd5b61014f6004803603602081101561013957600080fd5b8101908080359060200190929190505050610a10565b604051808215151515815260200191505060405180910390f35b34801561017557600080fd5b506101a26004803603602081101561018c57600080fd5b8101908080359060200190929190505050610b7d565b604051808e81526020018d81526020018c81526020018b81526020018a81526020018981526020018881526020018773ffffffffffffffffffffffffffffffffffffffff1673ffffffffffffffffffffffffffffffffffffffff1681526020018673ffffffffffffffffffffffffffffffffffffffff1673ffffffffffffffffffffffffffffffffffffffff16815260200185600381111561024057fe5b60ff168152602001848152602001838152602001821515151581526020019d505050505050505050505050505060405180910390f35b34801561028257600080fd5b506102c56004803603602081101561029957600080fd5b81019080803573ffffffffffffffffffffffffffffffffffffffff169060200190929190505050610c4a565b6040518080602001828103825283818151815260200191508051906020019060200280838360005b838110156103085780820151818401526020810190506102ed565b505050509050019250505060405180910390f35b61035c6004803603606081101561033257600080fd5b81019080803590602001909291908035906020019092919080359060200190929190505050610ce6565b6040518082815260200191505060405180910390f35b6103a86004803603604081101561038857600080fd5b810190808035906020019092919080359060200190929190505050610f6b565b6040518082815260200191505060405180910390f35b6103f7600480360360408110156103d457600080fd5b8101908080359060200190929190803560ff16906020019092919050505061147d565b604051808215151515815260200191505060405180910390f35b34801561041d57600080fd5b5061044a6004803603602081101561043457600080fd5b81019080803590602001909291905050506118e3565b604051808b81526020018a815260200189815260200188815260200187815260200186815260200185815260200184600381111561048457fe5b60ff168152602001838152602001821515151581526020019a505050505050505050505060405180910390f35b3480156104bd57600080fd5b506104c66119b0565b6040518082815260200191505060405180910390f35b3480156104e857600080fd5b506104f16119b8565b604051808273ffffffffffffffffffffffffffffffffffffffff1673ffffffffffffffffffffffffffffffffffffffff16815260200191505060405180910390f35b34801561053f57600080fd5b506105486119dd565b604051808215151515815260200191505060405180910390f35b34801561056e57600080fd5b5061059b6004803603602081101561058557600080fd5b8101908080359060200190929190505050611a34565b604051808881526020018781526020018681526020018581526020018481526020018315151515815260200182815260200197505050505050505060405180910390f35b610618600480360360408110156105f557600080fd5b8101908080359060200190929190803560ff169060200190929190505050611acf565b604051808215151515815260200191505060405180910390f35b34801561063e57600080fd5b506106816004803603602081101561065557600080fd5b81019080803573ffffffffffffffffffffffffffffffffffffffff169060200190929190505050611b5e565b6040518080602001828103825283818151815260200191508051906020019060200280838360005b838110156106c45780820151818401526020810190506106a9565b505050509050019250505060405180910390f35b3480156106e457600080fd5b50610711600480360360208110156106fb57600080fd5b8101908080359060200190929190505050611bfa565b604051808a81526020018973ffffffffffffffffffffffffffffffffffffffff1673ffffffffffffffffffffffffffffffffffffffff16815260200188815260200187815260200186815260200185815260200184151515158152602001838152602001828152602001995050505050505050505060405180910390f35b34801561079b57600080fd5b506107a4611c82565b604051808215151515815260200191505060405180910390f35b3480156107ca57600080fd5b506107f7600480360360208110156107e157600080fd5b8101908080359060200190929190505050611cd7565b6040518080602001828103825283818151815260200191508051906020019060200280838360005b8381101561083a57808201518184015260208101905061081f565b505050509050019250505060405180910390f35b34801561085a57600080fd5b5061089d6004803603602081101561087157600080fd5b81019080803573ffffffffffffffffffffffffffffffffffffffff169060200190929190505050611d47565b6040518080602001828103825283818151815260200191508051906020019060200280838360005b838110156108e05780820151818401526020810190506108c5565b505050509050019250505060405180910390f35b34801561090057600080fd5b506109376004803603604081101561091757600080fd5b810190808035906020019092919080359060200190929190505050611de3565b604051808215151515815260200191505060405180910390f35b34801561095d57600080fd5b50610966611ecf565b604051808215151515815260200191505060405180910390f35b34801561098c57600080fd5b506109b9600480360360208110156109a357600080fd5b8101908080359060200190929190505050611f40565b6040518080602001828103825283818151815260200191508051906020019060200280838360005b838110156109fc5780820151818401526020810190506109e1565b505050509050019250505060405180910390f35b6000803414610a1e57600080fd5b60006009600a60008581526020019081526020016000205481548110610a4057fe5b90600052602060002090600902019050610a586119dd565b80610ab257508060010160009054906101000a900473ffffffffffffffffffffffffffffffffffffffff1673ffffffffffffffffffffffffffffffffffffffff163373ffffffffffffffffffffffffffffffffffffffff16145b610abb57600080fd5b8060060160009054906101000a900460ff1615610ad757600080fd5b60018160060160006101000a81548160ff021916908315150217905550600081600401549050600082600401819055508160010160009054906101000a900473ffffffffffffffffffffffffffffffffffffffff1673ffffffffffffffffffffffffffffffffffffffff166108fc829081150290604051600060405180830381858888f19350505050158015610b71573d6000803e3d6000fd5b50600192505050919050565b60058181548110610b8a57fe5b90600052602060002090600c02016000915090508060000154908060010154908060020154908060030154908060040154908060050154908060060154908060070160009054906101000a900473ffffffffffffffffffffffffffffffffffffffff16908060080160009054906101000a900473ffffffffffffffffffffffffffffffffffffffff16908060080160149054906101000a900460ff169080600901549080600a01549080600b0160009054906101000a900460ff1690508d565b606080600b60008473ffffffffffffffffffffffffffffffffffffffff1673ffffffffffffffffffffffffffffffffffffffff168152602001908152602001600020805480602002602001604051908101604052809291908181526020018280548015610cd657602002820191906000526020600020905b815481526020019060010190808311610cc2575b5050505050905080915050919050565b6000610cf0611c82565b610cf957600080fd5b60648211610d0657600080fd5b6127118210610d1457600080fd5b600454341015610d2357600080fd5b600360008154600101919050819055905060096040518061012001604052808381526020013373ffffffffffffffffffffffffffffffffffffffff1681526020018681526020018581526020013481526020018481526020016000151581526020014281526020016000815250908060018154018082558091505090600182039060005260206000209060090201600090919290919091506000820151816000015560208201518160010160006101000a81548173ffffffffffffffffffffffffffffffffffffffff021916908373ffffffffffffffffffffffffffffffffffffffff16021790555060408201518160020155606082015181600301556080820151816004015560a0820151816005015560c08201518160060160006101000a81548160ff02191690831515021790555060e08201518160070155610100820151816008015550505060018103600a600083815260200190815260200160002081905550600b60003373ffffffffffffffffffffffffffffffffffffffff1673ffffffffffffffffffffffffffffffffffffffff168152602001908152602001600020819080600181540180825580915050906001820390600052602060002001600090919290919091505550600c60008581526020019081526020016000208190806001815401808255809150509060018203906000526020600020016000909192909190915055507fc2b9787b5865f184d65978c61b1c3fbd1b06bdd85ec4abac835122473ea9d4d9816040518082815260200191505060405180910390a19392505050565b6000610f75611c82565b610f7e57600080fd5b600254341015610f8d57600080fd5b60006009600a60008681526020019081526020016000205481548110610faf57fe5b90600052602060002090600902019050600015158160060160009054906101000a900460ff16151514610fe157600080fd5b8060010160009054906101000a900473ffffffffffffffffffffffffffffffffffffffff1673ffffffffffffffffffffffffffffffffffffffff163373ffffffffffffffffffffffffffffffffffffffff16141561103e57600080fd5b8281600501541461104e57600080fd5b60003461106561105e3487611fb0565b6064611fe7565b039050808260040154101561107957600080fd5b60016000815460010191905081905592506005604051806101a001604052808581526020018781526020018381526020013481526020016000815260200160008152602001600081526020018460010160009054906101000a900473ffffffffffffffffffffffffffffffffffffffff1673ffffffffffffffffffffffffffffffffffffffff1681526020013373ffffffffffffffffffffffffffffffffffffffff1681526020016000600381111561112e57fe5b815260200142815260200160008152602001600015158152509080600181540180825580915050906001820390600052602060002090600c020160009091929091909150600082015181600001556020820151816001015560408201518160020155606082015181600301556080820151816004015560a0820151816005015560c0820151816006015560e08201518160070160006101000a81548173ffffffffffffffffffffffffffffffffffffffff021916908373ffffffffffffffffffffffffffffffffffffffff1602179055506101008201518160080160006101000a81548173ffffffffffffffffffffffffffffffffffffffff021916908373ffffffffffffffffffffffffffffffffffffffff1602179055506101208201518160080160146101000a81548160ff0219169083600381111561126c57fe5b0217905550610140820151816009015561016082015181600a015561018082015181600b0160006101000a81548160ff021916908315150217905550505050600183036006600085815260200190815260200160002081905550600760003373ffffffffffffffffffffffffffffffffffffffff1673ffffffffffffffffffffffffffffffffffffffff168152602001908152602001600020839080600181540180825580915050906001820390600052602060002001600090919290919091505550600860008360010160009054906101000a900473ffffffffffffffffffffffffffffffffffffffff1673ffffffffffffffffffffffffffffffffffffffff1673ffffffffffffffffffffffffffffffffffffffff168152602001908152602001600020839080600181540180825580915050906001820390600052602060002001600090919290919091505550600d60008360020154815260200190815260200160002083908060018154018082558091505090600182039060005260206000200160009091929091909150555061140b826004015482612000565b826004018190555060008260040154141561143e5760018260060160006101000a81548160ff0219169083151502179055505b7fde1fae6a99c0f84e9bee8b7f9d2d7663e46384ff079f389d5b4b6018b56e56e9836040518082815260200191505060405180910390a1505092915050565b60006114876119dd565b61149057600080fd5b6000341461149d57600080fd5b600060056006600086815260200190815260200160002054815481106114bf57fe5b90600052602060002090600c020190506000151581600b0160009054906101000a900460ff161515146114f157600080fd5b600060038111156114fe57fe5b8160080160149054906101000a900460ff16600381111561151b57fe5b1461152557600080fd5b828160080160146101000a81548160ff0219169083600381111561154557fe5b02179055504281600a018190555060006001600381111561156257fe5b84600381111561156e57fe5b14156116105761158382600301546064611fe7565b905060008183600201548460030154010390508083600401819055508260070160009054906101000a900473ffffffffffffffffffffffffffffffffffffffff1673ffffffffffffffffffffffffffffffffffffffff166108fc829081150290604051600060405180830381858888f19350505050158015611609573d6000803e3d6000fd5b50506117e4565b6002600381111561161d57fe5b84600381111561162957fe5b14156116cb5761163e82600201546064611fe7565b905060008183600201548460030154010390508083600501819055508260080160009054906101000a900473ffffffffffffffffffffffffffffffffffffffff1673ffffffffffffffffffffffffffffffffffffffff166108fc829081150290604051600060405180830381858888f193505050501580156116c4573d6000803e3d6000fd5b50506117e3565b6003808111156116d757fe5b8460038111156116e357fe5b14156117e25781600201548260040181905550816003015482600501819055508160070160009054906101000a900473ffffffffffffffffffffffffffffffffffffffff1673ffffffffffffffffffffffffffffffffffffffff166108fc83600201549081150290604051600060405180830381858888f19350505050158015611771573d6000803e3d6000fd5b508160080160009054906101000a900473ffffffffffffffffffffffffffffffffffffffff1673ffffffffffffffffffffffffffffffffffffffff166108fc83600301549081150290604051600060405180830381858888f193505050501580156117e0573d6000803e3d6000fd5b505b5b5b60008260020181905550600082600301819055506000811115611873578082600601819055506000809054906101000a900473ffffffffffffffffffffffffffffffffffffffff1673ffffffffffffffffffffffffffffffffffffffff166108fc829081150290604051600060405180830381858888f19350505050158015611871573d6000803e3d6000fd5b505b600182600b0160006101000a81548160ff02191690831515021790555081600b0160009054906101000a900460ff1692507f0d7fd9e4a72e17428fa8f1c1e7c7436283b29d4dc0e1292783f4054585f7c38e856040518082815260200191505060405180910390a1505092915050565b60008060008060008060008060008060006005600660008e8152602001908152602001600020548154811061191457fe5b90600052602060002090600c0201905080600001549a508060010154995080600201549850806003015497508060040154965080600501549550806006015494508060080160149054906101000a900460ff1693508060090154925080600b0160009054906101000a900460ff1691508a8a8a8a8a8a8a8a8a8a9a509a509a509a509a509a509a509a509a509a50509193959799509193959799565b600047905090565b6000809054906101000a900473ffffffffffffffffffffffffffffffffffffffff1681565b60008060009054906101000a900473ffffffffffffffffffffffffffffffffffffffff1673ffffffffffffffffffffffffffffffffffffffff163373ffffffffffffffffffffffffffffffffffffffff1614905090565b6000806000806000806000806009600a60008b81526020019081526020016000205481548110611a6057fe5b9060005260206000209060090201905080600001549750806002015496508060030154955080600401549450806005015493508060060160009054906101000a900460ff1692508060070154915087878787878787975097509750975097509750975050919395979092949650565b6000611ad96119dd565b611ae257600080fd5b60003414611aef57600080fd5b60008090505b600d600085815260200190815260200160002080549050811015611b5357611b45600d60008681526020019081526020016000208281548110611b3457fe5b90600052602060002001548461147d565b508080600101915050611af5565b506001905092915050565b606080600860008473ffffffffffffffffffffffffffffffffffffffff1673ffffffffffffffffffffffffffffffffffffffff168152602001908152602001600020805480602002602001604051908101604052809291908181526020018280548015611bea57602002820191906000526020600020905b815481526020019060010190808311611bd6575b5050505050905080915050919050565b60098181548110611c0757fe5b90600052602060002090600902016000915090508060000154908060010160009054906101000a900473ffffffffffffffffffffffffffffffffffffffff16908060020154908060030154908060040154908060050154908060060160009054906101000a900460ff16908060070154908060080154905089565b6000600e60003373ffffffffffffffffffffffffffffffffffffffff1673ffffffffffffffffffffffffffffffffffffffff16815260200190815260200160002060009054906101000a900460ff1615905090565b606080600c6000848152602001908152602001600020805480602002602001604051908101604052809291908181526020018280548015611d3757602002820191906000526020600020905b815481526020019060010190808311611d23575b5050505050905080915050919050565b606080600760008473ffffffffffffffffffffffffffffffffffffffff1673ffffffffffffffffffffffffffffffffffffffff168152602001908152602001600020805480602002602001604051908101604052809291908181526020018280548015611dd357602002820191906000526020600020905b815481526020019060010190808311611dbf575b5050505050905080915050919050565b600060648211611df257600080fd5b6127118210611e0057600080fd5b60006009600a60008681526020019081526020016000205481548110611e2257fe5b906000526020600020906009020190508060010160009054906101000a900473ffffffffffffffffffffffffffffffffffffffff1673ffffffffffffffffffffffffffffffffffffffff163373ffffffffffffffffffffffffffffffffffffffff1614611e8e57600080fd5b8060060160009054906101000a900460ff1615611eaa57600080fd5b6000816004015411611ebb57600080fd5b828160050181905550600191505092915050565b6000611ed9611c82565b611ee257600080fd5b6001905080600e60003373ffffffffffffffffffffffffffffffffffffffff1673ffffffffffffffffffffffffffffffffffffffff16815260200190815260200160002060006101000a81548160ff02191690831515021790555090565b606080600d6000848152602001908152602001600020805480602002602001604051908101604052809291908181526020018280548015611fa057602002820191906000526020600020905b815481526020019060010190808311611f8c575b5050505050905080915050919050565b600080831415611fc35760009050611fe1565b6000828402905082848281611fd457fe5b0414611fdc57fe5b809150505b92915050565b600080828481611ff357fe5b0490508091505092915050565b60008282111561200c57fe5b81830390509291505056fea265627a7a7231582026c039c5d95a955310ad87843cbbf77aa796f67df905d895afe2d52144920ad564736f6c63430005100032",
  "source": "// SPDX-License-Identifier: MIT\r\npragma solidity >=0.5.16 <0.9.0;\r\nimport \"./safemath.sol\";\r\n\r\n/// @title A title that should describe the contract/interface\r\n/// @author Chris Patterson\r\n/// @notice Explain to an end user what this does\r\n/// @dev Explain to a developer any extra details\r\ncontract BeTheBookie {\r\n\r\n    address payable public owner;\r\n    uint256 betCounter;\r\n    uint minBet = 0.001 ether;\r\n    uint256 liquidityCounter;\r\n    uint minLiquidity = 0.001 ether;\r\n\r\n    Bet[] public bets;\r\n    mapping (uint256 => uint) betMapping; //id -> index\r\n    \r\n    //mapping of pundit bets to an address\r\n    mapping (address => uint256[]) punditBetsMapping; \r\n\r\n    //mapping of bookie bets to an address\r\n    mapping (address => uint256[]) bookieBetsMapping; \r\n\r\n    Liquidity[] public betPools;\r\n    mapping (uint256 => uint) poolMapping; //id -> index\r\n\r\n    //mapping of bookie liquidity to an address\r\n    mapping (address => uint256[]) bookieLiquidityMapping; \r\n\r\n    //mapping of the unique match id's to provided liquidity. Used to be able to filter for available bets without downloading the entire dataset.\r\n    mapping (uint256 => uint256[]) matchLiquidityMapping; \r\n    //mapping of the unique match id's to bets. It is needed to be able to find all bets for a given match on the client. \r\n    mapping (uint256 => uint256[]) matchBetMapping; \r\n    \r\n    enum MatchResult{ Undecided, BookieWon, PunditWon, Void }\r\n\r\n/// @notice Maintains a list of addresses which have opted to self exclude from the platform.\r\n    mapping (address => bool) exclusionList;\r\n\r\n/// @notice Raises an event that a new liquidity / market has been provided to pundits.\r\n/// @dev Will be used by the GUI as a trigger to reload the screen\r\n/// @param id the liquidityId\r\n    event BookieProvidingLiquidity(uint256 id);\r\n\r\n/// @notice Raised when a bet is placed. \r\n/// @dev Will be used by the GUI as a trigger to reload the screen\r\n/// @param id new unique bet id\r\n    event BetPlaced(uint256 id);\r\n\r\n/// @notice Explain to an end user what this does\r\n/// @dev Will be used by the GUI as a trigger to reload the screen to show if they won or not.\r\n/// @param id bet id\r\n    event BetResult(uint256 id);\r\n\r\n//Structure representing a bet with 2 parties involved. The Pundit and the Bookie. The bookie placed odds and liquidity and the pundit took a position. \r\n//The payout will go to either the Pundit or the Bookie when the result is decided. There is a 1% fee taken off the profits paid to the contract owner.\r\n    struct Bet {\r\n        uint256 id;\r\n        uint256 liquidityId;\r\n        uint256 bookieCollateral;\r\n        uint256 punditCollateral;\r\n        uint256 bookiePayout; \r\n        uint256 punditPayout; \r\n        uint256 feePaid;\r\n        address payable bookie; // bookie address copied from the liquidity object\r\n        address payable pundit; //account taking a punt on this outcome (they want to win)\r\n        MatchResult result;\r\n        uint createdTime;\r\n        uint closedTime;\r\n        bool closed;\r\n    }\r\n\r\n//Structure representing betting liquidity on a certain match/player/odds. ie: As a bookie I can lay odds on Federer to beat Nadal at 200 (even payout).\r\n//The bookie can post the total liquidity they are willing to expose themselves to; ie: 10 ETH and as bets are placed the available liquidty will decrease until it reaches 0.\r\n//With these odds, pundits (people taking a bet) can take a position on these odds. ie: 1ETH. \r\n//The pundit hopes Federer wins as they will receive 2 ETH in return whereas the bookie hopes Nadal wins as they receive the bet amount + the liquidity they provided. 2 ETH as well.\r\n//Odds can range from 101 to 10000. 101 is equivalent to 1.01 * stake and 10000 is 100 * stake. \r\n//Once a bet is placed it is final and will require an outcome.\r\n    struct Liquidity {\r\n        uint256 id;\r\n        address payable bookie; //account laying the odds (they do not want this bet to pay out)\r\n        uint matchId; //each match will have a unique id\r\n        uint sideId; //will need to choose the winning side of the match\r\n        uint256 remainingLiquidity;\r\n        uint odds; // 1.50 odds would be stored as 150 (*100).\r\n        bool closed;\r\n        uint createdTime;\r\n        uint closedTime;\r\n    }\r\n\r\n\r\n      /* \r\n   * Modifiers\r\n   */\r\n\r\n  // Create a modifer, `isOwner` that checks if the msg.sender is the owner of the contract\r\n  function isOwner() public view returns(bool) {\r\n    return msg.sender == owner;\r\n  }\r\n\r\n  function isNotExcluded() public view returns(bool) {\r\n    return !exclusionList[msg.sender];\r\n  }\r\n\r\n    // Fallback function - Called if other functions don't match call or\r\n    // sent ether without data\r\n    // Typically, called when invalid data is sent\r\n    // Added so ether sent to this contract is reverted if the contract fails\r\n    // otherwise, the sender's money is transferred to contract\r\n    function () external payable {\r\n        revert();\r\n    }\r\n\r\n    constructor() public {\r\n        owner = msg.sender;\r\n    }\r\n\r\n/// @notice Gambling addiction is a real problem and this option allows people to self exclude from the platform should they feel they are participating in an unhealthly way.\r\n/// @return _excluded returns true when added.\r\n    function selfExclude() public returns (bool _excluded)\r\n    {\r\n        require(isNotExcluded()); //no point executing this function twice.\r\n        _excluded = true;\r\n        exclusionList[msg.sender] = _excluded;\r\n    }\r\n\r\n/// @notice Explain to an end user what this does\r\n/// @dev Explain to a developer any extra details\r\n    function contractBalance() public view returns (uint256 _balance) {\r\n        _balance = address(this).balance;\r\n    }\r\n\r\n    \r\n    \r\n\r\n/// @notice Public function allowing a pundit to place a bet leveraging existing liquidity in a market/odds.\r\n/// @dev bookieCollateral is somewhat complex as depending on the stake, the payout has to be calculated on the fly and deducted from the pool of liquidity. \r\n/// @param _liquidityId pointer to available liquidity. The msg.amount is the stake.\r\n/// @return _id - returns unique ID of the new bet object.\r\n    function placeBet(uint256 _liquidityId, uint _odds) public payable returns (uint256 _id)\r\n    {\r\n        require(isNotExcluded()); //ensure the participant has not chosed to self exclude from the platform\r\n        require(msg.value >= minBet);\r\n        \r\n        Liquidity storage _l = betPools[poolMapping[_liquidityId]];\r\n        require(_l.closed == false);\r\n        require(msg.sender != _l.bookie);\r\n        require(_l.odds == _odds); //possible the bookie might adjust the odds before a bet has been placed. Confirm they match.\r\n\r\n        uint256 bookieCollateral = SafeMath.div(SafeMath.mul(msg.value, _odds), 100)-msg.value;\r\n        require(_l.remainingLiquidity >= bookieCollateral);\r\n\r\n        _id = ++betCounter;\r\n\r\n        bets.push(Bet({\r\n            id: _id,\r\n            liquidityId: _liquidityId, \r\n            bookieCollateral: bookieCollateral,\r\n            punditCollateral: msg.value,\r\n            bookiePayout: 0, \r\n            punditPayout: 0, \r\n            feePaid: 0,\r\n            pundit: msg.sender,\r\n            bookie: _l.bookie,\r\n            result: MatchResult.Undecided, \r\n            createdTime: now,\r\n            closedTime: 0,\r\n            closed: false\r\n            }));\r\n\r\n        betMapping[_id] = _id-1;\r\n        punditBetsMapping[msg.sender].push(_id);\r\n        bookieBetsMapping[_l.bookie].push(_id);\r\n        matchBetMapping[_l.matchId].push(_id);\r\n\r\n        _l.remainingLiquidity = SafeMath.sub(_l.remainingLiquidity, bookieCollateral);\r\n        if (_l.remainingLiquidity == 0)\r\n        {\r\n            _l.closed = true;\r\n        }\r\n\r\n        emit BetPlaced(_id);\r\n\r\n    }\r\n\r\n    function setMatchResult(uint256 _matchId, MatchResult _result) public payable returns (bool _success) {\r\n        require(isOwner());\r\n        require(msg.value == 0);\r\n\r\n        for (uint i = 0; i < matchBetMapping[_matchId].length; i++)\r\n        {\r\n            setResult(matchBetMapping[_matchId][i], _result);\r\n        }\r\n\r\n        return true;\r\n    }\r\n\r\n/// @notice called by the contract owner to set the result of a given bet. This should be handled by an oracle in the future so there is no manual intervention required. \r\n/// @dev The payout structure depends on who wins but either the pundit or bookie gets paid - 1% of profits as a fee.\r\n/// @param _betId - unique id of the bet\r\n/// @param _result - result of the match. Determines how the bet pays out.\r\n/// @return _success true if no errors.\r\n    function setResult(uint256 _betId, MatchResult _result) public payable returns (bool _success) {\r\n        require(isOwner());\r\n        require(msg.value == 0);\r\n\r\n        Bet storage _bet = bets[betMapping[_betId]];\r\n        require(_bet.closed == false);\r\n        require(_bet.result == MatchResult.Undecided);\r\n\r\n        \r\n        _bet.result = _result;\r\n        _bet.closedTime = now;\r\n        \r\n        uint256 fee;\r\n        if (_result == MatchResult.BookieWon)\r\n        {\r\n            fee = SafeMath.div(_bet.punditCollateral, 100);\r\n            uint256 payout = _bet.punditCollateral + _bet.bookieCollateral - fee;\r\n            _bet.bookiePayout = payout;\r\n            _bet.bookie.transfer(payout);\r\n        }\r\n        else if (_result == MatchResult.PunditWon)\r\n        {\r\n            fee = SafeMath.div(_bet.bookieCollateral, 100);\r\n            uint256 payout = _bet.punditCollateral + _bet.bookieCollateral - fee;\r\n            _bet.punditPayout = payout;\r\n            _bet.pundit.transfer(payout);\r\n        }\r\n        else if (_result == MatchResult.Void)\r\n        {\r\n            //refund their money as the match was cancelled\r\n            _bet.bookiePayout = _bet.bookieCollateral;\r\n            _bet.punditPayout = _bet.punditCollateral;\r\n            _bet.bookie.transfer(_bet.bookieCollateral);\r\n            _bet.pundit.transfer(_bet.punditCollateral);\r\n        }\r\n\r\n        _bet.bookieCollateral = 0;\r\n        _bet.punditCollateral = 0;\r\n\r\n        if (fee > 0)\r\n        {\r\n            _bet.feePaid = fee;\r\n            owner.transfer(fee);\r\n        }\r\n\r\n        _bet.closed = true;\r\n\r\n        _success = _bet.closed;\r\n        emit BetResult(_betId);\r\n    }\r\n\r\n/// @notice Explain to an end user what this does\r\n/// @dev Explain to a developer any extra details\r\n/// @return uint256[] - list of bet ID's owned by the msg.sender\r\n    function getPunditBets(address pundit) external view returns (uint256[] memory)\r\n    {\r\n        uint256[] memory response = punditBetsMapping[pundit];\r\n        return response;\r\n    }\r\n\r\n    /// @notice Explain to an end user what this does\r\n/// @dev Explain to a developer any extra details\r\n/// @return uint256[] - list of bet ID's owned by the msg.sender\r\n    function getBookieBets(address bookie) external view returns (uint256[] memory)\r\n    {\r\n        uint256[] memory response = bookieBetsMapping[bookie];\r\n        return response;\r\n    }\r\n\r\n\r\n    /// @notice Explain to an end user what this does\r\n/// @dev Explain to a developer any extra details\r\n/// @param _id bet id\r\n    function getBetById(uint _id) external view returns (uint256 id, uint256 liquidityId, uint256 bookieCollateral, uint256 punditCollateral, uint256 bookiePayout, uint256 punditPayout, uint256 feePaid, MatchResult result, uint createdTime, bool closed)\r\n    {\r\n        Bet storage bet = bets[betMapping[_id]];\r\n        id = bet.id;\r\n        liquidityId = bet.liquidityId;\r\n        bookieCollateral = bet.bookieCollateral;\r\n        punditCollateral = bet.punditCollateral;\r\n        bookiePayout = bet.bookiePayout;\r\n        punditPayout = bet.punditPayout;\r\n        feePaid = bet.feePaid;\r\n        result = bet.result;\r\n        createdTime = bet.createdTime;\r\n        closed = bet.closed;\r\n        return (id, liquidityId, bookieCollateral, punditCollateral, bookiePayout, punditPayout, feePaid, result, createdTime, closed);\r\n    }\r\n\r\n\r\n    /// @notice Public function for a bookie to place odds on a match result and submit available liquidity. ie: Federer to beat Nadal, 200 odds with 10ETH max payout.\r\n    /// @param _matchId The unique ID of a match (ie: Federer vs Nadal at 2018 Wimbledon final)\r\n    /// @param _sideId The perspective winning side, ie: Federer. (unique ID from the source JSON data)\r\n    /// @param _odds The odds. ie: 150 = decimal equivalent odds at 1.5. 200 = 2. Payout formula is basically _odds/100 * stake. \r\n                    //ie: 150/100 * 1ETH = 0.5ETH payout + your original stake = 1.5ETH return. \r\n    /// @return _id returns unique ID of the new liquidity object.\r\n    function addLiquidity(uint _matchId, uint _sideId, uint256 _odds) public payable returns (uint _id)\r\n    {\r\n        require(isNotExcluded()); //ensure the participant has not chosed to self exclude from the platform\r\n        require(_odds > 100);\r\n        require(_odds < 10001);\r\n        require(msg.value >= minLiquidity);\r\n\r\n        _id = ++liquidityCounter;\r\n\r\n        betPools.push(Liquidity({\r\n            id: _id,\r\n            bookie: msg.sender,\r\n            matchId: _matchId, \r\n            sideId: _sideId,\r\n            remainingLiquidity: msg.value,\r\n            odds: _odds, \r\n            closed: false,\r\n            createdTime: now,\r\n            closedTime: 0\r\n            }));\r\n\r\n        poolMapping[_id] = _id-1;\r\n        bookieLiquidityMapping[msg.sender].push(_id);\r\n        matchLiquidityMapping[_matchId].push(_id);\r\n\r\n        emit BookieProvidingLiquidity(_id);\r\n\r\n    }\r\n\r\n    function adjustOdds(uint _liquidityId, uint _odds) public returns (bool _result) {\r\n        require(_odds > 100);\r\n        require(_odds < 10001);\r\n\r\n        Liquidity storage _l = betPools[poolMapping[_liquidityId]];\r\n        require(msg.sender == _l.bookie);\r\n        require(!_l.closed);\r\n        require(_l.remainingLiquidity > 0);\r\n\r\n        _l.odds = _odds;\r\n        _result = true;\r\n    }\r\n\r\n\r\n/// @notice Explain to an end user what this does\r\n/// @dev Explain to a developer any extra details\r\n/// @param _id liqudity id\r\n/// @return _result true if no errors\r\n    function refundLiquidity(uint _id) public payable returns (bool _result) {\r\n        require(msg.value == 0);\r\n        Liquidity storage _l = betPools[poolMapping[_id]];\r\n        require(isOwner() || msg.sender == _l.bookie);\r\n        require(!_l.closed);\r\n        \r\n        _l.closed = true;\r\n        uint refund = _l.remainingLiquidity;\r\n        _l.remainingLiquidity = 0;\r\n        _l.bookie.transfer(refund);\r\n        _result = true;\r\n    }\r\n\r\n/// @notice Explain to an end user what this does\r\n/// @dev Explain to a developer any extra details\r\n/// @return uint256[] - list of liquidity ID's owned by the msg.sender\r\n    function getBookieLiquidity(address bookie) external view returns (uint256[] memory)\r\n    {\r\n        uint256[] memory response = bookieLiquidityMapping[bookie];\r\n        return response;\r\n    }\r\n\r\n/// @notice Explain to an end user what this does\r\n/// @dev Explain to a developer any extra details\r\n/// @param _matchId unique match id\r\n/// @return uint256[] - list of liquidity ID's for that match\r\n    function getMatchLiquidity(uint256 _matchId) external view returns (uint256[] memory) {\r\n        uint256[] memory response = matchLiquidityMapping[_matchId];\r\n        return response;\r\n    }\r\n\r\n/// @notice Explain to an end user what this does\r\n/// @dev Explain to a developer any extra details\r\n/// @param _matchId unique match id\r\n/// @return uint256[] - list of liquidity ID's for that match\r\n    function getMatchBets(uint256 _matchId) external view returns (uint256[] memory) {\r\n        uint256[] memory response = matchBetMapping[_matchId];\r\n        return response;\r\n    }    \r\n    \r\n    /// @notice Explain to an end user what this does\r\n/// @dev Explain to a developer any extra details\r\n/// @param _id liqudity id\r\n/// @return _result true if no errors\r\n    function getLiquidityById(uint _id) external view returns (uint id, uint matchId, uint sideId, uint256 remainingLiquidity, uint odds, bool closed, uint createdTime)\r\n    {\r\n        Liquidity storage _l = betPools[poolMapping[_id]];\r\n        id = _l.id;\r\n        matchId = _l.matchId;\r\n        sideId = _l.sideId;\r\n        remainingLiquidity = _l.remainingLiquidity;\r\n        odds = _l.odds;\r\n        closed = _l.closed;\r\n        createdTime = _l.createdTime;\r\n        return (id, matchId, sideId, remainingLiquidity, odds, closed, createdTime);\r\n    }\r\n\r\n}\r\n\r\n",
  "sourcePath": "E:\\GIT\\blockchain-developer-bootcamp-final-project\\contracts\\BeTheBookie.sol",
  "compiler": {
    "name": "solc",
    "version": "0.5.16+commit.9c3226ce.Emscripten.clang"
  },
  "schemaVersion": "3.4.3",
  "updatedAt": "2021-10-19T20:13:40.721Z",
  "devdoc": {
    "author": "Chris Patterson",
    "details": "Explain to a developer any extra details",
    "methods": {
      "addLiquidity(uint256,uint256,uint256)": {
        "return": "_id returns unique ID of the new liquidity object."
      },
      "contractBalance()": {
        "details": "Explain to a developer any extra details"
      },
      "getBetById(uint256)": {
        "details": "Explain to a developer any extra details",
        "params": {
          "_id": "bet id"
        }
      },
      "getBookieBets(address)": {
        "details": "Explain to a developer any extra details",
        "return": "uint256[] - list of bet ID's owned by the msg.sender"
      },
      "getBookieLiquidity(address)": {
        "details": "Explain to a developer any extra details",
        "return": "uint256[] - list of liquidity ID's owned by the msg.sender"
      },
      "getLiquidityById(uint256)": {
        "details": "Explain to a developer any extra details",
        "params": {
          "_id": "liqudity id"
        },
        "return": "_result true if no errors"
      },
      "getMatchBets(uint256)": {
        "details": "Explain to a developer any extra details",
        "params": {
          "_matchId": "unique match id"
        },
        "return": "uint256[] - list of liquidity ID's for that match"
      },
      "getMatchLiquidity(uint256)": {
        "details": "Explain to a developer any extra details",
        "params": {
          "_matchId": "unique match id"
        },
        "return": "uint256[] - list of liquidity ID's for that match"
      },
      "getPunditBets(address)": {
        "details": "Explain to a developer any extra details",
        "return": "uint256[] - list of bet ID's owned by the msg.sender"
      },
      "placeBet(uint256,uint256)": {
        "details": "bookieCollateral is somewhat complex as depending on the stake, the payout has to be calculated on the fly and deducted from the pool of liquidity. ",
        "params": {
          "_liquidityId": "pointer to available liquidity. The msg.amount is the stake."
        },
        "return": "_id - returns unique ID of the new bet object."
      },
      "refundLiquidity(uint256)": {
        "details": "Explain to a developer any extra details",
        "params": {
          "_id": "liqudity id"
        },
        "return": "_result true if no errors"
      },
      "selfExclude()": {
        "return": "_excluded returns true when added."
      },
      "setResult(uint256,uint8)": {
        "details": "The payout structure depends on who wins but either the pundit or bookie gets paid - 1% of profits as a fee.",
        "params": {
          "_betId": "- unique id of the bet",
          "_result": "- result of the match. Determines how the bet pays out."
        },
        "return": "_success true if no errors."
      }
    },
    "title": "A title that should describe the contract/interface"
  },
  "userdoc": {
    "methods": {
      "contractBalance()": {
        "notice": "Explain to an end user what this does"
      },
      "getBetById(uint256)": {
        "notice": "Explain to an end user what this does"
      },
      "getBookieBets(address)": {
        "notice": "Explain to an end user what this does"
      },
      "getBookieLiquidity(address)": {
        "notice": "Explain to an end user what this does"
      },
      "getLiquidityById(uint256)": {
        "notice": "Explain to an end user what this does"
      },
      "getMatchBets(uint256)": {
        "notice": "Explain to an end user what this does"
      },
      "getMatchLiquidity(uint256)": {
        "notice": "Explain to an end user what this does"
      },
      "getPunditBets(address)": {
        "notice": "Explain to an end user what this does"
      },
      "placeBet(uint256,uint256)": {
        "notice": "Public function allowing a pundit to place a bet leveraging existing liquidity in a market/odds."
      },
      "refundLiquidity(uint256)": {
        "notice": "Explain to an end user what this does"
      },
      "selfExclude()": {
        "notice": "Gambling addiction is a real problem and this option allows people to self exclude from the platform should they feel they are participating in an unhealthly way."
      },
      "setResult(uint256,uint8)": {
        "notice": "called by the contract owner to set the result of a given bet. This should be handled by an oracle in the future so there is no manual intervention required. "
      }
    },
    "notice": "Explain to an end user what this does"
  }
}