{
  "contractName": "BetManager",
  "abi": [
    {
      "inputs": [],
      "payable": false,
      "stateMutability": "nonpayable",
      "type": "constructor"
    },
    {
      "anonymous": false,
      "inputs": [
        {
          "indexed": false,
          "internalType": "uint256",
          "name": "id",
          "type": "uint256"
        }
      ],
      "name": "BetFinalized",
      "type": "event"
    },
    {
      "anonymous": false,
      "inputs": [
        {
          "indexed": false,
          "internalType": "uint256",
          "name": "id",
          "type": "uint256"
        }
      ],
      "name": "BookieLayingOdds",
      "type": "event"
    },
    {
      "anonymous": false,
      "inputs": [
        {
          "indexed": false,
          "internalType": "uint256",
          "name": "id",
          "type": "uint256"
        }
      ],
      "name": "PunditLookingForBookie",
      "type": "event"
    },
    {
      "constant": true,
      "inputs": [
        {
          "internalType": "uint256",
          "name": "",
          "type": "uint256"
        }
      ],
      "name": "bets",
      "outputs": [
        {
          "internalType": "uint256",
          "name": "id",
          "type": "uint256"
        },
        {
          "internalType": "uint256",
          "name": "matchId",
          "type": "uint256"
        },
        {
          "internalType": "uint256",
          "name": "sideId",
          "type": "uint256"
        },
        {
          "internalType": "uint256",
          "name": "bookieAmount",
          "type": "uint256"
        },
        {
          "internalType": "uint256",
          "name": "punditAmount",
          "type": "uint256"
        },
        {
          "internalType": "uint256",
          "name": "odds",
          "type": "uint256"
        },
        {
          "internalType": "bool",
          "name": "sold",
          "type": "bool"
        },
        {
          "internalType": "enum BetManager.State",
          "name": "state",
          "type": "uint8"
        },
        {
          "internalType": "enum BetManager.MatchResult",
          "name": "result",
          "type": "uint8"
        },
        {
          "internalType": "address",
          "name": "bookie",
          "type": "address"
        },
        {
          "internalType": "address",
          "name": "pundit",
          "type": "address"
        }
      ],
      "payable": false,
      "stateMutability": "view",
      "type": "function"
    },
    {
      "constant": true,
      "inputs": [],
      "name": "owner",
      "outputs": [
        {
          "internalType": "address",
          "name": "",
          "type": "address"
        }
      ],
      "payable": false,
      "stateMutability": "view",
      "type": "function"
    },
    {
      "constant": true,
      "inputs": [],
      "name": "isOwner",
      "outputs": [
        {
          "internalType": "bool",
          "name": "",
          "type": "bool"
        }
      ],
      "payable": false,
      "stateMutability": "view",
      "type": "function"
    },
    {
      "constant": false,
      "inputs": [
        {
          "internalType": "uint256",
          "name": "_matchId",
          "type": "uint256"
        },
        {
          "internalType": "uint256",
          "name": "_sideId",
          "type": "uint256"
        },
        {
          "internalType": "uint256",
          "name": "_odds",
          "type": "uint256"
        }
      ],
      "name": "BookieLayOdds",
      "outputs": [
        {
          "internalType": "uint256",
          "name": "_id",
          "type": "uint256"
        }
      ],
      "payable": true,
      "stateMutability": "payable",
      "type": "function"
    },
    {
      "constant": false,
      "inputs": [
        {
          "internalType": "uint256",
          "name": "_matchId",
          "type": "uint256"
        },
        {
          "internalType": "uint256",
          "name": "_sideId",
          "type": "uint256"
        },
        {
          "internalType": "uint256",
          "name": "_odds",
          "type": "uint256"
        }
      ],
      "name": "PunditPlaceOpenBet",
      "outputs": [
        {
          "internalType": "uint256",
          "name": "_id",
          "type": "uint256"
        }
      ],
      "payable": true,
      "stateMutability": "payable",
      "type": "function"
    },
    {
      "constant": false,
      "inputs": [
        {
          "internalType": "uint256",
          "name": "_betId",
          "type": "uint256"
        }
      ],
      "name": "PunditTakeBet",
      "outputs": [
        {
          "internalType": "bool",
          "name": "",
          "type": "bool"
        }
      ],
      "payable": true,
      "stateMutability": "payable",
      "type": "function"
    },
    {
      "constant": false,
      "inputs": [
        {
          "internalType": "uint256",
          "name": "_betId",
          "type": "uint256"
        }
      ],
      "name": "BookieTakeBet",
      "outputs": [
        {
          "internalType": "bool",
          "name": "",
          "type": "bool"
        }
      ],
      "payable": true,
      "stateMutability": "payable",
      "type": "function"
    },
    {
      "constant": true,
      "inputs": [
        {
          "internalType": "uint256",
          "name": "_id",
          "type": "uint256"
        }
      ],
      "name": "GetBetById",
      "outputs": [
        {
          "internalType": "uint256",
          "name": "matchId",
          "type": "uint256"
        },
        {
          "internalType": "uint256",
          "name": "sideId",
          "type": "uint256"
        },
        {
          "internalType": "uint256",
          "name": "bookieAmount",
          "type": "uint256"
        },
        {
          "internalType": "uint256",
          "name": "punditAmount",
          "type": "uint256"
        },
        {
          "internalType": "uint256",
          "name": "odds",
          "type": "uint256"
        },
        {
          "internalType": "bool",
          "name": "sold",
          "type": "bool"
        },
        {
          "internalType": "enum BetManager.State",
          "name": "state",
          "type": "uint8"
        },
        {
          "internalType": "enum BetManager.MatchResult",
          "name": "result",
          "type": "uint8"
        },
        {
          "internalType": "address",
          "name": "bookie",
          "type": "address"
        },
        {
          "internalType": "address",
          "name": "pundit",
          "type": "address"
        }
      ],
      "payable": false,
      "stateMutability": "view",
      "type": "function"
    },
    {
      "constant": true,
      "inputs": [],
      "name": "ContractBalance",
      "outputs": [
        {
          "internalType": "uint256",
          "name": "_balance",
          "type": "uint256"
        }
      ],
      "payable": false,
      "stateMutability": "view",
      "type": "function"
    }
  ],
  "bytecode": "0x608060405234801561001057600080fd5b50336000806101000a81548173ffffffffffffffffffffffffffffffffffffffff021916908373ffffffffffffffffffffffffffffffffffffffff160217905550610fdc806100606000396000f3fe6080604052600436106100865760003560e01c80635f4bdff9116100595780635f4bdff91461030f57806387f809ad146103655780638da5cb5b146103bb5780638f32d59b14610412578063aa9d49c41461044157610086565b806322af00fa1461008b57806327685395146101985780632ec3a6581461029e5780633b668059146102e4575b600080fd5b34801561009757600080fd5b506100c4600480360360208110156100ae57600080fd5b8101908080359060200190929190505050610487565b604051808c81526020018b81526020018a81526020018981526020018881526020018781526020018615151515815260200185600281111561010257fe5b60ff16815260200184600281111561011657fe5b60ff1681526020018373ffffffffffffffffffffffffffffffffffffffff1673ffffffffffffffffffffffffffffffffffffffff1681526020018273ffffffffffffffffffffffffffffffffffffffff1673ffffffffffffffffffffffffffffffffffffffff1681526020019b50505050505050505050505060405180910390f35b3480156101a457600080fd5b506101d1600480360360208110156101bb57600080fd5b8101908080359060200190929190505050610555565b604051808b81526020018a81526020018981526020018881526020018781526020018615151515815260200185600281111561020957fe5b60ff16815260200184600281111561021d57fe5b60ff1681526020018373ffffffffffffffffffffffffffffffffffffffff1673ffffffffffffffffffffffffffffffffffffffff1681526020018273ffffffffffffffffffffffffffffffffffffffff1673ffffffffffffffffffffffffffffffffffffffff1681526020019a505050505050505050505060405180910390f35b6102ca600480360360208110156102b457600080fd5b810190808035906020019092919050505061066f565b604051808215151515815260200191505060405180910390f35b3480156102f057600080fd5b506102f96108b9565b6040518082815260200191505060405180910390f35b61034f6004803603606081101561032557600080fd5b810190808035906020019092919080359060200190929190803590602001909291905050506108c1565b6040518082815260200191505060405180910390f35b6103a56004803603606081101561037b57600080fd5b810190808035906020019092919080359060200190929190803590602001909291905050506109b4565b6040518082815260200191505060405180910390f35b3480156103c757600080fd5b506103d0610aa0565b604051808273ffffffffffffffffffffffffffffffffffffffff1673ffffffffffffffffffffffffffffffffffffffff16815260200191505060405180910390f35b34801561041e57600080fd5b50610427610ac5565b604051808215151515815260200191505060405180910390f35b61046d6004803603602081101561045757600080fd5b8101908080359060200190929190505050610b1c565b604051808215151515815260200191505060405180910390f35b6002818154811061049457fe5b90600052602060002090600802016000915090508060000154908060010154908060020154908060030154908060040154908060050154908060060160009054906101000a900460ff16908060060160019054906101000a900460ff16908060060160029054906101000a900460ff16908060060160039054906101000a900473ffffffffffffffffffffffffffffffffffffffff16908060070160009054906101000a900473ffffffffffffffffffffffffffffffffffffffff1690508b565b60008060008060008060008060008060006002600360008e8152602001908152602001600020548154811061058657fe5b9060005260206000209060080201905080600101549a50806002015499508060030154985080600401549750806005015496508060060160009054906101000a900460ff1695508060060160019054906101000a900460ff1694508060060160029054906101000a900460ff1693508060060160039054906101000a900473ffffffffffffffffffffffffffffffffffffffff1692508060070160009054906101000a900473ffffffffffffffffffffffffffffffffffffffff1691508a8a8a8a8a8a8a8a8a8a9a509a509a509a509a509a509a509a509a509a50509193959799509193959799565b600080600281111561067d57fe5b600260036000858152602001908152602001600020548154811061069d57fe5b906000526020600020906008020160060160019054906101000a900460ff1660028111156106c757fe5b146106d157600080fd5b6000151560026003600085815260200190815260200160002054815481106106f557fe5b906000526020600020906008020160060160009054906101000a900460ff1615151461072057600080fd5b6000600281111561072d57fe5b600260036000858152602001908152602001600020548154811061074d57fe5b906000526020600020906008020160060160029054906101000a900460ff16600281111561077757fe5b1461078157600080fd5b3460026003600085815260200190815260200160002054815481106107a257fe5b90600052602060002090600802016004015411156107bf57600080fd5b3360026003600085815260200190815260200160002054815481106107e057fe5b906000526020600020906008020160070160006101000a81548173ffffffffffffffffffffffffffffffffffffffff021916908373ffffffffffffffffffffffffffffffffffffffff1602179055506001600260036000858152602001908152602001600020548154811061085157fe5b906000526020600020906008020160060160006101000a81548160ff0219169083151502179055507f01fec1086d19ea0a4df72c834bec7b4009b91f31d83763b364b04cd88ebc092a826040518082815260200191505060405180910390a160019050919050565b600047905090565b6000606482116108d057600080fd5b66038d7ea4c6800034116108e357600080fd5b6108f38484846000336000610d67565b905034600260036000848152602001908152602001600020548154811061091657fe5b90600052602060002090600802016003018190555060648083038161093757fe5b04348161094057fe5b04600260036000848152602001908152602001600020548154811061096157fe5b9060005260206000209060080201600401819055507fa17dcd86131a79492209fb67427b6dcf5263e375a315d847e42a22ab90abd349816040518082815260200191505060405180910390a19392505050565b6000606482116109c357600080fd5b66038d7ea4c6800034116109d657600080fd5b6109e68484846001600033610d67565b9050346002600360008481526020019081526020016000205481548110610a0957fe5b906000526020600020906008020160040181905550343460648481610a2a57fe5b0402036002600360008481526020019081526020016000205481548110610a4d57fe5b9060005260206000209060080201600301819055507fdd3cea49c96c41984ed66c6d4f985798e1ef176e8d9c1325d337bc0f54ccdae1816040518082815260200191505060405180910390a19392505050565b6000809054906101000a900473ffffffffffffffffffffffffffffffffffffffff1681565b60008060009054906101000a900473ffffffffffffffffffffffffffffffffffffffff1673ffffffffffffffffffffffffffffffffffffffff163373ffffffffffffffffffffffffffffffffffffffff1614905090565b600060016002811115610b2b57fe5b6002600360008581526020019081526020016000205481548110610b4b57fe5b906000526020600020906008020160060160019054906101000a900460ff166002811115610b7557fe5b14610b7f57600080fd5b600015156002600360008581526020019081526020016000205481548110610ba357fe5b906000526020600020906008020160060160009054906101000a900460ff16151514610bce57600080fd5b60006002811115610bdb57fe5b6002600360008581526020019081526020016000205481548110610bfb57fe5b906000526020600020906008020160060160029054906101000a900460ff166002811115610c2557fe5b14610c2f57600080fd5b346002600360008581526020019081526020016000205481548110610c5057fe5b9060005260206000209060080201600301541115610c6d57600080fd5b336002600360008581526020019081526020016000205481548110610c8e57fe5b906000526020600020906008020160060160036101000a81548173ffffffffffffffffffffffffffffffffffffffff021916908373ffffffffffffffffffffffffffffffffffffffff16021790555060016002600360008581526020019081526020016000205481548110610cff57fe5b906000526020600020906008020160060160006101000a81548160ff0219169083151502179055507f01fec1086d19ea0a4df72c834bec7b4009b91f31d83763b364b04cd88ebc092a826040518082815260200191505060405180910390a160019050919050565b600080600160008154600101919050819055905060026040518061016001604052808381526020018a81526020018981526020016000815260200160008152602001888152602001600015158152602001876002811115610dc457fe5b815260200160006002811115610dd657fe5b81526020018673ffffffffffffffffffffffffffffffffffffffff1681526020018573ffffffffffffffffffffffffffffffffffffffff1681525090806001815401808255809150509060018203906000526020600020906008020160009091929091909150600082015181600001556020820151816001015560408201518160020155606082015181600301556080820151816004015560a0820151816005015560c08201518160060160006101000a81548160ff02191690831515021790555060e08201518160060160016101000a81548160ff02191690836002811115610ebc57fe5b02179055506101008201518160060160026101000a81548160ff02191690836002811115610ee657fe5b02179055506101208201518160060160036101000a81548173ffffffffffffffffffffffffffffffffffffffff021916908373ffffffffffffffffffffffffffffffffffffffff1602179055506101408201518160070160006101000a81548173ffffffffffffffffffffffffffffffffffffffff021916908373ffffffffffffffffffffffffffffffffffffffff16021790555050505060018103600360008381526020019081526020016000208190555080915050969550505050505056fea265627a7a723158207f612c4ca9d7ddf4507beff6dabb6dac25075c0dcd01dbb7a037cb9e4cc0eeb664736f6c63430005100032",
  "source": "// SPDX-License-Identifier: MIT\r\npragma solidity >=0.5.16 <0.9.0;\r\nimport \"./safemath.sol\";\r\ncontract BetManager {\r\n\r\n    address public owner;\r\n    uint256 betCounter;\r\n\r\n    Bet[] public bets;\r\n    mapping (uint256 => uint) private betMapping;\r\n    \r\n    enum State{ NeedPundit, NeedBookie, Matched }\r\n    enum MatchResult{ Undecided, BookieWon, PunditWon }\r\n\r\n    event BookieLayingOdds(uint256 id);\r\n    event PunditLookingForBookie(uint256 id);\r\n    event BetFinalized(uint256 id);\r\n\r\n    struct Bet {\r\n        uint256 id;\r\n        uint matchId; //each match will have a unique id\r\n        uint sideId; //will need to choose the winning side of the match\r\n        uint bookieAmount;\r\n        uint punditAmount;\r\n        uint256 odds; // 1.50 odds would be stored as 150 (*100).\r\n        bool sold;\r\n        State state;\r\n        MatchResult result;\r\n        address bookie; //account laying the odds (they do not want this bet to pay out)\r\n        address pundit; //account taking a punt on this outcome (they want to win)\r\n    }\r\n\r\n    function isOwner() public view returns(bool) {\r\n        return msg.sender == owner;\r\n    }\r\n\r\n    constructor() public {\r\n        owner = msg.sender;\r\n    }\r\n\r\n    modifier verifyCaller (address _address) { \r\n        require(isOwner());\r\n        _;\r\n    }\r\n\r\n    function BookieLayOdds(uint _matchId, uint _sideId, uint256 _odds) public payable returns (uint _id)\r\n    {\r\n        require(_odds > 100);\r\n        require(msg.value > 0.001 ether);\r\n        _id = CreateBet(_matchId, _sideId, _odds, State.NeedPundit, msg.sender, address(0));\r\n        bets[betMapping[_id]].bookieAmount = msg.value;\r\n        bets[betMapping[_id]].punditAmount = msg.value/((_odds-100)/100);\r\n        emit BookieLayingOdds(_id);\r\n    }\r\n\r\n    function PunditPlaceOpenBet(uint _matchId, uint _sideId, uint256 _odds) public payable returns (uint _id)\r\n    {\r\n        require(_odds > 100);\r\n        require(msg.value > 0.001 ether);\r\n        _id = CreateBet(_matchId, _sideId, _odds, State.NeedBookie, address(0), msg.sender);\r\n        bets[betMapping[_id]].punditAmount = msg.value;\r\n        bets[betMapping[_id]].bookieAmount = (_odds/100*msg.value)-msg.value;\r\n        emit PunditLookingForBookie(_id);\r\n    }\r\n\r\n    function CreateBet(uint _matchId, uint _sideId, uint256 _odds, State _state, address _bookie, address _pundit) private returns (uint) {\r\n        uint _betId = ++betCounter;\r\n\r\n        bets.push(Bet({\r\n            id: _betId,\r\n            matchId: _matchId, \r\n            sideId: _sideId,\r\n            bookieAmount: 0,\r\n            punditAmount: 0,\r\n            odds: _odds, \r\n            state: _state, \r\n            bookie: _bookie, \r\n            pundit: _pundit,\r\n            sold: false,\r\n            result: MatchResult.Undecided\r\n            }));\r\n\r\n        betMapping[_betId] = _betId-1;\r\n\r\n        return _betId;\r\n    }\r\n\r\n    function PunditTakeBet(uint _betId) public payable returns (bool) {\r\n        require(bets[betMapping[_betId]].state == State.NeedPundit);\r\n        require(bets[betMapping[_betId]].sold == false);\r\n        require(bets[betMapping[_betId]].result == MatchResult.Undecided);\r\n        require(bets[betMapping[_betId]].punditAmount <= msg.value);\r\n\r\n        bets[betMapping[_betId]].pundit = msg.sender;\r\n        bets[betMapping[_betId]].sold = true;\r\n\r\n        emit BetFinalized(_betId);\r\n        return true;\r\n    }\r\n\r\n    function BookieTakeBet(uint _betId) public payable returns (bool) {\r\n        require(bets[betMapping[_betId]].state == State.NeedBookie);\r\n        require(bets[betMapping[_betId]].sold == false);\r\n        require(bets[betMapping[_betId]].result == MatchResult.Undecided);\r\n        require(bets[betMapping[_betId]].bookieAmount <= msg.value);\r\n\r\n        bets[betMapping[_betId]].bookie = msg.sender;\r\n        bets[betMapping[_betId]].sold = true;\r\n\r\n        emit BetFinalized(_betId);\r\n        return true;\r\n    }\r\n\r\n    function GetBetById(uint _id) public view\r\n     returns (uint matchId, //each match will have a unique id\r\n        uint sideId, //will need to choose the winning side of the match\r\n        uint bookieAmount,\r\n        uint punditAmount,\r\n        uint256 odds, // 1.50 odds would be stored as 150 (*100).\r\n        bool sold,\r\n        State state,\r\n        MatchResult result,\r\n        address bookie, //account laying the odds (they do not want this bet to pay out)\r\n        address pundit)\r\n   { \r\n     Bet storage bet = bets[betMapping[_id]];\r\n     matchId = bet.matchId;\r\n     sideId = bet.sideId;\r\n     bookieAmount = bet.bookieAmount;\r\n     punditAmount = bet.punditAmount;\r\n     odds = bet.odds;\r\n     sold = bet.sold;\r\n     state = bet.state;\r\n     result = bet.result; \r\n     bookie = bet.bookie; \r\n     pundit = bet.pundit; \r\n     return (matchId, sideId, bookieAmount, punditAmount, odds, sold, state, result, bookie, pundit); \r\n   }\r\n\r\n    function ContractBalance() public view returns (uint256 _balance) {\r\n        _balance = address(this).balance;\r\n    }\r\n\r\n}\r\n\r\n",
  "sourcePath": "E:\\GIT\\blockchain-developer-bootcamp-final-project\\contracts\\BetManager.sol",
  "compiler": {
    "name": "solc",
    "version": "0.5.16+commit.9c3226ce.Emscripten.clang"
  },
  "schemaVersion": "3.4.3",
  "updatedAt": "2021-10-14T11:43:24.439Z",
  "devdoc": {
    "methods": {}
  },
  "userdoc": {
    "methods": {}
  }
}