{
  "contractName": "BetManager",
  "abi": [
    {
      "inputs": [],
      "payable": false,
      "stateMutability": "nonpayable",
      "type": "constructor"
    },
    {
      "anonymous": false,
      "inputs": [
        {
          "indexed": false,
          "internalType": "uint256",
          "name": "id",
          "type": "uint256"
        }
      ],
      "name": "BetPlaced",
      "type": "event"
    },
    {
      "anonymous": false,
      "inputs": [
        {
          "indexed": false,
          "internalType": "uint256",
          "name": "id",
          "type": "uint256"
        }
      ],
      "name": "BookieProvidingLiquidity",
      "type": "event"
    },
    {
      "payable": true,
      "stateMutability": "payable",
      "type": "fallback"
    },
    {
      "constant": true,
      "inputs": [
        {
          "internalType": "uint256",
          "name": "",
          "type": "uint256"
        }
      ],
      "name": "betPools",
      "outputs": [
        {
          "internalType": "uint256",
          "name": "id",
          "type": "uint256"
        },
        {
          "internalType": "address payable",
          "name": "bookie",
          "type": "address"
        },
        {
          "internalType": "uint256",
          "name": "matchId",
          "type": "uint256"
        },
        {
          "internalType": "uint256",
          "name": "sideId",
          "type": "uint256"
        },
        {
          "internalType": "uint256",
          "name": "remainingLiquidity",
          "type": "uint256"
        },
        {
          "internalType": "uint256",
          "name": "odds",
          "type": "uint256"
        },
        {
          "internalType": "bool",
          "name": "closed",
          "type": "bool"
        }
      ],
      "payable": false,
      "stateMutability": "view",
      "type": "function"
    },
    {
      "constant": true,
      "inputs": [
        {
          "internalType": "uint256",
          "name": "",
          "type": "uint256"
        }
      ],
      "name": "bets",
      "outputs": [
        {
          "internalType": "uint256",
          "name": "id",
          "type": "uint256"
        },
        {
          "internalType": "uint256",
          "name": "liquidityId",
          "type": "uint256"
        },
        {
          "internalType": "uint256",
          "name": "bookiePayout",
          "type": "uint256"
        },
        {
          "internalType": "uint256",
          "name": "punditPayout",
          "type": "uint256"
        },
        {
          "internalType": "address payable",
          "name": "pundit",
          "type": "address"
        },
        {
          "internalType": "enum BetManager.MatchResult",
          "name": "result",
          "type": "uint8"
        }
      ],
      "payable": false,
      "stateMutability": "view",
      "type": "function"
    },
    {
      "constant": true,
      "inputs": [],
      "name": "owner",
      "outputs": [
        {
          "internalType": "address payable",
          "name": "",
          "type": "address"
        }
      ],
      "payable": false,
      "stateMutability": "view",
      "type": "function"
    },
    {
      "constant": true,
      "inputs": [],
      "name": "isOwner",
      "outputs": [
        {
          "internalType": "bool",
          "name": "",
          "type": "bool"
        }
      ],
      "payable": false,
      "stateMutability": "view",
      "type": "function"
    },
    {
      "constant": false,
      "inputs": [
        {
          "internalType": "uint256",
          "name": "_matchId",
          "type": "uint256"
        },
        {
          "internalType": "uint256",
          "name": "_sideId",
          "type": "uint256"
        },
        {
          "internalType": "uint256",
          "name": "_odds",
          "type": "uint256"
        }
      ],
      "name": "addLiquidity",
      "outputs": [
        {
          "internalType": "uint256",
          "name": "_id",
          "type": "uint256"
        }
      ],
      "payable": true,
      "stateMutability": "payable",
      "type": "function"
    },
    {
      "constant": false,
      "inputs": [
        {
          "internalType": "uint256",
          "name": "_liquidityId",
          "type": "uint256"
        }
      ],
      "name": "placeBet",
      "outputs": [
        {
          "internalType": "uint256",
          "name": "_id",
          "type": "uint256"
        }
      ],
      "payable": true,
      "stateMutability": "payable",
      "type": "function"
    },
    {
      "constant": false,
      "inputs": [
        {
          "internalType": "uint256",
          "name": "_betId",
          "type": "uint256"
        },
        {
          "internalType": "enum BetManager.MatchResult",
          "name": "_result",
          "type": "uint8"
        }
      ],
      "name": "setResult",
      "outputs": [
        {
          "internalType": "bool",
          "name": "_success",
          "type": "bool"
        }
      ],
      "payable": true,
      "stateMutability": "payable",
      "type": "function"
    },
    {
      "constant": true,
      "inputs": [
        {
          "internalType": "uint256",
          "name": "_id",
          "type": "uint256"
        }
      ],
      "name": "getLiquidityById",
      "outputs": [
        {
          "internalType": "uint256",
          "name": "matchId",
          "type": "uint256"
        },
        {
          "internalType": "uint256",
          "name": "sideId",
          "type": "uint256"
        },
        {
          "internalType": "uint256",
          "name": "remainingLiquidity",
          "type": "uint256"
        },
        {
          "internalType": "bool",
          "name": "closed",
          "type": "bool"
        }
      ],
      "payable": false,
      "stateMutability": "view",
      "type": "function"
    },
    {
      "constant": true,
      "inputs": [
        {
          "internalType": "uint256",
          "name": "_id",
          "type": "uint256"
        }
      ],
      "name": "getBetById",
      "outputs": [
        {
          "internalType": "uint256",
          "name": "liquidityId",
          "type": "uint256"
        },
        {
          "internalType": "uint256",
          "name": "bookiePayout",
          "type": "uint256"
        },
        {
          "internalType": "uint256",
          "name": "punditPayout",
          "type": "uint256"
        },
        {
          "internalType": "address",
          "name": "pundit",
          "type": "address"
        },
        {
          "internalType": "enum BetManager.MatchResult",
          "name": "result",
          "type": "uint8"
        }
      ],
      "payable": false,
      "stateMutability": "view",
      "type": "function"
    },
    {
      "constant": true,
      "inputs": [],
      "name": "contractBalance",
      "outputs": [
        {
          "internalType": "uint256",
          "name": "_balance",
          "type": "uint256"
        }
      ],
      "payable": false,
      "stateMutability": "view",
      "type": "function"
    }
  ],
  "bytecode": "0x608060405266038d7ea4c6800060035566038d7ea4c6800060045534801561002657600080fd5b50336000806101000a81548173ffffffffffffffffffffffffffffffffffffffff021916908373ffffffffffffffffffffffffffffffffffffffff160217905550610e1d806100766000396000f3fe6080604052600436106100915760003560e01c80638b7afe2e116100595780638b7afe2e146102d25780638da5cb5b146102fd5780638f32d59b146103545780639b5fa0a514610383578063ca133d81146103eb57610091565b806310fe7c481461009657806322af00fa146100d8578063422f10431461018457806356150a36146101da578063605c43de1461022d575b600080fd5b6100c2600480360360208110156100ac57600080fd5b8101908080359060200190929190505050610494565b6040518082815260200191505060405180910390f35b3480156100e457600080fd5b50610111600480360360208110156100fb57600080fd5b81019080803590602001909291905050506106ea565b604051808781526020018681526020018581526020018481526020018373ffffffffffffffffffffffffffffffffffffffff1673ffffffffffffffffffffffffffffffffffffffff16815260200182600381111561016b57fe5b60ff168152602001965050505050505060405180910390f35b6101c46004803603606081101561019a57600080fd5b81019080803590602001909291908035906020019092919080359060200190929190505050610760565b6040518082815260200191505060405180910390f35b610213600480360360408110156101f057600080fd5b8101908080359060200190929190803560ff1690602001909291905050506108fd565b604051808215151515815260200191505060405180910390f35b34801561023957600080fd5b506102666004803603602081101561025057600080fd5b8101908080359060200190929190505050610b6a565b604051808681526020018581526020018481526020018373ffffffffffffffffffffffffffffffffffffffff1673ffffffffffffffffffffffffffffffffffffffff1681526020018260038111156102ba57fe5b60ff1681526020019550505050505060405180910390f35b3480156102de57600080fd5b506102e7610c0c565b6040518082815260200191505060405180910390f35b34801561030957600080fd5b50610312610c14565b604051808273ffffffffffffffffffffffffffffffffffffffff1673ffffffffffffffffffffffffffffffffffffffff16815260200191505060405180910390f35b34801561036057600080fd5b50610369610c39565b604051808215151515815260200191505060405180910390f35b34801561038f57600080fd5b506103bc600480360360208110156103a657600080fd5b8101908080359060200190929190505050610c90565b604051808581526020018481526020018381526020018215151515815260200194505050505060405180910390f35b3480156103f757600080fd5b506104246004803603602081101561040e57600080fd5b8101908080359060200190929190505050610d05565b604051808881526020018773ffffffffffffffffffffffffffffffffffffffff1673ffffffffffffffffffffffffffffffffffffffff1681526020018681526020018581526020018481526020018381526020018215151515815260200197505050505050505060405180910390f35b60006003543410156104a557600080fd5b600060076008600085815260200190815260200160002054815481106104c757fe5b90600052602060002090600702019050600015158160060160009054906101000a900460ff161515146104f957600080fd5b60003461051461050d348560050154610d81565b6064610db8565b039050808260040154101561052857600080fd5b600160008154600101919050819055925060056040518060c001604052808581526020018681526020013481526020018381526020013373ffffffffffffffffffffffffffffffffffffffff1681526020016000600381111561058757fe5b815250908060018154018082558091505090600182039060005260206000209060050201600090919290919091506000820151816000015560208201518160010155604082015181600201556060820151816003015560808201518160040160006101000a81548173ffffffffffffffffffffffffffffffffffffffff021916908373ffffffffffffffffffffffffffffffffffffffff16021790555060a08201518160040160146101000a81548160ff0219169083600381111561064857fe5b0217905550505050600183036006600085815260200190815260200160002081905550610679826004015482610dd1565b82600401819055506000826004015414156106ac5760018260060160006101000a81548160ff0219169083151502179055505b7fde1fae6a99c0f84e9bee8b7f9d2d7663e46384ff079f389d5b4b6018b56e56e9836040518082815260200191505060405180910390a15050919050565b600581815481106106f757fe5b90600052602060002090600502016000915090508060000154908060010154908060020154908060030154908060040160009054906101000a900473ffffffffffffffffffffffffffffffffffffffff16908060040160149054906101000a900460ff16905086565b60006064821161076f57600080fd5b60045434101561077e57600080fd5b600260008154600101919050819055905060076040518060e001604052808381526020013373ffffffffffffffffffffffffffffffffffffffff16815260200186815260200185815260200134815260200184815260200160001515815250908060018154018082558091505090600182039060005260206000209060070201600090919290919091506000820151816000015560208201518160010160006101000a81548173ffffffffffffffffffffffffffffffffffffffff021916908373ffffffffffffffffffffffffffffffffffffffff16021790555060408201518160020155606082015181600301556080820151816004015560a0820151816005015560c08201518160060160006101000a81548160ff0219169083151502179055505050506001810360086000838152602001908152602001600020819055507fc2b9787b5865f184d65978c61b1c3fbd1b06bdd85ec4abac835122473ea9d4d9816040518082815260200191505060405180910390a19392505050565b6000610907610c39565b61091057600080fd5b6000341461091d57600080fd5b6000600560066000868152602001908152602001600020548154811061093f57fe5b90600052602060002090600502019050600060076008600084600101548152602001908152602001600020548154811061097557fe5b906000526020600020906007020190506000600381111561099257fe5b8260040160149054906101000a900460ff1660038111156109af57fe5b146109b957600080fd5b838260040160146101000a81548160ff021916908360038111156109d957fe5b0217905550600160038111156109eb57fe5b8460038111156109f757fe5b1415610b01576000610a0e83600201546064610db8565b905060008184600301548560020154856004015401010390508260010160009054906101000a900473ffffffffffffffffffffffffffffffffffffffff1673ffffffffffffffffffffffffffffffffffffffff166108fc829081150290604051600060405180830381858888f19350505050158015610a91573d6000803e3d6000fd5b506000809054906101000a900473ffffffffffffffffffffffffffffffffffffffff1673ffffffffffffffffffffffffffffffffffffffff166108fc839081150290604051600060405180830381858888f19350505050158015610af9573d6000803e3d6000fd5b505050610b41565b60026003811115610b0e57fe5b846003811115610b1a57fe5b1415610b2557610b40565b600380811115610b3157fe5b846003811115610b3d57fe5b50505b5b60018160060160006101000a81548160ff02191690831515021790555060019250505092915050565b6000806000806000806005600660008981526020019081526020016000205481548110610b9357fe5b906000526020600020906005020190508060010154955080600201549450806003015493508060040160009054906101000a900473ffffffffffffffffffffffffffffffffffffffff1692508060040160149054906101000a900460ff1691508585858585955095509550955095505091939590929450565b600047905090565b6000809054906101000a900473ffffffffffffffffffffffffffffffffffffffff1681565b60008060009054906101000a900473ffffffffffffffffffffffffffffffffffffffff1673ffffffffffffffffffffffffffffffffffffffff163373ffffffffffffffffffffffffffffffffffffffff1614905090565b60008060008060006007600860008881526020019081526020016000205481548110610cb857fe5b906000526020600020906007020190508060020154945080600301549350806004015492508060060160009054906101000a900460ff169150848484849450945094509450509193509193565b60078181548110610d1257fe5b90600052602060002090600702016000915090508060000154908060010160009054906101000a900473ffffffffffffffffffffffffffffffffffffffff16908060020154908060030154908060040154908060050154908060060160009054906101000a900460ff16905087565b600080831415610d945760009050610db2565b6000828402905082848281610da557fe5b0414610dad57fe5b809150505b92915050565b600080828481610dc457fe5b0490508091505092915050565b600082821115610ddd57fe5b81830390509291505056fea265627a7a72315820f98a6a321a49233216ceb30ac415ccd7c87964911b71d854abdfcd3a60a598f964736f6c63430005100032",
  "source": "// SPDX-License-Identifier: MIT\r\npragma solidity >=0.5.16 <0.9.0;\r\nimport \"./safemath.sol\";\r\ncontract BetManager {\r\n\r\n    address payable public owner;\r\n    uint256 betCounter;\r\n    uint256 liquidityCounter;\r\n    uint minBet = 0.001 ether;\r\n    uint minLiquidity = 0.001 ether;\r\n\r\n    Bet[] public bets;\r\n    mapping (uint256 => uint) private betMapping;\r\n\r\n    Liquidity[] public betPools;\r\n    mapping (uint256 => uint) private poolMapping;\r\n    \r\n    enum MatchResult{ Undecided, BookieWon, PunditWon, Void }\r\n\r\n    event BookieProvidingLiquidity(uint256 id);\r\n    event BetPlaced(uint256 id);\r\n\r\n    struct Bet {\r\n        uint256 id;\r\n        uint256 liquidityId;\r\n        uint bookiePayout;\r\n        uint punditPayout;\r\n        address payable pundit; //account taking a punt on this outcome (they want to win)\r\n        MatchResult result;\r\n    }\r\n\r\n    struct Liquidity {\r\n        uint256 id;\r\n        address payable bookie; //account laying the odds (they do not want this bet to pay out)\r\n        uint matchId; //each match will have a unique id\r\n        uint sideId; //will need to choose the winning side of the match\r\n        uint remainingLiquidity;\r\n        uint256 odds; // 1.50 odds would be stored as 150 (*100).\r\n        bool closed;\r\n    }\r\n\r\n\r\n      /* \r\n   * Modifiers\r\n   */\r\n\r\n  // Create a modifer, `isOwner` that checks if the msg.sender is the owner of the contract\r\n  function isOwner() public view returns(bool) {\r\n    return msg.sender == owner;\r\n  }\r\n\r\n\r\n    // Fallback function - Called if other functions don't match call or\r\n    // sent ether without data\r\n    // Typically, called when invalid data is sent\r\n    // Added so ether sent to this contract is reverted if the contract fails\r\n    // otherwise, the sender's money is transferred to contract\r\n    function () external payable {\r\n        revert();\r\n    }\r\n\r\n    constructor() public {\r\n        owner = msg.sender;\r\n    }\r\n\r\n    \r\n    function addLiquidity(uint _matchId, uint _sideId, uint256 _odds) public payable returns (uint _id)\r\n    {\r\n        require(_odds > 100);\r\n        require(msg.value >= minLiquidity);\r\n\r\n        _id = ++liquidityCounter;\r\n\r\n        betPools.push(Liquidity({\r\n            id: _id,\r\n            bookie: msg.sender,\r\n            matchId: _matchId, \r\n            sideId: _sideId,\r\n            remainingLiquidity: msg.value,\r\n            odds: _odds, \r\n            closed: false\r\n            }));\r\n\r\n        poolMapping[_id] = _id-1;\r\n\r\n        emit BookieProvidingLiquidity(_id);\r\n\r\n    }\r\n\r\n    function placeBet(uint256 _liquidityId) public payable returns (uint256 _id)\r\n    {\r\n        require(msg.value >= minBet);\r\n        \r\n        Liquidity storage _l = betPools[poolMapping[_liquidityId]];\r\n        require(_l.closed == false);\r\n\r\n        uint256 poolRequired = SafeMath.div(SafeMath.mul(msg.value, _l.odds), 100)-msg.value;\r\n        require(_l.remainingLiquidity >= poolRequired);\r\n\r\n        _id = ++betCounter;\r\n\r\n        bets.push(Bet({\r\n            id: _id,\r\n            liquidityId: _liquidityId, \r\n            bookiePayout: msg.value, //the amount paid to the bookie if they win (they will get their collateral back as well)\r\n            punditPayout: poolRequired, //the amount paid to the pundit if they win (they also get their stake back)\r\n            pundit: msg.sender,\r\n            result: MatchResult.Undecided\r\n            }));\r\n\r\n        betMapping[_id] = _id-1;\r\n\r\n        _l.remainingLiquidity = SafeMath.sub(_l.remainingLiquidity, poolRequired);\r\n        if (_l.remainingLiquidity == 0)\r\n        {\r\n            _l.closed = true;\r\n        }\r\n\r\n        emit BetPlaced(_id);\r\n\r\n    }\r\n\r\n    function setResult(uint256 _betId, MatchResult _result) public payable returns (bool _success) {\r\n        require(isOwner());\r\n        require(msg.value == 0);\r\n\r\n        Bet storage _bet = bets[betMapping[_betId]];\r\n        Liquidity storage _l = betPools[poolMapping[_bet.liquidityId]];\r\n        require(_bet.result == MatchResult.Undecided);\r\n\r\n        _bet.result = _result;\r\n\r\n        if (_result == MatchResult.BookieWon)\r\n        {\r\n            uint256 fee = SafeMath.div(_bet.bookiePayout, 100);\r\n            uint256 payout = _l.remainingLiquidity + _bet.bookiePayout + _bet.punditPayout - fee;\r\n            _l.bookie.transfer(payout);\r\n            owner.transfer(fee);\r\n        }\r\n        else if (_result == MatchResult.PunditWon)\r\n        {\r\n\r\n        }\r\n        else if (_result == MatchResult.Void)\r\n        {\r\n            //refund their money as the match was cancelled\r\n        }\r\n\r\n        _l.closed = true;\r\n\r\n        _success = true;\r\n\r\n    }\r\n\r\n\r\n    function getLiquidityById(uint _id) public view returns (uint matchId, uint sideId, uint256 remainingLiquidity, bool closed)\r\n    {\r\n        Liquidity storage _l = betPools[poolMapping[_id]];\r\n        matchId = _l.matchId;\r\n        sideId = _l.sideId;\r\n        remainingLiquidity = _l.remainingLiquidity;\r\n        closed = _l.closed;\r\n        return (matchId, sideId, remainingLiquidity, closed);\r\n    }\r\n\r\n    function getBetById(uint _id) public view returns (uint256 liquidityId, uint bookiePayout, uint punditPayout, address pundit, MatchResult result)\r\n    {\r\n        Bet storage bet = bets[betMapping[_id]];\r\n        liquidityId = bet.liquidityId;\r\n        bookiePayout = bet.bookiePayout;\r\n        punditPayout = bet.punditPayout;\r\n        pundit = bet.pundit;\r\n        result = bet.result;\r\n        return (liquidityId, bookiePayout, punditPayout, pundit, result);\r\n    }\r\n\r\n\r\n    function contractBalance() public view returns (uint256 _balance) {\r\n        _balance = address(this).balance;\r\n    }\r\n\r\n}\r\n\r\n",
  "sourcePath": "E:\\GIT\\blockchain-developer-bootcamp-final-project\\contracts\\BetManager.sol",
  "compiler": {
    "name": "solc",
    "version": "0.5.16+commit.9c3226ce.Emscripten.clang"
  },
  "schemaVersion": "3.4.3",
  "updatedAt": "2021-10-14T19:34:01.677Z",
  "devdoc": {
    "methods": {}
  },
  "userdoc": {
    "methods": {}
  }
}