{
  "contractName": "BetManager",
  "abi": [
    {
      "inputs": [],
      "payable": false,
      "stateMutability": "nonpayable",
      "type": "constructor"
    },
    {
      "anonymous": false,
      "inputs": [
        {
          "indexed": false,
          "internalType": "uint256",
          "name": "id",
          "type": "uint256"
        }
      ],
      "name": "BetPlaced",
      "type": "event"
    },
    {
      "anonymous": false,
      "inputs": [
        {
          "indexed": false,
          "internalType": "uint256",
          "name": "id",
          "type": "uint256"
        }
      ],
      "name": "BetResult",
      "type": "event"
    },
    {
      "anonymous": false,
      "inputs": [
        {
          "indexed": false,
          "internalType": "uint256",
          "name": "id",
          "type": "uint256"
        }
      ],
      "name": "BookieProvidingLiquidity",
      "type": "event"
    },
    {
      "payable": true,
      "stateMutability": "payable",
      "type": "fallback"
    },
    {
      "constant": true,
      "inputs": [
        {
          "internalType": "uint256",
          "name": "",
          "type": "uint256"
        }
      ],
      "name": "betPools",
      "outputs": [
        {
          "internalType": "uint256",
          "name": "id",
          "type": "uint256"
        },
        {
          "internalType": "address payable",
          "name": "bookie",
          "type": "address"
        },
        {
          "internalType": "uint256",
          "name": "matchId",
          "type": "uint256"
        },
        {
          "internalType": "uint256",
          "name": "sideId",
          "type": "uint256"
        },
        {
          "internalType": "uint256",
          "name": "remainingLiquidity",
          "type": "uint256"
        },
        {
          "internalType": "uint256",
          "name": "odds",
          "type": "uint256"
        },
        {
          "internalType": "bool",
          "name": "closed",
          "type": "bool"
        }
      ],
      "payable": false,
      "stateMutability": "view",
      "type": "function"
    },
    {
      "constant": true,
      "inputs": [
        {
          "internalType": "uint256",
          "name": "",
          "type": "uint256"
        }
      ],
      "name": "bets",
      "outputs": [
        {
          "internalType": "uint256",
          "name": "id",
          "type": "uint256"
        },
        {
          "internalType": "uint256",
          "name": "liquidityId",
          "type": "uint256"
        },
        {
          "internalType": "uint256",
          "name": "bookieCollateral",
          "type": "uint256"
        },
        {
          "internalType": "uint256",
          "name": "punditCollateral",
          "type": "uint256"
        },
        {
          "internalType": "uint256",
          "name": "bookiePayout",
          "type": "uint256"
        },
        {
          "internalType": "uint256",
          "name": "punditPayout",
          "type": "uint256"
        },
        {
          "internalType": "uint256",
          "name": "feePaid",
          "type": "uint256"
        },
        {
          "internalType": "address payable",
          "name": "bookie",
          "type": "address"
        },
        {
          "internalType": "address payable",
          "name": "pundit",
          "type": "address"
        },
        {
          "internalType": "enum BetManager.MatchResult",
          "name": "result",
          "type": "uint8"
        },
        {
          "internalType": "bool",
          "name": "closed",
          "type": "bool"
        }
      ],
      "payable": false,
      "stateMutability": "view",
      "type": "function"
    },
    {
      "constant": true,
      "inputs": [],
      "name": "owner",
      "outputs": [
        {
          "internalType": "address payable",
          "name": "",
          "type": "address"
        }
      ],
      "payable": false,
      "stateMutability": "view",
      "type": "function"
    },
    {
      "constant": true,
      "inputs": [],
      "name": "isOwner",
      "outputs": [
        {
          "internalType": "bool",
          "name": "",
          "type": "bool"
        }
      ],
      "payable": false,
      "stateMutability": "view",
      "type": "function"
    },
    {
      "constant": false,
      "inputs": [
        {
          "internalType": "uint256",
          "name": "_matchId",
          "type": "uint256"
        },
        {
          "internalType": "uint256",
          "name": "_sideId",
          "type": "uint256"
        },
        {
          "internalType": "uint256",
          "name": "_odds",
          "type": "uint256"
        }
      ],
      "name": "addLiquidity",
      "outputs": [
        {
          "internalType": "uint256",
          "name": "_id",
          "type": "uint256"
        }
      ],
      "payable": true,
      "stateMutability": "payable",
      "type": "function"
    },
    {
      "constant": false,
      "inputs": [
        {
          "internalType": "uint256",
          "name": "_liquidityId",
          "type": "uint256"
        }
      ],
      "name": "placeBet",
      "outputs": [
        {
          "internalType": "uint256",
          "name": "_id",
          "type": "uint256"
        }
      ],
      "payable": true,
      "stateMutability": "payable",
      "type": "function"
    },
    {
      "constant": false,
      "inputs": [
        {
          "internalType": "uint256",
          "name": "_betId",
          "type": "uint256"
        },
        {
          "internalType": "enum BetManager.MatchResult",
          "name": "_result",
          "type": "uint8"
        }
      ],
      "name": "setResult",
      "outputs": [
        {
          "internalType": "bool",
          "name": "_success",
          "type": "bool"
        }
      ],
      "payable": true,
      "stateMutability": "payable",
      "type": "function"
    },
    {
      "constant": false,
      "inputs": [
        {
          "internalType": "uint256",
          "name": "_id",
          "type": "uint256"
        }
      ],
      "name": "refundLiquidity",
      "outputs": [
        {
          "internalType": "bool",
          "name": "_result",
          "type": "bool"
        }
      ],
      "payable": true,
      "stateMutability": "payable",
      "type": "function"
    },
    {
      "constant": true,
      "inputs": [
        {
          "internalType": "uint256",
          "name": "_id",
          "type": "uint256"
        }
      ],
      "name": "getLiquidityById",
      "outputs": [
        {
          "internalType": "uint256",
          "name": "matchId",
          "type": "uint256"
        },
        {
          "internalType": "uint256",
          "name": "sideId",
          "type": "uint256"
        },
        {
          "internalType": "uint256",
          "name": "remainingLiquidity",
          "type": "uint256"
        },
        {
          "internalType": "bool",
          "name": "closed",
          "type": "bool"
        }
      ],
      "payable": false,
      "stateMutability": "view",
      "type": "function"
    },
    {
      "constant": true,
      "inputs": [
        {
          "internalType": "uint256",
          "name": "_id",
          "type": "uint256"
        }
      ],
      "name": "getBetById",
      "outputs": [
        {
          "internalType": "uint256",
          "name": "liquidityId",
          "type": "uint256"
        },
        {
          "internalType": "uint256",
          "name": "bookieCollateral",
          "type": "uint256"
        },
        {
          "internalType": "uint256",
          "name": "punditCollateral",
          "type": "uint256"
        },
        {
          "internalType": "uint256",
          "name": "bookiePayout",
          "type": "uint256"
        },
        {
          "internalType": "uint256",
          "name": "punditPayout",
          "type": "uint256"
        },
        {
          "internalType": "uint256",
          "name": "feePaid",
          "type": "uint256"
        },
        {
          "internalType": "address",
          "name": "pundit",
          "type": "address"
        },
        {
          "internalType": "address",
          "name": "bookie",
          "type": "address"
        },
        {
          "internalType": "enum BetManager.MatchResult",
          "name": "result",
          "type": "uint8"
        },
        {
          "internalType": "bool",
          "name": "closed",
          "type": "bool"
        }
      ],
      "payable": false,
      "stateMutability": "view",
      "type": "function"
    },
    {
      "constant": true,
      "inputs": [],
      "name": "contractBalance",
      "outputs": [
        {
          "internalType": "uint256",
          "name": "_balance",
          "type": "uint256"
        }
      ],
      "payable": false,
      "stateMutability": "view",
      "type": "function"
    }
  ],
  "bytecode": "0x608060405266038d7ea4c6800060035566038d7ea4c6800060045534801561002657600080fd5b50336000806101000a81548173ffffffffffffffffffffffffffffffffffffffff021916908373ffffffffffffffffffffffffffffffffffffffff16021790555061141f806100766000396000f3fe60806040526004361061009b5760003560e01c8063605c43de11610064578063605c43de146102d05780638b7afe2e146103c85780638da5cb5b146103f35780638f32d59b1461044a5780639b5fa0a514610479578063ca133d81146104e15761009b565b806221958d146100a057806310fe7c48146100e657806322af00fa14610128578063422f10431461022757806356150a361461027d575b600080fd5b6100cc600480360360208110156100b657600080fd5b810190808035906020019092919050505061058a565b604051808215151515815260200191505060405180910390f35b610112600480360360208110156100fc57600080fd5b810190808035906020019092919050505061069e565b6040518082815260200191505060405180910390f35b34801561013457600080fd5b506101616004803603602081101561014b57600080fd5b8101908080359060200190929190505050610a38565b604051808c81526020018b81526020018a81526020018981526020018881526020018781526020018681526020018573ffffffffffffffffffffffffffffffffffffffff1673ffffffffffffffffffffffffffffffffffffffff1681526020018473ffffffffffffffffffffffffffffffffffffffff1673ffffffffffffffffffffffffffffffffffffffff1681526020018360038111156101ff57fe5b60ff168152602001821515151581526020019b50505050505050505050505060405180910390f35b6102676004803603606081101561023d57600080fd5b81019080803590602001909291908035906020019092919080359060200190929190505050610af9565b6040518082815260200191505060405180910390f35b6102b66004803603604081101561029357600080fd5b8101908080359060200190929190803560ff169060200190929190505050610ca4565b604051808215151515815260200191505060405180910390f35b3480156102dc57600080fd5b50610309600480360360208110156102f357600080fd5b8101908080359060200190929190505050611101565b604051808b81526020018a81526020018981526020018881526020018781526020018681526020018573ffffffffffffffffffffffffffffffffffffffff1673ffffffffffffffffffffffffffffffffffffffff1681526020018473ffffffffffffffffffffffffffffffffffffffff1673ffffffffffffffffffffffffffffffffffffffff1681526020018360038111156103a157fe5b60ff168152602001821515151581526020019a505050505050505050505060405180910390f35b3480156103d457600080fd5b506103dd61120e565b6040518082815260200191505060405180910390f35b3480156103ff57600080fd5b50610408611216565b604051808273ffffffffffffffffffffffffffffffffffffffff1673ffffffffffffffffffffffffffffffffffffffff16815260200191505060405180910390f35b34801561045657600080fd5b5061045f61123b565b604051808215151515815260200191505060405180910390f35b34801561048557600080fd5b506104b26004803603602081101561049c57600080fd5b8101908080359060200190929190505050611292565b604051808581526020018481526020018381526020018215151515815260200194505050505060405180910390f35b3480156104ed57600080fd5b5061051a6004803603602081101561050457600080fd5b8101908080359060200190929190505050611307565b604051808881526020018773ffffffffffffffffffffffffffffffffffffffff1673ffffffffffffffffffffffffffffffffffffffff1681526020018681526020018581526020018481526020018381526020018215151515815260200197505050505050505060405180910390f35b600061059461123b565b61059d57600080fd5b600034146105aa57600080fd5b600060076008600085815260200190815260200160002054815481106105cc57fe5b906000526020600020906007020190508060060160009054906101000a900460ff16156105f857600080fd5b60018160060160006101000a81548160ff021916908315150217905550600081600401549050600082600401819055508160010160009054906101000a900473ffffffffffffffffffffffffffffffffffffffff1673ffffffffffffffffffffffffffffffffffffffff166108fc829081150290604051600060405180830381858888f19350505050158015610692573d6000803e3d6000fd5b50600192505050919050565b60006003543410156106af57600080fd5b600060076008600085815260200190815260200160002054815481106106d157fe5b90600052602060002090600702019050600015158160060160009054906101000a900460ff1615151461070357600080fd5b8060010160009054906101000a900473ffffffffffffffffffffffffffffffffffffffff1673ffffffffffffffffffffffffffffffffffffffff163373ffffffffffffffffffffffffffffffffffffffff16141561076057600080fd5b60003461077b610774348560050154611383565b60646113ba565b039050808260040154101561078f57600080fd5b600160008154600101919050819055925060056040518061016001604052808581526020018681526020018381526020013481526020016000815260200160008152602001600081526020018460010160009054906101000a900473ffffffffffffffffffffffffffffffffffffffff1673ffffffffffffffffffffffffffffffffffffffff1681526020013373ffffffffffffffffffffffffffffffffffffffff1681526020016000600381111561084457fe5b81526020016000151581525090806001815401808255809150509060018203906000526020600020906009020160009091929091909150600082015181600001556020820151816001015560408201518160020155606082015181600301556080820151816004015560a0820151816005015560c0820151816006015560e08201518160070160006101000a81548173ffffffffffffffffffffffffffffffffffffffff021916908373ffffffffffffffffffffffffffffffffffffffff1602179055506101008201518160080160006101000a81548173ffffffffffffffffffffffffffffffffffffffff021916908373ffffffffffffffffffffffffffffffffffffffff1602179055506101208201518160080160146101000a81548160ff0219169083600381111561097557fe5b02179055506101408201518160080160156101000a81548160ff0219169083151502179055505050506001830360066000858152602001908152602001600020819055506109c78260040154826113d3565b82600401819055506000826004015414156109fa5760018260060160006101000a81548160ff0219169083151502179055505b7fde1fae6a99c0f84e9bee8b7f9d2d7663e46384ff079f389d5b4b6018b56e56e9836040518082815260200191505060405180910390a15050919050565b60058181548110610a4557fe5b90600052602060002090600902016000915090508060000154908060010154908060020154908060030154908060040154908060050154908060060154908060070160009054906101000a900473ffffffffffffffffffffffffffffffffffffffff16908060080160009054906101000a900473ffffffffffffffffffffffffffffffffffffffff16908060080160149054906101000a900460ff16908060080160159054906101000a900460ff1690508b565b600060648211610b0857600080fd5b6127118210610b1657600080fd5b600454341015610b2557600080fd5b600260008154600101919050819055905060076040518060e001604052808381526020013373ffffffffffffffffffffffffffffffffffffffff16815260200186815260200185815260200134815260200184815260200160001515815250908060018154018082558091505090600182039060005260206000209060070201600090919290919091506000820151816000015560208201518160010160006101000a81548173ffffffffffffffffffffffffffffffffffffffff021916908373ffffffffffffffffffffffffffffffffffffffff16021790555060408201518160020155606082015181600301556080820151816004015560a0820151816005015560c08201518160060160006101000a81548160ff0219169083151502179055505050506001810360086000838152602001908152602001600020819055507fc2b9787b5865f184d65978c61b1c3fbd1b06bdd85ec4abac835122473ea9d4d9816040518082815260200191505060405180910390a19392505050565b6000610cae61123b565b610cb757600080fd5b60003414610cc457600080fd5b60006005600660008681526020019081526020016000205481548110610ce657fe5b90600052602060002090600902019050600015158160080160159054906101000a900460ff16151514610d1857600080fd5b60006003811115610d2557fe5b8160080160149054906101000a900460ff166003811115610d4257fe5b14610d4c57600080fd5b828160080160146101000a81548160ff02191690836003811115610d6c57fe5b0217905550600060016003811115610d8057fe5b846003811115610d8c57fe5b1415610e2e57610da1826003015460646113ba565b905060008183600201548460030154010390508083600401819055508260070160009054906101000a900473ffffffffffffffffffffffffffffffffffffffff1673ffffffffffffffffffffffffffffffffffffffff166108fc829081150290604051600060405180830381858888f19350505050158015610e27573d6000803e3d6000fd5b5050611002565b60026003811115610e3b57fe5b846003811115610e4757fe5b1415610ee957610e5c826002015460646113ba565b905060008183600201548460030154010390508083600501819055508260080160009054906101000a900473ffffffffffffffffffffffffffffffffffffffff1673ffffffffffffffffffffffffffffffffffffffff166108fc829081150290604051600060405180830381858888f19350505050158015610ee2573d6000803e3d6000fd5b5050611001565b600380811115610ef557fe5b846003811115610f0157fe5b14156110005781600201548260040181905550816003015482600501819055508160070160009054906101000a900473ffffffffffffffffffffffffffffffffffffffff1673ffffffffffffffffffffffffffffffffffffffff166108fc83600201549081150290604051600060405180830381858888f19350505050158015610f8f573d6000803e3d6000fd5b508160080160009054906101000a900473ffffffffffffffffffffffffffffffffffffffff1673ffffffffffffffffffffffffffffffffffffffff166108fc83600301549081150290604051600060405180830381858888f19350505050158015610ffe573d6000803e3d6000fd5b505b5b5b60008260020181905550600082600301819055506000811115611091578082600601819055506000809054906101000a900473ffffffffffffffffffffffffffffffffffffffff1673ffffffffffffffffffffffffffffffffffffffff166108fc829081150290604051600060405180830381858888f1935050505015801561108f573d6000803e3d6000fd5b505b60018260080160156101000a81548160ff0219169083151502179055508160080160159054906101000a900460ff1692507f0d7fd9e4a72e17428fa8f1c1e7c7436283b29d4dc0e1292783f4054585f7c38e856040518082815260200191505060405180910390a1505092915050565b60008060008060008060008060008060006005600660008e8152602001908152602001600020548154811061113257fe5b9060005260206000209060090201905080600101549a5080600201549950806003015498508060040154975080600501549650806006015495508060080160009054906101000a900473ffffffffffffffffffffffffffffffffffffffff1694508060070160009054906101000a900473ffffffffffffffffffffffffffffffffffffffff1693508060080160149054906101000a900460ff1692508060080160159054906101000a900460ff1691508a8a8a8a8a8a8a8a8a8a9a509a509a509a509a509a509a509a509a509a50509193959799509193959799565b600047905090565b6000809054906101000a900473ffffffffffffffffffffffffffffffffffffffff1681565b60008060009054906101000a900473ffffffffffffffffffffffffffffffffffffffff1673ffffffffffffffffffffffffffffffffffffffff163373ffffffffffffffffffffffffffffffffffffffff1614905090565b600080600080600060076008600088815260200190815260200160002054815481106112ba57fe5b906000526020600020906007020190508060020154945080600301549350806004015492508060060160009054906101000a900460ff169150848484849450945094509450509193509193565b6007818154811061131457fe5b90600052602060002090600702016000915090508060000154908060010160009054906101000a900473ffffffffffffffffffffffffffffffffffffffff16908060020154908060030154908060040154908060050154908060060160009054906101000a900460ff16905087565b60008083141561139657600090506113b4565b60008284029050828482816113a757fe5b04146113af57fe5b809150505b92915050565b6000808284816113c657fe5b0490508091505092915050565b6000828211156113df57fe5b81830390509291505056fea265627a7a72315820dd79aabfe7a94bb3456597a9115a67cec7bcfe4d788b2e5a47dc05dd0445f54c64736f6c63430005100032",
  "source": "// SPDX-License-Identifier: MIT\r\npragma solidity >=0.5.16 <0.9.0;\r\nimport \"./safemath.sol\";\r\n/// @title A title that should describe the contract/interface\r\n/// @author Chris Patterson\r\n/// @notice Explain to an end user what this does\r\n/// @dev Explain to a developer any extra details\r\ncontract BetManager {\r\n\r\n    address payable public owner;\r\n    uint256 betCounter;\r\n    uint256 liquidityCounter;\r\n    uint minBet = 0.001 ether;\r\n    uint minLiquidity = 0.001 ether;\r\n\r\n    Bet[] public bets;\r\n    mapping (uint256 => uint) private betMapping;\r\n\r\n    Liquidity[] public betPools;\r\n    mapping (uint256 => uint) private poolMapping;\r\n    \r\n    enum MatchResult{ Undecided, BookieWon, PunditWon, Void }\r\n\r\n/// @notice Raises an event that a new liquidity / market has been provided to pundits.\r\n/// @dev Will be used by the GUI as a trigger to reload the screen\r\n/// @param id the liquidityId\r\n    event BookieProvidingLiquidity(uint256 id);\r\n\r\n/// @notice Raised when a bet is placed. \r\n/// @dev Will be used by the GUI as a trigger to reload the screen\r\n/// @param id new unique bet id\r\n    event BetPlaced(uint256 id);\r\n\r\n    /// @notice Explain to an end user what this does\r\n    /// @dev Will be used by the GUI as a trigger to reload the screen to show if they won or not.\r\n    /// @param id bet id\r\n    event BetResult(uint256 id);\r\n\r\n//Structure representing a bet with 2 parties involved. The Pundit and the Bookie. The bookie placed odds and liquidity and the pundit took a position. \r\n//The payout will go to either the Pundit or the Bookie when the result is decided. There is a 1% fee taken off the profits paid to the contract owner.\r\n    struct Bet {\r\n        uint256 id;\r\n        uint256 liquidityId;\r\n        uint256 bookieCollateral;\r\n        uint256 punditCollateral;\r\n        uint256 bookiePayout; \r\n        uint256 punditPayout; \r\n        uint256 feePaid;\r\n        address payable bookie; // bookie address copied from the liquidity object\r\n        address payable pundit; //account taking a punt on this outcome (they want to win)\r\n        MatchResult result;\r\n        bool closed;\r\n    }\r\n\r\n//Structure representing betting liquidity on a certain match/player/odds. ie: As a bookie I can lay odds on Federer to beat Nadal at 200 (even payout).\r\n//The bookie can post the total liquidity they are willing to expose themselves to; ie: 10 ETH and as bets are placed the available liquidty will decrease until it reaches 0.\r\n//With these odds, pundits (people taking a bet) can take a position on these odds. ie: 1ETH. \r\n//The pundit hopes Federer wins as they will receive 2 ETH in return whereas the bookie hopes Nadal wins as they receive the bet amount + the liquidity they provided. 2 ETH as well.\r\n//Odds can range from 101 to 10000. 101 is equivalent to 1.01 * stake and 10000 is 100 * stake. \r\n//Once a bet is placed it is final and will require an outcome.\r\n    struct Liquidity {\r\n        uint256 id;\r\n        address payable bookie; //account laying the odds (they do not want this bet to pay out)\r\n        uint matchId; //each match will have a unique id\r\n        uint sideId; //will need to choose the winning side of the match\r\n        uint256 remainingLiquidity;\r\n        uint256 odds; // 1.50 odds would be stored as 150 (*100).\r\n        bool closed;\r\n    }\r\n\r\n\r\n      /* \r\n   * Modifiers\r\n   */\r\n\r\n  // Create a modifer, `isOwner` that checks if the msg.sender is the owner of the contract\r\n  function isOwner() public view returns(bool) {\r\n    return msg.sender == owner;\r\n  }\r\n\r\n\r\n    // Fallback function - Called if other functions don't match call or\r\n    // sent ether without data\r\n    // Typically, called when invalid data is sent\r\n    // Added so ether sent to this contract is reverted if the contract fails\r\n    // otherwise, the sender's money is transferred to contract\r\n    function () external payable {\r\n        revert();\r\n    }\r\n\r\n    constructor() public {\r\n        owner = msg.sender;\r\n    }\r\n\r\n    /// @notice Public function for a bookie to place odds on a match result and submit available liquidity. ie: Federer to beat Nadal, 200 odds with 10ETH max payout.\r\n    /// @param _matchId The unique ID of a match (ie: Federer vs Nadal at 2018 Wimbledon final)\r\n    /// @param _sideId The perspective winning side, ie: Federer. (unique ID from the source JSON data)\r\n    /// @param _odds The odds. ie: 150 = decimal equivalent odds at 1.5. 200 = 2. Payout formula is basically _odds/100 * stake. \r\n                    //ie: 150/100 * 1ETH = 0.5ETH payout + your original stake = 1.5ETH return. \r\n    /// @return _id returns unique ID of the new liquidity object.\r\n    function addLiquidity(uint _matchId, uint _sideId, uint256 _odds) public payable returns (uint _id)\r\n    {\r\n        require(_odds > 100);\r\n        require(_odds < 10001);\r\n        require(msg.value >= minLiquidity);\r\n\r\n        _id = ++liquidityCounter;\r\n\r\n        betPools.push(Liquidity({\r\n            id: _id,\r\n            bookie: msg.sender,\r\n            matchId: _matchId, \r\n            sideId: _sideId,\r\n            remainingLiquidity: msg.value,\r\n            odds: _odds, \r\n            closed: false\r\n            }));\r\n\r\n        poolMapping[_id] = _id-1;\r\n\r\n        emit BookieProvidingLiquidity(_id);\r\n\r\n    }\r\n\r\n/// @notice Public function allowing a pundit to place a bet leveraging existing liquidity in a market/odds.\r\n/// @dev poolRequired is somewhat complex as depending on the stake, the payout has to be calculated on the fly and deducted from the pool of liquidity. \r\n/// @param _liquidityId pointer to available liquidity. The msg.amount is the stake.\r\n/// @return _id - returns unique ID of the new bet object.\r\n    function placeBet(uint256 _liquidityId) public payable returns (uint256 _id)\r\n    {\r\n        require(msg.value >= minBet);\r\n        \r\n        Liquidity storage _l = betPools[poolMapping[_liquidityId]];\r\n        require(_l.closed == false);\r\n        require(msg.sender != _l.bookie);\r\n\r\n        uint256 poolRequired = SafeMath.div(SafeMath.mul(msg.value, _l.odds), 100)-msg.value;\r\n        require(_l.remainingLiquidity >= poolRequired);\r\n\r\n        _id = ++betCounter;\r\n\r\n        bets.push(Bet({\r\n            id: _id,\r\n            liquidityId: _liquidityId, \r\n            bookieCollateral: poolRequired,\r\n            punditCollateral: msg.value,\r\n            bookiePayout: 0, \r\n            punditPayout: 0, \r\n            feePaid: 0,\r\n            pundit: msg.sender,\r\n            bookie: _l.bookie,\r\n            result: MatchResult.Undecided, \r\n            closed: false\r\n            }));\r\n\r\n        betMapping[_id] = _id-1;\r\n\r\n        _l.remainingLiquidity = SafeMath.sub(_l.remainingLiquidity, poolRequired);\r\n        if (_l.remainingLiquidity == 0)\r\n        {\r\n            _l.closed = true;\r\n        }\r\n\r\n        emit BetPlaced(_id);\r\n\r\n    }\r\n\r\n/// @notice called by the contract owner to set the result of a given bet. This should be handled by an oracle in the future so there is no manual intervention required. \r\n/// @dev The payout structure depends on who wins but either the pundit or bookie gets paid - 1% of profits as a fee.\r\n/// @param _betId - unique id of the bet\r\n/// @param _result - result of the match. Determines how the bet pays out.\r\n/// @return _success true if no errors.\r\n    function setResult(uint256 _betId, MatchResult _result) public payable returns (bool _success) {\r\n        require(isOwner());\r\n        require(msg.value == 0);\r\n\r\n        Bet storage _bet = bets[betMapping[_betId]];\r\n        require(_bet.closed == false);\r\n        require(_bet.result == MatchResult.Undecided);\r\n\r\n        \r\n        _bet.result = _result;\r\n        uint256 fee;\r\n        if (_result == MatchResult.BookieWon)\r\n        {\r\n            fee = SafeMath.div(_bet.punditCollateral, 100);\r\n            uint256 payout = _bet.punditCollateral + _bet.bookieCollateral - fee;\r\n            _bet.bookiePayout = payout;\r\n            _bet.bookie.transfer(payout);\r\n        }\r\n        else if (_result == MatchResult.PunditWon)\r\n        {\r\n            fee = SafeMath.div(_bet.bookieCollateral, 100);\r\n            uint256 payout = _bet.punditCollateral + _bet.bookieCollateral - fee;\r\n            _bet.punditPayout = payout;\r\n            _bet.pundit.transfer(payout);\r\n        }\r\n        else if (_result == MatchResult.Void)\r\n        {\r\n            //refund their money as the match was cancelled\r\n            _bet.bookiePayout = _bet.bookieCollateral;\r\n            _bet.punditPayout = _bet.punditCollateral;\r\n            _bet.bookie.transfer(_bet.bookieCollateral);\r\n            _bet.pundit.transfer(_bet.punditCollateral);\r\n        }\r\n\r\n        _bet.bookieCollateral = 0;\r\n        _bet.punditCollateral = 0;\r\n\r\n        if (fee > 0)\r\n        {\r\n            _bet.feePaid = fee;\r\n            owner.transfer(fee);\r\n        }\r\n\r\n        _bet.closed = true;\r\n\r\n        _success = _bet.closed;\r\n        emit BetResult(_betId);\r\n    }\r\n\r\n/// @notice Explain to an end user what this does\r\n/// @dev Explain to a developer any extra details\r\n/// @param _id liqudity id\r\n/// @return _result true if no errors\r\n    function refundLiquidity(uint _id) public payable returns (bool _result) {\r\n        require(isOwner());\r\n        require(msg.value == 0);\r\n        Liquidity storage _l = betPools[poolMapping[_id]];\r\n        require(!_l.closed);\r\n        \r\n        _l.closed = true;\r\n        uint refund = _l.remainingLiquidity;\r\n        _l.remainingLiquidity = 0;\r\n        _l.bookie.transfer(refund);\r\n        _result = true;\r\n    }\r\n\r\n/// @notice Explain to an end user what this does\r\n/// @dev Explain to a developer any extra details\r\n/// @param _id liqudity id\r\n/// @return _result true if no errors\r\n    function getLiquidityById(uint _id) public view returns (uint matchId, uint sideId, uint256 remainingLiquidity, bool closed)\r\n    {\r\n        Liquidity storage _l = betPools[poolMapping[_id]];\r\n        matchId = _l.matchId;\r\n        sideId = _l.sideId;\r\n        remainingLiquidity = _l.remainingLiquidity;\r\n        closed = _l.closed;\r\n        return (matchId, sideId, remainingLiquidity, closed);\r\n    }\r\n\r\n/// @notice Explain to an end user what this does\r\n/// @dev Explain to a developer any extra details\r\n/// @param _id bet id\r\n    function getBetById(uint _id) public view returns (uint256 liquidityId, uint256 bookieCollateral, uint256 punditCollateral, uint256 bookiePayout, uint256 punditPayout, uint256 feePaid, address pundit, address bookie, MatchResult result, bool closed)\r\n    {\r\n        Bet storage bet = bets[betMapping[_id]];\r\n        liquidityId = bet.liquidityId;\r\n        bookieCollateral = bet.bookieCollateral;\r\n        punditCollateral = bet.punditCollateral;\r\n        bookiePayout = bet.bookiePayout;\r\n        punditPayout = bet.punditPayout;\r\n        feePaid = bet.feePaid;\r\n        pundit = bet.pundit;\r\n        bookie = bet.bookie;\r\n        result = bet.result;\r\n        closed = bet.closed;\r\n        return (liquidityId, bookieCollateral, punditCollateral, bookiePayout, punditPayout, feePaid, pundit, bookie, result, closed);\r\n    }\r\n\r\n/// @notice Explain to an end user what this does\r\n/// @dev Explain to a developer any extra details\r\n    function contractBalance() public view returns (uint256 _balance) {\r\n        _balance = address(this).balance;\r\n    }\r\n\r\n}\r\n\r\n",
  "sourcePath": "E:\\GIT\\blockchain-developer-bootcamp-final-project\\contracts\\BetManager.sol",
  "compiler": {
    "name": "solc",
    "version": "0.5.16+commit.9c3226ce.Emscripten.clang"
  },
  "schemaVersion": "3.4.3",
  "updatedAt": "2021-10-15T21:47:56.569Z",
  "devdoc": {
    "author": "Chris Patterson",
    "details": "Explain to a developer any extra details",
    "methods": {
      "addLiquidity(uint256,uint256,uint256)": {
        "return": "_id returns unique ID of the new liquidity object."
      },
      "contractBalance()": {
        "details": "Explain to a developer any extra details"
      },
      "getBetById(uint256)": {
        "details": "Explain to a developer any extra details",
        "params": {
          "_id": "bet id"
        }
      },
      "getLiquidityById(uint256)": {
        "details": "Explain to a developer any extra details",
        "params": {
          "_id": "liqudity id"
        },
        "return": "_result true if no errors"
      },
      "placeBet(uint256)": {
        "details": "poolRequired is somewhat complex as depending on the stake, the payout has to be calculated on the fly and deducted from the pool of liquidity. ",
        "params": {
          "_liquidityId": "pointer to available liquidity. The msg.amount is the stake."
        },
        "return": "_id - returns unique ID of the new bet object."
      },
      "refundLiquidity(uint256)": {
        "details": "Explain to a developer any extra details",
        "params": {
          "_id": "liqudity id"
        },
        "return": "_result true if no errors"
      },
      "setResult(uint256,uint8)": {
        "details": "The payout structure depends on who wins but either the pundit or bookie gets paid - 1% of profits as a fee.",
        "params": {
          "_betId": "- unique id of the bet",
          "_result": "- result of the match. Determines how the bet pays out."
        },
        "return": "_success true if no errors."
      }
    },
    "title": "A title that should describe the contract/interface"
  },
  "userdoc": {
    "methods": {
      "contractBalance()": {
        "notice": "Explain to an end user what this does"
      },
      "getBetById(uint256)": {
        "notice": "Explain to an end user what this does"
      },
      "getLiquidityById(uint256)": {
        "notice": "Explain to an end user what this does"
      },
      "placeBet(uint256)": {
        "notice": "Public function allowing a pundit to place a bet leveraging existing liquidity in a market/odds."
      },
      "refundLiquidity(uint256)": {
        "notice": "Explain to an end user what this does"
      },
      "setResult(uint256,uint8)": {
        "notice": "called by the contract owner to set the result of a given bet. This should be handled by an oracle in the future so there is no manual intervention required. "
      }
    },
    "notice": "Explain to an end user what this does"
  }
}