{
  "contractName": "BetManager",
  "abi": [
    {
      "inputs": [],
      "payable": false,
      "stateMutability": "nonpayable",
      "type": "constructor"
    },
    {
      "anonymous": false,
      "inputs": [
        {
          "indexed": false,
          "internalType": "uint256",
          "name": "id",
          "type": "uint256"
        }
      ],
      "name": "BetFinalized",
      "type": "event"
    },
    {
      "anonymous": false,
      "inputs": [
        {
          "indexed": false,
          "internalType": "uint256",
          "name": "id",
          "type": "uint256"
        }
      ],
      "name": "BookieLayingOdds",
      "type": "event"
    },
    {
      "anonymous": false,
      "inputs": [
        {
          "indexed": false,
          "internalType": "uint256",
          "name": "id",
          "type": "uint256"
        }
      ],
      "name": "PunditLookingForBookie",
      "type": "event"
    },
    {
      "constant": true,
      "inputs": [
        {
          "internalType": "uint256",
          "name": "",
          "type": "uint256"
        }
      ],
      "name": "bets",
      "outputs": [
        {
          "internalType": "uint256",
          "name": "id",
          "type": "uint256"
        },
        {
          "internalType": "uint256",
          "name": "matchId",
          "type": "uint256"
        },
        {
          "internalType": "uint256",
          "name": "sideId",
          "type": "uint256"
        },
        {
          "internalType": "uint256",
          "name": "amount",
          "type": "uint256"
        },
        {
          "internalType": "uint256",
          "name": "odds",
          "type": "uint256"
        },
        {
          "internalType": "bool",
          "name": "sold",
          "type": "bool"
        },
        {
          "internalType": "enum BetManager.State",
          "name": "state",
          "type": "uint8"
        },
        {
          "internalType": "enum BetManager.MatchResult",
          "name": "result",
          "type": "uint8"
        },
        {
          "internalType": "address",
          "name": "bookie",
          "type": "address"
        },
        {
          "internalType": "address",
          "name": "pundit",
          "type": "address"
        }
      ],
      "payable": false,
      "stateMutability": "view",
      "type": "function"
    },
    {
      "constant": true,
      "inputs": [],
      "name": "owner",
      "outputs": [
        {
          "internalType": "address",
          "name": "",
          "type": "address"
        }
      ],
      "payable": false,
      "stateMutability": "view",
      "type": "function"
    },
    {
      "constant": true,
      "inputs": [],
      "name": "isOwner",
      "outputs": [
        {
          "internalType": "bool",
          "name": "",
          "type": "bool"
        }
      ],
      "payable": false,
      "stateMutability": "view",
      "type": "function"
    },
    {
      "constant": false,
      "inputs": [
        {
          "internalType": "uint256",
          "name": "_matchId",
          "type": "uint256"
        },
        {
          "internalType": "uint256",
          "name": "_sideId",
          "type": "uint256"
        },
        {
          "internalType": "uint256",
          "name": "_odds",
          "type": "uint256"
        }
      ],
      "name": "BookieLayOdds",
      "outputs": [
        {
          "internalType": "uint256",
          "name": "_id",
          "type": "uint256"
        }
      ],
      "payable": true,
      "stateMutability": "payable",
      "type": "function"
    },
    {
      "constant": false,
      "inputs": [
        {
          "internalType": "uint256",
          "name": "_matchId",
          "type": "uint256"
        },
        {
          "internalType": "uint256",
          "name": "_sideId",
          "type": "uint256"
        },
        {
          "internalType": "uint256",
          "name": "_odds",
          "type": "uint256"
        }
      ],
      "name": "PunditPlaceOpenBet",
      "outputs": [
        {
          "internalType": "uint256",
          "name": "_id",
          "type": "uint256"
        }
      ],
      "payable": true,
      "stateMutability": "payable",
      "type": "function"
    },
    {
      "constant": false,
      "inputs": [
        {
          "internalType": "uint256",
          "name": "_betId",
          "type": "uint256"
        }
      ],
      "name": "PunditTakeBet",
      "outputs": [
        {
          "internalType": "bool",
          "name": "",
          "type": "bool"
        }
      ],
      "payable": true,
      "stateMutability": "payable",
      "type": "function"
    },
    {
      "constant": false,
      "inputs": [
        {
          "internalType": "uint256",
          "name": "_betId",
          "type": "uint256"
        }
      ],
      "name": "BookieTakeBet",
      "outputs": [
        {
          "internalType": "bool",
          "name": "",
          "type": "bool"
        }
      ],
      "payable": true,
      "stateMutability": "payable",
      "type": "function"
    },
    {
      "constant": true,
      "inputs": [
        {
          "internalType": "uint256",
          "name": "_id",
          "type": "uint256"
        }
      ],
      "name": "GetBetById",
      "outputs": [
        {
          "internalType": "uint256",
          "name": "matchId",
          "type": "uint256"
        },
        {
          "internalType": "uint256",
          "name": "sideId",
          "type": "uint256"
        },
        {
          "internalType": "uint256",
          "name": "amount",
          "type": "uint256"
        },
        {
          "internalType": "uint256",
          "name": "odds",
          "type": "uint256"
        },
        {
          "internalType": "bool",
          "name": "sold",
          "type": "bool"
        },
        {
          "internalType": "enum BetManager.State",
          "name": "state",
          "type": "uint8"
        },
        {
          "internalType": "enum BetManager.MatchResult",
          "name": "result",
          "type": "uint8"
        },
        {
          "internalType": "address",
          "name": "bookie",
          "type": "address"
        },
        {
          "internalType": "address",
          "name": "pundit",
          "type": "address"
        }
      ],
      "payable": false,
      "stateMutability": "view",
      "type": "function"
    }
  ],
  "bytecode": "0x608060405234801561001057600080fd5b50336000806101000a81548173ffffffffffffffffffffffffffffffffffffffff021916908373ffffffffffffffffffffffffffffffffffffffff160217905550610ecd806100606000396000f3fe60806040526004361061007b5760003560e01c806387f809ad1161004e57806387f809ad146103215780638da5cb5b146103775780638f32d59b146103ce578063aa9d49c4146103fd5761007b565b806322af00fa1461008057806327685395146101865780632ec3a658146102855780635f4bdff9146102cb575b600080fd5b34801561008c57600080fd5b506100b9600480360360208110156100a357600080fd5b8101908080359060200190929190505050610443565b604051808b81526020018a8152602001898152602001888152602001878152602001861515151581526020018560028111156100f157fe5b60ff16815260200184600281111561010557fe5b60ff1681526020018373ffffffffffffffffffffffffffffffffffffffff1673ffffffffffffffffffffffffffffffffffffffff1681526020018273ffffffffffffffffffffffffffffffffffffffff1673ffffffffffffffffffffffffffffffffffffffff1681526020019a505050505050505050505060405180910390f35b34801561019257600080fd5b506101bf600480360360208110156101a957600080fd5b810190808035906020019092919050505061050b565b604051808a8152602001898152602001888152602001878152602001861515151581526020018560028111156101f157fe5b60ff16815260200184600281111561020557fe5b60ff1681526020018373ffffffffffffffffffffffffffffffffffffffff1673ffffffffffffffffffffffffffffffffffffffff1681526020018273ffffffffffffffffffffffffffffffffffffffff1673ffffffffffffffffffffffffffffffffffffffff168152602001995050505050505050505060405180910390f35b6102b16004803603602081101561029b57600080fd5b8101908080359060200190929190505050610689565b604051808215151515815260200191505060405180910390f35b61030b600480360360608110156102e157600080fd5b8101908080359060200190929190803590602001909291908035906020019092919050505061080e565b6040518082815260200191505060405180910390f35b6103616004803603606081101561033757600080fd5b81019080803590602001909291908035906020019092919080359060200190929190505050610861565b6040518082815260200191505060405180910390f35b34801561038357600080fd5b5061038c6108b4565b604051808273ffffffffffffffffffffffffffffffffffffffff1673ffffffffffffffffffffffffffffffffffffffff16815260200191505060405180910390f35b3480156103da57600080fd5b506103e36108d9565b604051808215151515815260200191505060405180910390f35b6104296004803603602081101561041357600080fd5b8101908080359060200190929190505050610930565b604051808215151515815260200191505060405180910390f35b6002818154811061045057fe5b90600052602060002090600702016000915090508060000154908060010154908060020154908060030154908060040154908060050160009054906101000a900460ff16908060050160019054906101000a900460ff16908060050160029054906101000a900460ff16908060050160039054906101000a900473ffffffffffffffffffffffffffffffffffffffff16908060060160009054906101000a900473ffffffffffffffffffffffffffffffffffffffff1690508a565b6000806000806000806000806000600360008b8152602001908152602001600020600101549850600360008b8152602001908152602001600020600201549750600360008b8152602001908152602001600020600301549650600360008b8152602001908152602001600020600401549550600360008b815260200190815260200160002060050160009054906101000a900460ff169450600360008b815260200190815260200160002060050160019054906101000a900460ff169350600360008b815260200190815260200160002060050160029054906101000a900460ff169250600360008b815260200190815260200160002060050160039054906101000a900473ffffffffffffffffffffffffffffffffffffffff169150600360008b815260200190815260200160002060060160009054906101000a900473ffffffffffffffffffffffffffffffffffffffff1690508888888888888888889850985098509850985098509850985098509193959799909294969850565b600080600281111561069757fe5b6003600084815260200190815260200160002060050160019054906101000a900460ff1660028111156106c657fe5b146106d057600080fd5b600015156003600084815260200190815260200160002060050160009054906101000a900460ff1615151461070457600080fd5b6000600281111561071157fe5b6003600084815260200190815260200160002060050160029054906101000a900460ff16600281111561074057fe5b1461074a57600080fd5b336003600084815260200190815260200160002060060160006101000a81548173ffffffffffffffffffffffffffffffffffffffff021916908373ffffffffffffffffffffffffffffffffffffffff16021790555060016003600084815260200190815260200160002060050160006101000a81548160ff0219169083151502179055507f01fec1086d19ea0a4df72c834bec7b4009b91f31d83763b364b04cd88ebc092a826040518082815260200191505060405180910390a160019050919050565b6000610821848484346000336000610ab6565b90507fa17dcd86131a79492209fb67427b6dcf5263e375a315d847e42a22ab90abd349816040518082815260200191505060405180910390a19392505050565b6000610874848484346001600033610ab6565b90507fdd3cea49c96c41984ed66c6d4f985798e1ef176e8d9c1325d337bc0f54ccdae1816040518082815260200191505060405180910390a19392505050565b6000809054906101000a900473ffffffffffffffffffffffffffffffffffffffff1681565b60008060009054906101000a900473ffffffffffffffffffffffffffffffffffffffff1673ffffffffffffffffffffffffffffffffffffffff163373ffffffffffffffffffffffffffffffffffffffff1614905090565b60006001600281111561093f57fe5b6003600084815260200190815260200160002060050160019054906101000a900460ff16600281111561096e57fe5b1461097857600080fd5b600015156003600084815260200190815260200160002060050160009054906101000a900460ff161515146109ac57600080fd5b600060028111156109b957fe5b6003600084815260200190815260200160002060050160029054906101000a900460ff1660028111156109e857fe5b146109f257600080fd5b336003600084815260200190815260200160002060050160036101000a81548173ffffffffffffffffffffffffffffffffffffffff021916908373ffffffffffffffffffffffffffffffffffffffff16021790555060016003600084815260200190815260200160002060050160006101000a81548160ff0219169083151502179055507f01fec1086d19ea0a4df72c834bec7b4009b91f31d83763b364b04cd88ebc092a826040518082815260200191505060405180910390a160019050919050565b6000600160008154809291906001019190505550600060015490506040518061014001604052808281526020018a8152602001898152602001878152602001888152602001600015158152602001866002811115610b1057fe5b815260200160006002811115610b2257fe5b81526020018573ffffffffffffffffffffffffffffffffffffffff1681526020018473ffffffffffffffffffffffffffffffffffffffff1681525060036000838152602001908152602001600020600082015181600001556020820151816001015560408201518160020155606082015181600301556080820151816004015560a08201518160050160006101000a81548160ff02191690831515021790555060c08201518160050160016101000a81548160ff02191690836002811115610be657fe5b021790555060e08201518160050160026101000a81548160ff02191690836002811115610c0f57fe5b02179055506101008201518160050160036101000a81548173ffffffffffffffffffffffffffffffffffffffff021916908373ffffffffffffffffffffffffffffffffffffffff1602179055506101208201518160060160006101000a81548173ffffffffffffffffffffffffffffffffffffffff021916908373ffffffffffffffffffffffffffffffffffffffff16021790555090505060006003600083815260200190815260200160002090506002819080600181540180825580915050906001820390600052602060002090600702016000909192909190915060008201548160000155600182015481600101556002820154816002015560038201548160030155600482015481600401556005820160009054906101000a900460ff168160050160006101000a81548160ff0219169083151502179055506005820160019054906101000a900460ff168160050160016101000a81548160ff02191690836002811115610d7c57fe5b02179055506005820160029054906101000a900460ff168160050160026101000a81548160ff02191690836002811115610db257fe5b02179055506005820160039054906101000a900473ffffffffffffffffffffffffffffffffffffffff168160050160036101000a81548173ffffffffffffffffffffffffffffffffffffffff021916908373ffffffffffffffffffffffffffffffffffffffff1602179055506006820160009054906101000a900473ffffffffffffffffffffffffffffffffffffffff168160060160006101000a81548173ffffffffffffffffffffffffffffffffffffffff021916908373ffffffffffffffffffffffffffffffffffffffff160217905550505050819250505097965050505050505056fea265627a7a72315820a9a2792ea9fe0f4d6cee80a20000c30a78069d14d367d018bfc42d1da2542e9f64736f6c63430005100032",
  "source": "// SPDX-License-Identifier: MIT\r\npragma solidity >=0.5.16 <0.9.0;\r\n\r\ncontract BetManager {\r\n\r\n    address public owner;\r\n    uint256 betCounter;\r\n\r\n    Bet[] public bets;\r\n    mapping (uint256 => Bet) private betMapping;\r\n    \r\n    enum State{ NeedPundit, NeedBookie, Matched }\r\n    enum MatchResult{ Undecided, BookieWon, PunditWon }\r\n\r\n    event BookieLayingOdds(uint256 id);\r\n    event PunditLookingForBookie(uint256 id);\r\n    event BetFinalized(uint256 id);\r\n\r\n    struct Bet {\r\n        uint256 id;\r\n        uint matchId; //each match will have a unique id\r\n        uint sideId; //will need to choose the winning side of the match\r\n        uint amount;\r\n        uint256 odds; // 1.50 odds would be stored as 150 (*100).\r\n        bool sold;\r\n        State state;\r\n        MatchResult result;\r\n        address bookie; //account laying the odds (they do not want this bet to pay out)\r\n        address pundit; //account taking a punt on this outcome (they want to win)\r\n    }\r\n\r\n    function isOwner() public view returns(bool) {\r\n        return msg.sender == owner;\r\n    }\r\n\r\n    constructor() public {\r\n        owner = msg.sender;\r\n    }\r\n\r\n    modifier verifyCaller (address _address) { \r\n        require(isOwner());\r\n        _;\r\n    }\r\n\r\n    function BookieLayOdds(uint _matchId, uint _sideId, uint256 _odds) public payable returns (uint _id)\r\n    {\r\n        //require(msg.value >= \r\n        _id = CreateBet(_matchId, _sideId, _odds, msg.value, State.NeedPundit, msg.sender, address(0));\r\n        emit BookieLayingOdds(_id);\r\n    }\r\n\r\n    function PunditPlaceOpenBet(uint _matchId, uint _sideId, uint256 _odds) public payable returns (uint _id)\r\n    {\r\n        //require(msg.value >= \r\n        _id = CreateBet(_matchId, _sideId, _odds, msg.value, State.NeedBookie, address(0), msg.sender);\r\n        emit PunditLookingForBookie(_id);\r\n    }\r\n\r\n    function CreateBet(uint _matchId, uint _sideId, uint256 _odds, uint _amount, State _state, address _bookie, address _pundit) private returns (uint) {\r\n        betCounter++;\r\n        uint _betId = betCounter;\r\n        betMapping[_betId] = Bet({\r\n            id: _betId,\r\n            matchId: _matchId, \r\n            sideId: _sideId,\r\n            amount: _amount,\r\n            odds: _odds, \r\n            state: _state, \r\n            bookie: _bookie, \r\n            pundit: _pundit,\r\n            sold: false,\r\n            result: MatchResult.Undecided\r\n            });\r\n\r\n        Bet storage bet = betMapping[_betId];\r\n        bets.push(bet);\r\n\r\n        return _betId;\r\n    }\r\n\r\n    function PunditTakeBet(uint _betId) public payable returns (bool) {\r\n        require(betMapping[_betId].state == State.NeedPundit);\r\n        require(betMapping[_betId].sold == false);\r\n        require(betMapping[_betId].result == MatchResult.Undecided);\r\n\r\n        betMapping[_betId].pundit = msg.sender;\r\n        betMapping[_betId].sold = true;\r\n\r\n        emit BetFinalized(_betId);\r\n        return true;\r\n    }\r\n\r\n    function BookieTakeBet(uint _betId) public payable returns (bool) {\r\n        require(betMapping[_betId].state == State.NeedBookie);\r\n        require(betMapping[_betId].sold == false);\r\n        require(betMapping[_betId].result == MatchResult.Undecided);\r\n\r\n        betMapping[_betId].bookie = msg.sender;\r\n        betMapping[_betId].sold = true;\r\n\r\n        emit BetFinalized(_betId);\r\n        return true;\r\n    }\r\n\r\n    function GetBetById(uint _id) public view\r\n     returns (uint matchId, //each match will have a unique id\r\n        uint sideId, //will need to choose the winning side of the match\r\n        uint amount,\r\n        uint256 odds, // 1.50 odds would be stored as 150 (*100).\r\n        bool sold,\r\n        State state,\r\n        MatchResult result,\r\n        address bookie, //account laying the odds (they do not want this bet to pay out)\r\n        address pundit)\r\n   { \r\n     matchId = betMapping[_id].matchId;\r\n     sideId = betMapping[_id].sideId;\r\n     amount = betMapping[_id].amount;\r\n     odds = betMapping[_id].odds;\r\n     sold = betMapping[_id].sold;\r\n     state = betMapping[_id].state;\r\n     result = betMapping[_id].result; \r\n     bookie = betMapping[_id].bookie; \r\n     pundit = betMapping[_id].pundit; \r\n     return (matchId, sideId, amount, odds, sold, state, result, bookie, pundit); \r\n   }\r\n\r\n}\r\n\r\n",
  "sourcePath": "E:\\GIT\\blockchain-developer-bootcamp-final-project\\contracts\\BetManager.sol",
  "compiler": {
    "name": "solc",
    "version": "0.5.16+commit.9c3226ce.Emscripten.clang"
  },
  "schemaVersion": "3.4.3",
  "updatedAt": "2021-10-14T00:57:46.981Z",
  "devdoc": {
    "methods": {}
  },
  "userdoc": {
    "methods": {}
  }
}