{
  "contractName": "SoccerOracle",
  "abi": [
    {
      "inputs": [],
      "payable": false,
      "stateMutability": "nonpayable",
      "type": "constructor"
    },
    {
      "constant": true,
      "inputs": [],
      "name": "isOwner",
      "outputs": [
        {
          "internalType": "bool",
          "name": "",
          "type": "bool"
        }
      ],
      "payable": false,
      "stateMutability": "view",
      "type": "function"
    },
    {
      "constant": true,
      "inputs": [
        {
          "internalType": "uint256",
          "name": "",
          "type": "uint256"
        }
      ],
      "name": "matchResults",
      "outputs": [
        {
          "internalType": "enum OracleInterface.ResultType",
          "name": "result",
          "type": "uint8"
        },
        {
          "internalType": "uint256",
          "name": "match_id",
          "type": "uint256"
        },
        {
          "internalType": "uint256",
          "name": "winning_team_id",
          "type": "uint256"
        },
        {
          "internalType": "uint256",
          "name": "result_time",
          "type": "uint256"
        }
      ],
      "payable": false,
      "stateMutability": "view",
      "type": "function"
    },
    {
      "constant": true,
      "inputs": [
        {
          "internalType": "uint256",
          "name": "",
          "type": "uint256"
        }
      ],
      "name": "matches",
      "outputs": [
        {
          "internalType": "uint256",
          "name": "match_id",
          "type": "uint256"
        },
        {
          "internalType": "string",
          "name": "match_date",
          "type": "string"
        },
        {
          "internalType": "uint256",
          "name": "team1_id",
          "type": "uint256"
        },
        {
          "internalType": "uint256",
          "name": "team2_id",
          "type": "uint256"
        },
        {
          "internalType": "string",
          "name": "team1_name",
          "type": "string"
        },
        {
          "internalType": "string",
          "name": "team2_name",
          "type": "string"
        },
        {
          "internalType": "bool",
          "name": "pending",
          "type": "bool"
        }
      ],
      "payable": false,
      "stateMutability": "view",
      "type": "function"
    },
    {
      "constant": true,
      "inputs": [],
      "name": "owner",
      "outputs": [
        {
          "internalType": "address",
          "name": "",
          "type": "address"
        }
      ],
      "payable": false,
      "stateMutability": "view",
      "type": "function"
    },
    {
      "constant": true,
      "inputs": [],
      "name": "Validate",
      "outputs": [
        {
          "internalType": "bool",
          "name": "_result",
          "type": "bool"
        }
      ],
      "payable": false,
      "stateMutability": "view",
      "type": "function"
    },
    {
      "constant": false,
      "inputs": [
        {
          "internalType": "uint256",
          "name": "matchId",
          "type": "uint256"
        },
        {
          "internalType": "enum OracleInterface.ResultType",
          "name": "result",
          "type": "uint8"
        },
        {
          "internalType": "uint256",
          "name": "winner",
          "type": "uint256"
        }
      ],
      "name": "setMatchResult",
      "outputs": [],
      "payable": false,
      "stateMutability": "nonpayable",
      "type": "function"
    },
    {
      "constant": false,
      "inputs": [
        {
          "internalType": "uint256",
          "name": "match_id",
          "type": "uint256"
        },
        {
          "internalType": "string",
          "name": "match_date",
          "type": "string"
        },
        {
          "internalType": "uint256",
          "name": "team1_id",
          "type": "uint256"
        },
        {
          "internalType": "uint256",
          "name": "team2_id",
          "type": "uint256"
        },
        {
          "internalType": "string",
          "name": "team1_name",
          "type": "string"
        },
        {
          "internalType": "string",
          "name": "team2_name",
          "type": "string"
        }
      ],
      "name": "addMatch",
      "outputs": [],
      "payable": false,
      "stateMutability": "nonpayable",
      "type": "function"
    },
    {
      "constant": true,
      "inputs": [],
      "name": "getAvailableMatches",
      "outputs": [
        {
          "internalType": "uint256[]",
          "name": "",
          "type": "uint256[]"
        }
      ],
      "payable": false,
      "stateMutability": "view",
      "type": "function"
    },
    {
      "constant": true,
      "inputs": [
        {
          "internalType": "uint256",
          "name": "match_id",
          "type": "uint256"
        }
      ],
      "name": "getMatch",
      "outputs": [
        {
          "internalType": "string",
          "name": "match_date",
          "type": "string"
        },
        {
          "internalType": "uint256",
          "name": "team1_id",
          "type": "uint256"
        },
        {
          "internalType": "uint256",
          "name": "team2_id",
          "type": "uint256"
        },
        {
          "internalType": "string",
          "name": "team1_name",
          "type": "string"
        },
        {
          "internalType": "string",
          "name": "team2_name",
          "type": "string"
        },
        {
          "internalType": "bool",
          "name": "pending",
          "type": "bool"
        }
      ],
      "payable": false,
      "stateMutability": "view",
      "type": "function"
    },
    {
      "constant": true,
      "inputs": [
        {
          "internalType": "uint256",
          "name": "match_id",
          "type": "uint256"
        }
      ],
      "name": "getMatchResult",
      "outputs": [
        {
          "internalType": "enum OracleInterface.ResultType",
          "name": "result",
          "type": "uint8"
        },
        {
          "internalType": "uint256",
          "name": "winning_team_id",
          "type": "uint256"
        },
        {
          "internalType": "uint256",
          "name": "result_time",
          "type": "uint256"
        }
      ],
      "payable": false,
      "stateMutability": "view",
      "type": "function"
    }
  ],
  "bytecode": "0x60806040523480156200001157600080fd5b50336000806101000a81548173ffffffffffffffffffffffffffffffffffffffff021916908373ffffffffffffffffffffffffffffffffffffffff16021790555060016040518060e0016040528060008152602001604051806020016040528060008152508152602001600081526020016000815260200160405180602001604052806000815250815260200160405180602001604052806000815250815260200160001515815250908060018154018082558091505090600182039060005260206000209060070201600090919290919091506000820151816000015560208201518160010190805190602001906200010d929190620001a8565b506040820151816002015560608201518160030155608082015181600401908051906020019062000140929190620001a8565b5060a08201518160050190805190602001906200015f929190620001a8565b5060c08201518160060160006101000a81548160ff0219169083151502179055505050506001808054905003600260008081526020019081526020016000208190555062000257565b828054600181600116156101000203166002900490600052602060002090601f016020900481019282601f10620001eb57805160ff19168380011785556200021c565b828001600101855582156200021c579182015b828111156200021b578251825591602001919060010190620001fe565b5b5090506200022b91906200022f565b5090565b6200025491905b808211156200025057600081600090555060010162000236565b5090565b90565b61132d80620002676000396000f3fe608060405234801561001057600080fd5b506004361061009e5760003560e01c80638f32d59b116100665780638f32d59b1461048b5780639b134649146104ad578063cfe3d27a146105ee578063de2a5d9a1461064c578063f17b3428146106ab5761009e565b806312c12a5a146100a3578063302a7293146100e85780633d092b3d1461010a5780634768d4ef146102a25780638da5cb5b14610441575b600080fd5b6100e6600480360360608110156100b957600080fd5b8101908080359060200190929190803560ff16906020019092919080359060200190929190505050610710565b005b6100f0610854565b604051808215151515815260200191505060405180910390f35b6101366004803603602081101561012057600080fd5b810190808035906020019092919050505061085d565b604051808060200187815260200186815260200180602001806020018515151515815260200184810384528a818151815260200191508051906020019080838360005b83811015610194578082015181840152602081019050610179565b50505050905090810190601f1680156101c15780820380516001836020036101000a031916815260200191505b50848103835287818151815260200191508051906020019080838360005b838110156101fa5780820151818401526020810190506101df565b50505050905090810190601f1680156102275780820380516001836020036101000a031916815260200191505b50848103825286818151815260200191508051906020019080838360005b83811015610260578082015181840152602081019050610245565b50505050905090810190601f16801561028d5780820380516001836020036101000a031916815260200191505b50995050505050505050505060405180910390f35b6102ce600480360360208110156102b857600080fd5b8101908080359060200190929190505050610afd565b604051808881526020018060200187815260200186815260200180602001806020018515151515815260200184810384528a818151815260200191508051906020019080838360005b83811015610332578082015181840152602081019050610317565b50505050905090810190601f16801561035f5780820380516001836020036101000a031916815260200191505b50848103835287818151815260200191508051906020019080838360005b8381101561039857808201518184015260208101905061037d565b50505050905090810190601f1680156103c55780820380516001836020036101000a031916815260200191505b50848103825286818151815260200191508051906020019080838360005b838110156103fe5780820151818401526020810190506103e3565b50505050905090810190601f16801561042b5780820380516001836020036101000a031916815260200191505b509a505050505050505050505060405180910390f35b610449610d21565b604051808273ffffffffffffffffffffffffffffffffffffffff1673ffffffffffffffffffffffffffffffffffffffff16815260200191505060405180910390f35b610493610d4a565b604051808215151515815260200191505060405180910390f35b6105ec600480360360c08110156104c357600080fd5b8101908080359060200190929190803590602001906401000000008111156104ea57600080fd5b8201836020820111156104fc57600080fd5b8035906020019184600183028401116401000000008311171561051e57600080fd5b909192939192939080359060200190929190803590602001909291908035906020019064010000000081111561055357600080fd5b82018360208201111561056557600080fd5b8035906020019184600183028401116401000000008311171561058757600080fd5b9091929391929390803590602001906401000000008111156105a857600080fd5b8201836020820111156105ba57600080fd5b803590602001918460018302840111640100000000831117156105dc57600080fd5b9091929391929390505050610da1565b005b61061a6004803603602081101561060457600080fd5b8101908080359060200190929190505050610fa3565b6040518084600281111561062a57fe5b60ff168152602001838152602001828152602001935050505060405180910390f35b610654611053565b6040518080602001828103825283818151815260200191508051906020019060200280838360005b8381101561069757808201518184015260208101905061067c565b505050509050019250505060405180910390f35b6106d7600480360360208110156106c157600080fd5b8101908080359060200190929190505050611197565b604051808560028111156106e757fe5b60ff16815260200184815260200183815260200182815260200194505050505060405180910390f35b610718610d4a565b61072157600080fd5b6000600160026000868152602001908152602001600020548154811061074357fe5b906000526020600020906007020190508060060160009054906101000a900460ff1661076e57600080fd5b60008160060160006101000a81548160ff021916908315150217905550600360405180608001604052808560028111156107a457fe5b8152602001868152602001848152602001428152509080600181540180825580915050906001820390600052602060002090600402016000909192909190915060008201518160000160006101000a81548160ff0219169083600281111561080857fe5b0217905550602082015181600101556040820151816002015560608201518160030155505050600160038054905003600460008681526020019081526020016000208190555050505050565b60006001905090565b6060600080606080600061086f6111e1565b6001600260008a8152602001908152602001600020548154811061088f57fe5b90600052602060002090600702016040518060e001604052908160008201548152602001600182018054600181600116156101000203166002900480601f01602080910402602001604051908101604052809291908181526020018280546001816001161561010002031660029004801561094b5780601f106109205761010080835404028352916020019161094b565b820191906000526020600020905b81548152906001019060200180831161092e57829003601f168201915b505050505081526020016002820154815260200160038201548152602001600482018054600181600116156101000203166002900480601f016020809104026020016040519081016040528092919081815260200182805460018160011615610100020316600290048015610a015780601f106109d657610100808354040283529160200191610a01565b820191906000526020600020905b8154815290600101906020018083116109e457829003601f168201915b50505050508152602001600582018054600181600116156101000203166002900480601f016020809104026020016040519081016040528092919081815260200182805460018160011615610100020316600290048015610aa35780601f10610a7857610100808354040283529160200191610aa3565b820191906000526020600020905b815481529060010190602001808311610a8657829003601f168201915b505050505081526020016006820160009054906101000a900460ff1615151515815250509050806020015196508060400151955080606001519450806080015193508060a0015192508060c0015191505091939550919395565b60018181548110610b0a57fe5b9060005260206000209060070201600091509050806000015490806001018054600181600116156101000203166002900480601f016020809104026020016040519081016040528092919081815260200182805460018160011615610100020316600290048015610bbc5780601f10610b9157610100808354040283529160200191610bbc565b820191906000526020600020905b815481529060010190602001808311610b9f57829003601f168201915b505050505090806002015490806003015490806004018054600181600116156101000203166002900480601f016020809104026020016040519081016040528092919081815260200182805460018160011615610100020316600290048015610c665780601f10610c3b57610100808354040283529160200191610c66565b820191906000526020600020905b815481529060010190602001808311610c4957829003601f168201915b505050505090806005018054600181600116156101000203166002900480601f016020809104026020016040519081016040528092919081815260200182805460018160011615610100020316600290048015610d045780601f10610cd957610100808354040283529160200191610d04565b820191906000526020600020905b815481529060010190602001808311610ce757829003601f168201915b5050505050908060060160009054906101000a900460ff16905087565b60008060009054906101000a900473ffffffffffffffffffffffffffffffffffffffff16905090565b60008060009054906101000a900473ffffffffffffffffffffffffffffffffffffffff1673ffffffffffffffffffffffffffffffffffffffff163373ffffffffffffffffffffffffffffffffffffffff1614905090565b610da9610d4a565b610db257600080fd5b60016040518060e001604052808b81526020018a8a8080601f016020809104026020016040519081016040528093929190818152602001838380828437600081840152601f19601f82011690508083019250505050505050815260200188815260200187815260200186868080601f016020809104026020016040519081016040528093929190818152602001838380828437600081840152601f19601f82011690508083019250505050505050815260200184848080601f016020809104026020016040519081016040528093929190818152602001838380828437600081840152601f19601f8201169050808301925050505050505081526020016001151581525090806001815401808255809150509060018203906000526020600020906007020160009091929091909150600082015181600001556020820151816001019080519060200190610f07929190611220565b5060408201518160020155606082015181600301556080820151816004019080519060200190610f38929190611220565b5060a0820151816005019080519060200190610f55929190611220565b5060c08201518160060160006101000a81548160ff0219169083151502179055505050506001808054905003600260008b815260200190815260200160002081905550505050505050505050565b6000806000610fb06112a0565b6003600460008781526020019081526020016000205481548110610fd057fe5b90600052602060002090600402016040518060800160405290816000820160009054906101000a900460ff16600281111561100757fe5b600281111561101257fe5b815260200160018201548152602001600282015481526020016003820154815250509050806000015193508060400151925080606001519150509193909250565b6060600080905060008090505b6001805490508110156110b4576001818154811061107a57fe5b906000526020600020906007020160060160009054906101000a900460ff16156110a75781806001019250505b8080600101915050611060565b506060816040519080825280602002602001820160405280156110e65781602001602082028038833980820191505090505b509050600082111561118f576000809050600060018054905090505b600081111561118c5760018082038154811061111a57fe5b906000526020600020906007020160060160009054906101000a900460ff161561117e5760018082038154811061114d57fe5b90600052602060002090600702016000015483838060010194508151811061117157fe5b6020026020010181815250505b808060019003915050611102565b50505b809250505090565b600381815481106111a457fe5b90600052602060002090600402016000915090508060000160009054906101000a900460ff16908060010154908060020154908060030154905084565b6040518060e001604052806000815260200160608152602001600081526020016000815260200160608152602001606081526020016000151581525090565b828054600181600116156101000203166002900490600052602060002090601f016020900481019282601f1061126157805160ff191683800117855561128f565b8280016001018555821561128f579182015b8281111561128e578251825591602001919060010190611273565b5b50905061129c91906112d3565b5090565b6040518060800160405280600060028111156112b857fe5b81526020016000815260200160008152602001600081525090565b6112f591905b808211156112f15760008160009055506001016112d9565b5090565b9056fea265627a7a723158207a2ae050acdd1340d136960d72207a053081e2e5b6461dec913133d33902a3c164736f6c63430005100032",
  "source": "pragma solidity >=0.5.16 <0.9.0;\r\n\r\nimport \"./OracleInterface.sol\";\r\nimport \"./Ownable.sol\";\r\n\r\ncontract SoccerOracle is OracleInterface, Ownable {\r\n\r\n    Match[] public matches;\r\n    mapping (uint256 => uint256) matchIdIndexMapping;\r\n    \r\n    MatchResult[] public matchResults;\r\n    mapping (uint256 => uint256) matchIdResultIndexMapping;\r\n\r\n    constructor() public {\r\n\r\n        //this is done to make sure there is a blank match at index 0. Due to the way the mappings work, a missing value results in 0 which would be the first index of the matches[] array. \r\n        //It would be possible to accidentally set the result for the wrong match this way. By having a seeded match in index 0 that is by default invalid this issue is mitigated.\r\n        matches.push(Match({\r\n            match_id: 0,\r\n            match_date: \"\",\r\n            team1_id: 0,\r\n            team2_id: 0,\r\n            team1_name: \"\",\r\n            team2_name: \"\",\r\n            pending: false\r\n        }));\r\n\r\n        matchIdIndexMapping[0] = matches.length - 1;\r\n    }\r\n\r\n    function Validate() external view returns (bool _result) {\r\n        _result = true;\r\n    }\r\n\r\n    function setMatchResult(uint256 matchId, ResultType result, uint256 winner) external onlyOwner {\r\n        Match storage _match = matches[matchIdIndexMapping[matchId]];\r\n        require(_match.pending); //make sure this is still a pending match.\r\n\r\n        _match.pending = false;\r\n        matchResults.push(MatchResult({\r\n            match_id: matchId,\r\n            result: result,\r\n            winning_team_id: winner,\r\n            result_time: block.timestamp\r\n        }));\r\n        matchIdResultIndexMapping[matchId] = matchResults.length-1;\r\n    }\r\n\r\n    function addMatch(uint256 match_id,\r\n                        string calldata match_date,\r\n                        uint256 team1_id,\r\n                        uint256 team2_id,\r\n                        string calldata team1_name,\r\n                        string calldata team2_name) external onlyOwner\r\n    {\r\n        matches.push(Match({\r\n            match_id: match_id,\r\n            match_date: match_date,\r\n            team1_id: team1_id,\r\n            team2_id: team2_id,\r\n            team1_name: team1_name,\r\n            team2_name: team2_name,\r\n            pending: true\r\n        }));\r\n\r\n        matchIdIndexMapping[match_id] = matches.length - 1;\r\n    }\r\n\r\n    function getAvailableMatches() external view returns (uint256[] memory) {\r\n        uint count = 0; \r\n\r\n        //get count of pending matches \r\n        for (uint i = 0; i < matches.length; i++) {\r\n            if (matches[i].pending) \r\n                count++; \r\n        }\r\n\r\n        //collect up all the pending matches\r\n        uint256[] memory output = new uint256[](count); \r\n\r\n        if (count > 0) {\r\n            uint index = 0;\r\n            for (uint n = matches.length; n > 0; n--) {\r\n                if (matches[n-1].pending) \r\n                    output[index++] = matches[n-1].match_id;\r\n            }\r\n        } \r\n\r\n        return output; \r\n    }\r\n\r\n    function getMatch(uint256 match_id) external view returns (string memory match_date,\r\n                                                    uint256 team1_id,\r\n                                                    uint256 team2_id,\r\n                                                    string memory team1_name,\r\n                                                    string memory team2_name,\r\n                                                    bool pending) \r\n    {\r\n        Match memory _match = matches[matchIdIndexMapping[match_id]];\r\n        match_date = _match.match_date;\r\n        team1_id = _match.team1_id;\r\n        team2_id = _match.team2_id;\r\n        team1_name = _match.team1_name;\r\n        team2_name = _match.team2_name;\r\n        pending = _match.pending;\r\n    }\r\n\r\n    function getMatchResult(uint256 match_id) external view returns (ResultType result,\r\n                                                                    uint256 winning_team_id,\r\n                                                                    uint256 result_time)\r\n    {\r\n        MatchResult memory _matchResult = matchResults[matchIdResultIndexMapping[match_id]];\r\n        result = _matchResult.result;\r\n        winning_team_id = _matchResult.winning_team_id;\r\n        result_time = _matchResult.result_time;\r\n    }\r\n}",
  "sourcePath": "E:\\GIT\\blockchain-developer-bootcamp-final-project\\contracts\\SoccerOracle.sol",
  "compiler": {
    "name": "solc",
    "version": "0.5.16+commit.9c3226ce.Emscripten.clang"
  },
  "schemaVersion": "3.4.3",
  "updatedAt": "2021-10-22T22:32:00.018Z",
  "networkType": "ethereum",
  "devdoc": {
    "methods": {
      "isOwner()": {
        "return": "true if `msg.sender` is the owner of the contract."
      },
      "owner()": {
        "return": "the address of the owner."
      }
    }
  },
  "userdoc": {
    "methods": {}
  }
}