{
  "contractName": "SoccerOracle",
  "abi": [
    {
      "inputs": [],
      "payable": false,
      "stateMutability": "nonpayable",
      "type": "constructor"
    },
    {
      "constant": true,
      "inputs": [],
      "name": "isOwner",
      "outputs": [
        {
          "internalType": "bool",
          "name": "",
          "type": "bool"
        }
      ],
      "payable": false,
      "stateMutability": "view",
      "type": "function"
    },
    {
      "constant": true,
      "inputs": [
        {
          "internalType": "uint256",
          "name": "",
          "type": "uint256"
        }
      ],
      "name": "matchResults",
      "outputs": [
        {
          "internalType": "enum OracleInterface.ResultType",
          "name": "result",
          "type": "uint8"
        },
        {
          "internalType": "uint256",
          "name": "match_id",
          "type": "uint256"
        },
        {
          "internalType": "uint256",
          "name": "winning_team_id",
          "type": "uint256"
        },
        {
          "internalType": "string",
          "name": "final_score",
          "type": "string"
        },
        {
          "internalType": "uint256",
          "name": "result_time",
          "type": "uint256"
        }
      ],
      "payable": false,
      "stateMutability": "view",
      "type": "function"
    },
    {
      "constant": true,
      "inputs": [
        {
          "internalType": "uint256",
          "name": "",
          "type": "uint256"
        }
      ],
      "name": "matches",
      "outputs": [
        {
          "internalType": "uint256",
          "name": "match_id",
          "type": "uint256"
        },
        {
          "internalType": "string",
          "name": "match_date",
          "type": "string"
        },
        {
          "internalType": "uint256",
          "name": "team1_id",
          "type": "uint256"
        },
        {
          "internalType": "uint256",
          "name": "team2_id",
          "type": "uint256"
        },
        {
          "internalType": "string",
          "name": "team1_name",
          "type": "string"
        },
        {
          "internalType": "string",
          "name": "team2_name",
          "type": "string"
        },
        {
          "internalType": "bool",
          "name": "pending",
          "type": "bool"
        }
      ],
      "payable": false,
      "stateMutability": "view",
      "type": "function"
    },
    {
      "constant": true,
      "inputs": [],
      "name": "owner",
      "outputs": [
        {
          "internalType": "address",
          "name": "",
          "type": "address"
        }
      ],
      "payable": false,
      "stateMutability": "view",
      "type": "function"
    },
    {
      "constant": true,
      "inputs": [],
      "name": "Validate",
      "outputs": [
        {
          "internalType": "bool",
          "name": "_result",
          "type": "bool"
        }
      ],
      "payable": false,
      "stateMutability": "view",
      "type": "function"
    },
    {
      "constant": false,
      "inputs": [
        {
          "internalType": "uint256",
          "name": "matchId",
          "type": "uint256"
        },
        {
          "internalType": "enum OracleInterface.ResultType",
          "name": "result",
          "type": "uint8"
        },
        {
          "internalType": "uint256",
          "name": "winner",
          "type": "uint256"
        },
        {
          "internalType": "string",
          "name": "final_score",
          "type": "string"
        }
      ],
      "name": "setMatchResult",
      "outputs": [],
      "payable": false,
      "stateMutability": "nonpayable",
      "type": "function"
    },
    {
      "constant": false,
      "inputs": [
        {
          "internalType": "uint256",
          "name": "match_id",
          "type": "uint256"
        },
        {
          "internalType": "string",
          "name": "match_date",
          "type": "string"
        },
        {
          "internalType": "uint256",
          "name": "team1_id",
          "type": "uint256"
        },
        {
          "internalType": "uint256",
          "name": "team2_id",
          "type": "uint256"
        },
        {
          "internalType": "string",
          "name": "team1_name",
          "type": "string"
        },
        {
          "internalType": "string",
          "name": "team2_name",
          "type": "string"
        }
      ],
      "name": "addMatch",
      "outputs": [],
      "payable": false,
      "stateMutability": "nonpayable",
      "type": "function"
    },
    {
      "constant": false,
      "inputs": [
        {
          "internalType": "uint256",
          "name": "match_id",
          "type": "uint256"
        },
        {
          "internalType": "string",
          "name": "match_date",
          "type": "string"
        },
        {
          "internalType": "uint256",
          "name": "team1_id",
          "type": "uint256"
        },
        {
          "internalType": "uint256",
          "name": "team2_id",
          "type": "uint256"
        },
        {
          "internalType": "string",
          "name": "team1_name",
          "type": "string"
        },
        {
          "internalType": "string",
          "name": "team2_name",
          "type": "string"
        }
      ],
      "name": "addMatchDetails",
      "outputs": [],
      "payable": false,
      "stateMutability": "nonpayable",
      "type": "function"
    },
    {
      "constant": true,
      "inputs": [],
      "name": "getAvailableMatches",
      "outputs": [
        {
          "internalType": "uint256[]",
          "name": "",
          "type": "uint256[]"
        }
      ],
      "payable": false,
      "stateMutability": "view",
      "type": "function"
    },
    {
      "constant": true,
      "inputs": [
        {
          "internalType": "uint256",
          "name": "match_id",
          "type": "uint256"
        }
      ],
      "name": "getMatch",
      "outputs": [
        {
          "internalType": "uint256",
          "name": "id",
          "type": "uint256"
        },
        {
          "internalType": "string",
          "name": "match_date",
          "type": "string"
        },
        {
          "internalType": "uint256",
          "name": "team1_id",
          "type": "uint256"
        },
        {
          "internalType": "uint256",
          "name": "team2_id",
          "type": "uint256"
        },
        {
          "internalType": "string",
          "name": "team1_name",
          "type": "string"
        },
        {
          "internalType": "string",
          "name": "team2_name",
          "type": "string"
        },
        {
          "internalType": "bool",
          "name": "pending",
          "type": "bool"
        }
      ],
      "payable": false,
      "stateMutability": "view",
      "type": "function"
    },
    {
      "constant": true,
      "inputs": [
        {
          "internalType": "uint256",
          "name": "match_id",
          "type": "uint256"
        }
      ],
      "name": "getMatchResult",
      "outputs": [
        {
          "internalType": "enum OracleInterface.ResultType",
          "name": "result",
          "type": "uint8"
        },
        {
          "internalType": "uint256",
          "name": "winning_team_id",
          "type": "uint256"
        },
        {
          "internalType": "uint256",
          "name": "result_time",
          "type": "uint256"
        }
      ],
      "payable": false,
      "stateMutability": "view",
      "type": "function"
    },
    {
      "constant": false,
      "inputs": [
        {
          "internalType": "uint256",
          "name": "_set",
          "type": "uint256"
        }
      ],
      "name": "setInitialMatches",
      "outputs": [],
      "payable": false,
      "stateMutability": "nonpayable",
      "type": "function"
    }
  ],
  "bytecode": "0x60806040523480156200001157600080fd5b50336000806101000a81548173ffffffffffffffffffffffffffffffffffffffff021916908373ffffffffffffffffffffffffffffffffffffffff16021790555060016040518060e0016040528060008152602001604051806020016040528060008152508152602001600081526020016000815260200160405180602001604052806000815250815260200160405180602001604052806000815250815260200160001515815250908060018154018082558091505090600182039060005260206000209060070201600090919290919091506000820151816000015560208201518160010190805190602001906200010d929190620001a8565b506040820151816002015560608201518160030155608082015181600401908051906020019062000140929190620001a8565b5060a08201518160050190805190602001906200015f929190620001a8565b5060c08201518160060160006101000a81548160ff0219169083151502179055505050506001808054905003600260008081526020019081526020016000208190555062000257565b828054600181600116156101000203166002900490600052602060002090601f016020900481019282601f10620001eb57805160ff19168380011785556200021c565b828001600101855582156200021c579182015b828111156200021b578251825591602001919060010190620001fe565b5b5090506200022b91906200022f565b5090565b6200025491905b808211156200025057600081600090555060010162000236565b5090565b90565b614bbf80620002676000396000f3fe608060405234801561001057600080fd5b50600436106100b45760003560e01c80639b134649116100715780639b134649146104b35780639d832b47146105f4578063cfe3d27a1461068e578063de2a5d9a146106ec578063f0d73d3b1461074b578063f17b342814610952576100b4565b8063299f225a146100b9578063302a7293146100e75780633d092b3d146101095780634768d4ef146102a85780638da5cb5b146104475780638f32d59b14610491575b600080fd5b6100e5600480360360208110156100cf57600080fd5b8101908080359060200190929190505050610a23565b005b6100ef613dc0565b604051808215151515815260200191505060405180910390f35b6101356004803603602081101561011f57600080fd5b8101908080359060200190929190505050613dc9565b604051808881526020018060200187815260200186815260200180602001806020018515151515815260200184810384528a818151815260200191508051906020019080838360005b8381101561019957808201518184015260208101905061017e565b50505050905090810190601f1680156101c65780820380516001836020036101000a031916815260200191505b50848103835287818151815260200191508051906020019080838360005b838110156101ff5780820151818401526020810190506101e4565b50505050905090810190601f16801561022c5780820380516001836020036101000a031916815260200191505b50848103825286818151815260200191508051906020019080838360005b8381101561026557808201518184015260208101905061024a565b50505050905090810190601f1680156102925780820380516001836020036101000a031916815260200191505b509a505050505050505050505060405180910390f35b6102d4600480360360208110156102be57600080fd5b8101908080359060200190929190505050614074565b604051808881526020018060200187815260200186815260200180602001806020018515151515815260200184810384528a818151815260200191508051906020019080838360005b8381101561033857808201518184015260208101905061031d565b50505050905090810190601f1680156103655780820380516001836020036101000a031916815260200191505b50848103835287818151815260200191508051906020019080838360005b8381101561039e578082015181840152602081019050610383565b50505050905090810190601f1680156103cb5780820380516001836020036101000a031916815260200191505b50848103825286818151815260200191508051906020019080838360005b838110156104045780820151818401526020810190506103e9565b50505050905090810190601f1680156104315780820380516001836020036101000a031916815260200191505b509a505050505050505050505060405180910390f35b61044f614298565b604051808273ffffffffffffffffffffffffffffffffffffffff1673ffffffffffffffffffffffffffffffffffffffff16815260200191505060405180910390f35b6104996142c1565b604051808215151515815260200191505060405180910390f35b6105f2600480360360c08110156104c957600080fd5b8101908080359060200190929190803590602001906401000000008111156104f057600080fd5b82018360208201111561050257600080fd5b8035906020019184600183028401116401000000008311171561052457600080fd5b909192939192939080359060200190929190803590602001909291908035906020019064010000000081111561055957600080fd5b82018360208201111561056b57600080fd5b8035906020019184600183028401116401000000008311171561058d57600080fd5b9091929391929390803590602001906401000000008111156105ae57600080fd5b8201836020820111156105c057600080fd5b803590602001918460018302840111640100000000831117156105e257600080fd5b9091929391929390505050614318565b005b61068c6004803603608081101561060a57600080fd5b8101908080359060200190929190803560ff169060200190929190803590602001909291908035906020019064010000000081111561064857600080fd5b82018360208201111561065a57600080fd5b8035906020019184600183028401116401000000008311171561067c57600080fd5b909192939192939050505061440e565b005b6106ba600480360360208110156106a457600080fd5b81019080803590602001909291905050506145bb565b604051808460028111156106ca57fe5b60ff168152602001838152602001828152602001935050505060405180910390f35b6106f461470d565b6040518080602001828103825283818151815260200191508051906020019060200280838360005b8381101561073757808201518184015260208101905061071c565b505050509050019250505060405180910390f35b610950600480360360c081101561076157600080fd5b81019080803590602001909291908035906020019064010000000081111561078857600080fd5b82018360208201111561079a57600080fd5b803590602001918460018302840111640100000000831117156107bc57600080fd5b91908080601f016020809104026020016040519081016040528093929190818152602001838380828437600081840152601f19601f82011690508083019250505050505050919291929080359060200190929190803590602001909291908035906020019064010000000081111561083357600080fd5b82018360208201111561084557600080fd5b8035906020019184600183028401116401000000008311171561086757600080fd5b91908080601f016020809104026020016040519081016040528093929190818152602001838380828437600081840152601f19601f820116905080830192505050505050509192919290803590602001906401000000008111156108ca57600080fd5b8201836020820111156108dc57600080fd5b803590602001918460018302840111640100000000831117156108fe57600080fd5b91908080601f016020809104026020016040519081016040528093929190818152602001838380828437600081840152601f19601f820116905080830192505050505050509192919290505050614851565b005b61097e6004803603602081101561096857600080fd5b8101908080359060200190929190505050614984565b6040518086600281111561098e57fe5b60ff16815260200185815260200184815260200180602001838152602001828103825284818151815260200191508051906020019080838360005b838110156109e45780820151818401526020810190506109c9565b50505050905090810190601f168015610a115780820380516001836020036101000a031916815260200191505b50965050505050505060405180910390f35b600181141561113557610ae06204d2976040518060400160405280600a81526020017f323032312d31312d3031000000000000000000000000000000000000000000008152506103526109d46040518060400160405280601781526020017f576f6c76657268616d70746f6e2057616e6465726572730000000000000000008152506040518060400160405280600a81526020017f45766572746f6e20464300000000000000000000000000000000000000000000815250614851565b610b946204d29b6040518060400160405280600a81526020017f323032312d31302d3330000000000000000000000000000000000000000000008152506103516109dc6040518060400160405280601081526020017f4e6577636173746c6520556e69746564000000000000000000000000000000008152506040518060400160405280600a81526020017f4368656c73656120464300000000000000000000000000000000000000000000815250614851565b610c486204d29f6040518060400160405280600a81526020017f323032312d31302d33300000000000000000000000000000000000000000000081525061308e6109db6040518060400160405280601181526020017f546f7474656e68616d20486f74737075720000000000000000000000000000008152506040518060400160405280601181526020017f4d616e6368657374657220556e69746564000000000000000000000000000000815250614851565b610cfc6204d2a36040518060400160405280600a81526020017f323032312d31302d3330000000000000000000000000000000000000000000008152506109d16109e96040518060400160405280600a81526020017f4275726e6c6579204643000000000000000000000000000000000000000000008152506040518060400160405280600c81526020017f4272656e74666f72642046430000000000000000000000000000000000000000815250614851565b610db06204d2a76040518060400160405280600a81526020017f323032312d31302d3330000000000000000000000000000000000000000000008152506109cd6109d66040518060400160405280600c81526020017f4c69766572706f6f6c20464300000000000000000000000000000000000000008152506040518060400160405280601681526020017f4272696768746f6e202620486f766520416c62696f6e00000000000000000000815250614851565b610e646204d2ab6040518060400160405280600a81526020017f323032312d31302d3331000000000000000000000000000000000000000000008152506109ce6109f26040518060400160405280600c81526020017f4e6f7277696368204369747900000000000000000000000000000000000000008152506040518060400160405280600c81526020017f4c6565647320556e697465640000000000000000000000000000000000000000815250614851565b610f186204d2ae6040518060400160405280600a81526020017f323032312d31302d3330000000000000000000000000000000000000000000008152506130886109da6040518060400160405280600e81526020017f4c656963657374657220436974790000000000000000000000000000000000008152506040518060400160405280600a81526020017f417273656e616c20464300000000000000000000000000000000000000000000815250614851565b610fcc6204d2b26040518060400160405280600a81526020017f323032312d31302d3330000000000000000000000000000000000000000000008152506130706109d36040518060400160405280600f81526020017f4d616e63686573746572204369747900000000000000000000000000000000008152506040518060400160405280600e81526020017f4372797374616c2050616c616365000000000000000000000000000000000000815250614851565b6110806204d2b66040518060400160405280600a81526020017f323032312d31302d3330000000000000000000000000000000000000000000008152506109d5610b8f6040518060400160405280600a81526020017f576174666f7264204643000000000000000000000000000000000000000000008152506040518060400160405280600e81526020017f536f757468616d70746f6e204643000000000000000000000000000000000000815250614851565b6111346204d2ba6040518060400160405280600a81526020017f323032312d31302d3331000000000000000000000000000000000000000000008152506109d86130716040518060400160405280600b81526020017f4173746f6e2056696c6c610000000000000000000000000000000000000000008152506040518060400160405280600f81526020017f576573742048616d20556e697465640000000000000000000000000000000000815250614851565b5b6002811415611847576111f26204d2be6040518060400160405280600a81526020017f323032312d31312d3036000000000000000000000000000000000000000000008152506109db6130706040518060400160405280601181526020017f4d616e6368657374657220556e697465640000000000000000000000000000008152506040518060400160405280600f81526020017f4d616e6368657374657220436974790000000000000000000000000000000000815250614851565b6112a66204d2c36040518060400160405280600a81526020017f323032312d31312d3036000000000000000000000000000000000000000000008152506109d36103526040518060400160405280600e81526020017f4372797374616c2050616c6163650000000000000000000000000000000000008152506040518060400160405280601781526020017f576f6c76657268616d70746f6e2057616e646572657273000000000000000000815250614851565b61135a6204d2c86040518060400160405280600a81526020017f323032312d31312d3037000000000000000000000000000000000000000000008152506130716109cd6040518060400160405280600f81526020017f576573742048616d20556e6974656400000000000000000000000000000000008152506040518060400160405280600c81526020017f4c69766572706f6f6c2046430000000000000000000000000000000000000000815250614851565b61140e6204d2cd6040518060400160405280600a81526020017f323032312d31312d303500000000000000000000000000000000000000000000815250610b8f6109d86040518060400160405280600e81526020017f536f757468616d70746f6e2046430000000000000000000000000000000000008152506040518060400160405280600b81526020017f4173746f6e2056696c6c61000000000000000000000000000000000000000000815250614851565b6114c26204d2d06040518060400160405280600a81526020017f323032312d31312d3036000000000000000000000000000000000000000000008152506109e96109ce6040518060400160405280600c81526020017f4272656e74666f726420464300000000000000000000000000000000000000008152506040518060400160405280600c81526020017f4e6f727769636820436974790000000000000000000000000000000000000000815250614851565b6115766204d2d46040518060400160405280600a81526020017f323032312d31312d3036000000000000000000000000000000000000000000008152506109d66103516040518060400160405280601681526020017f4272696768746f6e202620486f766520416c62696f6e000000000000000000008152506040518060400160405280601081526020017f4e6577636173746c6520556e6974656400000000000000000000000000000000815250614851565b61162a6204d2d86040518060400160405280600a81526020017f323032312d31312d3036000000000000000000000000000000000000000000008152506109dc6109d16040518060400160405280600a81526020017f4368656c736561204643000000000000000000000000000000000000000000008152506040518060400160405280600a81526020017f4275726e6c657920464300000000000000000000000000000000000000000000815250614851565b6116de6204d2dc6040518060400160405280600a81526020017f323032312d31312d3037000000000000000000000000000000000000000000008152506109d461308e6040518060400160405280600a81526020017f45766572746f6e204643000000000000000000000000000000000000000000008152506040518060400160405280601181526020017f546f7474656e68616d20486f7473707572000000000000000000000000000000815250614851565b6117926204d2e06040518060400160405280600a81526020017f323032312d31312d3037000000000000000000000000000000000000000000008152506109da6109d56040518060400160405280600a81526020017f417273656e616c204643000000000000000000000000000000000000000000008152506040518060400160405280600a81526020017f576174666f726420464300000000000000000000000000000000000000000000815250614851565b6118466204d2e46040518060400160405280600a81526020017f323032312d31312d3037000000000000000000000000000000000000000000008152506109f26130886040518060400160405280600c81526020017f4c6565647320556e6974656400000000000000000000000000000000000000008152506040518060400160405280600e81526020017f4c65696365737465722043697479000000000000000000000000000000000000815250614851565b5b6003811415611f59576119046204d2e86040518060400160405280600a81526020017f323032312d31312d32310000000000000000000000000000000000000000000081525061308e6109f26040518060400160405280601181526020017f546f7474656e68616d20486f74737075720000000000000000000000000000008152506040518060400160405280600c81526020017f4c6565647320556e697465640000000000000000000000000000000000000000815250614851565b6119b86204d2ec6040518060400160405280600a81526020017f323032312d31312d3230000000000000000000000000000000000000000000008152506109d56109db6040518060400160405280600a81526020017f576174666f7264204643000000000000000000000000000000000000000000008152506040518060400160405280601181526020017f4d616e6368657374657220556e69746564000000000000000000000000000000815250614851565b611a6c6204d2f06040518060400160405280600a81526020017f323032312d31312d3230000000000000000000000000000000000000000000008152506103516109e96040518060400160405280601081526020017f4e6577636173746c6520556e69746564000000000000000000000000000000008152506040518060400160405280600c81526020017f4272656e74666f72642046430000000000000000000000000000000000000000815250614851565b611b206204d2f46040518060400160405280600a81526020017f323032312d31312d3231000000000000000000000000000000000000000000008152506130706109d46040518060400160405280600f81526020017f4d616e63686573746572204369747900000000000000000000000000000000008152506040518060400160405280600a81526020017f45766572746f6e20464300000000000000000000000000000000000000000000815250614851565b611bd46204d2f86040518060400160405280600a81526020017f323032312d31312d3230000000000000000000000000000000000000000000008152506109ce610b8f6040518060400160405280600c81526020017f4e6f7277696368204369747900000000000000000000000000000000000000008152506040518060400160405280600e81526020017f536f757468616d70746f6e204643000000000000000000000000000000000000815250614851565b611c886204d2fc6040518060400160405280600a81526020017f323032312d31312d3230000000000000000000000000000000000000000000008152506103526130716040518060400160405280601781526020017f576f6c76657268616d70746f6e2057616e6465726572730000000000000000008152506040518060400160405280600f81526020017f576573742048616d20556e697465640000000000000000000000000000000000815250614851565b611d3c6204d3006040518060400160405280600a81526020017f323032312d31312d3230000000000000000000000000000000000000000000008152506109cd6109da6040518060400160405280600c81526020017f4c69766572706f6f6c20464300000000000000000000000000000000000000008152506040518060400160405280600a81526020017f417273656e616c20464300000000000000000000000000000000000000000000815250614851565b611df06204d3046040518060400160405280600a81526020017f323032312d31312d3230000000000000000000000000000000000000000000008152506109d86109d66040518060400160405280600b81526020017f4173746f6e2056696c6c610000000000000000000000000000000000000000008152506040518060400160405280601681526020017f4272696768746f6e202620486f766520416c62696f6e00000000000000000000815250614851565b611ea46204d3076040518060400160405280600a81526020017f323032312d31312d3230000000000000000000000000000000000000000000008152506109d16109d36040518060400160405280600a81526020017f4275726e6c6579204643000000000000000000000000000000000000000000008152506040518060400160405280600e81526020017f4372797374616c2050616c616365000000000000000000000000000000000000815250614851565b611f586204d30a6040518060400160405280600a81526020017f323032312d31312d3230000000000000000000000000000000000000000000008152506130886109dc6040518060400160405280600e81526020017f4c656963657374657220436974790000000000000000000000000000000000008152506040518060400160405280600a81526020017f4368656c73656120464300000000000000000000000000000000000000000000815250614851565b5b600481141561266b576120166204d30d6040518060400160405280600a81526020017f323032312d31312d3237000000000000000000000000000000000000000000008152506109cd610b8f6040518060400160405280600c81526020017f4c69766572706f6f6c20464300000000000000000000000000000000000000008152506040518060400160405280600e81526020017f536f757468616d70746f6e204643000000000000000000000000000000000000815250614851565b6120ca6204d3106040518060400160405280600a81526020017f323032312d31312d3237000000000000000000000000000000000000000000008152506109ce6103526040518060400160405280600c81526020017f4e6f7277696368204369747900000000000000000000000000000000000000008152506040518060400160405280601781526020017f576f6c76657268616d70746f6e2057616e646572657273000000000000000000815250614851565b61217e6204d3136040518060400160405280600a81526020017f323032312d31312d3238000000000000000000000000000000000000000000008152506109dc6109db6040518060400160405280600a81526020017f4368656c736561204643000000000000000000000000000000000000000000008152506040518060400160405280601181526020017f4d616e6368657374657220556e69746564000000000000000000000000000000815250614851565b6122326204d3166040518060400160405280600a81526020017f323032312d31312d3238000000000000000000000000000000000000000000008152506130706130716040518060400160405280600f81526020017f4d616e63686573746572204369747900000000000000000000000000000000008152506040518060400160405280600f81526020017f576573742048616d20556e697465640000000000000000000000000000000000815250614851565b6122e66204d3196040518060400160405280600a81526020017f323032312d31312d3238000000000000000000000000000000000000000000008152506130886109d56040518060400160405280600e81526020017f4c656963657374657220436974790000000000000000000000000000000000008152506040518060400160405280600a81526020017f576174666f726420464300000000000000000000000000000000000000000000815250614851565b61239a6204d31c6040518060400160405280600a81526020017f323032312d31312d3238000000000000000000000000000000000000000000008152506109d161308e6040518060400160405280600a81526020017f4275726e6c6579204643000000000000000000000000000000000000000000008152506040518060400160405280601181526020017f546f7474656e68616d20486f7473707572000000000000000000000000000000815250614851565b61244e6204d31f6040518060400160405280600a81526020017f323032312d31312d3237000000000000000000000000000000000000000000008152506109d36109d86040518060400160405280600e81526020017f4372797374616c2050616c6163650000000000000000000000000000000000008152506040518060400160405280600b81526020017f4173746f6e2056696c6c61000000000000000000000000000000000000000000815250614851565b6125026204d3226040518060400160405280600a81526020017f323032312d31312d3237000000000000000000000000000000000000000000008152506109da6103516040518060400160405280600a81526020017f417273656e616c204643000000000000000000000000000000000000000000008152506040518060400160405280601081526020017f4e6577636173746c6520556e6974656400000000000000000000000000000000815250614851565b6125b66204d3256040518060400160405280600a81526020017f323032312d31312d3238000000000000000000000000000000000000000000008152506109e96109d46040518060400160405280600c81526020017f4272656e74666f726420464300000000000000000000000000000000000000008152506040518060400160405280600a81526020017f45766572746f6e20464300000000000000000000000000000000000000000000815250614851565b61266a6204d3296040518060400160405280600a81526020017f323032312d31312d3237000000000000000000000000000000000000000000008152506109d66109f26040518060400160405280601681526020017f4272696768746f6e202620486f766520416c62696f6e000000000000000000008152506040518060400160405280600c81526020017f4c6565647320556e697465640000000000000000000000000000000000000000815250614851565b5b6005811415612d7d576127286204d32b6040518060400160405280600a81526020017f323032312d31322d3031000000000000000000000000000000000000000000008152506109d56109dc6040518060400160405280600a81526020017f576174666f7264204643000000000000000000000000000000000000000000008152506040518060400160405280600a81526020017f4368656c73656120464300000000000000000000000000000000000000000000815250614851565b6127dc6204d32d6040518060400160405280600a81526020017f323032312d31322d3032000000000000000000000000000000000000000000008152506109db6109da6040518060400160405280601181526020017f4d616e6368657374657220556e697465640000000000000000000000000000008152506040518060400160405280600a81526020017f417273656e616c20464300000000000000000000000000000000000000000000815250614851565b6128906204d3306040518060400160405280600a81526020017f323032312d31322d3031000000000000000000000000000000000000000000008152506103526109d16040518060400160405280601781526020017f576f6c76657268616d70746f6e2057616e6465726572730000000000000000008152506040518060400160405280600a81526020017f4275726e6c657920464300000000000000000000000000000000000000000000815250614851565b6129446204d3316040518060400160405280600a81526020017f323032312d31322d3031000000000000000000000000000000000000000000008152506130716109d66040518060400160405280600f81526020017f576573742048616d20556e6974656400000000000000000000000000000000008152506040518060400160405280601681526020017f4272696768746f6e202620486f766520416c62696f6e00000000000000000000815250614851565b6129f86204d3346040518060400160405280600a81526020017f323032312d31322d3031000000000000000000000000000000000000000000008152506109d86130706040518060400160405280600b81526020017f4173746f6e2056696c6c610000000000000000000000000000000000000000008152506040518060400160405280600f81526020017f4d616e6368657374657220436974790000000000000000000000000000000000815250614851565b612aac6204d3376040518060400160405280600a81526020017f323032312d31312d3330000000000000000000000000000000000000000000008152506109f26109d36040518060400160405280600c81526020017f4c6565647320556e6974656400000000000000000000000000000000000000008152506040518060400160405280600e81526020017f4372797374616c2050616c616365000000000000000000000000000000000000815250614851565b612b606204d33b6040518060400160405280600a81526020017f323032312d31322d3031000000000000000000000000000000000000000000008152506109d46109cd6040518060400160405280600a81526020017f45766572746f6e204643000000000000000000000000000000000000000000008152506040518060400160405280600c81526020017f4c69766572706f6f6c2046430000000000000000000000000000000000000000815250614851565b612c146204d33d6040518060400160405280600a81526020017f323032312d31322d30320000000000000000000000000000000000000000000081525061308e6109e96040518060400160405280601181526020017f546f7474656e68616d20486f74737075720000000000000000000000000000008152506040518060400160405280600c81526020017f4272656e74666f72642046430000000000000000000000000000000000000000815250614851565b612cc86204d3406040518060400160405280600a81526020017f323032312d31312d3330000000000000000000000000000000000000000000008152506103516109ce6040518060400160405280601081526020017f4e6577636173746c6520556e69746564000000000000000000000000000000008152506040518060400160405280600c81526020017f4e6f727769636820436974790000000000000000000000000000000000000000815250614851565b612d7c6204d3436040518060400160405280600a81526020017f323032312d31322d303100000000000000000000000000000000000000000000815250610b8f6130886040518060400160405280600e81526020017f536f757468616d70746f6e2046430000000000000000000000000000000000008152506040518060400160405280600e81526020017f4c65696365737465722043697479000000000000000000000000000000000000815250614851565b5b600681141561348f57612e3a6204d3466040518060400160405280600a81526020017f323032312d31322d3034000000000000000000000000000000000000000000008152506130716109dc6040518060400160405280600f81526020017f576573742048616d20556e6974656400000000000000000000000000000000008152506040518060400160405280600a81526020017f4368656c73656120464300000000000000000000000000000000000000000000815250614851565b612eee6204d34c6040518060400160405280600a81526020017f323032312d31322d3036000000000000000000000000000000000000000000008152506109d46109da6040518060400160405280600a81526020017f45766572746f6e204643000000000000000000000000000000000000000000008152506040518060400160405280600a81526020017f417273656e616c20464300000000000000000000000000000000000000000000815250614851565b612fa26204d34f6040518060400160405280600a81526020017f323032312d31322d3035000000000000000000000000000000000000000000008152506109db6109d36040518060400160405280601181526020017f4d616e6368657374657220556e697465640000000000000000000000000000008152506040518060400160405280600e81526020017f4372797374616c2050616c616365000000000000000000000000000000000000815250614851565b6130566204d3526040518060400160405280600a81526020017f323032312d31322d3035000000000000000000000000000000000000000000008152506109d86130886040518060400160405280600b81526020017f4173746f6e2056696c6c610000000000000000000000000000000000000000008152506040518060400160405280600e81526020017f4c65696365737465722043697479000000000000000000000000000000000000815250614851565b61310a6204d3556040518060400160405280600a81526020017f323032312d31322d3035000000000000000000000000000000000000000000008152506109f26109e96040518060400160405280600c81526020017f4c6565647320556e6974656400000000000000000000000000000000000000008152506040518060400160405280600c81526020017f4272656e74666f72642046430000000000000000000000000000000000000000815250614851565b6131be6204d3586040518060400160405280600a81526020017f323032312d31322d3034000000000000000000000000000000000000000000008152506109d56130706040518060400160405280600a81526020017f576174666f7264204643000000000000000000000000000000000000000000008152506040518060400160405280600f81526020017f4d616e6368657374657220436974790000000000000000000000000000000000815250614851565b6132726204d3616040518060400160405280600a81526020017f323032312d31322d30350000000000000000000000000000000000000000000081525061308e6109ce6040518060400160405280601181526020017f546f7474656e68616d20486f74737075720000000000000000000000000000008152506040518060400160405280600c81526020017f4e6f727769636820436974790000000000000000000000000000000000000000815250614851565b6133266204d3676040518060400160405280600a81526020017f323032312d31322d3130000000000000000000000000000000000000000000008152506109e96109d56040518060400160405280600c81526020017f4272656e74666f726420464300000000000000000000000000000000000000008152506040518060400160405280600a81526020017f576174666f726420464300000000000000000000000000000000000000000000815250614851565b6133da6204d36a6040518060400160405280600a81526020017f323032312d31322d3132000000000000000000000000000000000000000000008152506109d36109d46040518060400160405280600e81526020017f4372797374616c2050616c6163650000000000000000000000000000000000008152506040518060400160405280600a81526020017f45766572746f6e20464300000000000000000000000000000000000000000000815250614851565b61348e6204d36d6040518060400160405280600a81526020017f323032312d31322d3131000000000000000000000000000000000000000000008152506109ce6109db6040518060400160405280600c81526020017f4e6f7277696368204369747900000000000000000000000000000000000000008152506040518060400160405280601181526020017f4d616e6368657374657220556e69746564000000000000000000000000000000815250614851565b5b6007811415613dbd5761354c6204d3706040518060400160405280600a81526020017f323032312d31322d3131000000000000000000000000000000000000000000008152506130706103526040518060400160405280600f81526020017f4d616e63686573746572204369747900000000000000000000000000000000008152506040518060400160405280601781526020017f576f6c76657268616d70746f6e2057616e646572657273000000000000000000815250614851565b6136006204d3786040518060400160405280600a81526020017f323032312d31322d3132000000000000000000000000000000000000000000008152506109d661308e6040518060400160405280601681526020017f4272696768746f6e202620486f766520416c62696f6e000000000000000000008152506040518060400160405280601181526020017f546f7474656e68616d20486f7473707572000000000000000000000000000000815250614851565b6136b46204d37b6040518060400160405280600a81526020017f323032312d31322d3132000000000000000000000000000000000000000000008152506109d16130716040518060400160405280600a81526020017f4275726e6c6579204643000000000000000000000000000000000000000000008152506040518060400160405280600f81526020017f576573742048616d20556e697465640000000000000000000000000000000000815250614851565b6137686204d37e6040518060400160405280600a81526020017f323032312d31322d3132000000000000000000000000000000000000000000008152506130886103516040518060400160405280600e81526020017f4c656963657374657220436974790000000000000000000000000000000000008152506040518060400160405280601081526020017f4e6577636173746c6520556e6974656400000000000000000000000000000000815250614851565b61381c6204d3816040518060400160405280600a81526020017f323032312d31322d31360000000000000000000000000000000000000000000081525061308861308e6040518060400160405280600e81526020017f4c656963657374657220436974790000000000000000000000000000000000008152506040518060400160405280601181526020017f546f7474656e68616d20486f7473707572000000000000000000000000000000815250614851565b6138d06204d3846040518060400160405280600a81526020017f323032312d31322d3135000000000000000000000000000000000000000000008152506109d16109d56040518060400160405280600a81526020017f4275726e6c6579204643000000000000000000000000000000000000000000008152506040518060400160405280600a81526020017f576174666f726420464300000000000000000000000000000000000000000000815250614851565b6139846204d38a6040518060400160405280600a81526020017f323032312d31322d3135000000000000000000000000000000000000000000008152506109da6130716040518060400160405280600a81526020017f417273656e616c204643000000000000000000000000000000000000000000008152506040518060400160405280600f81526020017f576573742048616d20556e697465640000000000000000000000000000000000815250614851565b613a386204d38d6040518060400160405280600a81526020017f323032312d31322d3134000000000000000000000000000000000000000000008152506109e96109db6040518060400160405280600c81526020017f4272656e74666f726420464300000000000000000000000000000000000000008152506040518060400160405280601181526020017f4d616e6368657374657220556e69746564000000000000000000000000000000815250614851565b613aec6204d3906040518060400160405280600a81526020017f323032312d31322d3135000000000000000000000000000000000000000000008152506109d66103526040518060400160405280601681526020017f4272696768746f6e202620486f766520416c62696f6e000000000000000000008152506040518060400160405280601781526020017f576f6c76657268616d70746f6e2057616e646572657273000000000000000000815250614851565b613ba06204d3936040518060400160405280600a81526020017f323032312d31322d3135000000000000000000000000000000000000000000008152506109d3610b8f6040518060400160405280600e81526020017f4372797374616c2050616c6163650000000000000000000000000000000000008152506040518060400160405280600e81526020017f536f757468616d70746f6e204643000000000000000000000000000000000000815250614851565b613c546204d3966040518060400160405280600a81526020017f323032312d31322d3134000000000000000000000000000000000000000000008152506130706109f26040518060400160405280600f81526020017f4d616e63686573746572204369747900000000000000000000000000000000008152506040518060400160405280600c81526020017f4c6565647320556e697465640000000000000000000000000000000000000000815250614851565b613d086204d3996040518060400160405280600a81526020017f323032312d31322d3136000000000000000000000000000000000000000000008152506109cd6103516040518060400160405280600c81526020017f4c69766572706f6f6c20464300000000000000000000000000000000000000008152506040518060400160405280601081526020017f4e6577636173746c6520556e6974656400000000000000000000000000000000815250614851565b613dbc6204d39c6040518060400160405280600a81526020017f323032312d31322d3135000000000000000000000000000000000000000000008152506109dc6109d46040518060400160405280600a81526020017f4368656c736561204643000000000000000000000000000000000000000000008152506040518060400160405280600a81526020017f45766572746f6e20464300000000000000000000000000000000000000000000815250614851565b5b50565b60006001905090565b600060606000806060806000613ddd614a6c565b6001600260008b81526020019081526020016000205481548110613dfd57fe5b90600052602060002090600702016040518060e001604052908160008201548152602001600182018054600181600116156101000203166002900480601f016020809104026020016040519081016040528092919081815260200182805460018160011615610100020316600290048015613eb95780601f10613e8e57610100808354040283529160200191613eb9565b820191906000526020600020905b815481529060010190602001808311613e9c57829003601f168201915b505050505081526020016002820154815260200160038201548152602001600482018054600181600116156101000203166002900480601f016020809104026020016040519081016040528092919081815260200182805460018160011615610100020316600290048015613f6f5780601f10613f4457610100808354040283529160200191613f6f565b820191906000526020600020905b815481529060010190602001808311613f5257829003601f168201915b50505050508152602001600582018054600181600116156101000203166002900480601f0160208091040260200160405190810160405280929190818152602001828054600181600116156101000203166002900480156140115780601f10613fe657610100808354040283529160200191614011565b820191906000526020600020905b815481529060010190602001808311613ff457829003601f168201915b505050505081526020016006820160009054906101000a900460ff161515151581525050905080600001519750806020015196508060400151955080606001519450806080015193508060a0015192508060c00151915050919395979092949650565b6001818154811061408157fe5b9060005260206000209060070201600091509050806000015490806001018054600181600116156101000203166002900480601f0160208091040260200160405190810160405280929190818152602001828054600181600116156101000203166002900480156141335780601f1061410857610100808354040283529160200191614133565b820191906000526020600020905b81548152906001019060200180831161411657829003601f168201915b505050505090806002015490806003015490806004018054600181600116156101000203166002900480601f0160208091040260200160405190810160405280929190818152602001828054600181600116156101000203166002900480156141dd5780601f106141b2576101008083540402835291602001916141dd565b820191906000526020600020905b8154815290600101906020018083116141c057829003601f168201915b505050505090806005018054600181600116156101000203166002900480601f01602080910402602001604051908101604052809291908181526020018280546001816001161561010002031660029004801561427b5780601f106142505761010080835404028352916020019161427b565b820191906000526020600020905b81548152906001019060200180831161425e57829003601f168201915b5050505050908060060160009054906101000a900460ff16905087565b60008060009054906101000a900473ffffffffffffffffffffffffffffffffffffffff16905090565b60008060009054906101000a900473ffffffffffffffffffffffffffffffffffffffff1673ffffffffffffffffffffffffffffffffffffffff163373ffffffffffffffffffffffffffffffffffffffff1614905090565b6143206142c1565b61432957600080fd5b6144038989898080601f016020809104026020016040519081016040528093929190818152602001838380828437600081840152601f19601f82011690508083019250505050505050888888888080601f016020809104026020016040519081016040528093929190818152602001838380828437600081840152601f19601f8201169050808301925050505050505087878080601f016020809104026020016040519081016040528093929190818152602001838380828437600081840152601f19601f82011690508083019250505050505050614851565b505050505050505050565b6144166142c1565b61441f57600080fd5b6000600160026000888152602001908152602001600020548154811061444157fe5b906000526020600020906007020190508060060160009054906101000a900460ff1661446c57600080fd5b60008160060160006101000a81548160ff02191690831515021790555060036040518060a001604052808760028111156144a257fe5b815260200188815260200186815260200185858080601f016020809104026020016040519081016040528093929190818152602001838380828437600081840152601f19601f820116905080830192505050505050508152602001428152509080600181540180825580915050906001820390600052602060002090600502016000909192909190915060008201518160000160006101000a81548160ff0219169083600281111561455057fe5b021790555060208201518160010155604082015181600201556060820151816003019080519060200190614585929190614aab565b50608082015181600401555050506001600380549050036004600088815260200190815260200160002081905550505050505050565b60008060006145c8614b2b565b60036004600087815260200190815260200160002054815481106145e857fe5b90600052602060002090600502016040518060a00160405290816000820160009054906101000a900460ff16600281111561461f57fe5b600281111561462a57fe5b81526020016001820154815260200160028201548152602001600382018054600181600116156101000203166002900480601f0160208091040260200160405190810160405280929190818152602001828054600181600116156101000203166002900480156146db5780601f106146b0576101008083540402835291602001916146db565b820191906000526020600020905b8154815290600101906020018083116146be57829003601f168201915b505050505081526020016004820154815250509050806000015193508060400151925080608001519150509193909250565b6060600080905060008090505b60018054905081101561476e576001818154811061473457fe5b906000526020600020906007020160060160009054906101000a900460ff16156147615781806001019250505b808060010191505061471a565b506060816040519080825280602002602001820160405280156147a05781602001602082028038833980820191505090505b5090506000821115614849576000809050600060018054905090505b6000811115614846576001808203815481106147d457fe5b906000526020600020906007020160060160009054906101000a900460ff16156148385760018082038154811061480757fe5b90600052602060002090600702016000015483838060010194508151811061482b57fe5b6020026020010181815250505b8080600190039150506147bc565b50505b809250505090565b6148596142c1565b61486257600080fd5b60016040518060e0016040528088815260200187815260200186815260200185815260200184815260200183815260200160011515815250908060018154018082558091505090600182039060005260206000209060070201600090919290919091506000820151816000015560208201518160010190805190602001906148eb929190614aab565b506040820151816002015560608201518160030155608082015181600401908051906020019061491c929190614aab565b5060a0820151816005019080519060200190614939929190614aab565b5060c08201518160060160006101000a81548160ff02191690831515021790555050505060018080549050036002600088815260200190815260200160002081905550505050505050565b6003818154811061499157fe5b90600052602060002090600502016000915090508060000160009054906101000a900460ff1690806001015490806002015490806003018054600181600116156101000203166002900480601f016020809104026020016040519081016040528092919081815260200182805460018160011615610100020316600290048015614a5c5780601f10614a3157610100808354040283529160200191614a5c565b820191906000526020600020905b815481529060010190602001808311614a3f57829003601f168201915b5050505050908060040154905085565b6040518060e001604052806000815260200160608152602001600081526020016000815260200160608152602001606081526020016000151581525090565b828054600181600116156101000203166002900490600052602060002090601f016020900481019282601f10614aec57805160ff1916838001178555614b1a565b82800160010185558215614b1a579182015b82811115614b19578251825591602001919060010190614afe565b5b509050614b279190614b65565b5090565b6040518060a0016040528060006002811115614b4357fe5b8152602001600081526020016000815260200160608152602001600081525090565b614b8791905b80821115614b83576000816000905550600101614b6b565b5090565b9056fea265627a7a72315820fb26a90495c5a2b4e142d780d3ffb0dfa6134ad22341078ac4959cf26d20f3f964736f6c63430005100032",
  "source": "pragma solidity >=0.5.16 <0.9.0;\r\n\r\nimport \"./OracleInterface.sol\";\r\nimport \"./Ownable.sol\";\r\n\r\ncontract SoccerOracle is OracleInterface, Ownable {\r\n\r\n    Match[] public matches;\r\n    mapping (uint256 => uint256) matchIdIndexMapping;\r\n    \r\n    MatchResult[] public matchResults;\r\n    mapping (uint256 => uint256) matchIdResultIndexMapping;\r\n\r\n    constructor() public {\r\n        //this is done to make sure there is a blank match at index 0. Due to the way the mappings work, a missing value results in 0 which would be the first index of the matches[] array. \r\n        //It would be possible to accidentally set the result for the wrong match this way. By having a seeded match in index 0 that is by default invalid this issue is mitigated.\r\n        matches.push(Match({\r\n            match_id: 0,\r\n            match_date: \"\",\r\n            team1_id: 0,\r\n            team2_id: 0,\r\n            team1_name: \"\",\r\n            team2_name: \"\",\r\n            pending: false\r\n        }));\r\n\r\n        matchIdIndexMapping[0] = matches.length - 1;\r\n    }\r\n\r\n    function Validate() external view returns (bool _result) {\r\n        _result = true;\r\n    }\r\n\r\n    function setMatchResult(uint256 matchId, ResultType result, uint256 winner, string calldata final_score) external onlyOwner {\r\n        Match storage _match = matches[matchIdIndexMapping[matchId]];\r\n        require(_match.pending); //make sure this is still a pending match.\r\n\r\n        _match.pending = false;\r\n        matchResults.push(MatchResult({\r\n            match_id: matchId,\r\n            result: result,\r\n            winning_team_id: winner,\r\n            result_time: block.timestamp,\r\n            final_score: final_score\r\n        }));\r\n        matchIdResultIndexMapping[matchId] = matchResults.length-1;\r\n    }\r\n\r\n    function addMatch(uint256 match_id,\r\n                        string calldata match_date,\r\n                        uint256 team1_id,\r\n                        uint256 team2_id,\r\n                        string calldata team1_name,\r\n                        string calldata team2_name) external onlyOwner\r\n    {\r\n        addMatchDetails(match_id, match_date, team1_id, team2_id, team1_name, team2_name);\r\n    }\r\n\r\n    function addMatchDetails(uint256 match_id,\r\n                        string memory match_date,\r\n                        uint256 team1_id,\r\n                        uint256 team2_id,\r\n                        string memory team1_name,\r\n                        string memory team2_name) public onlyOwner\r\n    {\r\n        matches.push(Match({\r\n            match_id: match_id,\r\n            match_date: match_date,\r\n            team1_id: team1_id,\r\n            team2_id: team2_id,\r\n            team1_name: team1_name,\r\n            team2_name: team2_name,\r\n            pending: true\r\n        }));\r\n\r\n        matchIdIndexMapping[match_id] = matches.length - 1;\r\n    }\r\n\r\n    function getAvailableMatches() external view returns (uint256[] memory) {\r\n        uint count = 0; \r\n\r\n        //get count of pending matches \r\n        for (uint i = 0; i < matches.length; i++) {\r\n            if (matches[i].pending) \r\n                count++; \r\n        }\r\n\r\n        //collect up all the pending matches\r\n        uint256[] memory output = new uint256[](count); \r\n\r\n        if (count > 0) {\r\n            uint index = 0;\r\n            for (uint n = matches.length; n > 0; n--) {\r\n                if (matches[n-1].pending) \r\n                    output[index++] = matches[n-1].match_id;\r\n            }\r\n        } \r\n\r\n        return output; \r\n    }\r\n\r\n    function getMatch(uint256 match_id) external view returns (\r\n                                                    uint256 id,\r\n                                                    string memory match_date,\r\n                                                    uint256 team1_id,\r\n                                                    uint256 team2_id,\r\n                                                    string memory team1_name,\r\n                                                    string memory team2_name,\r\n                                                    bool pending) \r\n    {\r\n        Match memory _match = matches[matchIdIndexMapping[match_id]];\r\n        id = _match.match_id;\r\n        match_date = _match.match_date;\r\n        team1_id = _match.team1_id;\r\n        team2_id = _match.team2_id;\r\n        team1_name = _match.team1_name;\r\n        team2_name = _match.team2_name;\r\n        pending = _match.pending;\r\n    }\r\n\r\n    function getMatchResult(uint256 match_id) external view returns (ResultType result,\r\n                                                                    uint256 winning_team_id,\r\n                                                                    uint256 result_time)\r\n    {\r\n        MatchResult memory _matchResult = matchResults[matchIdResultIndexMapping[match_id]];\r\n        result = _matchResult.result;\r\n        winning_team_id = _matchResult.winning_team_id;\r\n        result_time = _matchResult.result_time;\r\n    }\r\n\r\n    function setInitialMatches(uint256 _set) external\r\n    {\r\n        if (_set == 1)\r\n        {\r\n            addMatchDetails(316055, \"2021-11-01\", 850, 2516, \"Wolverhampton Wanderers\", \"Everton FC\");\r\n            addMatchDetails(316059, \"2021-10-30\", 849, 2524, \"Newcastle United\", \"Chelsea FC\");\r\n            addMatchDetails(316063, \"2021-10-30\", 12430, 2523, \"Tottenham Hotspur\", \"Manchester United\");\r\n            addMatchDetails(316067, \"2021-10-30\", 2513, 2537, \"Burnley FC\", \"Brentford FC\");\r\n            addMatchDetails(316071, \"2021-10-30\", 2509, 2518, \"Liverpool FC\", \"Brighton & Hove Albion\");\r\n            addMatchDetails(316075, \"2021-10-31\", 2510, 2546, \"Norwich City\", \"Leeds United\");\r\n            addMatchDetails(316078, \"2021-10-30\", 12424, 2522, \"Leicester City\", \"Arsenal FC\");\r\n            addMatchDetails(316082, \"2021-10-30\", 12400, 2515, \"Manchester City\", \"Crystal Palace\");\r\n            addMatchDetails(316086, \"2021-10-30\", 2517, 2959, \"Watford FC\", \"Southampton FC\");\r\n            addMatchDetails(316090, \"2021-10-31\", 2520, 12401, \"Aston Villa\", \"West Ham United\");\r\n        }\r\n        if (_set == 2) {\r\n            addMatchDetails(316094, \"2021-11-06\", 2523, 12400, \"Manchester United\", \"Manchester City\");\r\n            addMatchDetails(316099, \"2021-11-06\", 2515, 850, \"Crystal Palace\", \"Wolverhampton Wanderers\");\r\n            addMatchDetails(316104, \"2021-11-07\", 12401, 2509, \"West Ham United\", \"Liverpool FC\");\r\n            addMatchDetails(316109, \"2021-11-05\", 2959, 2520, \"Southampton FC\", \"Aston Villa\");\r\n            addMatchDetails(316112, \"2021-11-06\", 2537, 2510, \"Brentford FC\", \"Norwich City\");\r\n            addMatchDetails(316116, \"2021-11-06\", 2518, 849, \"Brighton & Hove Albion\", \"Newcastle United\");\r\n            addMatchDetails(316120, \"2021-11-06\", 2524, 2513, \"Chelsea FC\", \"Burnley FC\");\r\n            addMatchDetails(316124, \"2021-11-07\", 2516, 12430, \"Everton FC\", \"Tottenham Hotspur\");\r\n            addMatchDetails(316128, \"2021-11-07\", 2522, 2517, \"Arsenal FC\", \"Watford FC\");\r\n            addMatchDetails(316132, \"2021-11-07\", 2546, 12424, \"Leeds United\", \"Leicester City\");\r\n        }\r\n        if (_set == 3) {\r\n            addMatchDetails(316136, \"2021-11-21\", 12430, 2546, \"Tottenham Hotspur\", \"Leeds United\");\r\n            addMatchDetails(316140, \"2021-11-20\", 2517, 2523, \"Watford FC\", \"Manchester United\");\r\n            addMatchDetails(316144, \"2021-11-20\", 849, 2537, \"Newcastle United\", \"Brentford FC\");\r\n            addMatchDetails(316148, \"2021-11-21\", 12400, 2516, \"Manchester City\", \"Everton FC\");\r\n            addMatchDetails(316152, \"2021-11-20\", 2510, 2959, \"Norwich City\", \"Southampton FC\");\r\n            addMatchDetails(316156, \"2021-11-20\", 850, 12401, \"Wolverhampton Wanderers\", \"West Ham United\");\r\n            addMatchDetails(316160, \"2021-11-20\", 2509, 2522, \"Liverpool FC\", \"Arsenal FC\");\r\n            addMatchDetails(316164, \"2021-11-20\", 2520, 2518, \"Aston Villa\", \"Brighton & Hove Albion\");\r\n            addMatchDetails(316167, \"2021-11-20\", 2513, 2515, \"Burnley FC\", \"Crystal Palace\");\r\n            addMatchDetails(316170, \"2021-11-20\", 12424, 2524, \"Leicester City\", \"Chelsea FC\");\r\n        }\r\n        if (_set == 4) {\r\n            addMatchDetails(316173, \"2021-11-27\", 2509, 2959, \"Liverpool FC\", \"Southampton FC\");\r\n            addMatchDetails(316176, \"2021-11-27\", 2510, 850, \"Norwich City\", \"Wolverhampton Wanderers\");\r\n            addMatchDetails(316179, \"2021-11-28\", 2524, 2523, \"Chelsea FC\", \"Manchester United\");\r\n            addMatchDetails(316182, \"2021-11-28\", 12400, 12401, \"Manchester City\", \"West Ham United\");\r\n            addMatchDetails(316185, \"2021-11-28\", 12424, 2517, \"Leicester City\", \"Watford FC\");\r\n            addMatchDetails(316188, \"2021-11-28\", 2513, 12430, \"Burnley FC\", \"Tottenham Hotspur\");\r\n            addMatchDetails(316191, \"2021-11-27\", 2515, 2520, \"Crystal Palace\", \"Aston Villa\");\r\n            addMatchDetails(316194, \"2021-11-27\", 2522, 849, \"Arsenal FC\", \"Newcastle United\");\r\n            addMatchDetails(316197, \"2021-11-28\", 2537, 2516, \"Brentford FC\", \"Everton FC\");\r\n            addMatchDetails(316201, \"2021-11-27\", 2518, 2546, \"Brighton & Hove Albion\", \"Leeds United\");\r\n        }\r\n        if (_set == 5) {\r\n            addMatchDetails(316203, \"2021-12-01\", 2517, 2524, \"Watford FC\", \"Chelsea FC\");\r\n            addMatchDetails(316205, \"2021-12-02\", 2523, 2522, \"Manchester United\", \"Arsenal FC\");\r\n            addMatchDetails(316208, \"2021-12-01\", 850, 2513, \"Wolverhampton Wanderers\", \"Burnley FC\");\r\n            addMatchDetails(316209, \"2021-12-01\", 12401, 2518, \"West Ham United\", \"Brighton & Hove Albion\");\r\n            addMatchDetails(316212, \"2021-12-01\", 2520, 12400, \"Aston Villa\", \"Manchester City\");\r\n            addMatchDetails(316215, \"2021-11-30\", 2546, 2515, \"Leeds United\", \"Crystal Palace\");\r\n            addMatchDetails(316219, \"2021-12-01\", 2516, 2509, \"Everton FC\", \"Liverpool FC\");\r\n            addMatchDetails(316221, \"2021-12-02\", 12430, 2537, \"Tottenham Hotspur\", \"Brentford FC\");\r\n            addMatchDetails(316224, \"2021-11-30\", 849, 2510, \"Newcastle United\", \"Norwich City\");\r\n            addMatchDetails(316227, \"2021-12-01\", 2959, 12424, \"Southampton FC\", \"Leicester City\");\r\n        }\r\n        if (_set == 6) {\r\n            addMatchDetails(316230, \"2021-12-04\", 12401, 2524, \"West Ham United\", \"Chelsea FC\");\r\n            addMatchDetails(316236, \"2021-12-06\", 2516, 2522, \"Everton FC\", \"Arsenal FC\");\r\n            addMatchDetails(316239, \"2021-12-05\", 2523, 2515, \"Manchester United\", \"Crystal Palace\");\r\n            addMatchDetails(316242, \"2021-12-05\", 2520, 12424, \"Aston Villa\", \"Leicester City\");\r\n            addMatchDetails(316245, \"2021-12-05\", 2546, 2537, \"Leeds United\", \"Brentford FC\");\r\n            addMatchDetails(316248, \"2021-12-04\", 2517, 12400, \"Watford FC\", \"Manchester City\");\r\n            addMatchDetails(316257, \"2021-12-05\", 12430, 2510, \"Tottenham Hotspur\", \"Norwich City\");\r\n            addMatchDetails(316263, \"2021-12-10\", 2537, 2517, \"Brentford FC\", \"Watford FC\");\r\n            addMatchDetails(316266, \"2021-12-12\", 2515, 2516, \"Crystal Palace\", \"Everton FC\");\r\n            addMatchDetails(316269, \"2021-12-11\", 2510, 2523, \"Norwich City\", \"Manchester United\");\r\n        }\r\n        if (_set == 7) {\r\n            addMatchDetails(316272, \"2021-12-11\", 12400, 850, \"Manchester City\", \"Wolverhampton Wanderers\");\r\n            addMatchDetails(316280, \"2021-12-12\", 2518, 12430, \"Brighton & Hove Albion\", \"Tottenham Hotspur\");\r\n            addMatchDetails(316283, \"2021-12-12\", 2513, 12401, \"Burnley FC\", \"West Ham United\");\r\n            addMatchDetails(316286, \"2021-12-12\", 12424, 849, \"Leicester City\", \"Newcastle United\");\r\n            addMatchDetails(316289, \"2021-12-16\", 12424, 12430, \"Leicester City\", \"Tottenham Hotspur\");\r\n            addMatchDetails(316292, \"2021-12-15\", 2513, 2517, \"Burnley FC\", \"Watford FC\");\r\n            addMatchDetails(316298, \"2021-12-15\", 2522, 12401, \"Arsenal FC\", \"West Ham United\");\r\n            addMatchDetails(316301, \"2021-12-14\", 2537, 2523, \"Brentford FC\", \"Manchester United\");\r\n            addMatchDetails(316304, \"2021-12-15\", 2518, 850, \"Brighton & Hove Albion\", \"Wolverhampton Wanderers\");\r\n            addMatchDetails(316307, \"2021-12-15\", 2515, 2959, \"Crystal Palace\", \"Southampton FC\");\r\n            addMatchDetails(316310, \"2021-12-14\", 12400, 2546, \"Manchester City\", \"Leeds United\");\r\n            addMatchDetails(316313, \"2021-12-16\", 2509, 849, \"Liverpool FC\", \"Newcastle United\");\r\n            addMatchDetails(316316, \"2021-12-15\", 2524, 2516, \"Chelsea FC\", \"Everton FC\");\r\n        }\r\n        \r\n    }\r\n}",
  "sourcePath": "E:\\GIT\\blockchain-developer-bootcamp-final-project\\contracts\\SoccerOracle.sol",
  "compiler": {
    "name": "solc",
    "version": "0.5.16+commit.9c3226ce.Emscripten.clang"
  },
  "schemaVersion": "3.4.3",
  "updatedAt": "2021-10-27T03:27:18.669Z",
  "devdoc": {
    "methods": {
      "isOwner()": {
        "return": "true if `msg.sender` is the owner of the contract."
      },
      "owner()": {
        "return": "the address of the owner."
      }
    }
  },
  "userdoc": {
    "methods": {}
  }
}