{
  "contractName": "SoccerOracle",
  "abi": [
    {
      "inputs": [],
      "payable": false,
      "stateMutability": "nonpayable",
      "type": "constructor"
    },
    {
      "constant": true,
      "inputs": [],
      "name": "isOwner",
      "outputs": [
        {
          "internalType": "bool",
          "name": "",
          "type": "bool"
        }
      ],
      "payable": false,
      "stateMutability": "view",
      "type": "function"
    },
    {
      "constant": true,
      "inputs": [
        {
          "internalType": "uint256",
          "name": "",
          "type": "uint256"
        }
      ],
      "name": "matchResults",
      "outputs": [
        {
          "internalType": "enum OracleInterface.ResultType",
          "name": "result",
          "type": "uint8"
        },
        {
          "internalType": "uint256",
          "name": "match_id",
          "type": "uint256"
        },
        {
          "internalType": "uint256",
          "name": "winning_team_id",
          "type": "uint256"
        },
        {
          "internalType": "string",
          "name": "final_score",
          "type": "string"
        },
        {
          "internalType": "uint256",
          "name": "result_time",
          "type": "uint256"
        }
      ],
      "payable": false,
      "stateMutability": "view",
      "type": "function"
    },
    {
      "constant": true,
      "inputs": [
        {
          "internalType": "uint256",
          "name": "",
          "type": "uint256"
        }
      ],
      "name": "matches",
      "outputs": [
        {
          "internalType": "uint256",
          "name": "match_id",
          "type": "uint256"
        },
        {
          "internalType": "string",
          "name": "match_date",
          "type": "string"
        },
        {
          "internalType": "uint256",
          "name": "team1_id",
          "type": "uint256"
        },
        {
          "internalType": "uint256",
          "name": "team2_id",
          "type": "uint256"
        },
        {
          "internalType": "string",
          "name": "team1_name",
          "type": "string"
        },
        {
          "internalType": "string",
          "name": "team2_name",
          "type": "string"
        },
        {
          "internalType": "bool",
          "name": "pending",
          "type": "bool"
        }
      ],
      "payable": false,
      "stateMutability": "view",
      "type": "function"
    },
    {
      "constant": true,
      "inputs": [],
      "name": "owner",
      "outputs": [
        {
          "internalType": "address",
          "name": "",
          "type": "address"
        }
      ],
      "payable": false,
      "stateMutability": "view",
      "type": "function"
    },
    {
      "constant": true,
      "inputs": [],
      "name": "Validate",
      "outputs": [
        {
          "internalType": "bool",
          "name": "_result",
          "type": "bool"
        }
      ],
      "payable": false,
      "stateMutability": "view",
      "type": "function"
    },
    {
      "constant": false,
      "inputs": [
        {
          "internalType": "uint256",
          "name": "matchId",
          "type": "uint256"
        },
        {
          "internalType": "enum OracleInterface.ResultType",
          "name": "result",
          "type": "uint8"
        },
        {
          "internalType": "uint256",
          "name": "winner",
          "type": "uint256"
        },
        {
          "internalType": "string",
          "name": "final_score",
          "type": "string"
        }
      ],
      "name": "setMatchResult",
      "outputs": [],
      "payable": false,
      "stateMutability": "nonpayable",
      "type": "function"
    },
    {
      "constant": false,
      "inputs": [
        {
          "internalType": "uint256",
          "name": "match_id",
          "type": "uint256"
        },
        {
          "internalType": "string",
          "name": "match_date",
          "type": "string"
        },
        {
          "internalType": "uint256",
          "name": "team1_id",
          "type": "uint256"
        },
        {
          "internalType": "uint256",
          "name": "team2_id",
          "type": "uint256"
        },
        {
          "internalType": "string",
          "name": "team1_name",
          "type": "string"
        },
        {
          "internalType": "string",
          "name": "team2_name",
          "type": "string"
        }
      ],
      "name": "addMatch",
      "outputs": [],
      "payable": false,
      "stateMutability": "nonpayable",
      "type": "function"
    },
    {
      "constant": false,
      "inputs": [
        {
          "internalType": "uint256",
          "name": "match_id",
          "type": "uint256"
        },
        {
          "internalType": "string",
          "name": "match_date",
          "type": "string"
        },
        {
          "internalType": "uint256",
          "name": "team1_id",
          "type": "uint256"
        },
        {
          "internalType": "uint256",
          "name": "team2_id",
          "type": "uint256"
        },
        {
          "internalType": "string",
          "name": "team1_name",
          "type": "string"
        },
        {
          "internalType": "string",
          "name": "team2_name",
          "type": "string"
        }
      ],
      "name": "addMatchDetails",
      "outputs": [],
      "payable": false,
      "stateMutability": "nonpayable",
      "type": "function"
    },
    {
      "constant": true,
      "inputs": [],
      "name": "getAvailableMatches",
      "outputs": [
        {
          "internalType": "uint256[]",
          "name": "",
          "type": "uint256[]"
        }
      ],
      "payable": false,
      "stateMutability": "view",
      "type": "function"
    },
    {
      "constant": true,
      "inputs": [
        {
          "internalType": "uint256",
          "name": "match_id",
          "type": "uint256"
        }
      ],
      "name": "getMatch",
      "outputs": [
        {
          "internalType": "uint256",
          "name": "id",
          "type": "uint256"
        },
        {
          "internalType": "string",
          "name": "match_date",
          "type": "string"
        },
        {
          "internalType": "uint256",
          "name": "team1_id",
          "type": "uint256"
        },
        {
          "internalType": "uint256",
          "name": "team2_id",
          "type": "uint256"
        },
        {
          "internalType": "string",
          "name": "team1_name",
          "type": "string"
        },
        {
          "internalType": "string",
          "name": "team2_name",
          "type": "string"
        },
        {
          "internalType": "bool",
          "name": "pending",
          "type": "bool"
        }
      ],
      "payable": false,
      "stateMutability": "view",
      "type": "function"
    },
    {
      "constant": true,
      "inputs": [
        {
          "internalType": "uint256",
          "name": "match_id",
          "type": "uint256"
        }
      ],
      "name": "getMatchResult",
      "outputs": [
        {
          "internalType": "enum OracleInterface.ResultType",
          "name": "result",
          "type": "uint8"
        },
        {
          "internalType": "uint256",
          "name": "winning_team_id",
          "type": "uint256"
        },
        {
          "internalType": "uint256",
          "name": "result_time",
          "type": "uint256"
        }
      ],
      "payable": false,
      "stateMutability": "view",
      "type": "function"
    },
    {
      "constant": false,
      "inputs": [],
      "name": "setInitialMatches",
      "outputs": [],
      "payable": false,
      "stateMutability": "nonpayable",
      "type": "function"
    }
  ],
  "bytecode": "0x60806040523480156200001157600080fd5b50336000806101000a81548173ffffffffffffffffffffffffffffffffffffffff021916908373ffffffffffffffffffffffffffffffffffffffff16021790555060016040518060e0016040528060008152602001604051806020016040528060008152508152602001600081526020016000815260200160405180602001604052806000815250815260200160405180602001604052806000815250815260200160001515815250908060018154018082558091505090600182039060005260206000209060070201600090919290919091506000820151816000015560208201518160010190805190602001906200010d929190620001a8565b506040820151816002015560608201518160030155608082015181600401908051906020019062000140929190620001a8565b5060a08201518160050190805190602001906200015f929190620001a8565b5060c08201518160060160006101000a81548160ff0219169083151502179055505050506001808054905003600260008081526020019081526020016000208190555062000257565b828054600181600116156101000203166002900490600052602060002090601f016020900481019282601f10620001eb57805160ff19168380011785556200021c565b828001600101855582156200021c579182015b828111156200021b578251825591602001919060010190620001fe565b5b5090506200022b91906200022f565b5090565b6200025491905b808211156200025057600081600090555060010162000236565b5090565b90565b611f0880620002676000396000f3fe608060405234801561001057600080fd5b50600436106100b45760003560e01c80639d832b47116100715780639d832b47146105c6578063b132462b14610660578063cfe3d27a1461066a578063de2a5d9a146106c8578063f0d73d3b14610727578063f17b34281461092e576100b4565b8063302a7293146100b95780633d092b3d146100db5780634768d4ef1461027a5780638da5cb5b146104195780638f32d59b146104635780639b13464914610485575b600080fd5b6100c16109ff565b604051808215151515815260200191505060405180910390f35b610107600480360360208110156100f157600080fd5b8101908080359060200190929190505050610a08565b604051808881526020018060200187815260200186815260200180602001806020018515151515815260200184810384528a818151815260200191508051906020019080838360005b8381101561016b578082015181840152602081019050610150565b50505050905090810190601f1680156101985780820380516001836020036101000a031916815260200191505b50848103835287818151815260200191508051906020019080838360005b838110156101d15780820151818401526020810190506101b6565b50505050905090810190601f1680156101fe5780820380516001836020036101000a031916815260200191505b50848103825286818151815260200191508051906020019080838360005b8381101561023757808201518184015260208101905061021c565b50505050905090810190601f1680156102645780820380516001836020036101000a031916815260200191505b509a505050505050505050505060405180910390f35b6102a66004803603602081101561029057600080fd5b8101908080359060200190929190505050610cb3565b604051808881526020018060200187815260200186815260200180602001806020018515151515815260200184810384528a818151815260200191508051906020019080838360005b8381101561030a5780820151818401526020810190506102ef565b50505050905090810190601f1680156103375780820380516001836020036101000a031916815260200191505b50848103835287818151815260200191508051906020019080838360005b83811015610370578082015181840152602081019050610355565b50505050905090810190601f16801561039d5780820380516001836020036101000a031916815260200191505b50848103825286818151815260200191508051906020019080838360005b838110156103d65780820151818401526020810190506103bb565b50505050905090810190601f1680156104035780820380516001836020036101000a031916815260200191505b509a505050505050505050505060405180910390f35b610421610ed7565b604051808273ffffffffffffffffffffffffffffffffffffffff1673ffffffffffffffffffffffffffffffffffffffff16815260200191505060405180910390f35b61046b610f00565b604051808215151515815260200191505060405180910390f35b6105c4600480360360c081101561049b57600080fd5b8101908080359060200190929190803590602001906401000000008111156104c257600080fd5b8201836020820111156104d457600080fd5b803590602001918460018302840111640100000000831117156104f657600080fd5b909192939192939080359060200190929190803590602001909291908035906020019064010000000081111561052b57600080fd5b82018360208201111561053d57600080fd5b8035906020019184600183028401116401000000008311171561055f57600080fd5b90919293919293908035906020019064010000000081111561058057600080fd5b82018360208201111561059257600080fd5b803590602001918460018302840111640100000000831117156105b457600080fd5b9091929391929390505050610f57565b005b61065e600480360360808110156105dc57600080fd5b8101908080359060200190929190803560ff169060200190929190803590602001909291908035906020019064010000000081111561061a57600080fd5b82018360208201111561062c57600080fd5b8035906020019184600183028401116401000000008311171561064e57600080fd5b909192939192939050505061104d565b005b6106686111fa565b005b6106966004803603602081101561068057600080fd5b8101908080359060200190929190505050611904565b604051808460028111156106a657fe5b60ff168152602001838152602001828152602001935050505060405180910390f35b6106d0611a56565b6040518080602001828103825283818151815260200191508051906020019060200280838360005b838110156107135780820151818401526020810190506106f8565b505050509050019250505060405180910390f35b61092c600480360360c081101561073d57600080fd5b81019080803590602001909291908035906020019064010000000081111561076457600080fd5b82018360208201111561077657600080fd5b8035906020019184600183028401116401000000008311171561079857600080fd5b91908080601f016020809104026020016040519081016040528093929190818152602001838380828437600081840152601f19601f82011690508083019250505050505050919291929080359060200190929190803590602001909291908035906020019064010000000081111561080f57600080fd5b82018360208201111561082157600080fd5b8035906020019184600183028401116401000000008311171561084357600080fd5b91908080601f016020809104026020016040519081016040528093929190818152602001838380828437600081840152601f19601f820116905080830192505050505050509192919290803590602001906401000000008111156108a657600080fd5b8201836020820111156108b857600080fd5b803590602001918460018302840111640100000000831117156108da57600080fd5b91908080601f016020809104026020016040519081016040528093929190818152602001838380828437600081840152601f19601f820116905080830192505050505050509192919290505050611b9a565b005b61095a6004803603602081101561094457600080fd5b8101908080359060200190929190505050611ccd565b6040518086600281111561096a57fe5b60ff16815260200185815260200184815260200180602001838152602001828103825284818151815260200191508051906020019080838360005b838110156109c05780820151818401526020810190506109a5565b50505050905090810190601f1680156109ed5780820380516001836020036101000a031916815260200191505b50965050505050505060405180910390f35b60006001905090565b600060606000806060806000610a1c611db5565b6001600260008b81526020019081526020016000205481548110610a3c57fe5b90600052602060002090600702016040518060e001604052908160008201548152602001600182018054600181600116156101000203166002900480601f016020809104026020016040519081016040528092919081815260200182805460018160011615610100020316600290048015610af85780601f10610acd57610100808354040283529160200191610af8565b820191906000526020600020905b815481529060010190602001808311610adb57829003601f168201915b505050505081526020016002820154815260200160038201548152602001600482018054600181600116156101000203166002900480601f016020809104026020016040519081016040528092919081815260200182805460018160011615610100020316600290048015610bae5780601f10610b8357610100808354040283529160200191610bae565b820191906000526020600020905b815481529060010190602001808311610b9157829003601f168201915b50505050508152602001600582018054600181600116156101000203166002900480601f016020809104026020016040519081016040528092919081815260200182805460018160011615610100020316600290048015610c505780601f10610c2557610100808354040283529160200191610c50565b820191906000526020600020905b815481529060010190602001808311610c3357829003601f168201915b505050505081526020016006820160009054906101000a900460ff161515151581525050905080600001519750806020015196508060400151955080606001519450806080015193508060a0015192508060c00151915050919395979092949650565b60018181548110610cc057fe5b9060005260206000209060070201600091509050806000015490806001018054600181600116156101000203166002900480601f016020809104026020016040519081016040528092919081815260200182805460018160011615610100020316600290048015610d725780601f10610d4757610100808354040283529160200191610d72565b820191906000526020600020905b815481529060010190602001808311610d5557829003601f168201915b505050505090806002015490806003015490806004018054600181600116156101000203166002900480601f016020809104026020016040519081016040528092919081815260200182805460018160011615610100020316600290048015610e1c5780601f10610df157610100808354040283529160200191610e1c565b820191906000526020600020905b815481529060010190602001808311610dff57829003601f168201915b505050505090806005018054600181600116156101000203166002900480601f016020809104026020016040519081016040528092919081815260200182805460018160011615610100020316600290048015610eba5780601f10610e8f57610100808354040283529160200191610eba565b820191906000526020600020905b815481529060010190602001808311610e9d57829003601f168201915b5050505050908060060160009054906101000a900460ff16905087565b60008060009054906101000a900473ffffffffffffffffffffffffffffffffffffffff16905090565b60008060009054906101000a900473ffffffffffffffffffffffffffffffffffffffff1673ffffffffffffffffffffffffffffffffffffffff163373ffffffffffffffffffffffffffffffffffffffff1614905090565b610f5f610f00565b610f6857600080fd5b6110428989898080601f016020809104026020016040519081016040528093929190818152602001838380828437600081840152601f19601f82011690508083019250505050505050888888888080601f016020809104026020016040519081016040528093929190818152602001838380828437600081840152601f19601f8201169050808301925050505050505087878080601f016020809104026020016040519081016040528093929190818152602001838380828437600081840152601f19601f82011690508083019250505050505050611b9a565b505050505050505050565b611055610f00565b61105e57600080fd5b6000600160026000888152602001908152602001600020548154811061108057fe5b906000526020600020906007020190508060060160009054906101000a900460ff166110ab57600080fd5b60008160060160006101000a81548160ff02191690831515021790555060036040518060a001604052808760028111156110e157fe5b815260200188815260200186815260200185858080601f016020809104026020016040519081016040528093929190818152602001838380828437600081840152601f19601f820116905080830192505050505050508152602001428152509080600181540180825580915050906001820390600052602060002090600502016000909192909190915060008201518160000160006101000a81548160ff0219169083600281111561118f57fe5b0217905550602082015181600101556040820151816002015560608201518160030190805190602001906111c4929190611df4565b50608082015181600401555050506001600380549050036004600088815260200190815260200160002081905550505050505050565b6112ae6204d2976040518060400160405280600a81526020017f323032312d31312d3031000000000000000000000000000000000000000000008152506103526109d46040518060400160405280601781526020017f576f6c76657268616d70746f6e2057616e6465726572730000000000000000008152506040518060400160405280600a81526020017f45766572746f6e20464300000000000000000000000000000000000000000000815250611b9a565b6113626204d29b6040518060400160405280600a81526020017f323032312d31302d3330000000000000000000000000000000000000000000008152506103516109dc6040518060400160405280601081526020017f4e6577636173746c6520556e69746564000000000000000000000000000000008152506040518060400160405280600a81526020017f4368656c73656120464300000000000000000000000000000000000000000000815250611b9a565b6114166204d29f6040518060400160405280600a81526020017f323032312d31302d33300000000000000000000000000000000000000000000081525061308e6109db6040518060400160405280601181526020017f546f7474656e68616d20486f74737075720000000000000000000000000000008152506040518060400160405280601181526020017f4d616e6368657374657220556e69746564000000000000000000000000000000815250611b9a565b6114ca6204d2a36040518060400160405280600a81526020017f323032312d31302d3330000000000000000000000000000000000000000000008152506109d16109e96040518060400160405280600a81526020017f4275726e6c6579204643000000000000000000000000000000000000000000008152506040518060400160405280600c81526020017f4272656e74666f72642046430000000000000000000000000000000000000000815250611b9a565b61157e6204d2a76040518060400160405280600a81526020017f323032312d31302d3330000000000000000000000000000000000000000000008152506109cd6109d66040518060400160405280600c81526020017f4c69766572706f6f6c20464300000000000000000000000000000000000000008152506040518060400160405280601681526020017f4272696768746f6e202620486f766520416c62696f6e00000000000000000000815250611b9a565b6116326204d2ab6040518060400160405280600a81526020017f323032312d31302d3331000000000000000000000000000000000000000000008152506109ce6109f26040518060400160405280600c81526020017f4e6f7277696368204369747900000000000000000000000000000000000000008152506040518060400160405280600c81526020017f4c6565647320556e697465640000000000000000000000000000000000000000815250611b9a565b6116e66204d2ae6040518060400160405280600a81526020017f323032312d31302d3330000000000000000000000000000000000000000000008152506130886109da6040518060400160405280600e81526020017f4c656963657374657220436974790000000000000000000000000000000000008152506040518060400160405280600a81526020017f417273656e616c20464300000000000000000000000000000000000000000000815250611b9a565b61179a6204d2b26040518060400160405280600a81526020017f323032312d31302d3330000000000000000000000000000000000000000000008152506130706109d36040518060400160405280600f81526020017f4d616e63686573746572204369747900000000000000000000000000000000008152506040518060400160405280600e81526020017f4372797374616c2050616c616365000000000000000000000000000000000000815250611b9a565b61184e6204d2b66040518060400160405280600a81526020017f323032312d31302d3330000000000000000000000000000000000000000000008152506109d5610b8f6040518060400160405280600a81526020017f576174666f7264204643000000000000000000000000000000000000000000008152506040518060400160405280600e81526020017f536f757468616d70746f6e204643000000000000000000000000000000000000815250611b9a565b6119026204d2ba6040518060400160405280600a81526020017f323032312d31302d3331000000000000000000000000000000000000000000008152506109d86130716040518060400160405280600b81526020017f4173746f6e2056696c6c610000000000000000000000000000000000000000008152506040518060400160405280600f81526020017f576573742048616d20556e697465640000000000000000000000000000000000815250611b9a565b565b6000806000611911611e74565b600360046000878152602001908152602001600020548154811061193157fe5b90600052602060002090600502016040518060a00160405290816000820160009054906101000a900460ff16600281111561196857fe5b600281111561197357fe5b81526020016001820154815260200160028201548152602001600382018054600181600116156101000203166002900480601f016020809104026020016040519081016040528092919081815260200182805460018160011615610100020316600290048015611a245780601f106119f957610100808354040283529160200191611a24565b820191906000526020600020905b815481529060010190602001808311611a0757829003601f168201915b505050505081526020016004820154815250509050806000015193508060400151925080608001519150509193909250565b6060600080905060008090505b600180549050811015611ab75760018181548110611a7d57fe5b906000526020600020906007020160060160009054906101000a900460ff1615611aaa5781806001019250505b8080600101915050611a63565b50606081604051908082528060200260200182016040528015611ae95781602001602082028038833980820191505090505b5090506000821115611b92576000809050600060018054905090505b6000811115611b8f57600180820381548110611b1d57fe5b906000526020600020906007020160060160009054906101000a900460ff1615611b8157600180820381548110611b5057fe5b906000526020600020906007020160000154838380600101945081518110611b7457fe5b6020026020010181815250505b808060019003915050611b05565b50505b809250505090565b611ba2610f00565b611bab57600080fd5b60016040518060e001604052808881526020018781526020018681526020018581526020018481526020018381526020016001151581525090806001815401808255809150509060018203906000526020600020906007020160009091929091909150600082015181600001556020820151816001019080519060200190611c34929190611df4565b5060408201518160020155606082015181600301556080820151816004019080519060200190611c65929190611df4565b5060a0820151816005019080519060200190611c82929190611df4565b5060c08201518160060160006101000a81548160ff02191690831515021790555050505060018080549050036002600088815260200190815260200160002081905550505050505050565b60038181548110611cda57fe5b90600052602060002090600502016000915090508060000160009054906101000a900460ff1690806001015490806002015490806003018054600181600116156101000203166002900480601f016020809104026020016040519081016040528092919081815260200182805460018160011615610100020316600290048015611da55780601f10611d7a57610100808354040283529160200191611da5565b820191906000526020600020905b815481529060010190602001808311611d8857829003601f168201915b5050505050908060040154905085565b6040518060e001604052806000815260200160608152602001600081526020016000815260200160608152602001606081526020016000151581525090565b828054600181600116156101000203166002900490600052602060002090601f016020900481019282601f10611e3557805160ff1916838001178555611e63565b82800160010185558215611e63579182015b82811115611e62578251825591602001919060010190611e47565b5b509050611e709190611eae565b5090565b6040518060a0016040528060006002811115611e8c57fe5b8152602001600081526020016000815260200160608152602001600081525090565b611ed091905b80821115611ecc576000816000905550600101611eb4565b5090565b9056fea265627a7a7231582091c9c0702497dd953b7411fa03e89d854b9ea6a6d04abd2cd5c1bb563ca1e3fc64736f6c63430005100032",
  "source": "pragma solidity >=0.5.16 <0.9.0;\r\n\r\nimport \"./OracleInterface.sol\";\r\nimport \"./Ownable.sol\";\r\n\r\ncontract SoccerOracle is OracleInterface, Ownable {\r\n\r\n    Match[] public matches;\r\n    mapping (uint256 => uint256) matchIdIndexMapping;\r\n    \r\n    MatchResult[] public matchResults;\r\n    mapping (uint256 => uint256) matchIdResultIndexMapping;\r\n\r\n    constructor() public {\r\n        //this is done to make sure there is a blank match at index 0. Due to the way the mappings work, a missing value results in 0 which would be the first index of the matches[] array. \r\n        //It would be possible to accidentally set the result for the wrong match this way. By having a seeded match in index 0 that is by default invalid this issue is mitigated.\r\n        matches.push(Match({\r\n            match_id: 0,\r\n            match_date: \"\",\r\n            team1_id: 0,\r\n            team2_id: 0,\r\n            team1_name: \"\",\r\n            team2_name: \"\",\r\n            pending: false\r\n        }));\r\n\r\n        matchIdIndexMapping[0] = matches.length - 1;\r\n    }\r\n\r\n    function Validate() external view returns (bool _result) {\r\n        _result = true;\r\n    }\r\n\r\n    function setMatchResult(uint256 matchId, ResultType result, uint256 winner, string calldata final_score) external onlyOwner {\r\n        Match storage _match = matches[matchIdIndexMapping[matchId]];\r\n        require(_match.pending); //make sure this is still a pending match.\r\n\r\n        _match.pending = false;\r\n        matchResults.push(MatchResult({\r\n            match_id: matchId,\r\n            result: result,\r\n            winning_team_id: winner,\r\n            result_time: block.timestamp,\r\n            final_score: final_score\r\n        }));\r\n        matchIdResultIndexMapping[matchId] = matchResults.length-1;\r\n    }\r\n\r\n    function addMatch(uint256 match_id,\r\n                        string calldata match_date,\r\n                        uint256 team1_id,\r\n                        uint256 team2_id,\r\n                        string calldata team1_name,\r\n                        string calldata team2_name) external onlyOwner\r\n    {\r\n        addMatchDetails(match_id, match_date, team1_id, team2_id, team1_name, team2_name);\r\n    }\r\n\r\n    function addMatchDetails(uint256 match_id,\r\n                        string memory match_date,\r\n                        uint256 team1_id,\r\n                        uint256 team2_id,\r\n                        string memory team1_name,\r\n                        string memory team2_name) public onlyOwner\r\n    {\r\n        matches.push(Match({\r\n            match_id: match_id,\r\n            match_date: match_date,\r\n            team1_id: team1_id,\r\n            team2_id: team2_id,\r\n            team1_name: team1_name,\r\n            team2_name: team2_name,\r\n            pending: true\r\n        }));\r\n\r\n        matchIdIndexMapping[match_id] = matches.length - 1;\r\n    }\r\n\r\n    function getAvailableMatches() external view returns (uint256[] memory) {\r\n        uint count = 0; \r\n\r\n        //get count of pending matches \r\n        for (uint i = 0; i < matches.length; i++) {\r\n            if (matches[i].pending) \r\n                count++; \r\n        }\r\n\r\n        //collect up all the pending matches\r\n        uint256[] memory output = new uint256[](count); \r\n\r\n        if (count > 0) {\r\n            uint index = 0;\r\n            for (uint n = matches.length; n > 0; n--) {\r\n                if (matches[n-1].pending) \r\n                    output[index++] = matches[n-1].match_id;\r\n            }\r\n        } \r\n\r\n        return output; \r\n    }\r\n\r\n    function getMatch(uint256 match_id) external view returns (\r\n                                                    uint256 id,\r\n                                                    string memory match_date,\r\n                                                    uint256 team1_id,\r\n                                                    uint256 team2_id,\r\n                                                    string memory team1_name,\r\n                                                    string memory team2_name,\r\n                                                    bool pending) \r\n    {\r\n        Match memory _match = matches[matchIdIndexMapping[match_id]];\r\n        id = _match.match_id;\r\n        match_date = _match.match_date;\r\n        team1_id = _match.team1_id;\r\n        team2_id = _match.team2_id;\r\n        team1_name = _match.team1_name;\r\n        team2_name = _match.team2_name;\r\n        pending = _match.pending;\r\n    }\r\n\r\n    function getMatchResult(uint256 match_id) external view returns (ResultType result,\r\n                                                                    uint256 winning_team_id,\r\n                                                                    uint256 result_time)\r\n    {\r\n        MatchResult memory _matchResult = matchResults[matchIdResultIndexMapping[match_id]];\r\n        result = _matchResult.result;\r\n        winning_team_id = _matchResult.winning_team_id;\r\n        result_time = _matchResult.result_time;\r\n    }\r\n\r\n    function setInitialMatches() external\r\n    {\r\n        addMatchDetails(316055, \"2021-11-01\", 850, 2516, \"Wolverhampton Wanderers\", \"Everton FC\");\r\n        addMatchDetails(316059, \"2021-10-30\", 849, 2524, \"Newcastle United\", \"Chelsea FC\");\r\n        addMatchDetails(316063, \"2021-10-30\", 12430, 2523, \"Tottenham Hotspur\", \"Manchester United\");\r\n        addMatchDetails(316067, \"2021-10-30\", 2513, 2537, \"Burnley FC\", \"Brentford FC\");\r\n        addMatchDetails(316071, \"2021-10-30\", 2509, 2518, \"Liverpool FC\", \"Brighton & Hove Albion\");\r\n        addMatchDetails(316075, \"2021-10-31\", 2510, 2546, \"Norwich City\", \"Leeds United\");\r\n        addMatchDetails(316078, \"2021-10-30\", 12424, 2522, \"Leicester City\", \"Arsenal FC\");\r\n        addMatchDetails(316082, \"2021-10-30\", 12400, 2515, \"Manchester City\", \"Crystal Palace\");\r\n        addMatchDetails(316086, \"2021-10-30\", 2517, 2959, \"Watford FC\", \"Southampton FC\");\r\n        addMatchDetails(316090, \"2021-10-31\", 2520, 12401, \"Aston Villa\", \"West Ham United\");\r\n        // addMatchDetails(316094, \"2021-11-06\", 2523, 12400, \"Manchester United\", \"Manchester City\");\r\n        // addMatchDetails(316099, \"2021-11-06\", 2515, 850, \"Crystal Palace\", \"Wolverhampton Wanderers\");\r\n        // addMatchDetails(316104, \"2021-11-07\", 12401, 2509, \"West Ham United\", \"Liverpool FC\");\r\n        // addMatchDetails(316109, \"2021-11-05\", 2959, 2520, \"Southampton FC\", \"Aston Villa\");\r\n        // addMatchDetails(316112, \"2021-11-06\", 2537, 2510, \"Brentford FC\", \"Norwich City\");\r\n        // addMatchDetails(316116, \"2021-11-06\", 2518, 849, \"Brighton & Hove Albion\", \"Newcastle United\");\r\n        // addMatchDetails(316120, \"2021-11-06\", 2524, 2513, \"Chelsea FC\", \"Burnley FC\");\r\n        // addMatchDetails(316124, \"2021-11-07\", 2516, 12430, \"Everton FC\", \"Tottenham Hotspur\");\r\n        // addMatchDetails(316128, \"2021-11-07\", 2522, 2517, \"Arsenal FC\", \"Watford FC\");\r\n        // addMatchDetails(316132, \"2021-11-07\", 2546, 12424, \"Leeds United\", \"Leicester City\");\r\n        // addMatchDetails(316136, \"2021-11-21\", 12430, 2546, \"Tottenham Hotspur\", \"Leeds United\");\r\n        // addMatchDetails(316140, \"2021-11-20\", 2517, 2523, \"Watford FC\", \"Manchester United\");\r\n        // addMatchDetails(316144, \"2021-11-20\", 849, 2537, \"Newcastle United\", \"Brentford FC\");\r\n        // addMatchDetails(316148, \"2021-11-21\", 12400, 2516, \"Manchester City\", \"Everton FC\");\r\n        // addMatchDetails(316152, \"2021-11-20\", 2510, 2959, \"Norwich City\", \"Southampton FC\");\r\n        // addMatchDetails(316156, \"2021-11-20\", 850, 12401, \"Wolverhampton Wanderers\", \"West Ham United\");\r\n        // addMatchDetails(316160, \"2021-11-20\", 2509, 2522, \"Liverpool FC\", \"Arsenal FC\");\r\n        // addMatchDetails(316164, \"2021-11-20\", 2520, 2518, \"Aston Villa\", \"Brighton & Hove Albion\");\r\n        // addMatchDetails(316167, \"2021-11-20\", 2513, 2515, \"Burnley FC\", \"Crystal Palace\");\r\n        // addMatchDetails(316170, \"2021-11-20\", 12424, 2524, \"Leicester City\", \"Chelsea FC\");\r\n        // addMatchDetails(316173, \"2021-11-27\", 2509, 2959, \"Liverpool FC\", \"Southampton FC\");\r\n        // addMatchDetails(316176, \"2021-11-27\", 2510, 850, \"Norwich City\", \"Wolverhampton Wanderers\");\r\n        // addMatchDetails(316179, \"2021-11-28\", 2524, 2523, \"Chelsea FC\", \"Manchester United\");\r\n        // addMatchDetails(316182, \"2021-11-28\", 12400, 12401, \"Manchester City\", \"West Ham United\");\r\n        // addMatchDetails(316185, \"2021-11-28\", 12424, 2517, \"Leicester City\", \"Watford FC\");\r\n        // addMatchDetails(316188, \"2021-11-28\", 2513, 12430, \"Burnley FC\", \"Tottenham Hotspur\");\r\n        // addMatchDetails(316191, \"2021-11-27\", 2515, 2520, \"Crystal Palace\", \"Aston Villa\");\r\n        // addMatchDetails(316194, \"2021-11-27\", 2522, 849, \"Arsenal FC\", \"Newcastle United\");\r\n        // addMatchDetails(316197, \"2021-11-28\", 2537, 2516, \"Brentford FC\", \"Everton FC\");\r\n        // addMatchDetails(316201, \"2021-11-27\", 2518, 2546, \"Brighton & Hove Albion\", \"Leeds United\");\r\n        // addMatchDetails(316203, \"2021-12-01\", 2517, 2524, \"Watford FC\", \"Chelsea FC\");\r\n        // addMatchDetails(316205, \"2021-12-02\", 2523, 2522, \"Manchester United\", \"Arsenal FC\");\r\n        // addMatchDetails(316208, \"2021-12-01\", 850, 2513, \"Wolverhampton Wanderers\", \"Burnley FC\");\r\n        // addMatchDetails(316209, \"2021-12-01\", 12401, 2518, \"West Ham United\", \"Brighton & Hove Albion\");\r\n        // addMatchDetails(316212, \"2021-12-01\", 2520, 12400, \"Aston Villa\", \"Manchester City\");\r\n        // addMatchDetails(316215, \"2021-11-30\", 2546, 2515, \"Leeds United\", \"Crystal Palace\");\r\n        // addMatchDetails(316219, \"2021-12-01\", 2516, 2509, \"Everton FC\", \"Liverpool FC\");\r\n        // addMatchDetails(316221, \"2021-12-02\", 12430, 2537, \"Tottenham Hotspur\", \"Brentford FC\");\r\n        // addMatchDetails(316224, \"2021-11-30\", 849, 2510, \"Newcastle United\", \"Norwich City\");\r\n        // addMatchDetails(316227, \"2021-12-01\", 2959, 12424, \"Southampton FC\", \"Leicester City\");\r\n        // addMatchDetails(316230, \"2021-12-04\", 12401, 2524, \"West Ham United\", \"Chelsea FC\");\r\n        // addMatchDetails(316236, \"2021-12-06\", 2516, 2522, \"Everton FC\", \"Arsenal FC\");\r\n        // addMatchDetails(316239, \"2021-12-05\", 2523, 2515, \"Manchester United\", \"Crystal Palace\");\r\n        // addMatchDetails(316242, \"2021-12-05\", 2520, 12424, \"Aston Villa\", \"Leicester City\");\r\n        // addMatchDetails(316245, \"2021-12-05\", 2546, 2537, \"Leeds United\", \"Brentford FC\");\r\n        // addMatchDetails(316248, \"2021-12-04\", 2517, 12400, \"Watford FC\", \"Manchester City\");\r\n        // addMatchDetails(316257, \"2021-12-05\", 12430, 2510, \"Tottenham Hotspur\", \"Norwich City\");\r\n        // addMatchDetails(316263, \"2021-12-10\", 2537, 2517, \"Brentford FC\", \"Watford FC\");\r\n        // addMatchDetails(316266, \"2021-12-12\", 2515, 2516, \"Crystal Palace\", \"Everton FC\");\r\n        // addMatchDetails(316269, \"2021-12-11\", 2510, 2523, \"Norwich City\", \"Manchester United\");\r\n        // addMatchDetails(316272, \"2021-12-11\", 12400, 850, \"Manchester City\", \"Wolverhampton Wanderers\");\r\n        // addMatchDetails(316280, \"2021-12-12\", 2518, 12430, \"Brighton & Hove Albion\", \"Tottenham Hotspur\");\r\n        // addMatchDetails(316283, \"2021-12-12\", 2513, 12401, \"Burnley FC\", \"West Ham United\");\r\n        // addMatchDetails(316286, \"2021-12-12\", 12424, 849, \"Leicester City\", \"Newcastle United\");\r\n        // addMatchDetails(316289, \"2021-12-16\", 12424, 12430, \"Leicester City\", \"Tottenham Hotspur\");\r\n        // addMatchDetails(316292, \"2021-12-15\", 2513, 2517, \"Burnley FC\", \"Watford FC\");\r\n        // addMatchDetails(316298, \"2021-12-15\", 2522, 12401, \"Arsenal FC\", \"West Ham United\");\r\n        // addMatchDetails(316301, \"2021-12-14\", 2537, 2523, \"Brentford FC\", \"Manchester United\");\r\n        // addMatchDetails(316304, \"2021-12-15\", 2518, 850, \"Brighton & Hove Albion\", \"Wolverhampton Wanderers\");\r\n        // addMatchDetails(316307, \"2021-12-15\", 2515, 2959, \"Crystal Palace\", \"Southampton FC\");\r\n        // addMatchDetails(316310, \"2021-12-14\", 12400, 2546, \"Manchester City\", \"Leeds United\");\r\n        // addMatchDetails(316313, \"2021-12-16\", 2509, 849, \"Liverpool FC\", \"Newcastle United\");\r\n        // addMatchDetails(316316, \"2021-12-15\", 2524, 2516, \"Chelsea FC\", \"Everton FC\");\r\n    }\r\n}",
  "sourcePath": "E:\\GIT\\blockchain-developer-bootcamp-final-project\\contracts\\SoccerOracle.sol",
  "compiler": {
    "name": "solc",
    "version": "0.5.16+commit.9c3226ce.Emscripten.clang"
  },
  "schemaVersion": "3.4.3",
  "updatedAt": "2021-10-24T22:56:40.091Z",
  "networkType": "ethereum",
  "devdoc": {
    "methods": {
      "isOwner()": {
        "return": "true if `msg.sender` is the owner of the contract."
      },
      "owner()": {
        "return": "the address of the owner."
      }
    }
  },
  "userdoc": {
    "methods": {}
  }
}